{
	"contracts/MockIDXFlow.sol": {
		"MockIDXFlow": {
			"abi": [
				{
					"inputs": [
						{
							"internalType": "address",
							"name": "_token",
							"type": "address"
						}
					],
					"stateMutability": "nonpayable",
					"type": "constructor"
				},
				{
					"inputs": [],
					"name": "AccessControlBadConfirmation",
					"type": "error"
				},
				{
					"inputs": [
						{
							"internalType": "address",
							"name": "account",
							"type": "address"
						},
						{
							"internalType": "bytes32",
							"name": "neededRole",
							"type": "bytes32"
						}
					],
					"name": "AccessControlUnauthorizedAccount",
					"type": "error"
				},
				{
					"anonymous": false,
					"inputs": [
						{
							"indexed": true,
							"internalType": "address",
							"name": "user",
							"type": "address"
						},
						{
							"indexed": false,
							"internalType": "uint256",
							"name": "amount",
							"type": "uint256"
						}
					],
					"name": "RewardsClaimed",
					"type": "event"
				},
				{
					"anonymous": false,
					"inputs": [
						{
							"indexed": true,
							"internalType": "address",
							"name": "user",
							"type": "address"
						},
						{
							"indexed": false,
							"internalType": "uint256",
							"name": "amount",
							"type": "uint256"
						},
						{
							"indexed": false,
							"internalType": "uint256",
							"name": "startEpoch",
							"type": "uint256"
						},
						{
							"indexed": false,
							"internalType": "uint256",
							"name": "vestingEpochs",
							"type": "uint256"
						}
					],
					"name": "RewardsVested",
					"type": "event"
				},
				{
					"anonymous": false,
					"inputs": [
						{
							"indexed": true,
							"internalType": "bytes32",
							"name": "role",
							"type": "bytes32"
						},
						{
							"indexed": true,
							"internalType": "bytes32",
							"name": "previousAdminRole",
							"type": "bytes32"
						},
						{
							"indexed": true,
							"internalType": "bytes32",
							"name": "newAdminRole",
							"type": "bytes32"
						}
					],
					"name": "RoleAdminChanged",
					"type": "event"
				},
				{
					"anonymous": false,
					"inputs": [
						{
							"indexed": true,
							"internalType": "bytes32",
							"name": "role",
							"type": "bytes32"
						},
						{
							"indexed": true,
							"internalType": "address",
							"name": "account",
							"type": "address"
						},
						{
							"indexed": true,
							"internalType": "address",
							"name": "sender",
							"type": "address"
						}
					],
					"name": "RoleGranted",
					"type": "event"
				},
				{
					"anonymous": false,
					"inputs": [
						{
							"indexed": true,
							"internalType": "bytes32",
							"name": "role",
							"type": "bytes32"
						},
						{
							"indexed": true,
							"internalType": "address",
							"name": "account",
							"type": "address"
						},
						{
							"indexed": true,
							"internalType": "address",
							"name": "sender",
							"type": "address"
						}
					],
					"name": "RoleRevoked",
					"type": "event"
				},
				{
					"anonymous": false,
					"inputs": [
						{
							"indexed": true,
							"internalType": "address",
							"name": "user",
							"type": "address"
						},
						{
							"indexed": false,
							"internalType": "uint256",
							"name": "amount",
							"type": "uint256"
						},
						{
							"indexed": false,
							"internalType": "enum MockIDXFlow.FeeTier",
							"name": "tier",
							"type": "uint8"
						}
					],
					"name": "StakeUpdated",
					"type": "event"
				},
				{
					"inputs": [],
					"name": "DEFAULT_ADMIN_ROLE",
					"outputs": [
						{
							"internalType": "bytes32",
							"name": "",
							"type": "bytes32"
						}
					],
					"stateMutability": "view",
					"type": "function"
				},
				{
					"inputs": [],
					"name": "GOVERNOR_ROLE",
					"outputs": [
						{
							"internalType": "bytes32",
							"name": "",
							"type": "bytes32"
						}
					],
					"stateMutability": "view",
					"type": "function"
				},
				{
					"inputs": [],
					"name": "currentEpoch",
					"outputs": [
						{
							"internalType": "uint256",
							"name": "",
							"type": "uint256"
						}
					],
					"stateMutability": "view",
					"type": "function"
				},
				{
					"inputs": [],
					"name": "defaultVestingEpochs",
					"outputs": [
						{
							"internalType": "uint256",
							"name": "",
							"type": "uint256"
						}
					],
					"stateMutability": "view",
					"type": "function"
				},
				{
					"inputs": [
						{
							"internalType": "bytes32",
							"name": "role",
							"type": "bytes32"
						}
					],
					"name": "getRoleAdmin",
					"outputs": [
						{
							"internalType": "bytes32",
							"name": "",
							"type": "bytes32"
						}
					],
					"stateMutability": "view",
					"type": "function"
				},
				{
					"inputs": [
						{
							"internalType": "bytes32",
							"name": "role",
							"type": "bytes32"
						},
						{
							"internalType": "address",
							"name": "account",
							"type": "address"
						}
					],
					"name": "grantRole",
					"outputs": [],
					"stateMutability": "nonpayable",
					"type": "function"
				},
				{
					"inputs": [
						{
							"internalType": "bytes32",
							"name": "role",
							"type": "bytes32"
						},
						{
							"internalType": "address",
							"name": "account",
							"type": "address"
						}
					],
					"name": "hasRole",
					"outputs": [
						{
							"internalType": "bool",
							"name": "",
							"type": "bool"
						}
					],
					"stateMutability": "view",
					"type": "function"
				},
				{
					"inputs": [],
					"name": "minVolumeThreshold",
					"outputs": [
						{
							"internalType": "uint256",
							"name": "",
							"type": "uint256"
						}
					],
					"stateMutability": "view",
					"type": "function"
				},
				{
					"inputs": [
						{
							"internalType": "uint256",
							"name": "volume",
							"type": "uint256"
						}
					],
					"name": "mockClaim",
					"outputs": [],
					"stateMutability": "nonpayable",
					"type": "function"
				},
				{
					"inputs": [
						{
							"internalType": "uint256",
							"name": "amount",
							"type": "uint256"
						}
					],
					"name": "mockStake",
					"outputs": [],
					"stateMutability": "nonpayable",
					"type": "function"
				},
				{
					"inputs": [
						{
							"internalType": "bytes32",
							"name": "role",
							"type": "bytes32"
						},
						{
							"internalType": "address",
							"name": "callerConfirmation",
							"type": "address"
						}
					],
					"name": "renounceRole",
					"outputs": [],
					"stateMutability": "nonpayable",
					"type": "function"
				},
				{
					"inputs": [
						{
							"internalType": "bytes32",
							"name": "role",
							"type": "bytes32"
						},
						{
							"internalType": "address",
							"name": "account",
							"type": "address"
						}
					],
					"name": "revokeRole",
					"outputs": [],
					"stateMutability": "nonpayable",
					"type": "function"
				},
				{
					"inputs": [],
					"name": "rewardRatePerVolume",
					"outputs": [
						{
							"internalType": "uint256",
							"name": "",
							"type": "uint256"
						}
					],
					"stateMutability": "view",
					"type": "function"
				},
				{
					"inputs": [
						{
							"internalType": "address",
							"name": "",
							"type": "address"
						}
					],
					"name": "rewardStreams",
					"outputs": [
						{
							"internalType": "uint256",
							"name": "total",
							"type": "uint256"
						},
						{
							"internalType": "uint256",
							"name": "claimed",
							"type": "uint256"
						},
						{
							"internalType": "uint256",
							"name": "startEpoch",
							"type": "uint256"
						},
						{
							"internalType": "uint256",
							"name": "vestingEpochs",
							"type": "uint256"
						}
					],
					"stateMutability": "view",
					"type": "function"
				},
				{
					"inputs": [
						{
							"internalType": "bytes4",
							"name": "interfaceId",
							"type": "bytes4"
						}
					],
					"name": "supportsInterface",
					"outputs": [
						{
							"internalType": "bool",
							"name": "",
							"type": "bool"
						}
					],
					"stateMutability": "view",
					"type": "function"
				},
				{
					"inputs": [],
					"name": "token",
					"outputs": [
						{
							"internalType": "contract IERC20",
							"name": "",
							"type": "address"
						}
					],
					"stateMutability": "view",
					"type": "function"
				},
				{
					"inputs": [],
					"name": "totalDistributed",
					"outputs": [
						{
							"internalType": "uint256",
							"name": "",
							"type": "uint256"
						}
					],
					"stateMutability": "view",
					"type": "function"
				},
				{
					"inputs": [
						{
							"internalType": "address",
							"name": "",
							"type": "address"
						}
					],
					"name": "users",
					"outputs": [
						{
							"internalType": "uint256",
							"name": "epochVolume",
							"type": "uint256"
						},
						{
							"internalType": "uint256",
							"name": "stakedAmount",
							"type": "uint256"
						},
						{
							"internalType": "enum MockIDXFlow.FeeTier",
							"name": "tier",
							"type": "uint8"
						},
						{
							"internalType": "uint256",
							"name": "lastClaimEpoch",
							"type": "uint256"
						},
						{
							"internalType": "bool",
							"name": "autoCompound",
							"type": "bool"
						}
					],
					"stateMutability": "view",
					"type": "function"
				}
			],
			"devdoc": {
				"details": "Omits external integrations (ZK, LayerZero, ERC-6551) and focuses on fee tiers, staking, rewards, and vesting",
				"errors": {
					"AccessControlBadConfirmation()": [
						{
							"details": "The caller of a function is not the expected one. NOTE: Don't confuse with {AccessControlUnauthorizedAccount}."
						}
					],
					"AccessControlUnauthorizedAccount(address,bytes32)": [
						{
							"details": "The `account` is missing a role."
						}
					]
				},
				"events": {
					"RewardsClaimed(address,uint256)": {
						"params": {
							"amount": "The reward amount",
							"user": "The address receiving rewards"
						}
					},
					"RewardsVested(address,uint256,uint256,uint256)": {
						"params": {
							"amount": "The amount vested",
							"startEpoch": "The epoch when vesting started",
							"user": "The address whose vesting was updated",
							"vestingEpochs": "Number of epochs over which vesting occurs"
						}
					},
					"RoleAdminChanged(bytes32,bytes32,bytes32)": {
						"details": "Emitted when `newAdminRole` is set as ``role``'s admin role, replacing `previousAdminRole` `DEFAULT_ADMIN_ROLE` is the starting admin for all roles, despite {RoleAdminChanged} not being emitted to signal this."
					},
					"RoleGranted(bytes32,address,address)": {
						"details": "Emitted when `account` is granted `role`. `sender` is the account that originated the contract call. This account bears the admin role (for the granted role). Expected in cases where the role was granted using the internal {AccessControl-_grantRole}."
					},
					"RoleRevoked(bytes32,address,address)": {
						"details": "Emitted when `account` is revoked `role`. `sender` is the account that originated the contract call:   - if using `revokeRole`, it is the admin role bearer   - if using `renounceRole`, it is the role bearer (i.e. `account`)"
					},
					"StakeUpdated(address,uint256,uint8)": {
						"params": {
							"amount": "The amount staked",
							"tier": "The user’s resulting fee tier",
							"user": "The address staking tokens"
						}
					}
				},
				"kind": "dev",
				"methods": {
					"constructor": {
						"params": {
							"_token": "The address of the ERC-20 token contract"
						}
					},
					"getRoleAdmin(bytes32)": {
						"details": "Returns the admin role that controls `role`. See {grantRole} and {revokeRole}. To change a role's admin, use {_setRoleAdmin}."
					},
					"grantRole(bytes32,address)": {
						"details": "Grants `role` to `account`. If `account` had not been already granted `role`, emits a {RoleGranted} event. Requirements: - the caller must have ``role``'s admin role. May emit a {RoleGranted} event."
					},
					"hasRole(bytes32,address)": {
						"details": "Returns `true` if `account` has been granted `role`."
					},
					"mockClaim(uint256)": {
						"details": "Requires volume ≥ `minVolumeThreshold` and that the user has not claimed this epoch",
						"params": {
							"volume": "The trading volume used for reward calculation"
						}
					},
					"mockStake(uint256)": {
						"details": "Transfers tokens from sender to this contract, updates tier",
						"params": {
							"amount": "The amount of tokens to stake"
						}
					},
					"renounceRole(bytes32,address)": {
						"details": "Revokes `role` from the calling account. Roles are often managed via {grantRole} and {revokeRole}: this function's purpose is to provide a mechanism for accounts to lose their privileges if they are compromised (such as when a trusted device is misplaced). If the calling account had been revoked `role`, emits a {RoleRevoked} event. Requirements: - the caller must be `callerConfirmation`. May emit a {RoleRevoked} event."
					},
					"revokeRole(bytes32,address)": {
						"details": "Revokes `role` from `account`. If `account` had been granted `role`, emits a {RoleRevoked} event. Requirements: - the caller must have ``role``'s admin role. May emit a {RoleRevoked} event."
					},
					"supportsInterface(bytes4)": {
						"details": "See {IERC165-supportsInterface}."
					}
				},
				"title": "MockIDXFlow",
				"version": 1
			},
			"evm": {
				"assembly": "    /* \"contracts/MockIDXFlow.sol\":412:6164  contract MockIDXFlow is AccessControl {... */\n  mstore(0x40, 0x80)\n    /* \"contracts/MockIDXFlow.sol\":752:753  1 */\n  0x01\n    /* \"contracts/MockIDXFlow.sol\":722:753  uint256 public currentEpoch = 1 */\n  0x02\n  sstore\n    /* \"contracts/MockIDXFlow.sol\":860:863  1e6 */\n  0x0f4240\n    /* \"contracts/MockIDXFlow.sol\":823:863  uint256 public rewardRatePerVolume = 1e6 */\n  0x03\n  sstore\n    /* \"contracts/MockIDXFlow.sol\":973:982  100 * 1e6 */\n  0x05f5e100\n    /* \"contracts/MockIDXFlow.sol\":937:982  uint256 public minVolumeThreshold = 100 * 1e6 */\n  0x04\n  sstore\n    /* \"contracts/MockIDXFlow.sol\":1179:1180  4 */\n  0x04\n    /* \"contracts/MockIDXFlow.sol\":1141:1180  uint256 public defaultVestingEpochs = 4 */\n  0x06\n  sstore\n    /* \"contracts/MockIDXFlow.sol\":3180:3346  constructor(address _token) {... */\n  callvalue\n  dup1\n  iszero\n  tag_1\n  jumpi\n  revert(0x00, 0x00)\ntag_1:\n  pop\n  mload(0x40)\n  sub(codesize, bytecodeSize)\n  dup1\n  bytecodeSize\n  dup4\n  codecopy\n  dup2\n  dup2\n  add\n  0x40\n  mstore\n  dup2\n  add\n  swap1\n  tag_2\n  swap2\n  swap1\n  tag_3\n  jump\t// in\ntag_2:\n    /* \"contracts/MockIDXFlow.sol\":3233:3239  _token */\n  dup1\n    /* \"contracts/MockIDXFlow.sol\":3218:3223  token */\n  0x01\n  0x00\n    /* \"contracts/MockIDXFlow.sol\":3218:3240  token = IERC20(_token) */\n  0x0100\n  exp\n  dup2\n  sload\n  dup2\n  0xffffffffffffffffffffffffffffffffffffffff\n  mul\n  not\n  and\n  swap1\n  dup4\n  0xffffffffffffffffffffffffffffffffffffffff\n  and\n  mul\n  or\n  swap1\n  sstore\n  pop\n    /* \"contracts/MockIDXFlow.sol\":3250:3292  _grantRole(DEFAULT_ADMIN_ROLE, msg.sender) */\n  tag_6\n    /* \"@openzeppelin/contracts/access/AccessControl.sol\":2232:2236  0x00 */\n  0x00\n    /* \"contracts/MockIDXFlow.sol\":3261:3279  DEFAULT_ADMIN_ROLE */\n  0x00\n  shl\n    /* \"contracts/MockIDXFlow.sol\":3281:3291  msg.sender */\n  caller\n    /* \"contracts/MockIDXFlow.sol\":3250:3260  _grantRole */\n  shl(0x20, tag_7)\n    /* \"contracts/MockIDXFlow.sol\":3250:3292  _grantRole(DEFAULT_ADMIN_ROLE, msg.sender) */\n  0x20\n  shr\n  jump\t// in\ntag_6:\n  pop\n    /* \"contracts/MockIDXFlow.sol\":3302:3339  _grantRole(GOVERNOR_ROLE, msg.sender) */\n  tag_8\n    /* \"contracts/MockIDXFlow.sol\":651:677  keccak256(\"GOVERNOR_ROLE\") */\n  0x7935bd0ae54bc31f548c14dba4d37c5c64b3f8ca900cb468fb8abd54d5894f55\n    /* \"contracts/MockIDXFlow.sol\":3328:3338  msg.sender */\n  caller\n    /* \"contracts/MockIDXFlow.sol\":3302:3312  _grantRole */\n  shl(0x20, tag_7)\n    /* \"contracts/MockIDXFlow.sol\":3302:3339  _grantRole(GOVERNOR_ROLE, msg.sender) */\n  0x20\n  shr\n  jump\t// in\ntag_8:\n  pop\n    /* \"contracts/MockIDXFlow.sol\":3180:3346  constructor(address _token) {... */\n  pop\n    /* \"contracts/MockIDXFlow.sol\":412:6164  contract MockIDXFlow is AccessControl {... */\n  jump(tag_9)\n    /* \"@openzeppelin/contracts/access/AccessControl.sol\":6179:6495  function _grantRole(bytes32 role, address account) internal virtual returns (bool) {... */\ntag_7:\n    /* \"@openzeppelin/contracts/access/AccessControl.sol\":6256:6260  bool */\n  0x00\n    /* \"@openzeppelin/contracts/access/AccessControl.sol\":6277:6299  hasRole(role, account) */\n  tag_11\n    /* \"@openzeppelin/contracts/access/AccessControl.sol\":6285:6289  role */\n  dup4\n    /* \"@openzeppelin/contracts/access/AccessControl.sol\":6291:6298  account */\n  dup4\n    /* \"@openzeppelin/contracts/access/AccessControl.sol\":6277:6284  hasRole */\n  shl(0x20, tag_12)\n    /* \"@openzeppelin/contracts/access/AccessControl.sol\":6277:6299  hasRole(role, account) */\n  0x20\n  shr\n  jump\t// in\ntag_11:\n    /* \"@openzeppelin/contracts/access/AccessControl.sol\":6272:6489  if (!hasRole(role, account)) {... */\n  tag_13\n  jumpi\n    /* \"@openzeppelin/contracts/access/AccessControl.sol\":6347:6351  true */\n  0x01\n    /* \"@openzeppelin/contracts/access/AccessControl.sol\":6315:6321  _roles */\n  0x00\n    /* \"@openzeppelin/contracts/access/AccessControl.sol\":6315:6327  _roles[role] */\n  0x00\n    /* \"@openzeppelin/contracts/access/AccessControl.sol\":6322:6326  role */\n  dup6\n    /* \"@openzeppelin/contracts/access/AccessControl.sol\":6315:6327  _roles[role] */\n  dup2\n  mstore\n  0x20\n  add\n  swap1\n  dup2\n  mstore\n  0x20\n  add\n  0x00\n  keccak256\n    /* \"@openzeppelin/contracts/access/AccessControl.sol\":6315:6335  _roles[role].hasRole */\n  0x00\n  add\n    /* \"@openzeppelin/contracts/access/AccessControl.sol\":6315:6344  _roles[role].hasRole[account] */\n  0x00\n    /* \"@openzeppelin/contracts/access/AccessControl.sol\":6336:6343  account */\n  dup5\n    /* \"@openzeppelin/contracts/access/AccessControl.sol\":6315:6344  _roles[role].hasRole[account] */\n  0xffffffffffffffffffffffffffffffffffffffff\n  and\n  0xffffffffffffffffffffffffffffffffffffffff\n  and\n  dup2\n  mstore\n  0x20\n  add\n  swap1\n  dup2\n  mstore\n  0x20\n  add\n  0x00\n  keccak256\n  0x00\n    /* \"@openzeppelin/contracts/access/AccessControl.sol\":6315:6351  _roles[role].hasRole[account] = true */\n  0x0100\n  exp\n  dup2\n  sload\n  dup2\n  0xff\n  mul\n  not\n  and\n  swap1\n  dup4\n  iszero\n  iszero\n  mul\n  or\n  swap1\n  sstore\n  pop\n    /* \"@openzeppelin/contracts/access/AccessControl.sol\":6397:6409  _msgSender() */\n  tag_14\n    /* \"@openzeppelin/contracts/access/AccessControl.sol\":6397:6407  _msgSender */\n  shl(0x20, tag_15)\n    /* \"@openzeppelin/contracts/access/AccessControl.sol\":6397:6409  _msgSender() */\n  0x20\n  shr\n  jump\t// in\ntag_14:\n    /* \"@openzeppelin/contracts/access/AccessControl.sol\":6370:6410  RoleGranted(role, account, _msgSender()) */\n  0xffffffffffffffffffffffffffffffffffffffff\n  and\n    /* \"@openzeppelin/contracts/access/AccessControl.sol\":6388:6395  account */\n  dup3\n    /* \"@openzeppelin/contracts/access/AccessControl.sol\":6370:6410  RoleGranted(role, account, _msgSender()) */\n  0xffffffffffffffffffffffffffffffffffffffff\n  and\n    /* \"@openzeppelin/contracts/access/AccessControl.sol\":6382:6386  role */\n  dup5\n    /* \"@openzeppelin/contracts/access/AccessControl.sol\":6370:6410  RoleGranted(role, account, _msgSender()) */\n  0x2f8788117e7eff1d82e926ec794901d17c78024a50270940304540a733656f0d\n  mload(0x40)\n  mload(0x40)\n  dup1\n  swap2\n  sub\n  swap1\n  log4\n    /* \"@openzeppelin/contracts/access/AccessControl.sol\":6431:6435  true */\n  0x01\n    /* \"@openzeppelin/contracts/access/AccessControl.sol\":6424:6435  return true */\n  swap1\n  pop\n  jump(tag_10)\n    /* \"@openzeppelin/contracts/access/AccessControl.sol\":6272:6489  if (!hasRole(role, account)) {... */\ntag_13:\n    /* \"@openzeppelin/contracts/access/AccessControl.sol\":6473:6478  false */\n  0x00\n    /* \"@openzeppelin/contracts/access/AccessControl.sol\":6466:6478  return false */\n  swap1\n  pop\n    /* \"@openzeppelin/contracts/access/AccessControl.sol\":6179:6495  function _grantRole(bytes32 role, address account) internal virtual returns (bool) {... */\ntag_10:\n  swap3\n  swap2\n  pop\n  pop\n  jump\t// out\n    /* \"@openzeppelin/contracts/access/AccessControl.sol\":2854:2990  function hasRole(bytes32 role, address account) public view virtual returns (bool) {... */\ntag_12:\n    /* \"@openzeppelin/contracts/access/AccessControl.sol\":2931:2935  bool */\n  0x00\n    /* \"@openzeppelin/contracts/access/AccessControl.sol\":2954:2960  _roles */\n  0x00\n    /* \"@openzeppelin/contracts/access/AccessControl.sol\":2954:2966  _roles[role] */\n  0x00\n    /* \"@openzeppelin/contracts/access/AccessControl.sol\":2961:2965  role */\n  dup5\n    /* \"@openzeppelin/contracts/access/AccessControl.sol\":2954:2966  _roles[role] */\n  dup2\n  mstore\n  0x20\n  add\n  swap1\n  dup2\n  mstore\n  0x20\n  add\n  0x00\n  keccak256\n    /* \"@openzeppelin/contracts/access/AccessControl.sol\":2954:2974  _roles[role].hasRole */\n  0x00\n  add\n    /* \"@openzeppelin/contracts/access/AccessControl.sol\":2954:2983  _roles[role].hasRole[account] */\n  0x00\n    /* \"@openzeppelin/contracts/access/AccessControl.sol\":2975:2982  account */\n  dup4\n    /* \"@openzeppelin/contracts/access/AccessControl.sol\":2954:2983  _roles[role].hasRole[account] */\n  0xffffffffffffffffffffffffffffffffffffffff\n  and\n  0xffffffffffffffffffffffffffffffffffffffff\n  and\n  dup2\n  mstore\n  0x20\n  add\n  swap1\n  dup2\n  mstore\n  0x20\n  add\n  0x00\n  keccak256\n  0x00\n  swap1\n  sload\n  swap1\n  0x0100\n  exp\n  swap1\n  div\n  0xff\n  and\n    /* \"@openzeppelin/contracts/access/AccessControl.sol\":2947:2983  return _roles[role].hasRole[account] */\n  swap1\n  pop\n    /* \"@openzeppelin/contracts/access/AccessControl.sol\":2854:2990  function hasRole(bytes32 role, address account) public view virtual returns (bool) {... */\n  swap3\n  swap2\n  pop\n  pop\n  jump\t// out\n    /* \"@openzeppelin/contracts/utils/Context.sol\":656:752  function _msgSender() internal view virtual returns (address) {... */\ntag_15:\n    /* \"@openzeppelin/contracts/utils/Context.sol\":709:716  address */\n  0x00\n    /* \"@openzeppelin/contracts/utils/Context.sol\":735:745  msg.sender */\n  caller\n    /* \"@openzeppelin/contracts/utils/Context.sol\":728:745  return msg.sender */\n  swap1\n  pop\n    /* \"@openzeppelin/contracts/utils/Context.sol\":656:752  function _msgSender() internal view virtual returns (address) {... */\n  swap1\n  jump\t// out\n    /* \"#utility.yul\":88:205   */\ntag_20:\n    /* \"#utility.yul\":197:198   */\n  0x00\n    /* \"#utility.yul\":194:195   */\n  0x00\n    /* \"#utility.yul\":187:199   */\n  revert\n    /* \"#utility.yul\":334:460   */\ntag_22:\n    /* \"#utility.yul\":371:378   */\n  0x00\n    /* \"#utility.yul\":411:453   */\n  0xffffffffffffffffffffffffffffffffffffffff\n    /* \"#utility.yul\":404:409   */\n  dup3\n    /* \"#utility.yul\":400:454   */\n  and\n    /* \"#utility.yul\":389:454   */\n  swap1\n  pop\n    /* \"#utility.yul\":334:460   */\n  swap2\n  swap1\n  pop\n  jump\t// out\n    /* \"#utility.yul\":466:562   */\ntag_23:\n    /* \"#utility.yul\":503:510   */\n  0x00\n    /* \"#utility.yul\":532:556   */\n  tag_32\n    /* \"#utility.yul\":550:555   */\n  dup3\n    /* \"#utility.yul\":532:556   */\n  tag_22\n  jump\t// in\ntag_32:\n    /* \"#utility.yul\":521:556   */\n  swap1\n  pop\n    /* \"#utility.yul\":466:562   */\n  swap2\n  swap1\n  pop\n  jump\t// out\n    /* \"#utility.yul\":568:690   */\ntag_24:\n    /* \"#utility.yul\":641:665   */\n  tag_34\n    /* \"#utility.yul\":659:664   */\n  dup2\n    /* \"#utility.yul\":641:665   */\n  tag_23\n  jump\t// in\ntag_34:\n    /* \"#utility.yul\":634:639   */\n  dup2\n    /* \"#utility.yul\":631:666   */\n  eq\n    /* \"#utility.yul\":621:684   */\n  tag_35\n  jumpi\n    /* \"#utility.yul\":680:681   */\n  0x00\n    /* \"#utility.yul\":677:678   */\n  0x00\n    /* \"#utility.yul\":670:682   */\n  revert\n    /* \"#utility.yul\":621:684   */\ntag_35:\n    /* \"#utility.yul\":568:690   */\n  pop\n  jump\t// out\n    /* \"#utility.yul\":696:839   */\ntag_25:\n    /* \"#utility.yul\":753:758   */\n  0x00\n    /* \"#utility.yul\":784:790   */\n  dup2\n    /* \"#utility.yul\":778:791   */\n  mload\n    /* \"#utility.yul\":769:791   */\n  swap1\n  pop\n    /* \"#utility.yul\":800:833   */\n  tag_37\n    /* \"#utility.yul\":827:832   */\n  dup2\n    /* \"#utility.yul\":800:833   */\n  tag_24\n  jump\t// in\ntag_37:\n    /* \"#utility.yul\":696:839   */\n  swap3\n  swap2\n  pop\n  pop\n  jump\t// out\n    /* \"#utility.yul\":845:1196   */\ntag_3:\n    /* \"#utility.yul\":915:921   */\n  0x00\n    /* \"#utility.yul\":964:966   */\n  0x20\n    /* \"#utility.yul\":952:961   */\n  dup3\n    /* \"#utility.yul\":943:950   */\n  dup5\n    /* \"#utility.yul\":939:962   */\n  sub\n    /* \"#utility.yul\":935:967   */\n  slt\n    /* \"#utility.yul\":932:1051   */\n  iszero\n  tag_39\n  jumpi\n    /* \"#utility.yul\":970:1049   */\n  tag_40\n  tag_20\n  jump\t// in\ntag_40:\n    /* \"#utility.yul\":932:1051   */\ntag_39:\n    /* \"#utility.yul\":1090:1091   */\n  0x00\n    /* \"#utility.yul\":1115:1179   */\n  tag_41\n    /* \"#utility.yul\":1171:1178   */\n  dup5\n    /* \"#utility.yul\":1162:1168   */\n  dup3\n    /* \"#utility.yul\":1151:1160   */\n  dup6\n    /* \"#utility.yul\":1147:1169   */\n  add\n    /* \"#utility.yul\":1115:1179   */\n  tag_25\n  jump\t// in\ntag_41:\n    /* \"#utility.yul\":1105:1179   */\n  swap2\n  pop\n    /* \"#utility.yul\":1061:1189   */\n  pop\n    /* \"#utility.yul\":845:1196   */\n  swap3\n  swap2\n  pop\n  pop\n  jump\t// out\n    /* \"contracts/MockIDXFlow.sol\":412:6164  contract MockIDXFlow is AccessControl {... */\ntag_9:\n  dataSize(sub_0)\n  dup1\n  dataOffset(sub_0)\n  0x00\n  codecopy\n  0x00\n  return\nstop\n\nsub_0: assembly {\n        /* \"contracts/MockIDXFlow.sol\":412:6164  contract MockIDXFlow is AccessControl {... */\n      mstore(0x40, 0x80)\n      callvalue\n      dup1\n      iszero\n      tag_1\n      jumpi\n      revert(0x00, 0x00)\n    tag_1:\n      pop\n      jumpi(tag_2, lt(calldatasize, 0x04))\n      shr(0xe0, calldataload(0x00))\n      dup1\n      0xa87430ba\n      gt\n      tag_21\n      jumpi\n      dup1\n      0xd547741f\n      gt\n      tag_22\n      jumpi\n      dup1\n      0xd547741f\n      eq\n      tag_16\n      jumpi\n      dup1\n      0xd699b9d9\n      eq\n      tag_17\n      jumpi\n      dup1\n      0xefca2eed\n      eq\n      tag_18\n      jumpi\n      dup1\n      0xf5492e2f\n      eq\n      tag_19\n      jumpi\n      dup1\n      0xfc0c546a\n      eq\n      tag_20\n      jumpi\n      jump(tag_2)\n    tag_22:\n      dup1\n      0xa87430ba\n      eq\n      tag_12\n      jumpi\n      dup1\n      0xa969ccef\n      eq\n      tag_13\n      jumpi\n      dup1\n      0xaf0fe497\n      eq\n      tag_14\n      jumpi\n      dup1\n      0xccc57490\n      eq\n      tag_15\n      jumpi\n      jump(tag_2)\n    tag_21:\n      dup1\n      0x76671808\n      gt\n      tag_23\n      jumpi\n      dup1\n      0x76671808\n      eq\n      tag_7\n      jumpi\n      dup1\n      0x8209ce30\n      eq\n      tag_8\n      jumpi\n      dup1\n      0x91d14854\n      eq\n      tag_9\n      jumpi\n      dup1\n      0xa217fddf\n      eq\n      tag_10\n      jumpi\n      dup1\n      0xa344c499\n      eq\n      tag_11\n      jumpi\n      jump(tag_2)\n    tag_23:\n      dup1\n      0x01ffc9a7\n      eq\n      tag_3\n      jumpi\n      dup1\n      0x248a9ca3\n      eq\n      tag_4\n      jumpi\n      dup1\n      0x2f2ff15d\n      eq\n      tag_5\n      jumpi\n      dup1\n      0x36568abe\n      eq\n      tag_6\n      jumpi\n    tag_2:\n      revert(0x00, 0x00)\n        /* \"@openzeppelin/contracts/access/AccessControl.sol\":2565:2767  function supportsInterface(bytes4 interfaceId) public view virtual override returns (bool) {... */\n    tag_3:\n      tag_24\n      0x04\n      dup1\n      calldatasize\n      sub\n      dup2\n      add\n      swap1\n      tag_25\n      swap2\n      swap1\n      tag_26\n      jump\t// in\n    tag_25:\n      tag_27\n      jump\t// in\n    tag_24:\n      mload(0x40)\n      tag_28\n      swap2\n      swap1\n      tag_29\n      jump\t// in\n    tag_28:\n      mload(0x40)\n      dup1\n      swap2\n      sub\n      swap1\n      return\n        /* \"@openzeppelin/contracts/access/AccessControl.sol\":3810:3930  function getRoleAdmin(bytes32 role) public view virtual returns (bytes32) {... */\n    tag_4:\n      tag_30\n      0x04\n      dup1\n      calldatasize\n      sub\n      dup2\n      add\n      swap1\n      tag_31\n      swap2\n      swap1\n      tag_32\n      jump\t// in\n    tag_31:\n      tag_33\n      jump\t// in\n    tag_30:\n      mload(0x40)\n      tag_34\n      swap2\n      swap1\n      tag_35\n      jump\t// in\n    tag_34:\n      mload(0x40)\n      dup1\n      swap2\n      sub\n      swap1\n      return\n        /* \"@openzeppelin/contracts/access/AccessControl.sol\":4226:4362  function grantRole(bytes32 role, address account) public virtual onlyRole(getRoleAdmin(role)) {... */\n    tag_5:\n      tag_36\n      0x04\n      dup1\n      calldatasize\n      sub\n      dup2\n      add\n      swap1\n      tag_37\n      swap2\n      swap1\n      tag_38\n      jump\t// in\n    tag_37:\n      tag_39\n      jump\t// in\n    tag_36:\n      stop\n        /* \"@openzeppelin/contracts/access/AccessControl.sol\":5328:5573  function renounceRole(bytes32 role, address callerConfirmation) public virtual {... */\n    tag_6:\n      tag_40\n      0x04\n      dup1\n      calldatasize\n      sub\n      dup2\n      add\n      swap1\n      tag_41\n      swap2\n      swap1\n      tag_38\n      jump\t// in\n    tag_41:\n      tag_42\n      jump\t// in\n    tag_40:\n      stop\n        /* \"contracts/MockIDXFlow.sol\":722:753  uint256 public currentEpoch = 1 */\n    tag_7:\n      tag_43\n      tag_44\n      jump\t// in\n    tag_43:\n      mload(0x40)\n      tag_45\n      swap2\n      swap1\n      tag_46\n      jump\t// in\n    tag_45:\n      mload(0x40)\n      dup1\n      swap2\n      sub\n      swap1\n      return\n        /* \"contracts/MockIDXFlow.sol\":937:982  uint256 public minVolumeThreshold = 100 * 1e6 */\n    tag_8:\n      tag_47\n      tag_48\n      jump\t// in\n    tag_47:\n      mload(0x40)\n      tag_49\n      swap2\n      swap1\n      tag_46\n      jump\t// in\n    tag_49:\n      mload(0x40)\n      dup1\n      swap2\n      sub\n      swap1\n      return\n        /* \"@openzeppelin/contracts/access/AccessControl.sol\":2854:2990  function hasRole(bytes32 role, address account) public view virtual returns (bool) {... */\n    tag_9:\n      tag_50\n      0x04\n      dup1\n      calldatasize\n      sub\n      dup2\n      add\n      swap1\n      tag_51\n      swap2\n      swap1\n      tag_38\n      jump\t// in\n    tag_51:\n      tag_52\n      jump\t// in\n    tag_50:\n      mload(0x40)\n      tag_53\n      swap2\n      swap1\n      tag_29\n      jump\t// in\n    tag_53:\n      mload(0x40)\n      dup1\n      swap2\n      sub\n      swap1\n      return\n        /* \"@openzeppelin/contracts/access/AccessControl.sol\":2187:2236  bytes32 public constant DEFAULT_ADMIN_ROLE = 0x00 */\n    tag_10:\n      tag_54\n      tag_55\n      jump\t// in\n    tag_54:\n      mload(0x40)\n      tag_56\n      swap2\n      swap1\n      tag_35\n      jump\t// in\n    tag_56:\n      mload(0x40)\n      dup1\n      swap2\n      sub\n      swap1\n      return\n        /* \"contracts/MockIDXFlow.sol\":1141:1180  uint256 public defaultVestingEpochs = 4 */\n    tag_11:\n      tag_57\n      tag_58\n      jump\t// in\n    tag_57:\n      mload(0x40)\n      tag_59\n      swap2\n      swap1\n      tag_46\n      jump\t// in\n    tag_59:\n      mload(0x40)\n      dup1\n      swap2\n      sub\n      swap1\n      return\n        /* \"contracts/MockIDXFlow.sol\":2034:2075  mapping(address => UserInfo) public users */\n    tag_12:\n      tag_60\n      0x04\n      dup1\n      calldatasize\n      sub\n      dup2\n      add\n      swap1\n      tag_61\n      swap2\n      swap1\n      tag_62\n      jump\t// in\n    tag_61:\n      tag_63\n      jump\t// in\n    tag_60:\n      mload(0x40)\n      tag_64\n      swap6\n      swap5\n      swap4\n      swap3\n      swap2\n      swap1\n      tag_65\n      jump\t// in\n    tag_64:\n      mload(0x40)\n      dup1\n      swap2\n      sub\n      swap1\n      return\n        /* \"contracts/MockIDXFlow.sol\":4062:5181  function mockClaim(uint256 volume) external {... */\n    tag_13:\n      tag_66\n      0x04\n      dup1\n      calldatasize\n      sub\n      dup2\n      add\n      swap1\n      tag_67\n      swap2\n      swap1\n      tag_68\n      jump\t// in\n    tag_67:\n      tag_69\n      jump\t// in\n    tag_66:\n      stop\n        /* \"contracts/MockIDXFlow.sol\":3529:3832  function mockStake(uint256 amount) external {... */\n    tag_14:\n      tag_70\n      0x04\n      dup1\n      calldatasize\n      sub\n      dup2\n      add\n      swap1\n      tag_71\n      swap2\n      swap1\n      tag_68\n      jump\t// in\n    tag_71:\n      tag_72\n      jump\t// in\n    tag_70:\n      stop\n        /* \"contracts/MockIDXFlow.sol\":611:677  bytes32 public constant GOVERNOR_ROLE = keccak256(\"GOVERNOR_ROLE\") */\n    tag_15:\n      tag_73\n      tag_74\n      jump\t// in\n    tag_73:\n      mload(0x40)\n      tag_75\n      swap2\n      swap1\n      tag_35\n      jump\t// in\n    tag_75:\n      mload(0x40)\n      dup1\n      swap2\n      sub\n      swap1\n      return\n        /* \"@openzeppelin/contracts/access/AccessControl.sol\":4642:4780  function revokeRole(bytes32 role, address account) public virtual onlyRole(getRoleAdmin(role)) {... */\n    tag_16:\n      tag_76\n      0x04\n      dup1\n      calldatasize\n      sub\n      dup2\n      add\n      swap1\n      tag_77\n      swap2\n      swap1\n      tag_38\n      jump\t// in\n    tag_77:\n      tag_78\n      jump\t// in\n    tag_76:\n      stop\n        /* \"contracts/MockIDXFlow.sol\":823:863  uint256 public rewardRatePerVolume = 1e6 */\n    tag_17:\n      tag_79\n      tag_80\n      jump\t// in\n    tag_79:\n      mload(0x40)\n      tag_81\n      swap2\n      swap1\n      tag_46\n      jump\t// in\n    tag_81:\n      mload(0x40)\n      dup1\n      swap2\n      sub\n      swap1\n      return\n        /* \"contracts/MockIDXFlow.sol\":1038:1069  uint256 public totalDistributed */\n    tag_18:\n      tag_82\n      tag_83\n      jump\t// in\n    tag_82:\n      mload(0x40)\n      tag_84\n      swap2\n      swap1\n      tag_46\n      jump\t// in\n    tag_84:\n      mload(0x40)\n      dup1\n      swap2\n      sub\n      swap1\n      return\n        /* \"contracts/MockIDXFlow.sol\":2122:2175  mapping(address => RewardStream) public rewardStreams */\n    tag_19:\n      tag_85\n      0x04\n      dup1\n      calldatasize\n      sub\n      dup2\n      add\n      swap1\n      tag_86\n      swap2\n      swap1\n      tag_62\n      jump\t// in\n    tag_86:\n      tag_87\n      jump\t// in\n    tag_85:\n      mload(0x40)\n      tag_88\n      swap5\n      swap4\n      swap3\n      swap2\n      swap1\n      tag_89\n      jump\t// in\n    tag_88:\n      mload(0x40)\n      dup1\n      swap2\n      sub\n      swap1\n      return\n        /* \"contracts/MockIDXFlow.sol\":526:545  IERC20 public token */\n    tag_20:\n      tag_90\n      tag_91\n      jump\t// in\n    tag_90:\n      mload(0x40)\n      tag_92\n      swap2\n      swap1\n      tag_93\n      jump\t// in\n    tag_92:\n      mload(0x40)\n      dup1\n      swap2\n      sub\n      swap1\n      return\n        /* \"@openzeppelin/contracts/access/AccessControl.sol\":2565:2767  function supportsInterface(bytes4 interfaceId) public view virtual override returns (bool) {... */\n    tag_27:\n        /* \"@openzeppelin/contracts/access/AccessControl.sol\":2650:2654  bool */\n      0x00\n        /* \"@openzeppelin/contracts/access/AccessControl.sol\":2688:2720  type(IAccessControl).interfaceId */\n      0x7965db0b00000000000000000000000000000000000000000000000000000000\n        /* \"@openzeppelin/contracts/access/AccessControl.sol\":2673:2720  interfaceId == type(IAccessControl).interfaceId */\n      not(0xffffffffffffffffffffffffffffffffffffffffffffffffffffffff)\n      and\n        /* \"@openzeppelin/contracts/access/AccessControl.sol\":2673:2684  interfaceId */\n      dup3\n        /* \"@openzeppelin/contracts/access/AccessControl.sol\":2673:2720  interfaceId == type(IAccessControl).interfaceId */\n      not(0xffffffffffffffffffffffffffffffffffffffffffffffffffffffff)\n      and\n      eq\n        /* \"@openzeppelin/contracts/access/AccessControl.sol\":2673:2760  interfaceId == type(IAccessControl).interfaceId || super.supportsInterface(interfaceId) */\n      dup1\n      tag_95\n      jumpi\n      pop\n        /* \"@openzeppelin/contracts/access/AccessControl.sol\":2724:2760  super.supportsInterface(interfaceId) */\n      tag_96\n        /* \"@openzeppelin/contracts/access/AccessControl.sol\":2748:2759  interfaceId */\n      dup3\n        /* \"@openzeppelin/contracts/access/AccessControl.sol\":2724:2747  super.supportsInterface */\n      tag_97\n        /* \"@openzeppelin/contracts/access/AccessControl.sol\":2724:2760  super.supportsInterface(interfaceId) */\n      jump\t// in\n    tag_96:\n        /* \"@openzeppelin/contracts/access/AccessControl.sol\":2673:2760  interfaceId == type(IAccessControl).interfaceId || super.supportsInterface(interfaceId) */\n    tag_95:\n        /* \"@openzeppelin/contracts/access/AccessControl.sol\":2666:2760  return interfaceId == type(IAccessControl).interfaceId || super.supportsInterface(interfaceId) */\n      swap1\n      pop\n        /* \"@openzeppelin/contracts/access/AccessControl.sol\":2565:2767  function supportsInterface(bytes4 interfaceId) public view virtual override returns (bool) {... */\n      swap2\n      swap1\n      pop\n      jump\t// out\n        /* \"@openzeppelin/contracts/access/AccessControl.sol\":3810:3930  function getRoleAdmin(bytes32 role) public view virtual returns (bytes32) {... */\n    tag_33:\n        /* \"@openzeppelin/contracts/access/AccessControl.sol\":3875:3882  bytes32 */\n      0x00\n        /* \"@openzeppelin/contracts/access/AccessControl.sol\":3901:3907  _roles */\n      0x00\n        /* \"@openzeppelin/contracts/access/AccessControl.sol\":3901:3913  _roles[role] */\n      0x00\n        /* \"@openzeppelin/contracts/access/AccessControl.sol\":3908:3912  role */\n      dup4\n        /* \"@openzeppelin/contracts/access/AccessControl.sol\":3901:3913  _roles[role] */\n      dup2\n      mstore\n      0x20\n      add\n      swap1\n      dup2\n      mstore\n      0x20\n      add\n      0x00\n      keccak256\n        /* \"@openzeppelin/contracts/access/AccessControl.sol\":3901:3923  _roles[role].adminRole */\n      0x01\n      add\n      sload\n        /* \"@openzeppelin/contracts/access/AccessControl.sol\":3894:3923  return _roles[role].adminRole */\n      swap1\n      pop\n        /* \"@openzeppelin/contracts/access/AccessControl.sol\":3810:3930  function getRoleAdmin(bytes32 role) public view virtual returns (bytes32) {... */\n      swap2\n      swap1\n      pop\n      jump\t// out\n        /* \"@openzeppelin/contracts/access/AccessControl.sol\":4226:4362  function grantRole(bytes32 role, address account) public virtual onlyRole(getRoleAdmin(role)) {... */\n    tag_39:\n        /* \"@openzeppelin/contracts/access/AccessControl.sol\":4300:4318  getRoleAdmin(role) */\n      tag_99\n        /* \"@openzeppelin/contracts/access/AccessControl.sol\":4313:4317  role */\n      dup3\n        /* \"@openzeppelin/contracts/access/AccessControl.sol\":4300:4312  getRoleAdmin */\n      tag_33\n        /* \"@openzeppelin/contracts/access/AccessControl.sol\":4300:4318  getRoleAdmin(role) */\n      jump\t// in\n    tag_99:\n        /* \"@openzeppelin/contracts/access/AccessControl.sol\":2464:2480  _checkRole(role) */\n      tag_101\n        /* \"@openzeppelin/contracts/access/AccessControl.sol\":2475:2479  role */\n      dup2\n        /* \"@openzeppelin/contracts/access/AccessControl.sol\":2464:2474  _checkRole */\n      tag_102\n        /* \"@openzeppelin/contracts/access/AccessControl.sol\":2464:2480  _checkRole(role) */\n      jump\t// in\n    tag_101:\n        /* \"@openzeppelin/contracts/access/AccessControl.sol\":4330:4355  _grantRole(role, account) */\n      tag_104\n        /* \"@openzeppelin/contracts/access/AccessControl.sol\":4341:4345  role */\n      dup4\n        /* \"@openzeppelin/contracts/access/AccessControl.sol\":4347:4354  account */\n      dup4\n        /* \"@openzeppelin/contracts/access/AccessControl.sol\":4330:4340  _grantRole */\n      tag_105\n        /* \"@openzeppelin/contracts/access/AccessControl.sol\":4330:4355  _grantRole(role, account) */\n      jump\t// in\n    tag_104:\n      pop\n        /* \"@openzeppelin/contracts/access/AccessControl.sol\":4226:4362  function grantRole(bytes32 role, address account) public virtual onlyRole(getRoleAdmin(role)) {... */\n      pop\n      pop\n      pop\n      jump\t// out\n        /* \"@openzeppelin/contracts/access/AccessControl.sol\":5328:5573  function renounceRole(bytes32 role, address callerConfirmation) public virtual {... */\n    tag_42:\n        /* \"@openzeppelin/contracts/access/AccessControl.sol\":5443:5455  _msgSender() */\n      tag_107\n        /* \"@openzeppelin/contracts/access/AccessControl.sol\":5443:5453  _msgSender */\n      tag_108\n        /* \"@openzeppelin/contracts/access/AccessControl.sol\":5443:5455  _msgSender() */\n      jump\t// in\n    tag_107:\n        /* \"@openzeppelin/contracts/access/AccessControl.sol\":5421:5455  callerConfirmation != _msgSender() */\n      0xffffffffffffffffffffffffffffffffffffffff\n      and\n        /* \"@openzeppelin/contracts/access/AccessControl.sol\":5421:5439  callerConfirmation */\n      dup2\n        /* \"@openzeppelin/contracts/access/AccessControl.sol\":5421:5455  callerConfirmation != _msgSender() */\n      0xffffffffffffffffffffffffffffffffffffffff\n      and\n      eq\n        /* \"@openzeppelin/contracts/access/AccessControl.sol\":5417:5519  if (callerConfirmation != _msgSender()) {... */\n      tag_109\n      jumpi\n        /* \"@openzeppelin/contracts/access/AccessControl.sol\":5478:5508  AccessControlBadConfirmation() */\n      mload(0x40)\n      0x6697b23200000000000000000000000000000000000000000000000000000000\n      dup2\n      mstore\n      0x04\n      add\n      mload(0x40)\n      dup1\n      swap2\n      sub\n      swap1\n      revert\n        /* \"@openzeppelin/contracts/access/AccessControl.sol\":5417:5519  if (callerConfirmation != _msgSender()) {... */\n    tag_109:\n        /* \"@openzeppelin/contracts/access/AccessControl.sol\":5529:5566  _revokeRole(role, callerConfirmation) */\n      tag_110\n        /* \"@openzeppelin/contracts/access/AccessControl.sol\":5541:5545  role */\n      dup3\n        /* \"@openzeppelin/contracts/access/AccessControl.sol\":5547:5565  callerConfirmation */\n      dup3\n        /* \"@openzeppelin/contracts/access/AccessControl.sol\":5529:5540  _revokeRole */\n      tag_111\n        /* \"@openzeppelin/contracts/access/AccessControl.sol\":5529:5566  _revokeRole(role, callerConfirmation) */\n      jump\t// in\n    tag_110:\n      pop\n        /* \"@openzeppelin/contracts/access/AccessControl.sol\":5328:5573  function renounceRole(bytes32 role, address callerConfirmation) public virtual {... */\n      pop\n      pop\n      jump\t// out\n        /* \"contracts/MockIDXFlow.sol\":722:753  uint256 public currentEpoch = 1 */\n    tag_44:\n      sload(0x02)\n      dup2\n      jump\t// out\n        /* \"contracts/MockIDXFlow.sol\":937:982  uint256 public minVolumeThreshold = 100 * 1e6 */\n    tag_48:\n      sload(0x04)\n      dup2\n      jump\t// out\n        /* \"@openzeppelin/contracts/access/AccessControl.sol\":2854:2990  function hasRole(bytes32 role, address account) public view virtual returns (bool) {... */\n    tag_52:\n        /* \"@openzeppelin/contracts/access/AccessControl.sol\":2931:2935  bool */\n      0x00\n        /* \"@openzeppelin/contracts/access/AccessControl.sol\":2954:2960  _roles */\n      0x00\n        /* \"@openzeppelin/contracts/access/AccessControl.sol\":2954:2966  _roles[role] */\n      0x00\n        /* \"@openzeppelin/contracts/access/AccessControl.sol\":2961:2965  role */\n      dup5\n        /* \"@openzeppelin/contracts/access/AccessControl.sol\":2954:2966  _roles[role] */\n      dup2\n      mstore\n      0x20\n      add\n      swap1\n      dup2\n      mstore\n      0x20\n      add\n      0x00\n      keccak256\n        /* \"@openzeppelin/contracts/access/AccessControl.sol\":2954:2974  _roles[role].hasRole */\n      0x00\n      add\n        /* \"@openzeppelin/contracts/access/AccessControl.sol\":2954:2983  _roles[role].hasRole[account] */\n      0x00\n        /* \"@openzeppelin/contracts/access/AccessControl.sol\":2975:2982  account */\n      dup4\n        /* \"@openzeppelin/contracts/access/AccessControl.sol\":2954:2983  _roles[role].hasRole[account] */\n      0xffffffffffffffffffffffffffffffffffffffff\n      and\n      0xffffffffffffffffffffffffffffffffffffffff\n      and\n      dup2\n      mstore\n      0x20\n      add\n      swap1\n      dup2\n      mstore\n      0x20\n      add\n      0x00\n      keccak256\n      0x00\n      swap1\n      sload\n      swap1\n      0x0100\n      exp\n      swap1\n      div\n      0xff\n      and\n        /* \"@openzeppelin/contracts/access/AccessControl.sol\":2947:2983  return _roles[role].hasRole[account] */\n      swap1\n      pop\n        /* \"@openzeppelin/contracts/access/AccessControl.sol\":2854:2990  function hasRole(bytes32 role, address account) public view virtual returns (bool) {... */\n      swap3\n      swap2\n      pop\n      pop\n      jump\t// out\n        /* \"@openzeppelin/contracts/access/AccessControl.sol\":2187:2236  bytes32 public constant DEFAULT_ADMIN_ROLE = 0x00 */\n    tag_55:\n        /* \"@openzeppelin/contracts/access/AccessControl.sol\":2232:2236  0x00 */\n      0x00\n        /* \"@openzeppelin/contracts/access/AccessControl.sol\":2187:2236  bytes32 public constant DEFAULT_ADMIN_ROLE = 0x00 */\n      0x00\n      shl\n      dup2\n      jump\t// out\n        /* \"contracts/MockIDXFlow.sol\":1141:1180  uint256 public defaultVestingEpochs = 4 */\n    tag_58:\n      sload(0x06)\n      dup2\n      jump\t// out\n        /* \"contracts/MockIDXFlow.sol\":2034:2075  mapping(address => UserInfo) public users */\n    tag_63:\n      mstore(0x20, 0x07)\n      dup1\n      0x00\n      mstore\n      keccak256(0x00, 0x40)\n      0x00\n      swap2\n      pop\n      swap1\n      pop\n      dup1\n      0x00\n      add\n      sload\n      swap1\n      dup1\n      0x01\n      add\n      sload\n      swap1\n      dup1\n      0x02\n      add\n      0x00\n      swap1\n      sload\n      swap1\n      0x0100\n      exp\n      swap1\n      div\n      0xff\n      and\n      swap1\n      dup1\n      0x03\n      add\n      sload\n      swap1\n      dup1\n      0x04\n      add\n      0x00\n      swap1\n      sload\n      swap1\n      0x0100\n      exp\n      swap1\n      div\n      0xff\n      and\n      swap1\n      pop\n      dup6\n      jump\t// out\n        /* \"contracts/MockIDXFlow.sol\":4062:5181  function mockClaim(uint256 volume) external {... */\n    tag_69:\n        /* \"contracts/MockIDXFlow.sol\":4116:4134  UserInfo storage u */\n      0x00\n        /* \"contracts/MockIDXFlow.sol\":4137:4142  users */\n      0x07\n        /* \"contracts/MockIDXFlow.sol\":4137:4154  users[msg.sender] */\n      0x00\n        /* \"contracts/MockIDXFlow.sol\":4143:4153  msg.sender */\n      caller\n        /* \"contracts/MockIDXFlow.sol\":4137:4154  users[msg.sender] */\n      0xffffffffffffffffffffffffffffffffffffffff\n      and\n      0xffffffffffffffffffffffffffffffffffffffff\n      and\n      dup2\n      mstore\n      0x20\n      add\n      swap1\n      dup2\n      mstore\n      0x20\n      add\n      0x00\n      keccak256\n        /* \"contracts/MockIDXFlow.sol\":4116:4154  UserInfo storage u = users[msg.sender] */\n      swap1\n      pop\n        /* \"contracts/MockIDXFlow.sol\":4191:4203  currentEpoch */\n      sload(0x02)\n        /* \"contracts/MockIDXFlow.sol\":4172:4173  u */\n      dup2\n        /* \"contracts/MockIDXFlow.sol\":4172:4188  u.lastClaimEpoch */\n      0x03\n      add\n      sload\n        /* \"contracts/MockIDXFlow.sol\":4172:4203  u.lastClaimEpoch < currentEpoch */\n      lt\n        /* \"contracts/MockIDXFlow.sol\":4164:4223  require(u.lastClaimEpoch < currentEpoch, \"Already claimed\") */\n      tag_114\n      jumpi\n      mload(0x40)\n      0x08c379a000000000000000000000000000000000000000000000000000000000\n      dup2\n      mstore\n      0x04\n      add\n      tag_115\n      swap1\n      tag_116\n      jump\t// in\n    tag_115:\n      mload(0x40)\n      dup1\n      swap2\n      sub\n      swap1\n      revert\n    tag_114:\n        /* \"contracts/MockIDXFlow.sol\":4251:4269  minVolumeThreshold */\n      sload(0x04)\n        /* \"contracts/MockIDXFlow.sol\":4241:4247  volume */\n      dup3\n        /* \"contracts/MockIDXFlow.sol\":4241:4269  volume >= minVolumeThreshold */\n      lt\n      iszero\n        /* \"contracts/MockIDXFlow.sol\":4233:4288  require(volume >= minVolumeThreshold, \"Volume too low\") */\n      tag_117\n      jumpi\n      mload(0x40)\n      0x08c379a000000000000000000000000000000000000000000000000000000000\n      dup2\n      mstore\n      0x04\n      add\n      tag_118\n      swap1\n      tag_119\n      jump\t// in\n    tag_118:\n      mload(0x40)\n      dup1\n      swap2\n      sub\n      swap1\n      revert\n    tag_117:\n        /* \"contracts/MockIDXFlow.sol\":4315:4321  volume */\n      dup2\n        /* \"contracts/MockIDXFlow.sol\":4299:4300  u */\n      dup2\n        /* \"contracts/MockIDXFlow.sol\":4299:4312  u.epochVolume */\n      0x00\n      add\n        /* \"contracts/MockIDXFlow.sol\":4299:4321  u.epochVolume = volume */\n      dup2\n      swap1\n      sstore\n      pop\n        /* \"contracts/MockIDXFlow.sol\":4350:4362  currentEpoch */\n      sload(0x02)\n        /* \"contracts/MockIDXFlow.sol\":4331:4332  u */\n      dup2\n        /* \"contracts/MockIDXFlow.sol\":4331:4347  u.lastClaimEpoch */\n      0x03\n      add\n        /* \"contracts/MockIDXFlow.sol\":4331:4362  u.lastClaimEpoch = currentEpoch */\n      dup2\n      swap1\n      sstore\n      pop\n        /* \"contracts/MockIDXFlow.sol\":4373:4391  uint256 baseReward */\n      0x00\n        /* \"contracts/MockIDXFlow.sol\":4427:4430  1e6 */\n      0x0f4240\n        /* \"contracts/MockIDXFlow.sol\":4404:4423  rewardRatePerVolume */\n      sload(0x03)\n        /* \"contracts/MockIDXFlow.sol\":4395:4401  volume */\n      dup5\n        /* \"contracts/MockIDXFlow.sol\":4395:4423  volume * rewardRatePerVolume */\n      tag_120\n      swap2\n      swap1\n      tag_121\n      jump\t// in\n    tag_120:\n        /* \"contracts/MockIDXFlow.sol\":4394:4430  (volume * rewardRatePerVolume) / 1e6 */\n      tag_122\n      swap2\n      swap1\n      tag_123\n      jump\t// in\n    tag_122:\n        /* \"contracts/MockIDXFlow.sol\":4373:4430  uint256 baseReward = (volume * rewardRatePerVolume) / 1e6 */\n      swap1\n      pop\n        /* \"contracts/MockIDXFlow.sol\":4440:4454  uint256 reward */\n      0x00\n        /* \"contracts/MockIDXFlow.sol\":4503:4506  100 */\n      0x64\n        /* \"contracts/MockIDXFlow.sol\":4471:4499  _getRewardMultiplier(u.tier) */\n      tag_124\n        /* \"contracts/MockIDXFlow.sol\":4492:4493  u */\n      dup5\n        /* \"contracts/MockIDXFlow.sol\":4492:4498  u.tier */\n      0x02\n      add\n      0x00\n      swap1\n      sload\n      swap1\n      0x0100\n      exp\n      swap1\n      div\n      0xff\n      and\n        /* \"contracts/MockIDXFlow.sol\":4471:4491  _getRewardMultiplier */\n      tag_125\n        /* \"contracts/MockIDXFlow.sol\":4471:4499  _getRewardMultiplier(u.tier) */\n      jump\t// in\n    tag_124:\n        /* \"contracts/MockIDXFlow.sol\":4458:4468  baseReward */\n      dup4\n        /* \"contracts/MockIDXFlow.sol\":4458:4499  baseReward * _getRewardMultiplier(u.tier) */\n      tag_126\n      swap2\n      swap1\n      tag_121\n      jump\t// in\n    tag_126:\n        /* \"contracts/MockIDXFlow.sol\":4457:4506  (baseReward * _getRewardMultiplier(u.tier)) / 100 */\n      tag_127\n      swap2\n      swap1\n      tag_123\n      jump\t// in\n    tag_127:\n        /* \"contracts/MockIDXFlow.sol\":4440:4506  uint256 reward = (baseReward * _getRewardMultiplier(u.tier)) / 100 */\n      swap1\n      pop\n        /* \"contracts/MockIDXFlow.sol\":4536:4542  reward */\n      dup1\n        /* \"contracts/MockIDXFlow.sol\":4516:4532  totalDistributed */\n      0x05\n      0x00\n        /* \"contracts/MockIDXFlow.sol\":4516:4542  totalDistributed += reward */\n      dup3\n      dup3\n      sload\n      tag_128\n      swap2\n      swap1\n      tag_129\n      jump\t// in\n    tag_128:\n      swap3\n      pop\n      pop\n      dup2\n      swap1\n      sstore\n      pop\n        /* \"contracts/MockIDXFlow.sol\":4553:4570  uint256 immediate */\n      0x00\n        /* \"contracts/MockIDXFlow.sol\":4589:4592  100 */\n      0x64\n        /* \"contracts/MockIDXFlow.sol\":4583:4585  25 */\n      0x19\n        /* \"contracts/MockIDXFlow.sol\":4574:4580  reward */\n      dup4\n        /* \"contracts/MockIDXFlow.sol\":4574:4585  reward * 25 */\n      tag_130\n      swap2\n      swap1\n      tag_121\n      jump\t// in\n    tag_130:\n        /* \"contracts/MockIDXFlow.sol\":4573:4592  (reward * 25) / 100 */\n      tag_131\n      swap2\n      swap1\n      tag_123\n      jump\t// in\n    tag_131:\n        /* \"contracts/MockIDXFlow.sol\":4553:4592  uint256 immediate = (reward * 25) / 100 */\n      swap1\n      pop\n        /* \"contracts/MockIDXFlow.sol\":4602:4620  uint256 vestingAmt */\n      0x00\n        /* \"contracts/MockIDXFlow.sol\":4632:4641  immediate */\n      dup2\n        /* \"contracts/MockIDXFlow.sol\":4623:4629  reward */\n      dup4\n        /* \"contracts/MockIDXFlow.sol\":4623:4641  reward - immediate */\n      tag_132\n      swap2\n      swap1\n      tag_133\n      jump\t// in\n    tag_132:\n        /* \"contracts/MockIDXFlow.sol\":4602:4641  uint256 vestingAmt = reward - immediate */\n      swap1\n      pop\n        /* \"contracts/MockIDXFlow.sol\":4680:4685  token */\n      0x01\n      0x00\n      swap1\n      sload\n      swap1\n      0x0100\n      exp\n      swap1\n      div\n      0xffffffffffffffffffffffffffffffffffffffff\n      and\n        /* \"contracts/MockIDXFlow.sol\":4680:4694  token.transfer */\n      0xffffffffffffffffffffffffffffffffffffffff\n      and\n      0xa9059cbb\n        /* \"contracts/MockIDXFlow.sol\":4695:4705  msg.sender */\n      caller\n        /* \"contracts/MockIDXFlow.sol\":4707:4716  immediate */\n      dup5\n        /* \"contracts/MockIDXFlow.sol\":4680:4717  token.transfer(msg.sender, immediate) */\n      mload(0x40)\n      dup4\n      0xffffffff\n      and\n      0xe0\n      shl\n      dup2\n      mstore\n      0x04\n      add\n      tag_134\n      swap3\n      swap2\n      swap1\n      tag_135\n      jump\t// in\n    tag_134:\n      0x20\n      mload(0x40)\n      dup1\n      dup4\n      sub\n      dup2\n      0x00\n      dup8\n      gas\n      call\n      iszero\n      dup1\n      iszero\n      tag_137\n      jumpi\n      returndatacopy(0x00, 0x00, returndatasize)\n      revert(0x00, returndatasize)\n    tag_137:\n      pop\n      pop\n      pop\n      pop\n      mload(0x40)\n      returndatasize\n      not(0x1f)\n      0x1f\n      dup3\n      add\n      and\n      dup3\n      add\n      dup1\n      0x40\n      mstore\n      pop\n      dup2\n      add\n      swap1\n      tag_138\n      swap2\n      swap1\n      tag_139\n      jump\t// in\n    tag_138:\n      pop\n        /* \"contracts/MockIDXFlow.sol\":4747:4757  msg.sender */\n      caller\n        /* \"contracts/MockIDXFlow.sol\":4732:4769  RewardsClaimed(msg.sender, immediate) */\n      0xffffffffffffffffffffffffffffffffffffffff\n      and\n      0xfc30cddea38e2bf4d6ea7d3f9ed3b6ad7f176419f4963bd81318067a4aee73fe\n        /* \"contracts/MockIDXFlow.sol\":4759:4768  immediate */\n      dup4\n        /* \"contracts/MockIDXFlow.sol\":4732:4769  RewardsClaimed(msg.sender, immediate) */\n      mload(0x40)\n      tag_140\n      swap2\n      swap1\n      tag_46\n      jump\t// in\n    tag_140:\n      mload(0x40)\n      dup1\n      swap2\n      sub\n      swap1\n      log2\n        /* \"contracts/MockIDXFlow.sol\":4823:4824  0 */\n      0x00\n        /* \"contracts/MockIDXFlow.sol\":4810:4820  vestingAmt */\n      dup2\n        /* \"contracts/MockIDXFlow.sol\":4810:4824  vestingAmt > 0 */\n      gt\n        /* \"contracts/MockIDXFlow.sol\":4806:5175  if (vestingAmt > 0) {... */\n      iszero\n      tag_141\n      jumpi\n        /* \"contracts/MockIDXFlow.sol\":4840:4862  RewardStream storage s */\n      0x00\n        /* \"contracts/MockIDXFlow.sol\":4865:4878  rewardStreams */\n      0x08\n        /* \"contracts/MockIDXFlow.sol\":4865:4890  rewardStreams[msg.sender] */\n      0x00\n        /* \"contracts/MockIDXFlow.sol\":4879:4889  msg.sender */\n      caller\n        /* \"contracts/MockIDXFlow.sol\":4865:4890  rewardStreams[msg.sender] */\n      0xffffffffffffffffffffffffffffffffffffffff\n      and\n      0xffffffffffffffffffffffffffffffffffffffff\n      and\n      dup2\n      mstore\n      0x20\n      add\n      swap1\n      dup2\n      mstore\n      0x20\n      add\n      0x00\n      keccak256\n        /* \"contracts/MockIDXFlow.sol\":4840:4890  RewardStream storage s = rewardStreams[msg.sender] */\n      swap1\n      pop\n        /* \"contracts/MockIDXFlow.sol\":4924:4925  0 */\n      0x00\n        /* \"contracts/MockIDXFlow.sol\":4908:4909  s */\n      dup2\n        /* \"contracts/MockIDXFlow.sol\":4908:4920  s.startEpoch */\n      0x02\n      add\n      sload\n        /* \"contracts/MockIDXFlow.sol\":4908:4925  s.startEpoch == 0 */\n      sub\n        /* \"contracts/MockIDXFlow.sol\":4904:5043  if (s.startEpoch == 0) {... */\n      tag_142\n      jumpi\n        /* \"contracts/MockIDXFlow.sol\":4960:4972  currentEpoch */\n      sload(0x02)\n        /* \"contracts/MockIDXFlow.sol\":4945:4946  s */\n      dup2\n        /* \"contracts/MockIDXFlow.sol\":4945:4957  s.startEpoch */\n      0x02\n      add\n        /* \"contracts/MockIDXFlow.sol\":4945:4972  s.startEpoch = currentEpoch */\n      dup2\n      swap1\n      sstore\n      pop\n        /* \"contracts/MockIDXFlow.sol\":5008:5028  defaultVestingEpochs */\n      sload(0x06)\n        /* \"contracts/MockIDXFlow.sol\":4990:4991  s */\n      dup2\n        /* \"contracts/MockIDXFlow.sol\":4990:5005  s.vestingEpochs */\n      0x03\n      add\n        /* \"contracts/MockIDXFlow.sol\":4990:5028  s.vestingEpochs = defaultVestingEpochs */\n      dup2\n      swap1\n      sstore\n      pop\n        /* \"contracts/MockIDXFlow.sol\":4904:5043  if (s.startEpoch == 0) {... */\n    tag_142:\n        /* \"contracts/MockIDXFlow.sol\":5067:5077  vestingAmt */\n      dup2\n        /* \"contracts/MockIDXFlow.sol\":5056:5057  s */\n      dup2\n        /* \"contracts/MockIDXFlow.sol\":5056:5063  s.total */\n      0x00\n      add\n      0x00\n        /* \"contracts/MockIDXFlow.sol\":5056:5077  s.total += vestingAmt */\n      dup3\n      dup3\n      sload\n      tag_143\n      swap2\n      swap1\n      tag_129\n      jump\t// in\n    tag_143:\n      swap3\n      pop\n      pop\n      dup2\n      swap1\n      sstore\n      pop\n        /* \"contracts/MockIDXFlow.sol\":5110:5120  msg.sender */\n      caller\n        /* \"contracts/MockIDXFlow.sol\":5096:5164  RewardsVested(msg.sender, vestingAmt, s.startEpoch, s.vestingEpochs) */\n      0xffffffffffffffffffffffffffffffffffffffff\n      and\n      0xcacf4a6e7c897ead5577524d96f0debb59ccd5bd3465d42cd2a958e2defb0b94\n        /* \"contracts/MockIDXFlow.sol\":5122:5132  vestingAmt */\n      dup4\n        /* \"contracts/MockIDXFlow.sol\":5134:5135  s */\n      dup4\n        /* \"contracts/MockIDXFlow.sol\":5134:5146  s.startEpoch */\n      0x02\n      add\n      sload\n        /* \"contracts/MockIDXFlow.sol\":5148:5149  s */\n      dup5\n        /* \"contracts/MockIDXFlow.sol\":5148:5163  s.vestingEpochs */\n      0x03\n      add\n      sload\n        /* \"contracts/MockIDXFlow.sol\":5096:5164  RewardsVested(msg.sender, vestingAmt, s.startEpoch, s.vestingEpochs) */\n      mload(0x40)\n      tag_144\n      swap4\n      swap3\n      swap2\n      swap1\n      tag_145\n      jump\t// in\n    tag_144:\n      mload(0x40)\n      dup1\n      swap2\n      sub\n      swap1\n      log2\n        /* \"contracts/MockIDXFlow.sol\":4826:5175  {... */\n      pop\n        /* \"contracts/MockIDXFlow.sol\":4806:5175  if (vestingAmt > 0) {... */\n    tag_141:\n        /* \"contracts/MockIDXFlow.sol\":4106:5181  {... */\n      pop\n      pop\n      pop\n      pop\n      pop\n        /* \"contracts/MockIDXFlow.sol\":4062:5181  function mockClaim(uint256 volume) external {... */\n      pop\n      jump\t// out\n        /* \"contracts/MockIDXFlow.sol\":3529:3832  function mockStake(uint256 amount) external {... */\n    tag_72:\n        /* \"contracts/MockIDXFlow.sol\":3583:3588  token */\n      0x01\n      0x00\n      swap1\n      sload\n      swap1\n      0x0100\n      exp\n      swap1\n      div\n      0xffffffffffffffffffffffffffffffffffffffff\n      and\n        /* \"contracts/MockIDXFlow.sol\":3583:3601  token.transferFrom */\n      0xffffffffffffffffffffffffffffffffffffffff\n      and\n      0x23b872dd\n        /* \"contracts/MockIDXFlow.sol\":3602:3612  msg.sender */\n      caller\n        /* \"contracts/MockIDXFlow.sol\":3622:3626  this */\n      address\n        /* \"contracts/MockIDXFlow.sol\":3629:3635  amount */\n      dup5\n        /* \"contracts/MockIDXFlow.sol\":3583:3636  token.transferFrom(msg.sender, address(this), amount) */\n      mload(0x40)\n      dup5\n      0xffffffff\n      and\n      0xe0\n      shl\n      dup2\n      mstore\n      0x04\n      add\n      tag_147\n      swap4\n      swap3\n      swap2\n      swap1\n      tag_148\n      jump\t// in\n    tag_147:\n      0x20\n      mload(0x40)\n      dup1\n      dup4\n      sub\n      dup2\n      0x00\n      dup8\n      gas\n      call\n      iszero\n      dup1\n      iszero\n      tag_150\n      jumpi\n      returndatacopy(0x00, 0x00, returndatasize)\n      revert(0x00, returndatasize)\n    tag_150:\n      pop\n      pop\n      pop\n      pop\n      mload(0x40)\n      returndatasize\n      not(0x1f)\n      0x1f\n      dup3\n      add\n      and\n      dup3\n      add\n      dup1\n      0x40\n      mstore\n      pop\n      dup2\n      add\n      swap1\n      tag_151\n      swap2\n      swap1\n      tag_139\n      jump\t// in\n    tag_151:\n      pop\n        /* \"contracts/MockIDXFlow.sol\":3646:3664  UserInfo storage u */\n      0x00\n        /* \"contracts/MockIDXFlow.sol\":3667:3672  users */\n      0x07\n        /* \"contracts/MockIDXFlow.sol\":3667:3684  users[msg.sender] */\n      0x00\n        /* \"contracts/MockIDXFlow.sol\":3673:3683  msg.sender */\n      caller\n        /* \"contracts/MockIDXFlow.sol\":3667:3684  users[msg.sender] */\n      0xffffffffffffffffffffffffffffffffffffffff\n      and\n      0xffffffffffffffffffffffffffffffffffffffff\n      and\n      dup2\n      mstore\n      0x20\n      add\n      swap1\n      dup2\n      mstore\n      0x20\n      add\n      0x00\n      keccak256\n        /* \"contracts/MockIDXFlow.sol\":3646:3684  UserInfo storage u = users[msg.sender] */\n      swap1\n      pop\n        /* \"contracts/MockIDXFlow.sol\":3712:3718  amount */\n      dup2\n        /* \"contracts/MockIDXFlow.sol\":3694:3695  u */\n      dup2\n        /* \"contracts/MockIDXFlow.sol\":3694:3708  u.stakedAmount */\n      0x01\n      add\n      0x00\n        /* \"contracts/MockIDXFlow.sol\":3694:3718  u.stakedAmount += amount */\n      dup3\n      dup3\n      sload\n      tag_152\n      swap2\n      swap1\n      tag_129\n      jump\t// in\n    tag_152:\n      swap3\n      pop\n      pop\n      dup2\n      swap1\n      sstore\n      pop\n        /* \"contracts/MockIDXFlow.sol\":3737:3770  _calculateFeeTier(u.stakedAmount) */\n      tag_153\n        /* \"contracts/MockIDXFlow.sol\":3755:3756  u */\n      dup2\n        /* \"contracts/MockIDXFlow.sol\":3755:3769  u.stakedAmount */\n      0x01\n      add\n      sload\n        /* \"contracts/MockIDXFlow.sol\":3737:3754  _calculateFeeTier */\n      tag_154\n        /* \"contracts/MockIDXFlow.sol\":3737:3770  _calculateFeeTier(u.stakedAmount) */\n      jump\t// in\n    tag_153:\n        /* \"contracts/MockIDXFlow.sol\":3728:3729  u */\n      dup2\n        /* \"contracts/MockIDXFlow.sol\":3728:3734  u.tier */\n      0x02\n      add\n      0x00\n        /* \"contracts/MockIDXFlow.sol\":3728:3770  u.tier = _calculateFeeTier(u.stakedAmount) */\n      0x0100\n      exp\n      dup2\n      sload\n      dup2\n      0xff\n      mul\n      not\n      and\n      swap1\n      dup4\n      0x04\n      dup2\n      gt\n      iszero\n      tag_155\n      jumpi\n      tag_156\n      tag_157\n      jump\t// in\n    tag_156:\n    tag_155:\n      mul\n      or\n      swap1\n      sstore\n      pop\n        /* \"contracts/MockIDXFlow.sol\":3798:3808  msg.sender */\n      caller\n        /* \"contracts/MockIDXFlow.sol\":3785:3825  StakeUpdated(msg.sender, amount, u.tier) */\n      0xffffffffffffffffffffffffffffffffffffffff\n      and\n      0xe42710261dccb691e79e3f3e24a2b8cc0e13b9bec7be82a445c6a6992474ea44\n        /* \"contracts/MockIDXFlow.sol\":3810:3816  amount */\n      dup4\n        /* \"contracts/MockIDXFlow.sol\":3818:3819  u */\n      dup4\n        /* \"contracts/MockIDXFlow.sol\":3818:3824  u.tier */\n      0x02\n      add\n      0x00\n      swap1\n      sload\n      swap1\n      0x0100\n      exp\n      swap1\n      div\n      0xff\n      and\n        /* \"contracts/MockIDXFlow.sol\":3785:3825  StakeUpdated(msg.sender, amount, u.tier) */\n      mload(0x40)\n      tag_158\n      swap3\n      swap2\n      swap1\n      tag_159\n      jump\t// in\n    tag_158:\n      mload(0x40)\n      dup1\n      swap2\n      sub\n      swap1\n      log2\n        /* \"contracts/MockIDXFlow.sol\":3573:3832  {... */\n      pop\n        /* \"contracts/MockIDXFlow.sol\":3529:3832  function mockStake(uint256 amount) external {... */\n      pop\n      jump\t// out\n        /* \"contracts/MockIDXFlow.sol\":611:677  bytes32 public constant GOVERNOR_ROLE = keccak256(\"GOVERNOR_ROLE\") */\n    tag_74:\n        /* \"contracts/MockIDXFlow.sol\":651:677  keccak256(\"GOVERNOR_ROLE\") */\n      0x7935bd0ae54bc31f548c14dba4d37c5c64b3f8ca900cb468fb8abd54d5894f55\n        /* \"contracts/MockIDXFlow.sol\":611:677  bytes32 public constant GOVERNOR_ROLE = keccak256(\"GOVERNOR_ROLE\") */\n      dup2\n      jump\t// out\n        /* \"@openzeppelin/contracts/access/AccessControl.sol\":4642:4780  function revokeRole(bytes32 role, address account) public virtual onlyRole(getRoleAdmin(role)) {... */\n    tag_78:\n        /* \"@openzeppelin/contracts/access/AccessControl.sol\":4717:4735  getRoleAdmin(role) */\n      tag_160\n        /* \"@openzeppelin/contracts/access/AccessControl.sol\":4730:4734  role */\n      dup3\n        /* \"@openzeppelin/contracts/access/AccessControl.sol\":4717:4729  getRoleAdmin */\n      tag_33\n        /* \"@openzeppelin/contracts/access/AccessControl.sol\":4717:4735  getRoleAdmin(role) */\n      jump\t// in\n    tag_160:\n        /* \"@openzeppelin/contracts/access/AccessControl.sol\":2464:2480  _checkRole(role) */\n      tag_162\n        /* \"@openzeppelin/contracts/access/AccessControl.sol\":2475:2479  role */\n      dup2\n        /* \"@openzeppelin/contracts/access/AccessControl.sol\":2464:2474  _checkRole */\n      tag_102\n        /* \"@openzeppelin/contracts/access/AccessControl.sol\":2464:2480  _checkRole(role) */\n      jump\t// in\n    tag_162:\n        /* \"@openzeppelin/contracts/access/AccessControl.sol\":4747:4773  _revokeRole(role, account) */\n      tag_164\n        /* \"@openzeppelin/contracts/access/AccessControl.sol\":4759:4763  role */\n      dup4\n        /* \"@openzeppelin/contracts/access/AccessControl.sol\":4765:4772  account */\n      dup4\n        /* \"@openzeppelin/contracts/access/AccessControl.sol\":4747:4758  _revokeRole */\n      tag_111\n        /* \"@openzeppelin/contracts/access/AccessControl.sol\":4747:4773  _revokeRole(role, account) */\n      jump\t// in\n    tag_164:\n      pop\n        /* \"@openzeppelin/contracts/access/AccessControl.sol\":4642:4780  function revokeRole(bytes32 role, address account) public virtual onlyRole(getRoleAdmin(role)) {... */\n      pop\n      pop\n      pop\n      jump\t// out\n        /* \"contracts/MockIDXFlow.sol\":823:863  uint256 public rewardRatePerVolume = 1e6 */\n    tag_80:\n      sload(0x03)\n      dup2\n      jump\t// out\n        /* \"contracts/MockIDXFlow.sol\":1038:1069  uint256 public totalDistributed */\n    tag_83:\n      sload(0x05)\n      dup2\n      jump\t// out\n        /* \"contracts/MockIDXFlow.sol\":2122:2175  mapping(address => RewardStream) public rewardStreams */\n    tag_87:\n      mstore(0x20, 0x08)\n      dup1\n      0x00\n      mstore\n      keccak256(0x00, 0x40)\n      0x00\n      swap2\n      pop\n      swap1\n      pop\n      dup1\n      0x00\n      add\n      sload\n      swap1\n      dup1\n      0x01\n      add\n      sload\n      swap1\n      dup1\n      0x02\n      add\n      sload\n      swap1\n      dup1\n      0x03\n      add\n      sload\n      swap1\n      pop\n      dup5\n      jump\t// out\n        /* \"contracts/MockIDXFlow.sol\":526:545  IERC20 public token */\n    tag_91:\n      0x01\n      0x00\n      swap1\n      sload\n      swap1\n      0x0100\n      exp\n      swap1\n      div\n      0xffffffffffffffffffffffffffffffffffffffff\n      and\n      dup2\n      jump\t// out\n        /* \"@openzeppelin/contracts/utils/introspection/ERC165.sol\":763:909  function supportsInterface(bytes4 interfaceId) public view virtual returns (bool) {... */\n    tag_97:\n        /* \"@openzeppelin/contracts/utils/introspection/ERC165.sol\":839:843  bool */\n      0x00\n        /* \"@openzeppelin/contracts/utils/introspection/ERC165.sol\":877:902  type(IERC165).interfaceId */\n      0x01ffc9a700000000000000000000000000000000000000000000000000000000\n        /* \"@openzeppelin/contracts/utils/introspection/ERC165.sol\":862:902  interfaceId == type(IERC165).interfaceId */\n      not(0xffffffffffffffffffffffffffffffffffffffffffffffffffffffff)\n      and\n        /* \"@openzeppelin/contracts/utils/introspection/ERC165.sol\":862:873  interfaceId */\n      dup3\n        /* \"@openzeppelin/contracts/utils/introspection/ERC165.sol\":862:902  interfaceId == type(IERC165).interfaceId */\n      not(0xffffffffffffffffffffffffffffffffffffffffffffffffffffffff)\n      and\n      eq\n        /* \"@openzeppelin/contracts/utils/introspection/ERC165.sol\":855:902  return interfaceId == type(IERC165).interfaceId */\n      swap1\n      pop\n        /* \"@openzeppelin/contracts/utils/introspection/ERC165.sol\":763:909  function supportsInterface(bytes4 interfaceId) public view virtual returns (bool) {... */\n      swap2\n      swap1\n      pop\n      jump\t// out\n        /* \"@openzeppelin/contracts/access/AccessControl.sol\":3199:3302  function _checkRole(bytes32 role) internal view virtual {... */\n    tag_102:\n        /* \"@openzeppelin/contracts/access/AccessControl.sol\":3265:3295  _checkRole(role, _msgSender()) */\n      tag_167\n        /* \"@openzeppelin/contracts/access/AccessControl.sol\":3276:3280  role */\n      dup2\n        /* \"@openzeppelin/contracts/access/AccessControl.sol\":3282:3294  _msgSender() */\n      tag_168\n        /* \"@openzeppelin/contracts/access/AccessControl.sol\":3282:3292  _msgSender */\n      tag_108\n        /* \"@openzeppelin/contracts/access/AccessControl.sol\":3282:3294  _msgSender() */\n      jump\t// in\n    tag_168:\n        /* \"@openzeppelin/contracts/access/AccessControl.sol\":3265:3275  _checkRole */\n      tag_169\n        /* \"@openzeppelin/contracts/access/AccessControl.sol\":3265:3295  _checkRole(role, _msgSender()) */\n      jump\t// in\n    tag_167:\n        /* \"@openzeppelin/contracts/access/AccessControl.sol\":3199:3302  function _checkRole(bytes32 role) internal view virtual {... */\n      pop\n      jump\t// out\n        /* \"@openzeppelin/contracts/access/AccessControl.sol\":6179:6495  function _grantRole(bytes32 role, address account) internal virtual returns (bool) {... */\n    tag_105:\n        /* \"@openzeppelin/contracts/access/AccessControl.sol\":6256:6260  bool */\n      0x00\n        /* \"@openzeppelin/contracts/access/AccessControl.sol\":6277:6299  hasRole(role, account) */\n      tag_171\n        /* \"@openzeppelin/contracts/access/AccessControl.sol\":6285:6289  role */\n      dup4\n        /* \"@openzeppelin/contracts/access/AccessControl.sol\":6291:6298  account */\n      dup4\n        /* \"@openzeppelin/contracts/access/AccessControl.sol\":6277:6284  hasRole */\n      tag_52\n        /* \"@openzeppelin/contracts/access/AccessControl.sol\":6277:6299  hasRole(role, account) */\n      jump\t// in\n    tag_171:\n        /* \"@openzeppelin/contracts/access/AccessControl.sol\":6272:6489  if (!hasRole(role, account)) {... */\n      tag_172\n      jumpi\n        /* \"@openzeppelin/contracts/access/AccessControl.sol\":6347:6351  true */\n      0x01\n        /* \"@openzeppelin/contracts/access/AccessControl.sol\":6315:6321  _roles */\n      0x00\n        /* \"@openzeppelin/contracts/access/AccessControl.sol\":6315:6327  _roles[role] */\n      0x00\n        /* \"@openzeppelin/contracts/access/AccessControl.sol\":6322:6326  role */\n      dup6\n        /* \"@openzeppelin/contracts/access/AccessControl.sol\":6315:6327  _roles[role] */\n      dup2\n      mstore\n      0x20\n      add\n      swap1\n      dup2\n      mstore\n      0x20\n      add\n      0x00\n      keccak256\n        /* \"@openzeppelin/contracts/access/AccessControl.sol\":6315:6335  _roles[role].hasRole */\n      0x00\n      add\n        /* \"@openzeppelin/contracts/access/AccessControl.sol\":6315:6344  _roles[role].hasRole[account] */\n      0x00\n        /* \"@openzeppelin/contracts/access/AccessControl.sol\":6336:6343  account */\n      dup5\n        /* \"@openzeppelin/contracts/access/AccessControl.sol\":6315:6344  _roles[role].hasRole[account] */\n      0xffffffffffffffffffffffffffffffffffffffff\n      and\n      0xffffffffffffffffffffffffffffffffffffffff\n      and\n      dup2\n      mstore\n      0x20\n      add\n      swap1\n      dup2\n      mstore\n      0x20\n      add\n      0x00\n      keccak256\n      0x00\n        /* \"@openzeppelin/contracts/access/AccessControl.sol\":6315:6351  _roles[role].hasRole[account] = true */\n      0x0100\n      exp\n      dup2\n      sload\n      dup2\n      0xff\n      mul\n      not\n      and\n      swap1\n      dup4\n      iszero\n      iszero\n      mul\n      or\n      swap1\n      sstore\n      pop\n        /* \"@openzeppelin/contracts/access/AccessControl.sol\":6397:6409  _msgSender() */\n      tag_173\n        /* \"@openzeppelin/contracts/access/AccessControl.sol\":6397:6407  _msgSender */\n      tag_108\n        /* \"@openzeppelin/contracts/access/AccessControl.sol\":6397:6409  _msgSender() */\n      jump\t// in\n    tag_173:\n        /* \"@openzeppelin/contracts/access/AccessControl.sol\":6370:6410  RoleGranted(role, account, _msgSender()) */\n      0xffffffffffffffffffffffffffffffffffffffff\n      and\n        /* \"@openzeppelin/contracts/access/AccessControl.sol\":6388:6395  account */\n      dup3\n        /* \"@openzeppelin/contracts/access/AccessControl.sol\":6370:6410  RoleGranted(role, account, _msgSender()) */\n      0xffffffffffffffffffffffffffffffffffffffff\n      and\n        /* \"@openzeppelin/contracts/access/AccessControl.sol\":6382:6386  role */\n      dup5\n        /* \"@openzeppelin/contracts/access/AccessControl.sol\":6370:6410  RoleGranted(role, account, _msgSender()) */\n      0x2f8788117e7eff1d82e926ec794901d17c78024a50270940304540a733656f0d\n      mload(0x40)\n      mload(0x40)\n      dup1\n      swap2\n      sub\n      swap1\n      log4\n        /* \"@openzeppelin/contracts/access/AccessControl.sol\":6431:6435  true */\n      0x01\n        /* \"@openzeppelin/contracts/access/AccessControl.sol\":6424:6435  return true */\n      swap1\n      pop\n      jump(tag_170)\n        /* \"@openzeppelin/contracts/access/AccessControl.sol\":6272:6489  if (!hasRole(role, account)) {... */\n    tag_172:\n        /* \"@openzeppelin/contracts/access/AccessControl.sol\":6473:6478  false */\n      0x00\n        /* \"@openzeppelin/contracts/access/AccessControl.sol\":6466:6478  return false */\n      swap1\n      pop\n        /* \"@openzeppelin/contracts/access/AccessControl.sol\":6179:6495  function _grantRole(bytes32 role, address account) internal virtual returns (bool) {... */\n    tag_170:\n      swap3\n      swap2\n      pop\n      pop\n      jump\t// out\n        /* \"@openzeppelin/contracts/utils/Context.sol\":656:752  function _msgSender() internal view virtual returns (address) {... */\n    tag_108:\n        /* \"@openzeppelin/contracts/utils/Context.sol\":709:716  address */\n      0x00\n        /* \"@openzeppelin/contracts/utils/Context.sol\":735:745  msg.sender */\n      caller\n        /* \"@openzeppelin/contracts/utils/Context.sol\":728:745  return msg.sender */\n      swap1\n      pop\n        /* \"@openzeppelin/contracts/utils/Context.sol\":656:752  function _msgSender() internal view virtual returns (address) {... */\n      swap1\n      jump\t// out\n        /* \"@openzeppelin/contracts/access/AccessControl.sol\":6732:7049  function _revokeRole(bytes32 role, address account) internal virtual returns (bool) {... */\n    tag_111:\n        /* \"@openzeppelin/contracts/access/AccessControl.sol\":6810:6814  bool */\n      0x00\n        /* \"@openzeppelin/contracts/access/AccessControl.sol\":6830:6852  hasRole(role, account) */\n      tag_177\n        /* \"@openzeppelin/contracts/access/AccessControl.sol\":6838:6842  role */\n      dup4\n        /* \"@openzeppelin/contracts/access/AccessControl.sol\":6844:6851  account */\n      dup4\n        /* \"@openzeppelin/contracts/access/AccessControl.sol\":6830:6837  hasRole */\n      tag_52\n        /* \"@openzeppelin/contracts/access/AccessControl.sol\":6830:6852  hasRole(role, account) */\n      jump\t// in\n    tag_177:\n        /* \"@openzeppelin/contracts/access/AccessControl.sol\":6826:7043  if (hasRole(role, account)) {... */\n      iszero\n      tag_178\n      jumpi\n        /* \"@openzeppelin/contracts/access/AccessControl.sol\":6900:6905  false */\n      0x00\n        /* \"@openzeppelin/contracts/access/AccessControl.sol\":6868:6874  _roles */\n      0x00\n        /* \"@openzeppelin/contracts/access/AccessControl.sol\":6868:6880  _roles[role] */\n      0x00\n        /* \"@openzeppelin/contracts/access/AccessControl.sol\":6875:6879  role */\n      dup6\n        /* \"@openzeppelin/contracts/access/AccessControl.sol\":6868:6880  _roles[role] */\n      dup2\n      mstore\n      0x20\n      add\n      swap1\n      dup2\n      mstore\n      0x20\n      add\n      0x00\n      keccak256\n        /* \"@openzeppelin/contracts/access/AccessControl.sol\":6868:6888  _roles[role].hasRole */\n      0x00\n      add\n        /* \"@openzeppelin/contracts/access/AccessControl.sol\":6868:6897  _roles[role].hasRole[account] */\n      0x00\n        /* \"@openzeppelin/contracts/access/AccessControl.sol\":6889:6896  account */\n      dup5\n        /* \"@openzeppelin/contracts/access/AccessControl.sol\":6868:6897  _roles[role].hasRole[account] */\n      0xffffffffffffffffffffffffffffffffffffffff\n      and\n      0xffffffffffffffffffffffffffffffffffffffff\n      and\n      dup2\n      mstore\n      0x20\n      add\n      swap1\n      dup2\n      mstore\n      0x20\n      add\n      0x00\n      keccak256\n      0x00\n        /* \"@openzeppelin/contracts/access/AccessControl.sol\":6868:6905  _roles[role].hasRole[account] = false */\n      0x0100\n      exp\n      dup2\n      sload\n      dup2\n      0xff\n      mul\n      not\n      and\n      swap1\n      dup4\n      iszero\n      iszero\n      mul\n      or\n      swap1\n      sstore\n      pop\n        /* \"@openzeppelin/contracts/access/AccessControl.sol\":6951:6963  _msgSender() */\n      tag_179\n        /* \"@openzeppelin/contracts/access/AccessControl.sol\":6951:6961  _msgSender */\n      tag_108\n        /* \"@openzeppelin/contracts/access/AccessControl.sol\":6951:6963  _msgSender() */\n      jump\t// in\n    tag_179:\n        /* \"@openzeppelin/contracts/access/AccessControl.sol\":6924:6964  RoleRevoked(role, account, _msgSender()) */\n      0xffffffffffffffffffffffffffffffffffffffff\n      and\n        /* \"@openzeppelin/contracts/access/AccessControl.sol\":6942:6949  account */\n      dup3\n        /* \"@openzeppelin/contracts/access/AccessControl.sol\":6924:6964  RoleRevoked(role, account, _msgSender()) */\n      0xffffffffffffffffffffffffffffffffffffffff\n      and\n        /* \"@openzeppelin/contracts/access/AccessControl.sol\":6936:6940  role */\n      dup5\n        /* \"@openzeppelin/contracts/access/AccessControl.sol\":6924:6964  RoleRevoked(role, account, _msgSender()) */\n      0xf6391f5c32d9c69d2a47ea670b442974b53935d1edc7fd64eb21e047a839171b\n      mload(0x40)\n      mload(0x40)\n      dup1\n      swap2\n      sub\n      swap1\n      log4\n        /* \"@openzeppelin/contracts/access/AccessControl.sol\":6985:6989  true */\n      0x01\n        /* \"@openzeppelin/contracts/access/AccessControl.sol\":6978:6989  return true */\n      swap1\n      pop\n      jump(tag_176)\n        /* \"@openzeppelin/contracts/access/AccessControl.sol\":6826:7043  if (hasRole(role, account)) {... */\n    tag_178:\n        /* \"@openzeppelin/contracts/access/AccessControl.sol\":7027:7032  false */\n      0x00\n        /* \"@openzeppelin/contracts/access/AccessControl.sol\":7020:7032  return false */\n      swap1\n      pop\n        /* \"@openzeppelin/contracts/access/AccessControl.sol\":6732:7049  function _revokeRole(bytes32 role, address account) internal virtual returns (bool) {... */\n    tag_176:\n      swap3\n      swap2\n      pop\n      pop\n      jump\t// out\n        /* \"contracts/MockIDXFlow.sol\":5864:6162  function _getRewardMultiplier(FeeTier t) internal pure returns (uint256) {... */\n    tag_125:\n        /* \"contracts/MockIDXFlow.sol\":5928:5935  uint256 */\n      0x00\n        /* \"contracts/MockIDXFlow.sol\":5956:5970  FeeTier.Silver */\n      0x01\n        /* \"contracts/MockIDXFlow.sol\":5951:5970  t == FeeTier.Silver */\n      0x04\n      dup2\n      gt\n      iszero\n      tag_182\n      jumpi\n      tag_183\n      tag_157\n      jump\t// in\n    tag_183:\n    tag_182:\n        /* \"contracts/MockIDXFlow.sol\":5951:5952  t */\n      dup3\n        /* \"contracts/MockIDXFlow.sol\":5951:5970  t == FeeTier.Silver */\n      0x04\n      dup2\n      gt\n      iszero\n      tag_184\n      jumpi\n      tag_185\n      tag_157\n      jump\t// in\n    tag_185:\n    tag_184:\n      sub\n        /* \"contracts/MockIDXFlow.sol\":5947:5984  if (t == FeeTier.Silver)   return 125 */\n      tag_186\n      jumpi\n        /* \"contracts/MockIDXFlow.sol\":5981:5984  125 */\n      0x7d\n        /* \"contracts/MockIDXFlow.sol\":5974:5984  return 125 */\n      swap1\n      pop\n      jump(tag_181)\n        /* \"contracts/MockIDXFlow.sol\":5947:5984  if (t == FeeTier.Silver)   return 125 */\n    tag_186:\n        /* \"contracts/MockIDXFlow.sol\":6003:6015  FeeTier.Gold */\n      0x02\n        /* \"contracts/MockIDXFlow.sol\":5998:6015  t == FeeTier.Gold */\n      0x04\n      dup2\n      gt\n      iszero\n      tag_187\n      jumpi\n      tag_188\n      tag_157\n      jump\t// in\n    tag_188:\n    tag_187:\n        /* \"contracts/MockIDXFlow.sol\":5998:5999  t */\n      dup3\n        /* \"contracts/MockIDXFlow.sol\":5998:6015  t == FeeTier.Gold */\n      0x04\n      dup2\n      gt\n      iszero\n      tag_189\n      jumpi\n      tag_190\n      tag_157\n      jump\t// in\n    tag_190:\n    tag_189:\n      sub\n        /* \"contracts/MockIDXFlow.sol\":5994:6031  if (t == FeeTier.Gold)     return 150 */\n      tag_191\n      jumpi\n        /* \"contracts/MockIDXFlow.sol\":6028:6031  150 */\n      0x96\n        /* \"contracts/MockIDXFlow.sol\":6021:6031  return 150 */\n      swap1\n      pop\n      jump(tag_181)\n        /* \"contracts/MockIDXFlow.sol\":5994:6031  if (t == FeeTier.Gold)     return 150 */\n    tag_191:\n        /* \"contracts/MockIDXFlow.sol\":6050:6066  FeeTier.Platinum */\n      0x03\n        /* \"contracts/MockIDXFlow.sol\":6045:6066  t == FeeTier.Platinum */\n      0x04\n      dup2\n      gt\n      iszero\n      tag_192\n      jumpi\n      tag_193\n      tag_157\n      jump\t// in\n    tag_193:\n    tag_192:\n        /* \"contracts/MockIDXFlow.sol\":6045:6046  t */\n      dup3\n        /* \"contracts/MockIDXFlow.sol\":6045:6066  t == FeeTier.Platinum */\n      0x04\n      dup2\n      gt\n      iszero\n      tag_194\n      jumpi\n      tag_195\n      tag_157\n      jump\t// in\n    tag_195:\n    tag_194:\n      sub\n        /* \"contracts/MockIDXFlow.sol\":6041:6078  if (t == FeeTier.Platinum) return 200 */\n      tag_196\n      jumpi\n        /* \"contracts/MockIDXFlow.sol\":6075:6078  200 */\n      0xc8\n        /* \"contracts/MockIDXFlow.sol\":6068:6078  return 200 */\n      swap1\n      pop\n      jump(tag_181)\n        /* \"contracts/MockIDXFlow.sol\":6041:6078  if (t == FeeTier.Platinum) return 200 */\n    tag_196:\n        /* \"contracts/MockIDXFlow.sol\":6097:6112  FeeTier.Diamond */\n      0x04\n        /* \"contracts/MockIDXFlow.sol\":6092:6112  t == FeeTier.Diamond */\n      dup1\n      dup2\n      gt\n      iszero\n      tag_197\n      jumpi\n      tag_198\n      tag_157\n      jump\t// in\n    tag_198:\n    tag_197:\n        /* \"contracts/MockIDXFlow.sol\":6092:6093  t */\n      dup3\n        /* \"contracts/MockIDXFlow.sol\":6092:6112  t == FeeTier.Diamond */\n      0x04\n      dup2\n      gt\n      iszero\n      tag_199\n      jumpi\n      tag_200\n      tag_157\n      jump\t// in\n    tag_200:\n    tag_199:\n      sub\n        /* \"contracts/MockIDXFlow.sol\":6088:6125  if (t == FeeTier.Diamond)  return 300 */\n      tag_201\n      jumpi\n        /* \"contracts/MockIDXFlow.sol\":6122:6125  300 */\n      0x012c\n        /* \"contracts/MockIDXFlow.sol\":6115:6125  return 300 */\n      swap1\n      pop\n      jump(tag_181)\n        /* \"contracts/MockIDXFlow.sol\":6088:6125  if (t == FeeTier.Diamond)  return 300 */\n    tag_201:\n        /* \"contracts/MockIDXFlow.sol\":6142:6145  100 */\n      0x64\n        /* \"contracts/MockIDXFlow.sol\":6135:6145  return 100 */\n      swap1\n      pop\n        /* \"contracts/MockIDXFlow.sol\":5864:6162  function _getRewardMultiplier(FeeTier t) internal pure returns (uint256) {... */\n    tag_181:\n      swap2\n      swap1\n      pop\n      jump\t// out\n        /* \"contracts/MockIDXFlow.sol\":5355:5684  function _calculateFeeTier(uint256 s) internal pure returns (FeeTier) {... */\n    tag_154:\n        /* \"contracts/MockIDXFlow.sol\":5416:5423  FeeTier */\n      0x00\n        /* \"contracts/MockIDXFlow.sol\":5443:5454  1_000 * 1e6 */\n      0x3b9aca00\n        /* \"contracts/MockIDXFlow.sol\":5439:5440  s */\n      dup3\n        /* \"contracts/MockIDXFlow.sol\":5439:5454  s < 1_000 * 1e6 */\n      lt\n        /* \"contracts/MockIDXFlow.sol\":5435:5480  if (s < 1_000 * 1e6)    return FeeTier.Bronze */\n      iszero\n      tag_203\n      jumpi\n        /* \"contracts/MockIDXFlow.sol\":5466:5480  FeeTier.Bronze */\n      0x00\n        /* \"contracts/MockIDXFlow.sol\":5459:5480  return FeeTier.Bronze */\n      swap1\n      pop\n      jump(tag_202)\n        /* \"contracts/MockIDXFlow.sol\":5435:5480  if (s < 1_000 * 1e6)    return FeeTier.Bronze */\n    tag_203:\n        /* \"contracts/MockIDXFlow.sol\":5498:5510  10_000 * 1e6 */\n      0x02540be400\n        /* \"contracts/MockIDXFlow.sol\":5494:5495  s */\n      dup3\n        /* \"contracts/MockIDXFlow.sol\":5494:5510  s < 10_000 * 1e6 */\n      lt\n        /* \"contracts/MockIDXFlow.sol\":5490:5535  if (s < 10_000 * 1e6)   return FeeTier.Silver */\n      iszero\n      tag_204\n      jumpi\n        /* \"contracts/MockIDXFlow.sol\":5521:5535  FeeTier.Silver */\n      0x01\n        /* \"contracts/MockIDXFlow.sol\":5514:5535  return FeeTier.Silver */\n      swap1\n      pop\n      jump(tag_202)\n        /* \"contracts/MockIDXFlow.sol\":5490:5535  if (s < 10_000 * 1e6)   return FeeTier.Silver */\n    tag_204:\n        /* \"contracts/MockIDXFlow.sol\":5553:5565  50_000 * 1e6 */\n      0x0ba43b7400\n        /* \"contracts/MockIDXFlow.sol\":5549:5550  s */\n      dup3\n        /* \"contracts/MockIDXFlow.sol\":5549:5565  s < 50_000 * 1e6 */\n      lt\n        /* \"contracts/MockIDXFlow.sol\":5545:5588  if (s < 50_000 * 1e6)   return FeeTier.Gold */\n      iszero\n      tag_205\n      jumpi\n        /* \"contracts/MockIDXFlow.sol\":5576:5588  FeeTier.Gold */\n      0x02\n        /* \"contracts/MockIDXFlow.sol\":5569:5588  return FeeTier.Gold */\n      swap1\n      pop\n      jump(tag_202)\n        /* \"contracts/MockIDXFlow.sol\":5545:5588  if (s < 50_000 * 1e6)   return FeeTier.Gold */\n    tag_205:\n        /* \"contracts/MockIDXFlow.sol\":5606:5619  100_000 * 1e6 */\n      0x174876e800\n        /* \"contracts/MockIDXFlow.sol\":5602:5603  s */\n      dup3\n        /* \"contracts/MockIDXFlow.sol\":5602:5619  s < 100_000 * 1e6 */\n      lt\n        /* \"contracts/MockIDXFlow.sol\":5598:5645  if (s < 100_000 * 1e6)  return FeeTier.Platinum */\n      iszero\n      tag_206\n      jumpi\n        /* \"contracts/MockIDXFlow.sol\":5629:5645  FeeTier.Platinum */\n      0x03\n        /* \"contracts/MockIDXFlow.sol\":5622:5645  return FeeTier.Platinum */\n      swap1\n      pop\n      jump(tag_202)\n        /* \"contracts/MockIDXFlow.sol\":5598:5645  if (s < 100_000 * 1e6)  return FeeTier.Platinum */\n    tag_206:\n        /* \"contracts/MockIDXFlow.sol\":5662:5677  FeeTier.Diamond */\n      0x04\n        /* \"contracts/MockIDXFlow.sol\":5655:5677  return FeeTier.Diamond */\n      swap1\n      pop\n        /* \"contracts/MockIDXFlow.sol\":5355:5684  function _calculateFeeTier(uint256 s) internal pure returns (FeeTier) {... */\n    tag_202:\n      swap2\n      swap1\n      pop\n      jump\t// out\n        /* \"@openzeppelin/contracts/access/AccessControl.sol\":3432:3629  function _checkRole(bytes32 role, address account) internal view virtual {... */\n    tag_169:\n        /* \"@openzeppelin/contracts/access/AccessControl.sol\":3520:3542  hasRole(role, account) */\n      tag_208\n        /* \"@openzeppelin/contracts/access/AccessControl.sol\":3528:3532  role */\n      dup3\n        /* \"@openzeppelin/contracts/access/AccessControl.sol\":3534:3541  account */\n      dup3\n        /* \"@openzeppelin/contracts/access/AccessControl.sol\":3520:3527  hasRole */\n      tag_52\n        /* \"@openzeppelin/contracts/access/AccessControl.sol\":3520:3542  hasRole(role, account) */\n      jump\t// in\n    tag_208:\n        /* \"@openzeppelin/contracts/access/AccessControl.sol\":3515:3623  if (!hasRole(role, account)) {... */\n      tag_209\n      jumpi\n        /* \"@openzeppelin/contracts/access/AccessControl.sol\":3598:3605  account */\n      dup1\n        /* \"@openzeppelin/contracts/access/AccessControl.sol\":3607:3611  role */\n      dup3\n        /* \"@openzeppelin/contracts/access/AccessControl.sol\":3565:3612  AccessControlUnauthorizedAccount(account, role) */\n      mload(0x40)\n      0xe2517d3f00000000000000000000000000000000000000000000000000000000\n      dup2\n      mstore\n      0x04\n      add\n      tag_210\n      swap3\n      swap2\n      swap1\n      tag_211\n      jump\t// in\n    tag_210:\n      mload(0x40)\n      dup1\n      swap2\n      sub\n      swap1\n      revert\n        /* \"@openzeppelin/contracts/access/AccessControl.sol\":3515:3623  if (!hasRole(role, account)) {... */\n    tag_209:\n        /* \"@openzeppelin/contracts/access/AccessControl.sol\":3432:3629  function _checkRole(bytes32 role, address account) internal view virtual {... */\n      pop\n      pop\n      jump\t// out\n        /* \"#utility.yul\":88:205   */\n    tag_213:\n        /* \"#utility.yul\":197:198   */\n      0x00\n        /* \"#utility.yul\":194:195   */\n      0x00\n        /* \"#utility.yul\":187:199   */\n      revert\n        /* \"#utility.yul\":334:483   */\n    tag_215:\n        /* \"#utility.yul\":370:377   */\n      0x00\n        /* \"#utility.yul\":410:476   */\n      0xffffffff00000000000000000000000000000000000000000000000000000000\n        /* \"#utility.yul\":403:408   */\n      dup3\n        /* \"#utility.yul\":399:477   */\n      and\n        /* \"#utility.yul\":388:477   */\n      swap1\n      pop\n        /* \"#utility.yul\":334:483   */\n      swap2\n      swap1\n      pop\n      jump\t// out\n        /* \"#utility.yul\":489:609   */\n    tag_216:\n        /* \"#utility.yul\":561:584   */\n      tag_257\n        /* \"#utility.yul\":578:583   */\n      dup2\n        /* \"#utility.yul\":561:584   */\n      tag_215\n      jump\t// in\n    tag_257:\n        /* \"#utility.yul\":554:559   */\n      dup2\n        /* \"#utility.yul\":551:585   */\n      eq\n        /* \"#utility.yul\":541:603   */\n      tag_258\n      jumpi\n        /* \"#utility.yul\":599:600   */\n      0x00\n        /* \"#utility.yul\":596:597   */\n      0x00\n        /* \"#utility.yul\":589:601   */\n      revert\n        /* \"#utility.yul\":541:603   */\n    tag_258:\n        /* \"#utility.yul\":489:609   */\n      pop\n      jump\t// out\n        /* \"#utility.yul\":615:752   */\n    tag_217:\n        /* \"#utility.yul\":660:665   */\n      0x00\n        /* \"#utility.yul\":698:704   */\n      dup2\n        /* \"#utility.yul\":685:705   */\n      calldataload\n        /* \"#utility.yul\":676:705   */\n      swap1\n      pop\n        /* \"#utility.yul\":714:746   */\n      tag_260\n        /* \"#utility.yul\":740:745   */\n      dup2\n        /* \"#utility.yul\":714:746   */\n      tag_216\n      jump\t// in\n    tag_260:\n        /* \"#utility.yul\":615:752   */\n      swap3\n      swap2\n      pop\n      pop\n      jump\t// out\n        /* \"#utility.yul\":758:1085   */\n    tag_26:\n        /* \"#utility.yul\":816:822   */\n      0x00\n        /* \"#utility.yul\":865:867   */\n      0x20\n        /* \"#utility.yul\":853:862   */\n      dup3\n        /* \"#utility.yul\":844:851   */\n      dup5\n        /* \"#utility.yul\":840:863   */\n      sub\n        /* \"#utility.yul\":836:868   */\n      slt\n        /* \"#utility.yul\":833:952   */\n      iszero\n      tag_262\n      jumpi\n        /* \"#utility.yul\":871:950   */\n      tag_263\n      tag_213\n      jump\t// in\n    tag_263:\n        /* \"#utility.yul\":833:952   */\n    tag_262:\n        /* \"#utility.yul\":991:992   */\n      0x00\n        /* \"#utility.yul\":1016:1068   */\n      tag_264\n        /* \"#utility.yul\":1060:1067   */\n      dup5\n        /* \"#utility.yul\":1051:1057   */\n      dup3\n        /* \"#utility.yul\":1040:1049   */\n      dup6\n        /* \"#utility.yul\":1036:1058   */\n      add\n        /* \"#utility.yul\":1016:1068   */\n      tag_217\n      jump\t// in\n    tag_264:\n        /* \"#utility.yul\":1006:1068   */\n      swap2\n      pop\n        /* \"#utility.yul\":962:1078   */\n      pop\n        /* \"#utility.yul\":758:1085   */\n      swap3\n      swap2\n      pop\n      pop\n      jump\t// out\n        /* \"#utility.yul\":1091:1181   */\n    tag_218:\n        /* \"#utility.yul\":1125:1132   */\n      0x00\n        /* \"#utility.yul\":1168:1173   */\n      dup2\n        /* \"#utility.yul\":1161:1174   */\n      iszero\n        /* \"#utility.yul\":1154:1175   */\n      iszero\n        /* \"#utility.yul\":1143:1175   */\n      swap1\n      pop\n        /* \"#utility.yul\":1091:1181   */\n      swap2\n      swap1\n      pop\n      jump\t// out\n        /* \"#utility.yul\":1187:1296   */\n    tag_219:\n        /* \"#utility.yul\":1268:1289   */\n      tag_267\n        /* \"#utility.yul\":1283:1288   */\n      dup2\n        /* \"#utility.yul\":1268:1289   */\n      tag_218\n      jump\t// in\n    tag_267:\n        /* \"#utility.yul\":1263:1266   */\n      dup3\n        /* \"#utility.yul\":1256:1290   */\n      mstore\n        /* \"#utility.yul\":1187:1296   */\n      pop\n      pop\n      jump\t// out\n        /* \"#utility.yul\":1302:1512   */\n    tag_29:\n        /* \"#utility.yul\":1389:1393   */\n      0x00\n        /* \"#utility.yul\":1427:1429   */\n      0x20\n        /* \"#utility.yul\":1416:1425   */\n      dup3\n        /* \"#utility.yul\":1412:1430   */\n      add\n        /* \"#utility.yul\":1404:1430   */\n      swap1\n      pop\n        /* \"#utility.yul\":1440:1505   */\n      tag_269\n        /* \"#utility.yul\":1502:1503   */\n      0x00\n        /* \"#utility.yul\":1491:1500   */\n      dup4\n        /* \"#utility.yul\":1487:1504   */\n      add\n        /* \"#utility.yul\":1478:1484   */\n      dup5\n        /* \"#utility.yul\":1440:1505   */\n      tag_219\n      jump\t// in\n    tag_269:\n        /* \"#utility.yul\":1302:1512   */\n      swap3\n      swap2\n      pop\n      pop\n      jump\t// out\n        /* \"#utility.yul\":1518:1595   */\n    tag_220:\n        /* \"#utility.yul\":1555:1562   */\n      0x00\n        /* \"#utility.yul\":1584:1589   */\n      dup2\n        /* \"#utility.yul\":1573:1589   */\n      swap1\n      pop\n        /* \"#utility.yul\":1518:1595   */\n      swap2\n      swap1\n      pop\n      jump\t// out\n        /* \"#utility.yul\":1601:1723   */\n    tag_221:\n        /* \"#utility.yul\":1674:1698   */\n      tag_272\n        /* \"#utility.yul\":1692:1697   */\n      dup2\n        /* \"#utility.yul\":1674:1698   */\n      tag_220\n      jump\t// in\n    tag_272:\n        /* \"#utility.yul\":1667:1672   */\n      dup2\n        /* \"#utility.yul\":1664:1699   */\n      eq\n        /* \"#utility.yul\":1654:1717   */\n      tag_273\n      jumpi\n        /* \"#utility.yul\":1713:1714   */\n      0x00\n        /* \"#utility.yul\":1710:1711   */\n      0x00\n        /* \"#utility.yul\":1703:1715   */\n      revert\n        /* \"#utility.yul\":1654:1717   */\n    tag_273:\n        /* \"#utility.yul\":1601:1723   */\n      pop\n      jump\t// out\n        /* \"#utility.yul\":1729:1868   */\n    tag_222:\n        /* \"#utility.yul\":1775:1780   */\n      0x00\n        /* \"#utility.yul\":1813:1819   */\n      dup2\n        /* \"#utility.yul\":1800:1820   */\n      calldataload\n        /* \"#utility.yul\":1791:1820   */\n      swap1\n      pop\n        /* \"#utility.yul\":1829:1862   */\n      tag_275\n        /* \"#utility.yul\":1856:1861   */\n      dup2\n        /* \"#utility.yul\":1829:1862   */\n      tag_221\n      jump\t// in\n    tag_275:\n        /* \"#utility.yul\":1729:1868   */\n      swap3\n      swap2\n      pop\n      pop\n      jump\t// out\n        /* \"#utility.yul\":1874:2203   */\n    tag_32:\n        /* \"#utility.yul\":1933:1939   */\n      0x00\n        /* \"#utility.yul\":1982:1984   */\n      0x20\n        /* \"#utility.yul\":1970:1979   */\n      dup3\n        /* \"#utility.yul\":1961:1968   */\n      dup5\n        /* \"#utility.yul\":1957:1980   */\n      sub\n        /* \"#utility.yul\":1953:1985   */\n      slt\n        /* \"#utility.yul\":1950:2069   */\n      iszero\n      tag_277\n      jumpi\n        /* \"#utility.yul\":1988:2067   */\n      tag_278\n      tag_213\n      jump\t// in\n    tag_278:\n        /* \"#utility.yul\":1950:2069   */\n    tag_277:\n        /* \"#utility.yul\":2108:2109   */\n      0x00\n        /* \"#utility.yul\":2133:2186   */\n      tag_279\n        /* \"#utility.yul\":2178:2185   */\n      dup5\n        /* \"#utility.yul\":2169:2175   */\n      dup3\n        /* \"#utility.yul\":2158:2167   */\n      dup6\n        /* \"#utility.yul\":2154:2176   */\n      add\n        /* \"#utility.yul\":2133:2186   */\n      tag_222\n      jump\t// in\n    tag_279:\n        /* \"#utility.yul\":2123:2186   */\n      swap2\n      pop\n        /* \"#utility.yul\":2079:2196   */\n      pop\n        /* \"#utility.yul\":1874:2203   */\n      swap3\n      swap2\n      pop\n      pop\n      jump\t// out\n        /* \"#utility.yul\":2209:2327   */\n    tag_223:\n        /* \"#utility.yul\":2296:2320   */\n      tag_281\n        /* \"#utility.yul\":2314:2319   */\n      dup2\n        /* \"#utility.yul\":2296:2320   */\n      tag_220\n      jump\t// in\n    tag_281:\n        /* \"#utility.yul\":2291:2294   */\n      dup3\n        /* \"#utility.yul\":2284:2321   */\n      mstore\n        /* \"#utility.yul\":2209:2327   */\n      pop\n      pop\n      jump\t// out\n        /* \"#utility.yul\":2333:2555   */\n    tag_35:\n        /* \"#utility.yul\":2426:2430   */\n      0x00\n        /* \"#utility.yul\":2464:2466   */\n      0x20\n        /* \"#utility.yul\":2453:2462   */\n      dup3\n        /* \"#utility.yul\":2449:2467   */\n      add\n        /* \"#utility.yul\":2441:2467   */\n      swap1\n      pop\n        /* \"#utility.yul\":2477:2548   */\n      tag_283\n        /* \"#utility.yul\":2545:2546   */\n      0x00\n        /* \"#utility.yul\":2534:2543   */\n      dup4\n        /* \"#utility.yul\":2530:2547   */\n      add\n        /* \"#utility.yul\":2521:2527   */\n      dup5\n        /* \"#utility.yul\":2477:2548   */\n      tag_223\n      jump\t// in\n    tag_283:\n        /* \"#utility.yul\":2333:2555   */\n      swap3\n      swap2\n      pop\n      pop\n      jump\t// out\n        /* \"#utility.yul\":2561:2687   */\n    tag_224:\n        /* \"#utility.yul\":2598:2605   */\n      0x00\n        /* \"#utility.yul\":2638:2680   */\n      0xffffffffffffffffffffffffffffffffffffffff\n        /* \"#utility.yul\":2631:2636   */\n      dup3\n        /* \"#utility.yul\":2627:2681   */\n      and\n        /* \"#utility.yul\":2616:2681   */\n      swap1\n      pop\n        /* \"#utility.yul\":2561:2687   */\n      swap2\n      swap1\n      pop\n      jump\t// out\n        /* \"#utility.yul\":2693:2789   */\n    tag_225:\n        /* \"#utility.yul\":2730:2737   */\n      0x00\n        /* \"#utility.yul\":2759:2783   */\n      tag_286\n        /* \"#utility.yul\":2777:2782   */\n      dup3\n        /* \"#utility.yul\":2759:2783   */\n      tag_224\n      jump\t// in\n    tag_286:\n        /* \"#utility.yul\":2748:2783   */\n      swap1\n      pop\n        /* \"#utility.yul\":2693:2789   */\n      swap2\n      swap1\n      pop\n      jump\t// out\n        /* \"#utility.yul\":2795:2917   */\n    tag_226:\n        /* \"#utility.yul\":2868:2892   */\n      tag_288\n        /* \"#utility.yul\":2886:2891   */\n      dup2\n        /* \"#utility.yul\":2868:2892   */\n      tag_225\n      jump\t// in\n    tag_288:\n        /* \"#utility.yul\":2861:2866   */\n      dup2\n        /* \"#utility.yul\":2858:2893   */\n      eq\n        /* \"#utility.yul\":2848:2911   */\n      tag_289\n      jumpi\n        /* \"#utility.yul\":2907:2908   */\n      0x00\n        /* \"#utility.yul\":2904:2905   */\n      0x00\n        /* \"#utility.yul\":2897:2909   */\n      revert\n        /* \"#utility.yul\":2848:2911   */\n    tag_289:\n        /* \"#utility.yul\":2795:2917   */\n      pop\n      jump\t// out\n        /* \"#utility.yul\":2923:3062   */\n    tag_227:\n        /* \"#utility.yul\":2969:2974   */\n      0x00\n        /* \"#utility.yul\":3007:3013   */\n      dup2\n        /* \"#utility.yul\":2994:3014   */\n      calldataload\n        /* \"#utility.yul\":2985:3014   */\n      swap1\n      pop\n        /* \"#utility.yul\":3023:3056   */\n      tag_291\n        /* \"#utility.yul\":3050:3055   */\n      dup2\n        /* \"#utility.yul\":3023:3056   */\n      tag_226\n      jump\t// in\n    tag_291:\n        /* \"#utility.yul\":2923:3062   */\n      swap3\n      swap2\n      pop\n      pop\n      jump\t// out\n        /* \"#utility.yul\":3068:3542   */\n    tag_38:\n        /* \"#utility.yul\":3136:3142   */\n      0x00\n        /* \"#utility.yul\":3144:3150   */\n      0x00\n        /* \"#utility.yul\":3193:3195   */\n      0x40\n        /* \"#utility.yul\":3181:3190   */\n      dup4\n        /* \"#utility.yul\":3172:3179   */\n      dup6\n        /* \"#utility.yul\":3168:3191   */\n      sub\n        /* \"#utility.yul\":3164:3196   */\n      slt\n        /* \"#utility.yul\":3161:3280   */\n      iszero\n      tag_293\n      jumpi\n        /* \"#utility.yul\":3199:3278   */\n      tag_294\n      tag_213\n      jump\t// in\n    tag_294:\n        /* \"#utility.yul\":3161:3280   */\n    tag_293:\n        /* \"#utility.yul\":3319:3320   */\n      0x00\n        /* \"#utility.yul\":3344:3397   */\n      tag_295\n        /* \"#utility.yul\":3389:3396   */\n      dup6\n        /* \"#utility.yul\":3380:3386   */\n      dup3\n        /* \"#utility.yul\":3369:3378   */\n      dup7\n        /* \"#utility.yul\":3365:3387   */\n      add\n        /* \"#utility.yul\":3344:3397   */\n      tag_222\n      jump\t// in\n    tag_295:\n        /* \"#utility.yul\":3334:3397   */\n      swap3\n      pop\n        /* \"#utility.yul\":3290:3407   */\n      pop\n        /* \"#utility.yul\":3446:3448   */\n      0x20\n        /* \"#utility.yul\":3472:3525   */\n      tag_296\n        /* \"#utility.yul\":3517:3524   */\n      dup6\n        /* \"#utility.yul\":3508:3514   */\n      dup3\n        /* \"#utility.yul\":3497:3506   */\n      dup7\n        /* \"#utility.yul\":3493:3515   */\n      add\n        /* \"#utility.yul\":3472:3525   */\n      tag_227\n      jump\t// in\n    tag_296:\n        /* \"#utility.yul\":3462:3525   */\n      swap2\n      pop\n        /* \"#utility.yul\":3417:3535   */\n      pop\n        /* \"#utility.yul\":3068:3542   */\n      swap3\n      pop\n      swap3\n      swap1\n      pop\n      jump\t// out\n        /* \"#utility.yul\":3548:3625   */\n    tag_228:\n        /* \"#utility.yul\":3585:3592   */\n      0x00\n        /* \"#utility.yul\":3614:3619   */\n      dup2\n        /* \"#utility.yul\":3603:3619   */\n      swap1\n      pop\n        /* \"#utility.yul\":3548:3625   */\n      swap2\n      swap1\n      pop\n      jump\t// out\n        /* \"#utility.yul\":3631:3749   */\n    tag_229:\n        /* \"#utility.yul\":3718:3742   */\n      tag_299\n        /* \"#utility.yul\":3736:3741   */\n      dup2\n        /* \"#utility.yul\":3718:3742   */\n      tag_228\n      jump\t// in\n    tag_299:\n        /* \"#utility.yul\":3713:3716   */\n      dup3\n        /* \"#utility.yul\":3706:3743   */\n      mstore\n        /* \"#utility.yul\":3631:3749   */\n      pop\n      pop\n      jump\t// out\n        /* \"#utility.yul\":3755:3977   */\n    tag_46:\n        /* \"#utility.yul\":3848:3852   */\n      0x00\n        /* \"#utility.yul\":3886:3888   */\n      0x20\n        /* \"#utility.yul\":3875:3884   */\n      dup3\n        /* \"#utility.yul\":3871:3889   */\n      add\n        /* \"#utility.yul\":3863:3889   */\n      swap1\n      pop\n        /* \"#utility.yul\":3899:3970   */\n      tag_301\n        /* \"#utility.yul\":3967:3968   */\n      0x00\n        /* \"#utility.yul\":3956:3965   */\n      dup4\n        /* \"#utility.yul\":3952:3969   */\n      add\n        /* \"#utility.yul\":3943:3949   */\n      dup5\n        /* \"#utility.yul\":3899:3970   */\n      tag_229\n      jump\t// in\n    tag_301:\n        /* \"#utility.yul\":3755:3977   */\n      swap3\n      swap2\n      pop\n      pop\n      jump\t// out\n        /* \"#utility.yul\":3983:4312   */\n    tag_62:\n        /* \"#utility.yul\":4042:4048   */\n      0x00\n        /* \"#utility.yul\":4091:4093   */\n      0x20\n        /* \"#utility.yul\":4079:4088   */\n      dup3\n        /* \"#utility.yul\":4070:4077   */\n      dup5\n        /* \"#utility.yul\":4066:4089   */\n      sub\n        /* \"#utility.yul\":4062:4094   */\n      slt\n        /* \"#utility.yul\":4059:4178   */\n      iszero\n      tag_303\n      jumpi\n        /* \"#utility.yul\":4097:4176   */\n      tag_304\n      tag_213\n      jump\t// in\n    tag_304:\n        /* \"#utility.yul\":4059:4178   */\n    tag_303:\n        /* \"#utility.yul\":4217:4218   */\n      0x00\n        /* \"#utility.yul\":4242:4295   */\n      tag_305\n        /* \"#utility.yul\":4287:4294   */\n      dup5\n        /* \"#utility.yul\":4278:4284   */\n      dup3\n        /* \"#utility.yul\":4267:4276   */\n      dup6\n        /* \"#utility.yul\":4263:4285   */\n      add\n        /* \"#utility.yul\":4242:4295   */\n      tag_227\n      jump\t// in\n    tag_305:\n        /* \"#utility.yul\":4232:4295   */\n      swap2\n      pop\n        /* \"#utility.yul\":4188:4305   */\n      pop\n        /* \"#utility.yul\":3983:4312   */\n      swap3\n      swap2\n      pop\n      pop\n      jump\t// out\n        /* \"#utility.yul\":4318:4498   */\n    tag_157:\n        /* \"#utility.yul\":4366:4443   */\n      0x4e487b7100000000000000000000000000000000000000000000000000000000\n        /* \"#utility.yul\":4363:4364   */\n      0x00\n        /* \"#utility.yul\":4356:4444   */\n      mstore\n        /* \"#utility.yul\":4463:4467   */\n      0x21\n        /* \"#utility.yul\":4460:4461   */\n      0x04\n        /* \"#utility.yul\":4453:4468   */\n      mstore\n        /* \"#utility.yul\":4487:4491   */\n      0x24\n        /* \"#utility.yul\":4484:4485   */\n      0x00\n        /* \"#utility.yul\":4477:4492   */\n      revert\n        /* \"#utility.yul\":4504:4620   */\n    tag_230:\n        /* \"#utility.yul\":4588:4589   */\n      0x05\n        /* \"#utility.yul\":4581:4586   */\n      dup2\n        /* \"#utility.yul\":4578:4590   */\n      lt\n        /* \"#utility.yul\":4568:4614   */\n      tag_308\n      jumpi\n        /* \"#utility.yul\":4594:4612   */\n      tag_309\n      tag_157\n      jump\t// in\n    tag_309:\n        /* \"#utility.yul\":4568:4614   */\n    tag_308:\n        /* \"#utility.yul\":4504:4620   */\n      pop\n      jump\t// out\n        /* \"#utility.yul\":4626:4759   */\n    tag_231:\n        /* \"#utility.yul\":4674:4681   */\n      0x00\n        /* \"#utility.yul\":4703:4708   */\n      dup2\n        /* \"#utility.yul\":4692:4708   */\n      swap1\n      pop\n        /* \"#utility.yul\":4709:4753   */\n      tag_311\n        /* \"#utility.yul\":4747:4752   */\n      dup3\n        /* \"#utility.yul\":4709:4753   */\n      tag_230\n      jump\t// in\n    tag_311:\n        /* \"#utility.yul\":4626:4759   */\n      swap2\n      swap1\n      pop\n      jump\t// out\n        /* \"#utility.yul\":4765:4898   */\n    tag_232:\n        /* \"#utility.yul\":4824:4833   */\n      0x00\n        /* \"#utility.yul\":4857:4892   */\n      tag_313\n        /* \"#utility.yul\":4886:4891   */\n      dup3\n        /* \"#utility.yul\":4857:4892   */\n      tag_231\n      jump\t// in\n    tag_313:\n        /* \"#utility.yul\":4844:4892   */\n      swap1\n      pop\n        /* \"#utility.yul\":4765:4898   */\n      swap2\n      swap1\n      pop\n      jump\t// out\n        /* \"#utility.yul\":4904:5053   */\n    tag_233:\n        /* \"#utility.yul\":5000:5046   */\n      tag_315\n        /* \"#utility.yul\":5040:5045   */\n      dup2\n        /* \"#utility.yul\":5000:5046   */\n      tag_232\n      jump\t// in\n    tag_315:\n        /* \"#utility.yul\":4995:4998   */\n      dup3\n        /* \"#utility.yul\":4988:5047   */\n      mstore\n        /* \"#utility.yul\":4904:5053   */\n      pop\n      pop\n      jump\t// out\n        /* \"#utility.yul\":5059:5729   */\n    tag_65:\n        /* \"#utility.yul\":5267:5271   */\n      0x00\n        /* \"#utility.yul\":5305:5308   */\n      0xa0\n        /* \"#utility.yul\":5294:5303   */\n      dup3\n        /* \"#utility.yul\":5290:5309   */\n      add\n        /* \"#utility.yul\":5282:5309   */\n      swap1\n      pop\n        /* \"#utility.yul\":5319:5390   */\n      tag_317\n        /* \"#utility.yul\":5387:5388   */\n      0x00\n        /* \"#utility.yul\":5376:5385   */\n      dup4\n        /* \"#utility.yul\":5372:5389   */\n      add\n        /* \"#utility.yul\":5363:5369   */\n      dup9\n        /* \"#utility.yul\":5319:5390   */\n      tag_229\n      jump\t// in\n    tag_317:\n        /* \"#utility.yul\":5400:5472   */\n      tag_318\n        /* \"#utility.yul\":5468:5470   */\n      0x20\n        /* \"#utility.yul\":5457:5466   */\n      dup4\n        /* \"#utility.yul\":5453:5471   */\n      add\n        /* \"#utility.yul\":5444:5450   */\n      dup8\n        /* \"#utility.yul\":5400:5472   */\n      tag_229\n      jump\t// in\n    tag_318:\n        /* \"#utility.yul\":5482:5563   */\n      tag_319\n        /* \"#utility.yul\":5559:5561   */\n      0x40\n        /* \"#utility.yul\":5548:5557   */\n      dup4\n        /* \"#utility.yul\":5544:5562   */\n      add\n        /* \"#utility.yul\":5535:5541   */\n      dup7\n        /* \"#utility.yul\":5482:5563   */\n      tag_233\n      jump\t// in\n    tag_319:\n        /* \"#utility.yul\":5573:5645   */\n      tag_320\n        /* \"#utility.yul\":5641:5643   */\n      0x60\n        /* \"#utility.yul\":5630:5639   */\n      dup4\n        /* \"#utility.yul\":5626:5644   */\n      add\n        /* \"#utility.yul\":5617:5623   */\n      dup6\n        /* \"#utility.yul\":5573:5645   */\n      tag_229\n      jump\t// in\n    tag_320:\n        /* \"#utility.yul\":5655:5722   */\n      tag_321\n        /* \"#utility.yul\":5717:5720   */\n      0x80\n        /* \"#utility.yul\":5706:5715   */\n      dup4\n        /* \"#utility.yul\":5702:5721   */\n      add\n        /* \"#utility.yul\":5693:5699   */\n      dup5\n        /* \"#utility.yul\":5655:5722   */\n      tag_219\n      jump\t// in\n    tag_321:\n        /* \"#utility.yul\":5059:5729   */\n      swap7\n      swap6\n      pop\n      pop\n      pop\n      pop\n      pop\n      pop\n      jump\t// out\n        /* \"#utility.yul\":5735:5857   */\n    tag_234:\n        /* \"#utility.yul\":5808:5832   */\n      tag_323\n        /* \"#utility.yul\":5826:5831   */\n      dup2\n        /* \"#utility.yul\":5808:5832   */\n      tag_228\n      jump\t// in\n    tag_323:\n        /* \"#utility.yul\":5801:5806   */\n      dup2\n        /* \"#utility.yul\":5798:5833   */\n      eq\n        /* \"#utility.yul\":5788:5851   */\n      tag_324\n      jumpi\n        /* \"#utility.yul\":5847:5848   */\n      0x00\n        /* \"#utility.yul\":5844:5845   */\n      0x00\n        /* \"#utility.yul\":5837:5849   */\n      revert\n        /* \"#utility.yul\":5788:5851   */\n    tag_324:\n        /* \"#utility.yul\":5735:5857   */\n      pop\n      jump\t// out\n        /* \"#utility.yul\":5863:6002   */\n    tag_235:\n        /* \"#utility.yul\":5909:5914   */\n      0x00\n        /* \"#utility.yul\":5947:5953   */\n      dup2\n        /* \"#utility.yul\":5934:5954   */\n      calldataload\n        /* \"#utility.yul\":5925:5954   */\n      swap1\n      pop\n        /* \"#utility.yul\":5963:5996   */\n      tag_326\n        /* \"#utility.yul\":5990:5995   */\n      dup2\n        /* \"#utility.yul\":5963:5996   */\n      tag_234\n      jump\t// in\n    tag_326:\n        /* \"#utility.yul\":5863:6002   */\n      swap3\n      swap2\n      pop\n      pop\n      jump\t// out\n        /* \"#utility.yul\":6008:6337   */\n    tag_68:\n        /* \"#utility.yul\":6067:6073   */\n      0x00\n        /* \"#utility.yul\":6116:6118   */\n      0x20\n        /* \"#utility.yul\":6104:6113   */\n      dup3\n        /* \"#utility.yul\":6095:6102   */\n      dup5\n        /* \"#utility.yul\":6091:6114   */\n      sub\n        /* \"#utility.yul\":6087:6119   */\n      slt\n        /* \"#utility.yul\":6084:6203   */\n      iszero\n      tag_328\n      jumpi\n        /* \"#utility.yul\":6122:6201   */\n      tag_329\n      tag_213\n      jump\t// in\n    tag_329:\n        /* \"#utility.yul\":6084:6203   */\n    tag_328:\n        /* \"#utility.yul\":6242:6243   */\n      0x00\n        /* \"#utility.yul\":6267:6320   */\n      tag_330\n        /* \"#utility.yul\":6312:6319   */\n      dup5\n        /* \"#utility.yul\":6303:6309   */\n      dup3\n        /* \"#utility.yul\":6292:6301   */\n      dup6\n        /* \"#utility.yul\":6288:6310   */\n      add\n        /* \"#utility.yul\":6267:6320   */\n      tag_235\n      jump\t// in\n    tag_330:\n        /* \"#utility.yul\":6257:6320   */\n      swap2\n      pop\n        /* \"#utility.yul\":6213:6330   */\n      pop\n        /* \"#utility.yul\":6008:6337   */\n      swap3\n      swap2\n      pop\n      pop\n      jump\t// out\n        /* \"#utility.yul\":6343:6896   */\n    tag_89:\n        /* \"#utility.yul\":6520:6524   */\n      0x00\n        /* \"#utility.yul\":6558:6561   */\n      0x80\n        /* \"#utility.yul\":6547:6556   */\n      dup3\n        /* \"#utility.yul\":6543:6562   */\n      add\n        /* \"#utility.yul\":6535:6562   */\n      swap1\n      pop\n        /* \"#utility.yul\":6572:6643   */\n      tag_332\n        /* \"#utility.yul\":6640:6641   */\n      0x00\n        /* \"#utility.yul\":6629:6638   */\n      dup4\n        /* \"#utility.yul\":6625:6642   */\n      add\n        /* \"#utility.yul\":6616:6622   */\n      dup8\n        /* \"#utility.yul\":6572:6643   */\n      tag_229\n      jump\t// in\n    tag_332:\n        /* \"#utility.yul\":6653:6725   */\n      tag_333\n        /* \"#utility.yul\":6721:6723   */\n      0x20\n        /* \"#utility.yul\":6710:6719   */\n      dup4\n        /* \"#utility.yul\":6706:6724   */\n      add\n        /* \"#utility.yul\":6697:6703   */\n      dup7\n        /* \"#utility.yul\":6653:6725   */\n      tag_229\n      jump\t// in\n    tag_333:\n        /* \"#utility.yul\":6735:6807   */\n      tag_334\n        /* \"#utility.yul\":6803:6805   */\n      0x40\n        /* \"#utility.yul\":6792:6801   */\n      dup4\n        /* \"#utility.yul\":6788:6806   */\n      add\n        /* \"#utility.yul\":6779:6785   */\n      dup6\n        /* \"#utility.yul\":6735:6807   */\n      tag_229\n      jump\t// in\n    tag_334:\n        /* \"#utility.yul\":6817:6889   */\n      tag_335\n        /* \"#utility.yul\":6885:6887   */\n      0x60\n        /* \"#utility.yul\":6874:6883   */\n      dup4\n        /* \"#utility.yul\":6870:6888   */\n      add\n        /* \"#utility.yul\":6861:6867   */\n      dup5\n        /* \"#utility.yul\":6817:6889   */\n      tag_229\n      jump\t// in\n    tag_335:\n        /* \"#utility.yul\":6343:6896   */\n      swap6\n      swap5\n      pop\n      pop\n      pop\n      pop\n      pop\n      jump\t// out\n        /* \"#utility.yul\":6902:6962   */\n    tag_236:\n        /* \"#utility.yul\":6930:6933   */\n      0x00\n        /* \"#utility.yul\":6951:6956   */\n      dup2\n        /* \"#utility.yul\":6944:6956   */\n      swap1\n      pop\n        /* \"#utility.yul\":6902:6962   */\n      swap2\n      swap1\n      pop\n      jump\t// out\n        /* \"#utility.yul\":6968:7110   */\n    tag_237:\n        /* \"#utility.yul\":7018:7027   */\n      0x00\n        /* \"#utility.yul\":7051:7104   */\n      tag_338\n        /* \"#utility.yul\":7069:7103   */\n      tag_339\n        /* \"#utility.yul\":7078:7102   */\n      tag_340\n        /* \"#utility.yul\":7096:7101   */\n      dup5\n        /* \"#utility.yul\":7078:7102   */\n      tag_224\n      jump\t// in\n    tag_340:\n        /* \"#utility.yul\":7069:7103   */\n      tag_236\n      jump\t// in\n    tag_339:\n        /* \"#utility.yul\":7051:7104   */\n      tag_224\n      jump\t// in\n    tag_338:\n        /* \"#utility.yul\":7038:7104   */\n      swap1\n      pop\n        /* \"#utility.yul\":6968:7110   */\n      swap2\n      swap1\n      pop\n      jump\t// out\n        /* \"#utility.yul\":7116:7242   */\n    tag_238:\n        /* \"#utility.yul\":7166:7175   */\n      0x00\n        /* \"#utility.yul\":7199:7236   */\n      tag_342\n        /* \"#utility.yul\":7230:7235   */\n      dup3\n        /* \"#utility.yul\":7199:7236   */\n      tag_237\n      jump\t// in\n    tag_342:\n        /* \"#utility.yul\":7186:7236   */\n      swap1\n      pop\n        /* \"#utility.yul\":7116:7242   */\n      swap2\n      swap1\n      pop\n      jump\t// out\n        /* \"#utility.yul\":7248:7388   */\n    tag_239:\n        /* \"#utility.yul\":7312:7321   */\n      0x00\n        /* \"#utility.yul\":7345:7382   */\n      tag_344\n        /* \"#utility.yul\":7376:7381   */\n      dup3\n        /* \"#utility.yul\":7345:7382   */\n      tag_238\n      jump\t// in\n    tag_344:\n        /* \"#utility.yul\":7332:7382   */\n      swap1\n      pop\n        /* \"#utility.yul\":7248:7388   */\n      swap2\n      swap1\n      pop\n      jump\t// out\n        /* \"#utility.yul\":7394:7553   */\n    tag_240:\n        /* \"#utility.yul\":7495:7546   */\n      tag_346\n        /* \"#utility.yul\":7540:7545   */\n      dup2\n        /* \"#utility.yul\":7495:7546   */\n      tag_239\n      jump\t// in\n    tag_346:\n        /* \"#utility.yul\":7490:7493   */\n      dup3\n        /* \"#utility.yul\":7483:7547   */\n      mstore\n        /* \"#utility.yul\":7394:7553   */\n      pop\n      pop\n      jump\t// out\n        /* \"#utility.yul\":7559:7809   */\n    tag_93:\n        /* \"#utility.yul\":7666:7670   */\n      0x00\n        /* \"#utility.yul\":7704:7706   */\n      0x20\n        /* \"#utility.yul\":7693:7702   */\n      dup3\n        /* \"#utility.yul\":7689:7707   */\n      add\n        /* \"#utility.yul\":7681:7707   */\n      swap1\n      pop\n        /* \"#utility.yul\":7717:7802   */\n      tag_348\n        /* \"#utility.yul\":7799:7800   */\n      0x00\n        /* \"#utility.yul\":7788:7797   */\n      dup4\n        /* \"#utility.yul\":7784:7801   */\n      add\n        /* \"#utility.yul\":7775:7781   */\n      dup5\n        /* \"#utility.yul\":7717:7802   */\n      tag_240\n      jump\t// in\n    tag_348:\n        /* \"#utility.yul\":7559:7809   */\n      swap3\n      swap2\n      pop\n      pop\n      jump\t// out\n        /* \"#utility.yul\":7815:7984   */\n    tag_241:\n        /* \"#utility.yul\":7899:7910   */\n      0x00\n        /* \"#utility.yul\":7933:7939   */\n      dup3\n        /* \"#utility.yul\":7928:7931   */\n      dup3\n        /* \"#utility.yul\":7921:7940   */\n      mstore\n        /* \"#utility.yul\":7973:7977   */\n      0x20\n        /* \"#utility.yul\":7968:7971   */\n      dup3\n        /* \"#utility.yul\":7964:7978   */\n      add\n        /* \"#utility.yul\":7949:7978   */\n      swap1\n      pop\n        /* \"#utility.yul\":7815:7984   */\n      swap3\n      swap2\n      pop\n      pop\n      jump\t// out\n        /* \"#utility.yul\":7990:8155   */\n    tag_242:\n        /* \"#utility.yul\":8130:8147   */\n      0x416c726561647920636c61696d65640000000000000000000000000000000000\n        /* \"#utility.yul\":8126:8127   */\n      0x00\n        /* \"#utility.yul\":8118:8124   */\n      dup3\n        /* \"#utility.yul\":8114:8128   */\n      add\n        /* \"#utility.yul\":8107:8148   */\n      mstore\n        /* \"#utility.yul\":7990:8155   */\n      pop\n      jump\t// out\n        /* \"#utility.yul\":8161:8527   */\n    tag_243:\n        /* \"#utility.yul\":8303:8306   */\n      0x00\n        /* \"#utility.yul\":8324:8391   */\n      tag_352\n        /* \"#utility.yul\":8388:8390   */\n      0x0f\n        /* \"#utility.yul\":8383:8386   */\n      dup4\n        /* \"#utility.yul\":8324:8391   */\n      tag_241\n      jump\t// in\n    tag_352:\n        /* \"#utility.yul\":8317:8391   */\n      swap2\n      pop\n        /* \"#utility.yul\":8400:8493   */\n      tag_353\n        /* \"#utility.yul\":8489:8492   */\n      dup3\n        /* \"#utility.yul\":8400:8493   */\n      tag_242\n      jump\t// in\n    tag_353:\n        /* \"#utility.yul\":8518:8520   */\n      0x20\n        /* \"#utility.yul\":8513:8516   */\n      dup3\n        /* \"#utility.yul\":8509:8521   */\n      add\n        /* \"#utility.yul\":8502:8521   */\n      swap1\n      pop\n        /* \"#utility.yul\":8161:8527   */\n      swap2\n      swap1\n      pop\n      jump\t// out\n        /* \"#utility.yul\":8533:8952   */\n    tag_116:\n        /* \"#utility.yul\":8699:8703   */\n      0x00\n        /* \"#utility.yul\":8737:8739   */\n      0x20\n        /* \"#utility.yul\":8726:8735   */\n      dup3\n        /* \"#utility.yul\":8722:8740   */\n      add\n        /* \"#utility.yul\":8714:8740   */\n      swap1\n      pop\n        /* \"#utility.yul\":8786:8795   */\n      dup2\n        /* \"#utility.yul\":8780:8784   */\n      dup2\n        /* \"#utility.yul\":8776:8796   */\n      sub\n        /* \"#utility.yul\":8772:8773   */\n      0x00\n        /* \"#utility.yul\":8761:8770   */\n      dup4\n        /* \"#utility.yul\":8757:8774   */\n      add\n        /* \"#utility.yul\":8750:8797   */\n      mstore\n        /* \"#utility.yul\":8814:8945   */\n      tag_355\n        /* \"#utility.yul\":8940:8944   */\n      dup2\n        /* \"#utility.yul\":8814:8945   */\n      tag_243\n      jump\t// in\n    tag_355:\n        /* \"#utility.yul\":8806:8945   */\n      swap1\n      pop\n        /* \"#utility.yul\":8533:8952   */\n      swap2\n      swap1\n      pop\n      jump\t// out\n        /* \"#utility.yul\":8958:9122   */\n    tag_244:\n        /* \"#utility.yul\":9098:9114   */\n      0x566f6c756d6520746f6f206c6f77000000000000000000000000000000000000\n        /* \"#utility.yul\":9094:9095   */\n      0x00\n        /* \"#utility.yul\":9086:9092   */\n      dup3\n        /* \"#utility.yul\":9082:9096   */\n      add\n        /* \"#utility.yul\":9075:9115   */\n      mstore\n        /* \"#utility.yul\":8958:9122   */\n      pop\n      jump\t// out\n        /* \"#utility.yul\":9128:9494   */\n    tag_245:\n        /* \"#utility.yul\":9270:9273   */\n      0x00\n        /* \"#utility.yul\":9291:9358   */\n      tag_358\n        /* \"#utility.yul\":9355:9357   */\n      0x0e\n        /* \"#utility.yul\":9350:9353   */\n      dup4\n        /* \"#utility.yul\":9291:9358   */\n      tag_241\n      jump\t// in\n    tag_358:\n        /* \"#utility.yul\":9284:9358   */\n      swap2\n      pop\n        /* \"#utility.yul\":9367:9460   */\n      tag_359\n        /* \"#utility.yul\":9456:9459   */\n      dup3\n        /* \"#utility.yul\":9367:9460   */\n      tag_244\n      jump\t// in\n    tag_359:\n        /* \"#utility.yul\":9485:9487   */\n      0x20\n        /* \"#utility.yul\":9480:9483   */\n      dup3\n        /* \"#utility.yul\":9476:9488   */\n      add\n        /* \"#utility.yul\":9469:9488   */\n      swap1\n      pop\n        /* \"#utility.yul\":9128:9494   */\n      swap2\n      swap1\n      pop\n      jump\t// out\n        /* \"#utility.yul\":9500:9919   */\n    tag_119:\n        /* \"#utility.yul\":9666:9670   */\n      0x00\n        /* \"#utility.yul\":9704:9706   */\n      0x20\n        /* \"#utility.yul\":9693:9702   */\n      dup3\n        /* \"#utility.yul\":9689:9707   */\n      add\n        /* \"#utility.yul\":9681:9707   */\n      swap1\n      pop\n        /* \"#utility.yul\":9753:9762   */\n      dup2\n        /* \"#utility.yul\":9747:9751   */\n      dup2\n        /* \"#utility.yul\":9743:9763   */\n      sub\n        /* \"#utility.yul\":9739:9740   */\n      0x00\n        /* \"#utility.yul\":9728:9737   */\n      dup4\n        /* \"#utility.yul\":9724:9741   */\n      add\n        /* \"#utility.yul\":9717:9764   */\n      mstore\n        /* \"#utility.yul\":9781:9912   */\n      tag_361\n        /* \"#utility.yul\":9907:9911   */\n      dup2\n        /* \"#utility.yul\":9781:9912   */\n      tag_245\n      jump\t// in\n    tag_361:\n        /* \"#utility.yul\":9773:9912   */\n      swap1\n      pop\n        /* \"#utility.yul\":9500:9919   */\n      swap2\n      swap1\n      pop\n      jump\t// out\n        /* \"#utility.yul\":9925:10105   */\n    tag_246:\n        /* \"#utility.yul\":9973:10050   */\n      0x4e487b7100000000000000000000000000000000000000000000000000000000\n        /* \"#utility.yul\":9970:9971   */\n      0x00\n        /* \"#utility.yul\":9963:10051   */\n      mstore\n        /* \"#utility.yul\":10070:10074   */\n      0x11\n        /* \"#utility.yul\":10067:10068   */\n      0x04\n        /* \"#utility.yul\":10060:10075   */\n      mstore\n        /* \"#utility.yul\":10094:10098   */\n      0x24\n        /* \"#utility.yul\":10091:10092   */\n      0x00\n        /* \"#utility.yul\":10084:10099   */\n      revert\n        /* \"#utility.yul\":10111:10521   */\n    tag_121:\n        /* \"#utility.yul\":10151:10158   */\n      0x00\n        /* \"#utility.yul\":10174:10194   */\n      tag_364\n        /* \"#utility.yul\":10192:10193   */\n      dup3\n        /* \"#utility.yul\":10174:10194   */\n      tag_228\n      jump\t// in\n    tag_364:\n        /* \"#utility.yul\":10169:10194   */\n      swap2\n      pop\n        /* \"#utility.yul\":10208:10228   */\n      tag_365\n        /* \"#utility.yul\":10226:10227   */\n      dup4\n        /* \"#utility.yul\":10208:10228   */\n      tag_228\n      jump\t// in\n    tag_365:\n        /* \"#utility.yul\":10203:10228   */\n      swap3\n      pop\n        /* \"#utility.yul\":10263:10264   */\n      dup3\n        /* \"#utility.yul\":10260:10261   */\n      dup3\n        /* \"#utility.yul\":10256:10265   */\n      mul\n        /* \"#utility.yul\":10285:10315   */\n      tag_366\n        /* \"#utility.yul\":10303:10314   */\n      dup2\n        /* \"#utility.yul\":10285:10315   */\n      tag_228\n      jump\t// in\n    tag_366:\n        /* \"#utility.yul\":10274:10315   */\n      swap2\n      pop\n        /* \"#utility.yul\":10464:10465   */\n      dup3\n        /* \"#utility.yul\":10455:10462   */\n      dup3\n        /* \"#utility.yul\":10451:10466   */\n      div\n        /* \"#utility.yul\":10448:10449   */\n      dup5\n        /* \"#utility.yul\":10445:10467   */\n      eq\n        /* \"#utility.yul\":10425:10426   */\n      dup4\n        /* \"#utility.yul\":10418:10427   */\n      iszero\n        /* \"#utility.yul\":10398:10481   */\n      or\n        /* \"#utility.yul\":10375:10514   */\n      tag_367\n      jumpi\n        /* \"#utility.yul\":10494:10512   */\n      tag_368\n      tag_246\n      jump\t// in\n    tag_368:\n        /* \"#utility.yul\":10375:10514   */\n    tag_367:\n        /* \"#utility.yul\":10159:10521   */\n      pop\n        /* \"#utility.yul\":10111:10521   */\n      swap3\n      swap2\n      pop\n      pop\n      jump\t// out\n        /* \"#utility.yul\":10527:10707   */\n    tag_247:\n        /* \"#utility.yul\":10575:10652   */\n      0x4e487b7100000000000000000000000000000000000000000000000000000000\n        /* \"#utility.yul\":10572:10573   */\n      0x00\n        /* \"#utility.yul\":10565:10653   */\n      mstore\n        /* \"#utility.yul\":10672:10676   */\n      0x12\n        /* \"#utility.yul\":10669:10670   */\n      0x04\n        /* \"#utility.yul\":10662:10677   */\n      mstore\n        /* \"#utility.yul\":10696:10700   */\n      0x24\n        /* \"#utility.yul\":10693:10694   */\n      0x00\n        /* \"#utility.yul\":10686:10701   */\n      revert\n        /* \"#utility.yul\":10713:10898   */\n    tag_123:\n        /* \"#utility.yul\":10753:10754   */\n      0x00\n        /* \"#utility.yul\":10770:10790   */\n      tag_371\n        /* \"#utility.yul\":10788:10789   */\n      dup3\n        /* \"#utility.yul\":10770:10790   */\n      tag_228\n      jump\t// in\n    tag_371:\n        /* \"#utility.yul\":10765:10790   */\n      swap2\n      pop\n        /* \"#utility.yul\":10804:10824   */\n      tag_372\n        /* \"#utility.yul\":10822:10823   */\n      dup4\n        /* \"#utility.yul\":10804:10824   */\n      tag_228\n      jump\t// in\n    tag_372:\n        /* \"#utility.yul\":10799:10824   */\n      swap3\n      pop\n        /* \"#utility.yul\":10843:10844   */\n      dup3\n        /* \"#utility.yul\":10833:10868   */\n      tag_373\n      jumpi\n        /* \"#utility.yul\":10848:10866   */\n      tag_374\n      tag_247\n      jump\t// in\n    tag_374:\n        /* \"#utility.yul\":10833:10868   */\n    tag_373:\n        /* \"#utility.yul\":10890:10891   */\n      dup3\n        /* \"#utility.yul\":10887:10888   */\n      dup3\n        /* \"#utility.yul\":10883:10892   */\n      div\n        /* \"#utility.yul\":10878:10892   */\n      swap1\n      pop\n        /* \"#utility.yul\":10713:10898   */\n      swap3\n      swap2\n      pop\n      pop\n      jump\t// out\n        /* \"#utility.yul\":10904:11095   */\n    tag_129:\n        /* \"#utility.yul\":10944:10947   */\n      0x00\n        /* \"#utility.yul\":10963:10983   */\n      tag_376\n        /* \"#utility.yul\":10981:10982   */\n      dup3\n        /* \"#utility.yul\":10963:10983   */\n      tag_228\n      jump\t// in\n    tag_376:\n        /* \"#utility.yul\":10958:10983   */\n      swap2\n      pop\n        /* \"#utility.yul\":10997:11017   */\n      tag_377\n        /* \"#utility.yul\":11015:11016   */\n      dup4\n        /* \"#utility.yul\":10997:11017   */\n      tag_228\n      jump\t// in\n    tag_377:\n        /* \"#utility.yul\":10992:11017   */\n      swap3\n      pop\n        /* \"#utility.yul\":11040:11041   */\n      dup3\n        /* \"#utility.yul\":11037:11038   */\n      dup3\n        /* \"#utility.yul\":11033:11042   */\n      add\n        /* \"#utility.yul\":11026:11042   */\n      swap1\n      pop\n        /* \"#utility.yul\":11061:11064   */\n      dup1\n        /* \"#utility.yul\":11058:11059   */\n      dup3\n        /* \"#utility.yul\":11055:11065   */\n      gt\n        /* \"#utility.yul\":11052:11088   */\n      iszero\n      tag_378\n      jumpi\n        /* \"#utility.yul\":11068:11086   */\n      tag_379\n      tag_246\n      jump\t// in\n    tag_379:\n        /* \"#utility.yul\":11052:11088   */\n    tag_378:\n        /* \"#utility.yul\":10904:11095   */\n      swap3\n      swap2\n      pop\n      pop\n      jump\t// out\n        /* \"#utility.yul\":11101:11295   */\n    tag_133:\n        /* \"#utility.yul\":11141:11145   */\n      0x00\n        /* \"#utility.yul\":11161:11181   */\n      tag_381\n        /* \"#utility.yul\":11179:11180   */\n      dup3\n        /* \"#utility.yul\":11161:11181   */\n      tag_228\n      jump\t// in\n    tag_381:\n        /* \"#utility.yul\":11156:11181   */\n      swap2\n      pop\n        /* \"#utility.yul\":11195:11215   */\n      tag_382\n        /* \"#utility.yul\":11213:11214   */\n      dup4\n        /* \"#utility.yul\":11195:11215   */\n      tag_228\n      jump\t// in\n    tag_382:\n        /* \"#utility.yul\":11190:11215   */\n      swap3\n      pop\n        /* \"#utility.yul\":11239:11240   */\n      dup3\n        /* \"#utility.yul\":11236:11237   */\n      dup3\n        /* \"#utility.yul\":11232:11241   */\n      sub\n        /* \"#utility.yul\":11224:11241   */\n      swap1\n      pop\n        /* \"#utility.yul\":11263:11264   */\n      dup2\n        /* \"#utility.yul\":11257:11261   */\n      dup2\n        /* \"#utility.yul\":11254:11265   */\n      gt\n        /* \"#utility.yul\":11251:11288   */\n      iszero\n      tag_383\n      jumpi\n        /* \"#utility.yul\":11268:11286   */\n      tag_384\n      tag_246\n      jump\t// in\n    tag_384:\n        /* \"#utility.yul\":11251:11288   */\n    tag_383:\n        /* \"#utility.yul\":11101:11295   */\n      swap3\n      swap2\n      pop\n      pop\n      jump\t// out\n        /* \"#utility.yul\":11301:11419   */\n    tag_248:\n        /* \"#utility.yul\":11388:11412   */\n      tag_386\n        /* \"#utility.yul\":11406:11411   */\n      dup2\n        /* \"#utility.yul\":11388:11412   */\n      tag_225\n      jump\t// in\n    tag_386:\n        /* \"#utility.yul\":11383:11386   */\n      dup3\n        /* \"#utility.yul\":11376:11413   */\n      mstore\n        /* \"#utility.yul\":11301:11419   */\n      pop\n      pop\n      jump\t// out\n        /* \"#utility.yul\":11425:11757   */\n    tag_135:\n        /* \"#utility.yul\":11546:11550   */\n      0x00\n        /* \"#utility.yul\":11584:11586   */\n      0x40\n        /* \"#utility.yul\":11573:11582   */\n      dup3\n        /* \"#utility.yul\":11569:11587   */\n      add\n        /* \"#utility.yul\":11561:11587   */\n      swap1\n      pop\n        /* \"#utility.yul\":11597:11668   */\n      tag_388\n        /* \"#utility.yul\":11665:11666   */\n      0x00\n        /* \"#utility.yul\":11654:11663   */\n      dup4\n        /* \"#utility.yul\":11650:11667   */\n      add\n        /* \"#utility.yul\":11641:11647   */\n      dup6\n        /* \"#utility.yul\":11597:11668   */\n      tag_248\n      jump\t// in\n    tag_388:\n        /* \"#utility.yul\":11678:11750   */\n      tag_389\n        /* \"#utility.yul\":11746:11748   */\n      0x20\n        /* \"#utility.yul\":11735:11744   */\n      dup4\n        /* \"#utility.yul\":11731:11749   */\n      add\n        /* \"#utility.yul\":11722:11728   */\n      dup5\n        /* \"#utility.yul\":11678:11750   */\n      tag_229\n      jump\t// in\n    tag_389:\n        /* \"#utility.yul\":11425:11757   */\n      swap4\n      swap3\n      pop\n      pop\n      pop\n      jump\t// out\n        /* \"#utility.yul\":11763:11879   */\n    tag_249:\n        /* \"#utility.yul\":11833:11854   */\n      tag_391\n        /* \"#utility.yul\":11848:11853   */\n      dup2\n        /* \"#utility.yul\":11833:11854   */\n      tag_218\n      jump\t// in\n    tag_391:\n        /* \"#utility.yul\":11826:11831   */\n      dup2\n        /* \"#utility.yul\":11823:11855   */\n      eq\n        /* \"#utility.yul\":11813:11873   */\n      tag_392\n      jumpi\n        /* \"#utility.yul\":11869:11870   */\n      0x00\n        /* \"#utility.yul\":11866:11867   */\n      0x00\n        /* \"#utility.yul\":11859:11871   */\n      revert\n        /* \"#utility.yul\":11813:11873   */\n    tag_392:\n        /* \"#utility.yul\":11763:11879   */\n      pop\n      jump\t// out\n        /* \"#utility.yul\":11885:12022   */\n    tag_250:\n        /* \"#utility.yul\":11939:11944   */\n      0x00\n        /* \"#utility.yul\":11970:11976   */\n      dup2\n        /* \"#utility.yul\":11964:11977   */\n      mload\n        /* \"#utility.yul\":11955:11977   */\n      swap1\n      pop\n        /* \"#utility.yul\":11986:12016   */\n      tag_394\n        /* \"#utility.yul\":12010:12015   */\n      dup2\n        /* \"#utility.yul\":11986:12016   */\n      tag_249\n      jump\t// in\n    tag_394:\n        /* \"#utility.yul\":11885:12022   */\n      swap3\n      swap2\n      pop\n      pop\n      jump\t// out\n        /* \"#utility.yul\":12028:12373   */\n    tag_139:\n        /* \"#utility.yul\":12095:12101   */\n      0x00\n        /* \"#utility.yul\":12144:12146   */\n      0x20\n        /* \"#utility.yul\":12132:12141   */\n      dup3\n        /* \"#utility.yul\":12123:12130   */\n      dup5\n        /* \"#utility.yul\":12119:12142   */\n      sub\n        /* \"#utility.yul\":12115:12147   */\n      slt\n        /* \"#utility.yul\":12112:12231   */\n      iszero\n      tag_396\n      jumpi\n        /* \"#utility.yul\":12150:12229   */\n      tag_397\n      tag_213\n      jump\t// in\n    tag_397:\n        /* \"#utility.yul\":12112:12231   */\n    tag_396:\n        /* \"#utility.yul\":12270:12271   */\n      0x00\n        /* \"#utility.yul\":12295:12356   */\n      tag_398\n        /* \"#utility.yul\":12348:12355   */\n      dup5\n        /* \"#utility.yul\":12339:12345   */\n      dup3\n        /* \"#utility.yul\":12328:12337   */\n      dup6\n        /* \"#utility.yul\":12324:12346   */\n      add\n        /* \"#utility.yul\":12295:12356   */\n      tag_250\n      jump\t// in\n    tag_398:\n        /* \"#utility.yul\":12285:12356   */\n      swap2\n      pop\n        /* \"#utility.yul\":12241:12366   */\n      pop\n        /* \"#utility.yul\":12028:12373   */\n      swap3\n      swap2\n      pop\n      pop\n      jump\t// out\n        /* \"#utility.yul\":12379:12821   */\n    tag_145:\n        /* \"#utility.yul\":12528:12532   */\n      0x00\n        /* \"#utility.yul\":12566:12568   */\n      0x60\n        /* \"#utility.yul\":12555:12564   */\n      dup3\n        /* \"#utility.yul\":12551:12569   */\n      add\n        /* \"#utility.yul\":12543:12569   */\n      swap1\n      pop\n        /* \"#utility.yul\":12579:12650   */\n      tag_400\n        /* \"#utility.yul\":12647:12648   */\n      0x00\n        /* \"#utility.yul\":12636:12645   */\n      dup4\n        /* \"#utility.yul\":12632:12649   */\n      add\n        /* \"#utility.yul\":12623:12629   */\n      dup7\n        /* \"#utility.yul\":12579:12650   */\n      tag_229\n      jump\t// in\n    tag_400:\n        /* \"#utility.yul\":12660:12732   */\n      tag_401\n        /* \"#utility.yul\":12728:12730   */\n      0x20\n        /* \"#utility.yul\":12717:12726   */\n      dup4\n        /* \"#utility.yul\":12713:12731   */\n      add\n        /* \"#utility.yul\":12704:12710   */\n      dup6\n        /* \"#utility.yul\":12660:12732   */\n      tag_229\n      jump\t// in\n    tag_401:\n        /* \"#utility.yul\":12742:12814   */\n      tag_402\n        /* \"#utility.yul\":12810:12812   */\n      0x40\n        /* \"#utility.yul\":12799:12808   */\n      dup4\n        /* \"#utility.yul\":12795:12813   */\n      add\n        /* \"#utility.yul\":12786:12792   */\n      dup5\n        /* \"#utility.yul\":12742:12814   */\n      tag_229\n      jump\t// in\n    tag_402:\n        /* \"#utility.yul\":12379:12821   */\n      swap5\n      swap4\n      pop\n      pop\n      pop\n      pop\n      jump\t// out\n        /* \"#utility.yul\":12827:13269   */\n    tag_148:\n        /* \"#utility.yul\":12976:12980   */\n      0x00\n        /* \"#utility.yul\":13014:13016   */\n      0x60\n        /* \"#utility.yul\":13003:13012   */\n      dup3\n        /* \"#utility.yul\":12999:13017   */\n      add\n        /* \"#utility.yul\":12991:13017   */\n      swap1\n      pop\n        /* \"#utility.yul\":13027:13098   */\n      tag_404\n        /* \"#utility.yul\":13095:13096   */\n      0x00\n        /* \"#utility.yul\":13084:13093   */\n      dup4\n        /* \"#utility.yul\":13080:13097   */\n      add\n        /* \"#utility.yul\":13071:13077   */\n      dup7\n        /* \"#utility.yul\":13027:13098   */\n      tag_248\n      jump\t// in\n    tag_404:\n        /* \"#utility.yul\":13108:13180   */\n      tag_405\n        /* \"#utility.yul\":13176:13178   */\n      0x20\n        /* \"#utility.yul\":13165:13174   */\n      dup4\n        /* \"#utility.yul\":13161:13179   */\n      add\n        /* \"#utility.yul\":13152:13158   */\n      dup6\n        /* \"#utility.yul\":13108:13180   */\n      tag_248\n      jump\t// in\n    tag_405:\n        /* \"#utility.yul\":13190:13262   */\n      tag_406\n        /* \"#utility.yul\":13258:13260   */\n      0x40\n        /* \"#utility.yul\":13247:13256   */\n      dup4\n        /* \"#utility.yul\":13243:13261   */\n      add\n        /* \"#utility.yul\":13234:13240   */\n      dup5\n        /* \"#utility.yul\":13190:13262   */\n      tag_229\n      jump\t// in\n    tag_406:\n        /* \"#utility.yul\":12827:13269   */\n      swap5\n      swap4\n      pop\n      pop\n      pop\n      pop\n      jump\t// out\n        /* \"#utility.yul\":13275:13625   */\n    tag_159:\n        /* \"#utility.yul\":13405:13409   */\n      0x00\n        /* \"#utility.yul\":13443:13445   */\n      0x40\n        /* \"#utility.yul\":13432:13441   */\n      dup3\n        /* \"#utility.yul\":13428:13446   */\n      add\n        /* \"#utility.yul\":13420:13446   */\n      swap1\n      pop\n        /* \"#utility.yul\":13456:13527   */\n      tag_408\n        /* \"#utility.yul\":13524:13525   */\n      0x00\n        /* \"#utility.yul\":13513:13522   */\n      dup4\n        /* \"#utility.yul\":13509:13526   */\n      add\n        /* \"#utility.yul\":13500:13506   */\n      dup6\n        /* \"#utility.yul\":13456:13527   */\n      tag_229\n      jump\t// in\n    tag_408:\n        /* \"#utility.yul\":13537:13618   */\n      tag_409\n        /* \"#utility.yul\":13614:13616   */\n      0x20\n        /* \"#utility.yul\":13603:13612   */\n      dup4\n        /* \"#utility.yul\":13599:13617   */\n      add\n        /* \"#utility.yul\":13590:13596   */\n      dup5\n        /* \"#utility.yul\":13537:13618   */\n      tag_233\n      jump\t// in\n    tag_409:\n        /* \"#utility.yul\":13275:13625   */\n      swap4\n      swap3\n      pop\n      pop\n      pop\n      jump\t// out\n        /* \"#utility.yul\":13631:13963   */\n    tag_211:\n        /* \"#utility.yul\":13752:13756   */\n      0x00\n        /* \"#utility.yul\":13790:13792   */\n      0x40\n        /* \"#utility.yul\":13779:13788   */\n      dup3\n        /* \"#utility.yul\":13775:13793   */\n      add\n        /* \"#utility.yul\":13767:13793   */\n      swap1\n      pop\n        /* \"#utility.yul\":13803:13874   */\n      tag_411\n        /* \"#utility.yul\":13871:13872   */\n      0x00\n        /* \"#utility.yul\":13860:13869   */\n      dup4\n        /* \"#utility.yul\":13856:13873   */\n      add\n        /* \"#utility.yul\":13847:13853   */\n      dup6\n        /* \"#utility.yul\":13803:13874   */\n      tag_248\n      jump\t// in\n    tag_411:\n        /* \"#utility.yul\":13884:13956   */\n      tag_412\n        /* \"#utility.yul\":13952:13954   */\n      0x20\n        /* \"#utility.yul\":13941:13950   */\n      dup4\n        /* \"#utility.yul\":13937:13955   */\n      add\n        /* \"#utility.yul\":13928:13934   */\n      dup5\n        /* \"#utility.yul\":13884:13956   */\n      tag_223\n      jump\t// in\n    tag_412:\n        /* \"#utility.yul\":13631:13963   */\n      swap4\n      swap3\n      pop\n      pop\n      pop\n      jump\t// out\n\n    auxdata: 0xa26469706673582212203831c6b534c6dc204132780bdb012eaac3cfbaaa583a155da4a98b406fa2049c64736f6c634300081e0033\n}\n",
				"bytecode": {
					"linkReferences": {},
					"object": "60806040526001600255620f42406003556305f5e1006004556004600655348015610028575f5ffd5b5060405161193b38038061193b833981810160405281019061004a9190610291565b8060015f6101000a81548173ffffffffffffffffffffffffffffffffffffffff021916908373ffffffffffffffffffffffffffffffffffffffff16021790555061009c5f5f1b336100d460201b60201c565b506100cd7f7935bd0ae54bc31f548c14dba4d37c5c64b3f8ca900cb468fb8abd54d5894f55336100d460201b60201c565b50506102bc565b5f6100e583836101c960201b60201c565b6101bf5760015f5f8581526020019081526020015f205f015f8473ffffffffffffffffffffffffffffffffffffffff1673ffffffffffffffffffffffffffffffffffffffff1681526020019081526020015f205f6101000a81548160ff02191690831515021790555061015c61022c60201b60201c565b73ffffffffffffffffffffffffffffffffffffffff168273ffffffffffffffffffffffffffffffffffffffff16847f2f8788117e7eff1d82e926ec794901d17c78024a50270940304540a733656f0d60405160405180910390a4600190506101c3565b5f90505b92915050565b5f5f5f8481526020019081526020015f205f015f8373ffffffffffffffffffffffffffffffffffffffff1673ffffffffffffffffffffffffffffffffffffffff1681526020019081526020015f205f9054906101000a900460ff16905092915050565b5f33905090565b5f5ffd5b5f73ffffffffffffffffffffffffffffffffffffffff82169050919050565b5f61026082610237565b9050919050565b61027081610256565b811461027a575f5ffd5b50565b5f8151905061028b81610267565b92915050565b5f602082840312156102a6576102a5610233565b5b5f6102b38482850161027d565b91505092915050565b611672806102c95f395ff3fe608060405234801561000f575f5ffd5b5060043610610114575f3560e01c8063a87430ba116100a0578063d547741f1161006f578063d547741f146102e2578063d699b9d9146102fe578063efca2eed1461031c578063f5492e2f1461033a578063fc0c546a1461036d57610114565b8063a87430ba14610258578063a969ccef1461028c578063af0fe497146102a8578063ccc57490146102c457610114565b806376671808116100e757806376671808146101b05780638209ce30146101ce57806391d14854146101ec578063a217fddf1461021c578063a344c4991461023a57610114565b806301ffc9a714610118578063248a9ca3146101485780632f2ff15d1461017857806336568abe14610194575b5f5ffd5b610132600480360381019061012d9190610f40565b61038b565b60405161013f9190610f85565b60405180910390f35b610162600480360381019061015d9190610fd1565b610404565b60405161016f919061100b565b60405180910390f35b610192600480360381019061018d919061107e565b610420565b005b6101ae60048036038101906101a9919061107e565b610442565b005b6101b86104bd565b6040516101c591906110d4565b60405180910390f35b6101d66104c3565b6040516101e391906110d4565b60405180910390f35b6102066004803603810190610201919061107e565b6104c9565b6040516102139190610f85565b60405180910390f35b61022461052c565b604051610231919061100b565b60405180910390f35b610242610532565b60405161024f91906110d4565b60405180910390f35b610272600480360381019061026d91906110ed565b610538565b60405161028395949392919061118b565b60405180910390f35b6102a660048036038101906102a19190611206565b610582565b005b6102c260048036038101906102bd9190611206565b6108c9565b005b6102cc610a5d565b6040516102d9919061100b565b60405180910390f35b6102fc60048036038101906102f7919061107e565b610a81565b005b610306610aa3565b60405161031391906110d4565b60405180910390f35b610324610aa9565b60405161033191906110d4565b60405180910390f35b610354600480360381019061034f91906110ed565b610aaf565b6040516103649493929190611231565b60405180910390f35b610375610adb565b60405161038291906112cf565b60405180910390f35b5f7f7965db0b000000000000000000000000000000000000000000000000000000007bffffffffffffffffffffffffffffffffffffffffffffffffffffffff1916827bffffffffffffffffffffffffffffffffffffffffffffffffffffffff191614806103fd57506103fc82610b00565b5b9050919050565b5f5f5f8381526020019081526020015f20600101549050919050565b61042982610404565b61043281610b69565b61043c8383610b7d565b50505050565b61044a610c66565b73ffffffffffffffffffffffffffffffffffffffff168173ffffffffffffffffffffffffffffffffffffffff16146104ae576040517f6697b23200000000000000000000000000000000000000000000000000000000815260040160405180910390fd5b6104b88282610c6d565b505050565b60025481565b60045481565b5f5f5f8481526020019081526020015f205f015f8373ffffffffffffffffffffffffffffffffffffffff1673ffffffffffffffffffffffffffffffffffffffff1681526020019081526020015f205f9054906101000a900460ff16905092915050565b5f5f1b81565b60065481565b6007602052805f5260405f205f91509050805f015490806001015490806002015f9054906101000a900460ff1690806003015490806004015f9054906101000a900460ff16905085565b5f60075f3373ffffffffffffffffffffffffffffffffffffffff1673ffffffffffffffffffffffffffffffffffffffff1681526020019081526020015f20905060025481600301541061060a576040517f08c379a000000000000000000000000000000000000000000000000000000000815260040161060190611342565b60405180910390fd5b60045482101561064f576040517f08c379a0000000000000000000000000000000000000000000000000000000008152600401610646906113aa565b60405180910390fd5b81815f018190555060025481600301819055505f620f42406003548461067591906113f5565b61067f9190611463565b90505f606461069d846002015f9054906101000a900460ff16610d56565b836106a891906113f5565b6106b29190611463565b90508060055f8282546106c59190611493565b925050819055505f60646019836106dc91906113f5565b6106e69190611463565b90505f81836106f591906114c6565b905060015f9054906101000a900473ffffffffffffffffffffffffffffffffffffffff1673ffffffffffffffffffffffffffffffffffffffff1663a9059cbb33846040518363ffffffff1660e01b8152600401610753929190611508565b6020604051808303815f875af115801561076f573d5f5f3e3d5ffd5b505050506040513d601f19601f820116820180604052508101906107939190611559565b503373ffffffffffffffffffffffffffffffffffffffff167ffc30cddea38e2bf4d6ea7d3f9ed3b6ad7f176419f4963bd81318067a4aee73fe836040516107da91906110d4565b60405180910390a25f8111156108c1575f60085f3373ffffffffffffffffffffffffffffffffffffffff1673ffffffffffffffffffffffffffffffffffffffff1681526020019081526020015f2090505f81600201540361084c57600254816002018190555060065481600301819055505b81815f015f82825461085e9190611493565b925050819055503373ffffffffffffffffffffffffffffffffffffffff167fcacf4a6e7c897ead5577524d96f0debb59ccd5bd3465d42cd2a958e2defb0b9483836002015484600301546040516108b793929190611584565b60405180910390a2505b505050505050565b60015f9054906101000a900473ffffffffffffffffffffffffffffffffffffffff1673ffffffffffffffffffffffffffffffffffffffff166323b872dd3330846040518463ffffffff1660e01b8152600401610927939291906115b9565b6020604051808303815f875af1158015610943573d5f5f3e3d5ffd5b505050506040513d601f19601f820116820180604052508101906109679190611559565b505f60075f3373ffffffffffffffffffffffffffffffffffffffff1673ffffffffffffffffffffffffffffffffffffffff1681526020019081526020015f20905081816001015f8282546109bb9190611493565b925050819055506109cf8160010154610e35565b816002015f6101000a81548160ff021916908360048111156109f4576109f3611118565b5b02179055503373ffffffffffffffffffffffffffffffffffffffff167fe42710261dccb691e79e3f3e24a2b8cc0e13b9bec7be82a445c6a6992474ea4483836002015f9054906101000a900460ff16604051610a519291906115ee565b60405180910390a25050565b7f7935bd0ae54bc31f548c14dba4d37c5c64b3f8ca900cb468fb8abd54d5894f5581565b610a8a82610404565b610a9381610b69565b610a9d8383610c6d565b50505050565b60035481565b60055481565b6008602052805f5260405f205f91509050805f0154908060010154908060020154908060030154905084565b60015f9054906101000a900473ffffffffffffffffffffffffffffffffffffffff1681565b5f7f01ffc9a7000000000000000000000000000000000000000000000000000000007bffffffffffffffffffffffffffffffffffffffffffffffffffffffff1916827bffffffffffffffffffffffffffffffffffffffffffffffffffffffff1916149050919050565b610b7a81610b75610c66565b610e96565b50565b5f610b8883836104c9565b610c5c5760015f5f8581526020019081526020015f205f015f8473ffffffffffffffffffffffffffffffffffffffff1673ffffffffffffffffffffffffffffffffffffffff1681526020019081526020015f205f6101000a81548160ff021916908315150217905550610bf9610c66565b73ffffffffffffffffffffffffffffffffffffffff168273ffffffffffffffffffffffffffffffffffffffff16847f2f8788117e7eff1d82e926ec794901d17c78024a50270940304540a733656f0d60405160405180910390a460019050610c60565b5f90505b92915050565b5f33905090565b5f610c7883836104c9565b15610d4c575f5f5f8581526020019081526020015f205f015f8473ffffffffffffffffffffffffffffffffffffffff1673ffffffffffffffffffffffffffffffffffffffff1681526020019081526020015f205f6101000a81548160ff021916908315150217905550610ce9610c66565b73ffffffffffffffffffffffffffffffffffffffff168273ffffffffffffffffffffffffffffffffffffffff16847ff6391f5c32d9c69d2a47ea670b442974b53935d1edc7fd64eb21e047a839171b60405160405180910390a460019050610d50565b5f90505b92915050565b5f60016004811115610d6b57610d6a611118565b5b826004811115610d7e57610d7d611118565b5b03610d8c57607d9050610e30565b60026004811115610da057610d9f611118565b5b826004811115610db357610db2611118565b5b03610dc15760969050610e30565b60036004811115610dd557610dd4611118565b5b826004811115610de857610de7611118565b5b03610df65760c89050610e30565b600480811115610e0957610e08611118565b5b826004811115610e1c57610e1b611118565b5b03610e2b5761012c9050610e30565b606490505b919050565b5f633b9aca00821015610e4a575f9050610e91565b6402540be400821015610e605760019050610e91565b640ba43b7400821015610e765760029050610e91565b64174876e800821015610e8c5760039050610e91565b600490505b919050565b610ea082826104c9565b610ee35780826040517fe2517d3f000000000000000000000000000000000000000000000000000000008152600401610eda929190611615565b60405180910390fd5b5050565b5f5ffd5b5f7fffffffff0000000000000000000000000000000000000000000000000000000082169050919050565b610f1f81610eeb565b8114610f29575f5ffd5b50565b5f81359050610f3a81610f16565b92915050565b5f60208284031215610f5557610f54610ee7565b5b5f610f6284828501610f2c565b91505092915050565b5f8115159050919050565b610f7f81610f6b565b82525050565b5f602082019050610f985f830184610f76565b92915050565b5f819050919050565b610fb081610f9e565b8114610fba575f5ffd5b50565b5f81359050610fcb81610fa7565b92915050565b5f60208284031215610fe657610fe5610ee7565b5b5f610ff384828501610fbd565b91505092915050565b61100581610f9e565b82525050565b5f60208201905061101e5f830184610ffc565b92915050565b5f73ffffffffffffffffffffffffffffffffffffffff82169050919050565b5f61104d82611024565b9050919050565b61105d81611043565b8114611067575f5ffd5b50565b5f8135905061107881611054565b92915050565b5f5f6040838503121561109457611093610ee7565b5b5f6110a185828601610fbd565b92505060206110b28582860161106a565b9150509250929050565b5f819050919050565b6110ce816110bc565b82525050565b5f6020820190506110e75f8301846110c5565b92915050565b5f6020828403121561110257611101610ee7565b5b5f61110f8482850161106a565b91505092915050565b7f4e487b71000000000000000000000000000000000000000000000000000000005f52602160045260245ffd5b6005811061115657611155611118565b5b50565b5f81905061116682611145565b919050565b5f61117582611159565b9050919050565b6111858161116b565b82525050565b5f60a08201905061119e5f8301886110c5565b6111ab60208301876110c5565b6111b8604083018661117c565b6111c560608301856110c5565b6111d26080830184610f76565b9695505050505050565b6111e5816110bc565b81146111ef575f5ffd5b50565b5f81359050611200816111dc565b92915050565b5f6020828403121561121b5761121a610ee7565b5b5f611228848285016111f2565b91505092915050565b5f6080820190506112445f8301876110c5565b61125160208301866110c5565b61125e60408301856110c5565b61126b60608301846110c5565b95945050505050565b5f819050919050565b5f61129761129261128d84611024565b611274565b611024565b9050919050565b5f6112a88261127d565b9050919050565b5f6112b98261129e565b9050919050565b6112c9816112af565b82525050565b5f6020820190506112e25f8301846112c0565b92915050565b5f82825260208201905092915050565b7f416c726561647920636c61696d656400000000000000000000000000000000005f82015250565b5f61132c600f836112e8565b9150611337826112f8565b602082019050919050565b5f6020820190508181035f83015261135981611320565b9050919050565b7f566f6c756d6520746f6f206c6f770000000000000000000000000000000000005f82015250565b5f611394600e836112e8565b915061139f82611360565b602082019050919050565b5f6020820190508181035f8301526113c181611388565b9050919050565b7f4e487b71000000000000000000000000000000000000000000000000000000005f52601160045260245ffd5b5f6113ff826110bc565b915061140a836110bc565b9250828202611418816110bc565b9150828204841483151761142f5761142e6113c8565b5b5092915050565b7f4e487b71000000000000000000000000000000000000000000000000000000005f52601260045260245ffd5b5f61146d826110bc565b9150611478836110bc565b92508261148857611487611436565b5b828204905092915050565b5f61149d826110bc565b91506114a8836110bc565b92508282019050808211156114c0576114bf6113c8565b5b92915050565b5f6114d0826110bc565b91506114db836110bc565b92508282039050818111156114f3576114f26113c8565b5b92915050565b61150281611043565b82525050565b5f60408201905061151b5f8301856114f9565b61152860208301846110c5565b9392505050565b61153881610f6b565b8114611542575f5ffd5b50565b5f815190506115538161152f565b92915050565b5f6020828403121561156e5761156d610ee7565b5b5f61157b84828501611545565b91505092915050565b5f6060820190506115975f8301866110c5565b6115a460208301856110c5565b6115b160408301846110c5565b949350505050565b5f6060820190506115cc5f8301866114f9565b6115d960208301856114f9565b6115e660408301846110c5565b949350505050565b5f6040820190506116015f8301856110c5565b61160e602083018461117c565b9392505050565b5f6040820190506116285f8301856114f9565b6116356020830184610ffc565b939250505056fea26469706673582212203831c6b534c6dc204132780bdb012eaac3cfbaaa583a155da4a98b406fa2049c64736f6c634300081e0033",
					"opcodes": "PUSH1 0x80 PUSH1 0x40 MSTORE PUSH1 0x1 PUSH1 0x2 SSTORE PUSH3 0xF4240 PUSH1 0x3 SSTORE PUSH4 0x5F5E100 PUSH1 0x4 SSTORE PUSH1 0x4 PUSH1 0x6 SSTORE CALLVALUE DUP1 ISZERO PUSH2 0x28 JUMPI PUSH0 PUSH0 REVERT JUMPDEST POP PUSH1 0x40 MLOAD PUSH2 0x193B CODESIZE SUB DUP1 PUSH2 0x193B DUP4 CODECOPY DUP2 DUP2 ADD PUSH1 0x40 MSTORE DUP2 ADD SWAP1 PUSH2 0x4A SWAP2 SWAP1 PUSH2 0x291 JUMP JUMPDEST DUP1 PUSH1 0x1 PUSH0 PUSH2 0x100 EXP DUP2 SLOAD DUP2 PUSH20 0xFFFFFFFFFFFFFFFFFFFFFFFFFFFFFFFFFFFFFFFF MUL NOT AND SWAP1 DUP4 PUSH20 0xFFFFFFFFFFFFFFFFFFFFFFFFFFFFFFFFFFFFFFFF AND MUL OR SWAP1 SSTORE POP PUSH2 0x9C PUSH0 PUSH0 SHL CALLER PUSH2 0xD4 PUSH1 0x20 SHL PUSH1 0x20 SHR JUMP JUMPDEST POP PUSH2 0xCD PUSH32 0x7935BD0AE54BC31F548C14DBA4D37C5C64B3F8CA900CB468FB8ABD54D5894F55 CALLER PUSH2 0xD4 PUSH1 0x20 SHL PUSH1 0x20 SHR JUMP JUMPDEST POP POP PUSH2 0x2BC JUMP JUMPDEST PUSH0 PUSH2 0xE5 DUP4 DUP4 PUSH2 0x1C9 PUSH1 0x20 SHL PUSH1 0x20 SHR JUMP JUMPDEST PUSH2 0x1BF JUMPI PUSH1 0x1 PUSH0 PUSH0 DUP6 DUP2 MSTORE PUSH1 0x20 ADD SWAP1 DUP2 MSTORE PUSH1 0x20 ADD PUSH0 KECCAK256 PUSH0 ADD PUSH0 DUP5 PUSH20 0xFFFFFFFFFFFFFFFFFFFFFFFFFFFFFFFFFFFFFFFF AND PUSH20 0xFFFFFFFFFFFFFFFFFFFFFFFFFFFFFFFFFFFFFFFF AND DUP2 MSTORE PUSH1 0x20 ADD SWAP1 DUP2 MSTORE PUSH1 0x20 ADD PUSH0 KECCAK256 PUSH0 PUSH2 0x100 EXP DUP2 SLOAD DUP2 PUSH1 0xFF MUL NOT AND SWAP1 DUP4 ISZERO ISZERO MUL OR SWAP1 SSTORE POP PUSH2 0x15C PUSH2 0x22C PUSH1 0x20 SHL PUSH1 0x20 SHR JUMP JUMPDEST PUSH20 0xFFFFFFFFFFFFFFFFFFFFFFFFFFFFFFFFFFFFFFFF AND DUP3 PUSH20 0xFFFFFFFFFFFFFFFFFFFFFFFFFFFFFFFFFFFFFFFF AND DUP5 PUSH32 0x2F8788117E7EFF1D82E926EC794901D17C78024A50270940304540A733656F0D PUSH1 0x40 MLOAD PUSH1 0x40 MLOAD DUP1 SWAP2 SUB SWAP1 LOG4 PUSH1 0x1 SWAP1 POP PUSH2 0x1C3 JUMP JUMPDEST PUSH0 SWAP1 POP JUMPDEST SWAP3 SWAP2 POP POP JUMP JUMPDEST PUSH0 PUSH0 PUSH0 DUP5 DUP2 MSTORE PUSH1 0x20 ADD SWAP1 DUP2 MSTORE PUSH1 0x20 ADD PUSH0 KECCAK256 PUSH0 ADD PUSH0 DUP4 PUSH20 0xFFFFFFFFFFFFFFFFFFFFFFFFFFFFFFFFFFFFFFFF AND PUSH20 0xFFFFFFFFFFFFFFFFFFFFFFFFFFFFFFFFFFFFFFFF AND DUP2 MSTORE PUSH1 0x20 ADD SWAP1 DUP2 MSTORE PUSH1 0x20 ADD PUSH0 KECCAK256 PUSH0 SWAP1 SLOAD SWAP1 PUSH2 0x100 EXP SWAP1 DIV PUSH1 0xFF AND SWAP1 POP SWAP3 SWAP2 POP POP JUMP JUMPDEST PUSH0 CALLER SWAP1 POP SWAP1 JUMP JUMPDEST PUSH0 PUSH0 REVERT JUMPDEST PUSH0 PUSH20 0xFFFFFFFFFFFFFFFFFFFFFFFFFFFFFFFFFFFFFFFF DUP3 AND SWAP1 POP SWAP2 SWAP1 POP JUMP JUMPDEST PUSH0 PUSH2 0x260 DUP3 PUSH2 0x237 JUMP JUMPDEST SWAP1 POP SWAP2 SWAP1 POP JUMP JUMPDEST PUSH2 0x270 DUP2 PUSH2 0x256 JUMP JUMPDEST DUP2 EQ PUSH2 0x27A JUMPI PUSH0 PUSH0 REVERT JUMPDEST POP JUMP JUMPDEST PUSH0 DUP2 MLOAD SWAP1 POP PUSH2 0x28B DUP2 PUSH2 0x267 JUMP JUMPDEST SWAP3 SWAP2 POP POP JUMP JUMPDEST PUSH0 PUSH1 0x20 DUP3 DUP5 SUB SLT ISZERO PUSH2 0x2A6 JUMPI PUSH2 0x2A5 PUSH2 0x233 JUMP JUMPDEST JUMPDEST PUSH0 PUSH2 0x2B3 DUP5 DUP3 DUP6 ADD PUSH2 0x27D JUMP JUMPDEST SWAP2 POP POP SWAP3 SWAP2 POP POP JUMP JUMPDEST PUSH2 0x1672 DUP1 PUSH2 0x2C9 PUSH0 CODECOPY PUSH0 RETURN INVALID PUSH1 0x80 PUSH1 0x40 MSTORE CALLVALUE DUP1 ISZERO PUSH2 0xF JUMPI PUSH0 PUSH0 REVERT JUMPDEST POP PUSH1 0x4 CALLDATASIZE LT PUSH2 0x114 JUMPI PUSH0 CALLDATALOAD PUSH1 0xE0 SHR DUP1 PUSH4 0xA87430BA GT PUSH2 0xA0 JUMPI DUP1 PUSH4 0xD547741F GT PUSH2 0x6F JUMPI DUP1 PUSH4 0xD547741F EQ PUSH2 0x2E2 JUMPI DUP1 PUSH4 0xD699B9D9 EQ PUSH2 0x2FE JUMPI DUP1 PUSH4 0xEFCA2EED EQ PUSH2 0x31C JUMPI DUP1 PUSH4 0xF5492E2F EQ PUSH2 0x33A JUMPI DUP1 PUSH4 0xFC0C546A EQ PUSH2 0x36D JUMPI PUSH2 0x114 JUMP JUMPDEST DUP1 PUSH4 0xA87430BA EQ PUSH2 0x258 JUMPI DUP1 PUSH4 0xA969CCEF EQ PUSH2 0x28C JUMPI DUP1 PUSH4 0xAF0FE497 EQ PUSH2 0x2A8 JUMPI DUP1 PUSH4 0xCCC57490 EQ PUSH2 0x2C4 JUMPI PUSH2 0x114 JUMP JUMPDEST DUP1 PUSH4 0x76671808 GT PUSH2 0xE7 JUMPI DUP1 PUSH4 0x76671808 EQ PUSH2 0x1B0 JUMPI DUP1 PUSH4 0x8209CE30 EQ PUSH2 0x1CE JUMPI DUP1 PUSH4 0x91D14854 EQ PUSH2 0x1EC JUMPI DUP1 PUSH4 0xA217FDDF EQ PUSH2 0x21C JUMPI DUP1 PUSH4 0xA344C499 EQ PUSH2 0x23A JUMPI PUSH2 0x114 JUMP JUMPDEST DUP1 PUSH4 0x1FFC9A7 EQ PUSH2 0x118 JUMPI DUP1 PUSH4 0x248A9CA3 EQ PUSH2 0x148 JUMPI DUP1 PUSH4 0x2F2FF15D EQ PUSH2 0x178 JUMPI DUP1 PUSH4 0x36568ABE EQ PUSH2 0x194 JUMPI JUMPDEST PUSH0 PUSH0 REVERT JUMPDEST PUSH2 0x132 PUSH1 0x4 DUP1 CALLDATASIZE SUB DUP2 ADD SWAP1 PUSH2 0x12D SWAP2 SWAP1 PUSH2 0xF40 JUMP JUMPDEST PUSH2 0x38B JUMP JUMPDEST PUSH1 0x40 MLOAD PUSH2 0x13F SWAP2 SWAP1 PUSH2 0xF85 JUMP JUMPDEST PUSH1 0x40 MLOAD DUP1 SWAP2 SUB SWAP1 RETURN JUMPDEST PUSH2 0x162 PUSH1 0x4 DUP1 CALLDATASIZE SUB DUP2 ADD SWAP1 PUSH2 0x15D SWAP2 SWAP1 PUSH2 0xFD1 JUMP JUMPDEST PUSH2 0x404 JUMP JUMPDEST PUSH1 0x40 MLOAD PUSH2 0x16F SWAP2 SWAP1 PUSH2 0x100B JUMP JUMPDEST PUSH1 0x40 MLOAD DUP1 SWAP2 SUB SWAP1 RETURN JUMPDEST PUSH2 0x192 PUSH1 0x4 DUP1 CALLDATASIZE SUB DUP2 ADD SWAP1 PUSH2 0x18D SWAP2 SWAP1 PUSH2 0x107E JUMP JUMPDEST PUSH2 0x420 JUMP JUMPDEST STOP JUMPDEST PUSH2 0x1AE PUSH1 0x4 DUP1 CALLDATASIZE SUB DUP2 ADD SWAP1 PUSH2 0x1A9 SWAP2 SWAP1 PUSH2 0x107E JUMP JUMPDEST PUSH2 0x442 JUMP JUMPDEST STOP JUMPDEST PUSH2 0x1B8 PUSH2 0x4BD JUMP JUMPDEST PUSH1 0x40 MLOAD PUSH2 0x1C5 SWAP2 SWAP1 PUSH2 0x10D4 JUMP JUMPDEST PUSH1 0x40 MLOAD DUP1 SWAP2 SUB SWAP1 RETURN JUMPDEST PUSH2 0x1D6 PUSH2 0x4C3 JUMP JUMPDEST PUSH1 0x40 MLOAD PUSH2 0x1E3 SWAP2 SWAP1 PUSH2 0x10D4 JUMP JUMPDEST PUSH1 0x40 MLOAD DUP1 SWAP2 SUB SWAP1 RETURN JUMPDEST PUSH2 0x206 PUSH1 0x4 DUP1 CALLDATASIZE SUB DUP2 ADD SWAP1 PUSH2 0x201 SWAP2 SWAP1 PUSH2 0x107E JUMP JUMPDEST PUSH2 0x4C9 JUMP JUMPDEST PUSH1 0x40 MLOAD PUSH2 0x213 SWAP2 SWAP1 PUSH2 0xF85 JUMP JUMPDEST PUSH1 0x40 MLOAD DUP1 SWAP2 SUB SWAP1 RETURN JUMPDEST PUSH2 0x224 PUSH2 0x52C JUMP JUMPDEST PUSH1 0x40 MLOAD PUSH2 0x231 SWAP2 SWAP1 PUSH2 0x100B JUMP JUMPDEST PUSH1 0x40 MLOAD DUP1 SWAP2 SUB SWAP1 RETURN JUMPDEST PUSH2 0x242 PUSH2 0x532 JUMP JUMPDEST PUSH1 0x40 MLOAD PUSH2 0x24F SWAP2 SWAP1 PUSH2 0x10D4 JUMP JUMPDEST PUSH1 0x40 MLOAD DUP1 SWAP2 SUB SWAP1 RETURN JUMPDEST PUSH2 0x272 PUSH1 0x4 DUP1 CALLDATASIZE SUB DUP2 ADD SWAP1 PUSH2 0x26D SWAP2 SWAP1 PUSH2 0x10ED JUMP JUMPDEST PUSH2 0x538 JUMP JUMPDEST PUSH1 0x40 MLOAD PUSH2 0x283 SWAP6 SWAP5 SWAP4 SWAP3 SWAP2 SWAP1 PUSH2 0x118B JUMP JUMPDEST PUSH1 0x40 MLOAD DUP1 SWAP2 SUB SWAP1 RETURN JUMPDEST PUSH2 0x2A6 PUSH1 0x4 DUP1 CALLDATASIZE SUB DUP2 ADD SWAP1 PUSH2 0x2A1 SWAP2 SWAP1 PUSH2 0x1206 JUMP JUMPDEST PUSH2 0x582 JUMP JUMPDEST STOP JUMPDEST PUSH2 0x2C2 PUSH1 0x4 DUP1 CALLDATASIZE SUB DUP2 ADD SWAP1 PUSH2 0x2BD SWAP2 SWAP1 PUSH2 0x1206 JUMP JUMPDEST PUSH2 0x8C9 JUMP JUMPDEST STOP JUMPDEST PUSH2 0x2CC PUSH2 0xA5D JUMP JUMPDEST PUSH1 0x40 MLOAD PUSH2 0x2D9 SWAP2 SWAP1 PUSH2 0x100B JUMP JUMPDEST PUSH1 0x40 MLOAD DUP1 SWAP2 SUB SWAP1 RETURN JUMPDEST PUSH2 0x2FC PUSH1 0x4 DUP1 CALLDATASIZE SUB DUP2 ADD SWAP1 PUSH2 0x2F7 SWAP2 SWAP1 PUSH2 0x107E JUMP JUMPDEST PUSH2 0xA81 JUMP JUMPDEST STOP JUMPDEST PUSH2 0x306 PUSH2 0xAA3 JUMP JUMPDEST PUSH1 0x40 MLOAD PUSH2 0x313 SWAP2 SWAP1 PUSH2 0x10D4 JUMP JUMPDEST PUSH1 0x40 MLOAD DUP1 SWAP2 SUB SWAP1 RETURN JUMPDEST PUSH2 0x324 PUSH2 0xAA9 JUMP JUMPDEST PUSH1 0x40 MLOAD PUSH2 0x331 SWAP2 SWAP1 PUSH2 0x10D4 JUMP JUMPDEST PUSH1 0x40 MLOAD DUP1 SWAP2 SUB SWAP1 RETURN JUMPDEST PUSH2 0x354 PUSH1 0x4 DUP1 CALLDATASIZE SUB DUP2 ADD SWAP1 PUSH2 0x34F SWAP2 SWAP1 PUSH2 0x10ED JUMP JUMPDEST PUSH2 0xAAF JUMP JUMPDEST PUSH1 0x40 MLOAD PUSH2 0x364 SWAP5 SWAP4 SWAP3 SWAP2 SWAP1 PUSH2 0x1231 JUMP JUMPDEST PUSH1 0x40 MLOAD DUP1 SWAP2 SUB SWAP1 RETURN JUMPDEST PUSH2 0x375 PUSH2 0xADB JUMP JUMPDEST PUSH1 0x40 MLOAD PUSH2 0x382 SWAP2 SWAP1 PUSH2 0x12CF JUMP JUMPDEST PUSH1 0x40 MLOAD DUP1 SWAP2 SUB SWAP1 RETURN JUMPDEST PUSH0 PUSH32 0x7965DB0B00000000000000000000000000000000000000000000000000000000 PUSH28 0xFFFFFFFFFFFFFFFFFFFFFFFFFFFFFFFFFFFFFFFFFFFFFFFFFFFFFFFF NOT AND DUP3 PUSH28 0xFFFFFFFFFFFFFFFFFFFFFFFFFFFFFFFFFFFFFFFFFFFFFFFFFFFFFFFF NOT AND EQ DUP1 PUSH2 0x3FD JUMPI POP PUSH2 0x3FC DUP3 PUSH2 0xB00 JUMP JUMPDEST JUMPDEST SWAP1 POP SWAP2 SWAP1 POP JUMP JUMPDEST PUSH0 PUSH0 PUSH0 DUP4 DUP2 MSTORE PUSH1 0x20 ADD SWAP1 DUP2 MSTORE PUSH1 0x20 ADD PUSH0 KECCAK256 PUSH1 0x1 ADD SLOAD SWAP1 POP SWAP2 SWAP1 POP JUMP JUMPDEST PUSH2 0x429 DUP3 PUSH2 0x404 JUMP JUMPDEST PUSH2 0x432 DUP2 PUSH2 0xB69 JUMP JUMPDEST PUSH2 0x43C DUP4 DUP4 PUSH2 0xB7D JUMP JUMPDEST POP POP POP POP JUMP JUMPDEST PUSH2 0x44A PUSH2 0xC66 JUMP JUMPDEST PUSH20 0xFFFFFFFFFFFFFFFFFFFFFFFFFFFFFFFFFFFFFFFF AND DUP2 PUSH20 0xFFFFFFFFFFFFFFFFFFFFFFFFFFFFFFFFFFFFFFFF AND EQ PUSH2 0x4AE JUMPI PUSH1 0x40 MLOAD PUSH32 0x6697B23200000000000000000000000000000000000000000000000000000000 DUP2 MSTORE PUSH1 0x4 ADD PUSH1 0x40 MLOAD DUP1 SWAP2 SUB SWAP1 REVERT JUMPDEST PUSH2 0x4B8 DUP3 DUP3 PUSH2 0xC6D JUMP JUMPDEST POP POP POP JUMP JUMPDEST PUSH1 0x2 SLOAD DUP2 JUMP JUMPDEST PUSH1 0x4 SLOAD DUP2 JUMP JUMPDEST PUSH0 PUSH0 PUSH0 DUP5 DUP2 MSTORE PUSH1 0x20 ADD SWAP1 DUP2 MSTORE PUSH1 0x20 ADD PUSH0 KECCAK256 PUSH0 ADD PUSH0 DUP4 PUSH20 0xFFFFFFFFFFFFFFFFFFFFFFFFFFFFFFFFFFFFFFFF AND PUSH20 0xFFFFFFFFFFFFFFFFFFFFFFFFFFFFFFFFFFFFFFFF AND DUP2 MSTORE PUSH1 0x20 ADD SWAP1 DUP2 MSTORE PUSH1 0x20 ADD PUSH0 KECCAK256 PUSH0 SWAP1 SLOAD SWAP1 PUSH2 0x100 EXP SWAP1 DIV PUSH1 0xFF AND SWAP1 POP SWAP3 SWAP2 POP POP JUMP JUMPDEST PUSH0 PUSH0 SHL DUP2 JUMP JUMPDEST PUSH1 0x6 SLOAD DUP2 JUMP JUMPDEST PUSH1 0x7 PUSH1 0x20 MSTORE DUP1 PUSH0 MSTORE PUSH1 0x40 PUSH0 KECCAK256 PUSH0 SWAP2 POP SWAP1 POP DUP1 PUSH0 ADD SLOAD SWAP1 DUP1 PUSH1 0x1 ADD SLOAD SWAP1 DUP1 PUSH1 0x2 ADD PUSH0 SWAP1 SLOAD SWAP1 PUSH2 0x100 EXP SWAP1 DIV PUSH1 0xFF AND SWAP1 DUP1 PUSH1 0x3 ADD SLOAD SWAP1 DUP1 PUSH1 0x4 ADD PUSH0 SWAP1 SLOAD SWAP1 PUSH2 0x100 EXP SWAP1 DIV PUSH1 0xFF AND SWAP1 POP DUP6 JUMP JUMPDEST PUSH0 PUSH1 0x7 PUSH0 CALLER PUSH20 0xFFFFFFFFFFFFFFFFFFFFFFFFFFFFFFFFFFFFFFFF AND PUSH20 0xFFFFFFFFFFFFFFFFFFFFFFFFFFFFFFFFFFFFFFFF AND DUP2 MSTORE PUSH1 0x20 ADD SWAP1 DUP2 MSTORE PUSH1 0x20 ADD PUSH0 KECCAK256 SWAP1 POP PUSH1 0x2 SLOAD DUP2 PUSH1 0x3 ADD SLOAD LT PUSH2 0x60A JUMPI PUSH1 0x40 MLOAD PUSH32 0x8C379A000000000000000000000000000000000000000000000000000000000 DUP2 MSTORE PUSH1 0x4 ADD PUSH2 0x601 SWAP1 PUSH2 0x1342 JUMP JUMPDEST PUSH1 0x40 MLOAD DUP1 SWAP2 SUB SWAP1 REVERT JUMPDEST PUSH1 0x4 SLOAD DUP3 LT ISZERO PUSH2 0x64F JUMPI PUSH1 0x40 MLOAD PUSH32 0x8C379A000000000000000000000000000000000000000000000000000000000 DUP2 MSTORE PUSH1 0x4 ADD PUSH2 0x646 SWAP1 PUSH2 0x13AA JUMP JUMPDEST PUSH1 0x40 MLOAD DUP1 SWAP2 SUB SWAP1 REVERT JUMPDEST DUP2 DUP2 PUSH0 ADD DUP2 SWAP1 SSTORE POP PUSH1 0x2 SLOAD DUP2 PUSH1 0x3 ADD DUP2 SWAP1 SSTORE POP PUSH0 PUSH3 0xF4240 PUSH1 0x3 SLOAD DUP5 PUSH2 0x675 SWAP2 SWAP1 PUSH2 0x13F5 JUMP JUMPDEST PUSH2 0x67F SWAP2 SWAP1 PUSH2 0x1463 JUMP JUMPDEST SWAP1 POP PUSH0 PUSH1 0x64 PUSH2 0x69D DUP5 PUSH1 0x2 ADD PUSH0 SWAP1 SLOAD SWAP1 PUSH2 0x100 EXP SWAP1 DIV PUSH1 0xFF AND PUSH2 0xD56 JUMP JUMPDEST DUP4 PUSH2 0x6A8 SWAP2 SWAP1 PUSH2 0x13F5 JUMP JUMPDEST PUSH2 0x6B2 SWAP2 SWAP1 PUSH2 0x1463 JUMP JUMPDEST SWAP1 POP DUP1 PUSH1 0x5 PUSH0 DUP3 DUP3 SLOAD PUSH2 0x6C5 SWAP2 SWAP1 PUSH2 0x1493 JUMP JUMPDEST SWAP3 POP POP DUP2 SWAP1 SSTORE POP PUSH0 PUSH1 0x64 PUSH1 0x19 DUP4 PUSH2 0x6DC SWAP2 SWAP1 PUSH2 0x13F5 JUMP JUMPDEST PUSH2 0x6E6 SWAP2 SWAP1 PUSH2 0x1463 JUMP JUMPDEST SWAP1 POP PUSH0 DUP2 DUP4 PUSH2 0x6F5 SWAP2 SWAP1 PUSH2 0x14C6 JUMP JUMPDEST SWAP1 POP PUSH1 0x1 PUSH0 SWAP1 SLOAD SWAP1 PUSH2 0x100 EXP SWAP1 DIV PUSH20 0xFFFFFFFFFFFFFFFFFFFFFFFFFFFFFFFFFFFFFFFF AND PUSH20 0xFFFFFFFFFFFFFFFFFFFFFFFFFFFFFFFFFFFFFFFF AND PUSH4 0xA9059CBB CALLER DUP5 PUSH1 0x40 MLOAD DUP4 PUSH4 0xFFFFFFFF AND PUSH1 0xE0 SHL DUP2 MSTORE PUSH1 0x4 ADD PUSH2 0x753 SWAP3 SWAP2 SWAP1 PUSH2 0x1508 JUMP JUMPDEST PUSH1 0x20 PUSH1 0x40 MLOAD DUP1 DUP4 SUB DUP2 PUSH0 DUP8 GAS CALL ISZERO DUP1 ISZERO PUSH2 0x76F JUMPI RETURNDATASIZE PUSH0 PUSH0 RETURNDATACOPY RETURNDATASIZE PUSH0 REVERT JUMPDEST POP POP POP POP PUSH1 0x40 MLOAD RETURNDATASIZE PUSH1 0x1F NOT PUSH1 0x1F DUP3 ADD AND DUP3 ADD DUP1 PUSH1 0x40 MSTORE POP DUP2 ADD SWAP1 PUSH2 0x793 SWAP2 SWAP1 PUSH2 0x1559 JUMP JUMPDEST POP CALLER PUSH20 0xFFFFFFFFFFFFFFFFFFFFFFFFFFFFFFFFFFFFFFFF AND PUSH32 0xFC30CDDEA38E2BF4D6EA7D3F9ED3B6AD7F176419F4963BD81318067A4AEE73FE DUP4 PUSH1 0x40 MLOAD PUSH2 0x7DA SWAP2 SWAP1 PUSH2 0x10D4 JUMP JUMPDEST PUSH1 0x40 MLOAD DUP1 SWAP2 SUB SWAP1 LOG2 PUSH0 DUP2 GT ISZERO PUSH2 0x8C1 JUMPI PUSH0 PUSH1 0x8 PUSH0 CALLER PUSH20 0xFFFFFFFFFFFFFFFFFFFFFFFFFFFFFFFFFFFFFFFF AND PUSH20 0xFFFFFFFFFFFFFFFFFFFFFFFFFFFFFFFFFFFFFFFF AND DUP2 MSTORE PUSH1 0x20 ADD SWAP1 DUP2 MSTORE PUSH1 0x20 ADD PUSH0 KECCAK256 SWAP1 POP PUSH0 DUP2 PUSH1 0x2 ADD SLOAD SUB PUSH2 0x84C JUMPI PUSH1 0x2 SLOAD DUP2 PUSH1 0x2 ADD DUP2 SWAP1 SSTORE POP PUSH1 0x6 SLOAD DUP2 PUSH1 0x3 ADD DUP2 SWAP1 SSTORE POP JUMPDEST DUP2 DUP2 PUSH0 ADD PUSH0 DUP3 DUP3 SLOAD PUSH2 0x85E SWAP2 SWAP1 PUSH2 0x1493 JUMP JUMPDEST SWAP3 POP POP DUP2 SWAP1 SSTORE POP CALLER PUSH20 0xFFFFFFFFFFFFFFFFFFFFFFFFFFFFFFFFFFFFFFFF AND PUSH32 0xCACF4A6E7C897EAD5577524D96F0DEBB59CCD5BD3465D42CD2A958E2DEFB0B94 DUP4 DUP4 PUSH1 0x2 ADD SLOAD DUP5 PUSH1 0x3 ADD SLOAD PUSH1 0x40 MLOAD PUSH2 0x8B7 SWAP4 SWAP3 SWAP2 SWAP1 PUSH2 0x1584 JUMP JUMPDEST PUSH1 0x40 MLOAD DUP1 SWAP2 SUB SWAP1 LOG2 POP JUMPDEST POP POP POP POP POP POP JUMP JUMPDEST PUSH1 0x1 PUSH0 SWAP1 SLOAD SWAP1 PUSH2 0x100 EXP SWAP1 DIV PUSH20 0xFFFFFFFFFFFFFFFFFFFFFFFFFFFFFFFFFFFFFFFF AND PUSH20 0xFFFFFFFFFFFFFFFFFFFFFFFFFFFFFFFFFFFFFFFF AND PUSH4 0x23B872DD CALLER ADDRESS DUP5 PUSH1 0x40 MLOAD DUP5 PUSH4 0xFFFFFFFF AND PUSH1 0xE0 SHL DUP2 MSTORE PUSH1 0x4 ADD PUSH2 0x927 SWAP4 SWAP3 SWAP2 SWAP1 PUSH2 0x15B9 JUMP JUMPDEST PUSH1 0x20 PUSH1 0x40 MLOAD DUP1 DUP4 SUB DUP2 PUSH0 DUP8 GAS CALL ISZERO DUP1 ISZERO PUSH2 0x943 JUMPI RETURNDATASIZE PUSH0 PUSH0 RETURNDATACOPY RETURNDATASIZE PUSH0 REVERT JUMPDEST POP POP POP POP PUSH1 0x40 MLOAD RETURNDATASIZE PUSH1 0x1F NOT PUSH1 0x1F DUP3 ADD AND DUP3 ADD DUP1 PUSH1 0x40 MSTORE POP DUP2 ADD SWAP1 PUSH2 0x967 SWAP2 SWAP1 PUSH2 0x1559 JUMP JUMPDEST POP PUSH0 PUSH1 0x7 PUSH0 CALLER PUSH20 0xFFFFFFFFFFFFFFFFFFFFFFFFFFFFFFFFFFFFFFFF AND PUSH20 0xFFFFFFFFFFFFFFFFFFFFFFFFFFFFFFFFFFFFFFFF AND DUP2 MSTORE PUSH1 0x20 ADD SWAP1 DUP2 MSTORE PUSH1 0x20 ADD PUSH0 KECCAK256 SWAP1 POP DUP2 DUP2 PUSH1 0x1 ADD PUSH0 DUP3 DUP3 SLOAD PUSH2 0x9BB SWAP2 SWAP1 PUSH2 0x1493 JUMP JUMPDEST SWAP3 POP POP DUP2 SWAP1 SSTORE POP PUSH2 0x9CF DUP2 PUSH1 0x1 ADD SLOAD PUSH2 0xE35 JUMP JUMPDEST DUP2 PUSH1 0x2 ADD PUSH0 PUSH2 0x100 EXP DUP2 SLOAD DUP2 PUSH1 0xFF MUL NOT AND SWAP1 DUP4 PUSH1 0x4 DUP2 GT ISZERO PUSH2 0x9F4 JUMPI PUSH2 0x9F3 PUSH2 0x1118 JUMP JUMPDEST JUMPDEST MUL OR SWAP1 SSTORE POP CALLER PUSH20 0xFFFFFFFFFFFFFFFFFFFFFFFFFFFFFFFFFFFFFFFF AND PUSH32 0xE42710261DCCB691E79E3F3E24A2B8CC0E13B9BEC7BE82A445C6A6992474EA44 DUP4 DUP4 PUSH1 0x2 ADD PUSH0 SWAP1 SLOAD SWAP1 PUSH2 0x100 EXP SWAP1 DIV PUSH1 0xFF AND PUSH1 0x40 MLOAD PUSH2 0xA51 SWAP3 SWAP2 SWAP1 PUSH2 0x15EE JUMP JUMPDEST PUSH1 0x40 MLOAD DUP1 SWAP2 SUB SWAP1 LOG2 POP POP JUMP JUMPDEST PUSH32 0x7935BD0AE54BC31F548C14DBA4D37C5C64B3F8CA900CB468FB8ABD54D5894F55 DUP2 JUMP JUMPDEST PUSH2 0xA8A DUP3 PUSH2 0x404 JUMP JUMPDEST PUSH2 0xA93 DUP2 PUSH2 0xB69 JUMP JUMPDEST PUSH2 0xA9D DUP4 DUP4 PUSH2 0xC6D JUMP JUMPDEST POP POP POP POP JUMP JUMPDEST PUSH1 0x3 SLOAD DUP2 JUMP JUMPDEST PUSH1 0x5 SLOAD DUP2 JUMP JUMPDEST PUSH1 0x8 PUSH1 0x20 MSTORE DUP1 PUSH0 MSTORE PUSH1 0x40 PUSH0 KECCAK256 PUSH0 SWAP2 POP SWAP1 POP DUP1 PUSH0 ADD SLOAD SWAP1 DUP1 PUSH1 0x1 ADD SLOAD SWAP1 DUP1 PUSH1 0x2 ADD SLOAD SWAP1 DUP1 PUSH1 0x3 ADD SLOAD SWAP1 POP DUP5 JUMP JUMPDEST PUSH1 0x1 PUSH0 SWAP1 SLOAD SWAP1 PUSH2 0x100 EXP SWAP1 DIV PUSH20 0xFFFFFFFFFFFFFFFFFFFFFFFFFFFFFFFFFFFFFFFF AND DUP2 JUMP JUMPDEST PUSH0 PUSH32 0x1FFC9A700000000000000000000000000000000000000000000000000000000 PUSH28 0xFFFFFFFFFFFFFFFFFFFFFFFFFFFFFFFFFFFFFFFFFFFFFFFFFFFFFFFF NOT AND DUP3 PUSH28 0xFFFFFFFFFFFFFFFFFFFFFFFFFFFFFFFFFFFFFFFFFFFFFFFFFFFFFFFF NOT AND EQ SWAP1 POP SWAP2 SWAP1 POP JUMP JUMPDEST PUSH2 0xB7A DUP2 PUSH2 0xB75 PUSH2 0xC66 JUMP JUMPDEST PUSH2 0xE96 JUMP JUMPDEST POP JUMP JUMPDEST PUSH0 PUSH2 0xB88 DUP4 DUP4 PUSH2 0x4C9 JUMP JUMPDEST PUSH2 0xC5C JUMPI PUSH1 0x1 PUSH0 PUSH0 DUP6 DUP2 MSTORE PUSH1 0x20 ADD SWAP1 DUP2 MSTORE PUSH1 0x20 ADD PUSH0 KECCAK256 PUSH0 ADD PUSH0 DUP5 PUSH20 0xFFFFFFFFFFFFFFFFFFFFFFFFFFFFFFFFFFFFFFFF AND PUSH20 0xFFFFFFFFFFFFFFFFFFFFFFFFFFFFFFFFFFFFFFFF AND DUP2 MSTORE PUSH1 0x20 ADD SWAP1 DUP2 MSTORE PUSH1 0x20 ADD PUSH0 KECCAK256 PUSH0 PUSH2 0x100 EXP DUP2 SLOAD DUP2 PUSH1 0xFF MUL NOT AND SWAP1 DUP4 ISZERO ISZERO MUL OR SWAP1 SSTORE POP PUSH2 0xBF9 PUSH2 0xC66 JUMP JUMPDEST PUSH20 0xFFFFFFFFFFFFFFFFFFFFFFFFFFFFFFFFFFFFFFFF AND DUP3 PUSH20 0xFFFFFFFFFFFFFFFFFFFFFFFFFFFFFFFFFFFFFFFF AND DUP5 PUSH32 0x2F8788117E7EFF1D82E926EC794901D17C78024A50270940304540A733656F0D PUSH1 0x40 MLOAD PUSH1 0x40 MLOAD DUP1 SWAP2 SUB SWAP1 LOG4 PUSH1 0x1 SWAP1 POP PUSH2 0xC60 JUMP JUMPDEST PUSH0 SWAP1 POP JUMPDEST SWAP3 SWAP2 POP POP JUMP JUMPDEST PUSH0 CALLER SWAP1 POP SWAP1 JUMP JUMPDEST PUSH0 PUSH2 0xC78 DUP4 DUP4 PUSH2 0x4C9 JUMP JUMPDEST ISZERO PUSH2 0xD4C JUMPI PUSH0 PUSH0 PUSH0 DUP6 DUP2 MSTORE PUSH1 0x20 ADD SWAP1 DUP2 MSTORE PUSH1 0x20 ADD PUSH0 KECCAK256 PUSH0 ADD PUSH0 DUP5 PUSH20 0xFFFFFFFFFFFFFFFFFFFFFFFFFFFFFFFFFFFFFFFF AND PUSH20 0xFFFFFFFFFFFFFFFFFFFFFFFFFFFFFFFFFFFFFFFF AND DUP2 MSTORE PUSH1 0x20 ADD SWAP1 DUP2 MSTORE PUSH1 0x20 ADD PUSH0 KECCAK256 PUSH0 PUSH2 0x100 EXP DUP2 SLOAD DUP2 PUSH1 0xFF MUL NOT AND SWAP1 DUP4 ISZERO ISZERO MUL OR SWAP1 SSTORE POP PUSH2 0xCE9 PUSH2 0xC66 JUMP JUMPDEST PUSH20 0xFFFFFFFFFFFFFFFFFFFFFFFFFFFFFFFFFFFFFFFF AND DUP3 PUSH20 0xFFFFFFFFFFFFFFFFFFFFFFFFFFFFFFFFFFFFFFFF AND DUP5 PUSH32 0xF6391F5C32D9C69D2A47EA670B442974B53935D1EDC7FD64EB21E047A839171B PUSH1 0x40 MLOAD PUSH1 0x40 MLOAD DUP1 SWAP2 SUB SWAP1 LOG4 PUSH1 0x1 SWAP1 POP PUSH2 0xD50 JUMP JUMPDEST PUSH0 SWAP1 POP JUMPDEST SWAP3 SWAP2 POP POP JUMP JUMPDEST PUSH0 PUSH1 0x1 PUSH1 0x4 DUP2 GT ISZERO PUSH2 0xD6B JUMPI PUSH2 0xD6A PUSH2 0x1118 JUMP JUMPDEST JUMPDEST DUP3 PUSH1 0x4 DUP2 GT ISZERO PUSH2 0xD7E JUMPI PUSH2 0xD7D PUSH2 0x1118 JUMP JUMPDEST JUMPDEST SUB PUSH2 0xD8C JUMPI PUSH1 0x7D SWAP1 POP PUSH2 0xE30 JUMP JUMPDEST PUSH1 0x2 PUSH1 0x4 DUP2 GT ISZERO PUSH2 0xDA0 JUMPI PUSH2 0xD9F PUSH2 0x1118 JUMP JUMPDEST JUMPDEST DUP3 PUSH1 0x4 DUP2 GT ISZERO PUSH2 0xDB3 JUMPI PUSH2 0xDB2 PUSH2 0x1118 JUMP JUMPDEST JUMPDEST SUB PUSH2 0xDC1 JUMPI PUSH1 0x96 SWAP1 POP PUSH2 0xE30 JUMP JUMPDEST PUSH1 0x3 PUSH1 0x4 DUP2 GT ISZERO PUSH2 0xDD5 JUMPI PUSH2 0xDD4 PUSH2 0x1118 JUMP JUMPDEST JUMPDEST DUP3 PUSH1 0x4 DUP2 GT ISZERO PUSH2 0xDE8 JUMPI PUSH2 0xDE7 PUSH2 0x1118 JUMP JUMPDEST JUMPDEST SUB PUSH2 0xDF6 JUMPI PUSH1 0xC8 SWAP1 POP PUSH2 0xE30 JUMP JUMPDEST PUSH1 0x4 DUP1 DUP2 GT ISZERO PUSH2 0xE09 JUMPI PUSH2 0xE08 PUSH2 0x1118 JUMP JUMPDEST JUMPDEST DUP3 PUSH1 0x4 DUP2 GT ISZERO PUSH2 0xE1C JUMPI PUSH2 0xE1B PUSH2 0x1118 JUMP JUMPDEST JUMPDEST SUB PUSH2 0xE2B JUMPI PUSH2 0x12C SWAP1 POP PUSH2 0xE30 JUMP JUMPDEST PUSH1 0x64 SWAP1 POP JUMPDEST SWAP2 SWAP1 POP JUMP JUMPDEST PUSH0 PUSH4 0x3B9ACA00 DUP3 LT ISZERO PUSH2 0xE4A JUMPI PUSH0 SWAP1 POP PUSH2 0xE91 JUMP JUMPDEST PUSH5 0x2540BE400 DUP3 LT ISZERO PUSH2 0xE60 JUMPI PUSH1 0x1 SWAP1 POP PUSH2 0xE91 JUMP JUMPDEST PUSH5 0xBA43B7400 DUP3 LT ISZERO PUSH2 0xE76 JUMPI PUSH1 0x2 SWAP1 POP PUSH2 0xE91 JUMP JUMPDEST PUSH5 0x174876E800 DUP3 LT ISZERO PUSH2 0xE8C JUMPI PUSH1 0x3 SWAP1 POP PUSH2 0xE91 JUMP JUMPDEST PUSH1 0x4 SWAP1 POP JUMPDEST SWAP2 SWAP1 POP JUMP JUMPDEST PUSH2 0xEA0 DUP3 DUP3 PUSH2 0x4C9 JUMP JUMPDEST PUSH2 0xEE3 JUMPI DUP1 DUP3 PUSH1 0x40 MLOAD PUSH32 0xE2517D3F00000000000000000000000000000000000000000000000000000000 DUP2 MSTORE PUSH1 0x4 ADD PUSH2 0xEDA SWAP3 SWAP2 SWAP1 PUSH2 0x1615 JUMP JUMPDEST PUSH1 0x40 MLOAD DUP1 SWAP2 SUB SWAP1 REVERT JUMPDEST POP POP JUMP JUMPDEST PUSH0 PUSH0 REVERT JUMPDEST PUSH0 PUSH32 0xFFFFFFFF00000000000000000000000000000000000000000000000000000000 DUP3 AND SWAP1 POP SWAP2 SWAP1 POP JUMP JUMPDEST PUSH2 0xF1F DUP2 PUSH2 0xEEB JUMP JUMPDEST DUP2 EQ PUSH2 0xF29 JUMPI PUSH0 PUSH0 REVERT JUMPDEST POP JUMP JUMPDEST PUSH0 DUP2 CALLDATALOAD SWAP1 POP PUSH2 0xF3A DUP2 PUSH2 0xF16 JUMP JUMPDEST SWAP3 SWAP2 POP POP JUMP JUMPDEST PUSH0 PUSH1 0x20 DUP3 DUP5 SUB SLT ISZERO PUSH2 0xF55 JUMPI PUSH2 0xF54 PUSH2 0xEE7 JUMP JUMPDEST JUMPDEST PUSH0 PUSH2 0xF62 DUP5 DUP3 DUP6 ADD PUSH2 0xF2C JUMP JUMPDEST SWAP2 POP POP SWAP3 SWAP2 POP POP JUMP JUMPDEST PUSH0 DUP2 ISZERO ISZERO SWAP1 POP SWAP2 SWAP1 POP JUMP JUMPDEST PUSH2 0xF7F DUP2 PUSH2 0xF6B JUMP JUMPDEST DUP3 MSTORE POP POP JUMP JUMPDEST PUSH0 PUSH1 0x20 DUP3 ADD SWAP1 POP PUSH2 0xF98 PUSH0 DUP4 ADD DUP5 PUSH2 0xF76 JUMP JUMPDEST SWAP3 SWAP2 POP POP JUMP JUMPDEST PUSH0 DUP2 SWAP1 POP SWAP2 SWAP1 POP JUMP JUMPDEST PUSH2 0xFB0 DUP2 PUSH2 0xF9E JUMP JUMPDEST DUP2 EQ PUSH2 0xFBA JUMPI PUSH0 PUSH0 REVERT JUMPDEST POP JUMP JUMPDEST PUSH0 DUP2 CALLDATALOAD SWAP1 POP PUSH2 0xFCB DUP2 PUSH2 0xFA7 JUMP JUMPDEST SWAP3 SWAP2 POP POP JUMP JUMPDEST PUSH0 PUSH1 0x20 DUP3 DUP5 SUB SLT ISZERO PUSH2 0xFE6 JUMPI PUSH2 0xFE5 PUSH2 0xEE7 JUMP JUMPDEST JUMPDEST PUSH0 PUSH2 0xFF3 DUP5 DUP3 DUP6 ADD PUSH2 0xFBD JUMP JUMPDEST SWAP2 POP POP SWAP3 SWAP2 POP POP JUMP JUMPDEST PUSH2 0x1005 DUP2 PUSH2 0xF9E JUMP JUMPDEST DUP3 MSTORE POP POP JUMP JUMPDEST PUSH0 PUSH1 0x20 DUP3 ADD SWAP1 POP PUSH2 0x101E PUSH0 DUP4 ADD DUP5 PUSH2 0xFFC JUMP JUMPDEST SWAP3 SWAP2 POP POP JUMP JUMPDEST PUSH0 PUSH20 0xFFFFFFFFFFFFFFFFFFFFFFFFFFFFFFFFFFFFFFFF DUP3 AND SWAP1 POP SWAP2 SWAP1 POP JUMP JUMPDEST PUSH0 PUSH2 0x104D DUP3 PUSH2 0x1024 JUMP JUMPDEST SWAP1 POP SWAP2 SWAP1 POP JUMP JUMPDEST PUSH2 0x105D DUP2 PUSH2 0x1043 JUMP JUMPDEST DUP2 EQ PUSH2 0x1067 JUMPI PUSH0 PUSH0 REVERT JUMPDEST POP JUMP JUMPDEST PUSH0 DUP2 CALLDATALOAD SWAP1 POP PUSH2 0x1078 DUP2 PUSH2 0x1054 JUMP JUMPDEST SWAP3 SWAP2 POP POP JUMP JUMPDEST PUSH0 PUSH0 PUSH1 0x40 DUP4 DUP6 SUB SLT ISZERO PUSH2 0x1094 JUMPI PUSH2 0x1093 PUSH2 0xEE7 JUMP JUMPDEST JUMPDEST PUSH0 PUSH2 0x10A1 DUP6 DUP3 DUP7 ADD PUSH2 0xFBD JUMP JUMPDEST SWAP3 POP POP PUSH1 0x20 PUSH2 0x10B2 DUP6 DUP3 DUP7 ADD PUSH2 0x106A JUMP JUMPDEST SWAP2 POP POP SWAP3 POP SWAP3 SWAP1 POP JUMP JUMPDEST PUSH0 DUP2 SWAP1 POP SWAP2 SWAP1 POP JUMP JUMPDEST PUSH2 0x10CE DUP2 PUSH2 0x10BC JUMP JUMPDEST DUP3 MSTORE POP POP JUMP JUMPDEST PUSH0 PUSH1 0x20 DUP3 ADD SWAP1 POP PUSH2 0x10E7 PUSH0 DUP4 ADD DUP5 PUSH2 0x10C5 JUMP JUMPDEST SWAP3 SWAP2 POP POP JUMP JUMPDEST PUSH0 PUSH1 0x20 DUP3 DUP5 SUB SLT ISZERO PUSH2 0x1102 JUMPI PUSH2 0x1101 PUSH2 0xEE7 JUMP JUMPDEST JUMPDEST PUSH0 PUSH2 0x110F DUP5 DUP3 DUP6 ADD PUSH2 0x106A JUMP JUMPDEST SWAP2 POP POP SWAP3 SWAP2 POP POP JUMP JUMPDEST PUSH32 0x4E487B7100000000000000000000000000000000000000000000000000000000 PUSH0 MSTORE PUSH1 0x21 PUSH1 0x4 MSTORE PUSH1 0x24 PUSH0 REVERT JUMPDEST PUSH1 0x5 DUP2 LT PUSH2 0x1156 JUMPI PUSH2 0x1155 PUSH2 0x1118 JUMP JUMPDEST JUMPDEST POP JUMP JUMPDEST PUSH0 DUP2 SWAP1 POP PUSH2 0x1166 DUP3 PUSH2 0x1145 JUMP JUMPDEST SWAP2 SWAP1 POP JUMP JUMPDEST PUSH0 PUSH2 0x1175 DUP3 PUSH2 0x1159 JUMP JUMPDEST SWAP1 POP SWAP2 SWAP1 POP JUMP JUMPDEST PUSH2 0x1185 DUP2 PUSH2 0x116B JUMP JUMPDEST DUP3 MSTORE POP POP JUMP JUMPDEST PUSH0 PUSH1 0xA0 DUP3 ADD SWAP1 POP PUSH2 0x119E PUSH0 DUP4 ADD DUP9 PUSH2 0x10C5 JUMP JUMPDEST PUSH2 0x11AB PUSH1 0x20 DUP4 ADD DUP8 PUSH2 0x10C5 JUMP JUMPDEST PUSH2 0x11B8 PUSH1 0x40 DUP4 ADD DUP7 PUSH2 0x117C JUMP JUMPDEST PUSH2 0x11C5 PUSH1 0x60 DUP4 ADD DUP6 PUSH2 0x10C5 JUMP JUMPDEST PUSH2 0x11D2 PUSH1 0x80 DUP4 ADD DUP5 PUSH2 0xF76 JUMP JUMPDEST SWAP7 SWAP6 POP POP POP POP POP POP JUMP JUMPDEST PUSH2 0x11E5 DUP2 PUSH2 0x10BC JUMP JUMPDEST DUP2 EQ PUSH2 0x11EF JUMPI PUSH0 PUSH0 REVERT JUMPDEST POP JUMP JUMPDEST PUSH0 DUP2 CALLDATALOAD SWAP1 POP PUSH2 0x1200 DUP2 PUSH2 0x11DC JUMP JUMPDEST SWAP3 SWAP2 POP POP JUMP JUMPDEST PUSH0 PUSH1 0x20 DUP3 DUP5 SUB SLT ISZERO PUSH2 0x121B JUMPI PUSH2 0x121A PUSH2 0xEE7 JUMP JUMPDEST JUMPDEST PUSH0 PUSH2 0x1228 DUP5 DUP3 DUP6 ADD PUSH2 0x11F2 JUMP JUMPDEST SWAP2 POP POP SWAP3 SWAP2 POP POP JUMP JUMPDEST PUSH0 PUSH1 0x80 DUP3 ADD SWAP1 POP PUSH2 0x1244 PUSH0 DUP4 ADD DUP8 PUSH2 0x10C5 JUMP JUMPDEST PUSH2 0x1251 PUSH1 0x20 DUP4 ADD DUP7 PUSH2 0x10C5 JUMP JUMPDEST PUSH2 0x125E PUSH1 0x40 DUP4 ADD DUP6 PUSH2 0x10C5 JUMP JUMPDEST PUSH2 0x126B PUSH1 0x60 DUP4 ADD DUP5 PUSH2 0x10C5 JUMP JUMPDEST SWAP6 SWAP5 POP POP POP POP POP JUMP JUMPDEST PUSH0 DUP2 SWAP1 POP SWAP2 SWAP1 POP JUMP JUMPDEST PUSH0 PUSH2 0x1297 PUSH2 0x1292 PUSH2 0x128D DUP5 PUSH2 0x1024 JUMP JUMPDEST PUSH2 0x1274 JUMP JUMPDEST PUSH2 0x1024 JUMP JUMPDEST SWAP1 POP SWAP2 SWAP1 POP JUMP JUMPDEST PUSH0 PUSH2 0x12A8 DUP3 PUSH2 0x127D JUMP JUMPDEST SWAP1 POP SWAP2 SWAP1 POP JUMP JUMPDEST PUSH0 PUSH2 0x12B9 DUP3 PUSH2 0x129E JUMP JUMPDEST SWAP1 POP SWAP2 SWAP1 POP JUMP JUMPDEST PUSH2 0x12C9 DUP2 PUSH2 0x12AF JUMP JUMPDEST DUP3 MSTORE POP POP JUMP JUMPDEST PUSH0 PUSH1 0x20 DUP3 ADD SWAP1 POP PUSH2 0x12E2 PUSH0 DUP4 ADD DUP5 PUSH2 0x12C0 JUMP JUMPDEST SWAP3 SWAP2 POP POP JUMP JUMPDEST PUSH0 DUP3 DUP3 MSTORE PUSH1 0x20 DUP3 ADD SWAP1 POP SWAP3 SWAP2 POP POP JUMP JUMPDEST PUSH32 0x416C726561647920636C61696D65640000000000000000000000000000000000 PUSH0 DUP3 ADD MSTORE POP JUMP JUMPDEST PUSH0 PUSH2 0x132C PUSH1 0xF DUP4 PUSH2 0x12E8 JUMP JUMPDEST SWAP2 POP PUSH2 0x1337 DUP3 PUSH2 0x12F8 JUMP JUMPDEST PUSH1 0x20 DUP3 ADD SWAP1 POP SWAP2 SWAP1 POP JUMP JUMPDEST PUSH0 PUSH1 0x20 DUP3 ADD SWAP1 POP DUP2 DUP2 SUB PUSH0 DUP4 ADD MSTORE PUSH2 0x1359 DUP2 PUSH2 0x1320 JUMP JUMPDEST SWAP1 POP SWAP2 SWAP1 POP JUMP JUMPDEST PUSH32 0x566F6C756D6520746F6F206C6F77000000000000000000000000000000000000 PUSH0 DUP3 ADD MSTORE POP JUMP JUMPDEST PUSH0 PUSH2 0x1394 PUSH1 0xE DUP4 PUSH2 0x12E8 JUMP JUMPDEST SWAP2 POP PUSH2 0x139F DUP3 PUSH2 0x1360 JUMP JUMPDEST PUSH1 0x20 DUP3 ADD SWAP1 POP SWAP2 SWAP1 POP JUMP JUMPDEST PUSH0 PUSH1 0x20 DUP3 ADD SWAP1 POP DUP2 DUP2 SUB PUSH0 DUP4 ADD MSTORE PUSH2 0x13C1 DUP2 PUSH2 0x1388 JUMP JUMPDEST SWAP1 POP SWAP2 SWAP1 POP JUMP JUMPDEST PUSH32 0x4E487B7100000000000000000000000000000000000000000000000000000000 PUSH0 MSTORE PUSH1 0x11 PUSH1 0x4 MSTORE PUSH1 0x24 PUSH0 REVERT JUMPDEST PUSH0 PUSH2 0x13FF DUP3 PUSH2 0x10BC JUMP JUMPDEST SWAP2 POP PUSH2 0x140A DUP4 PUSH2 0x10BC JUMP JUMPDEST SWAP3 POP DUP3 DUP3 MUL PUSH2 0x1418 DUP2 PUSH2 0x10BC JUMP JUMPDEST SWAP2 POP DUP3 DUP3 DIV DUP5 EQ DUP4 ISZERO OR PUSH2 0x142F JUMPI PUSH2 0x142E PUSH2 0x13C8 JUMP JUMPDEST JUMPDEST POP SWAP3 SWAP2 POP POP JUMP JUMPDEST PUSH32 0x4E487B7100000000000000000000000000000000000000000000000000000000 PUSH0 MSTORE PUSH1 0x12 PUSH1 0x4 MSTORE PUSH1 0x24 PUSH0 REVERT JUMPDEST PUSH0 PUSH2 0x146D DUP3 PUSH2 0x10BC JUMP JUMPDEST SWAP2 POP PUSH2 0x1478 DUP4 PUSH2 0x10BC JUMP JUMPDEST SWAP3 POP DUP3 PUSH2 0x1488 JUMPI PUSH2 0x1487 PUSH2 0x1436 JUMP JUMPDEST JUMPDEST DUP3 DUP3 DIV SWAP1 POP SWAP3 SWAP2 POP POP JUMP JUMPDEST PUSH0 PUSH2 0x149D DUP3 PUSH2 0x10BC JUMP JUMPDEST SWAP2 POP PUSH2 0x14A8 DUP4 PUSH2 0x10BC JUMP JUMPDEST SWAP3 POP DUP3 DUP3 ADD SWAP1 POP DUP1 DUP3 GT ISZERO PUSH2 0x14C0 JUMPI PUSH2 0x14BF PUSH2 0x13C8 JUMP JUMPDEST JUMPDEST SWAP3 SWAP2 POP POP JUMP JUMPDEST PUSH0 PUSH2 0x14D0 DUP3 PUSH2 0x10BC JUMP JUMPDEST SWAP2 POP PUSH2 0x14DB DUP4 PUSH2 0x10BC JUMP JUMPDEST SWAP3 POP DUP3 DUP3 SUB SWAP1 POP DUP2 DUP2 GT ISZERO PUSH2 0x14F3 JUMPI PUSH2 0x14F2 PUSH2 0x13C8 JUMP JUMPDEST JUMPDEST SWAP3 SWAP2 POP POP JUMP JUMPDEST PUSH2 0x1502 DUP2 PUSH2 0x1043 JUMP JUMPDEST DUP3 MSTORE POP POP JUMP JUMPDEST PUSH0 PUSH1 0x40 DUP3 ADD SWAP1 POP PUSH2 0x151B PUSH0 DUP4 ADD DUP6 PUSH2 0x14F9 JUMP JUMPDEST PUSH2 0x1528 PUSH1 0x20 DUP4 ADD DUP5 PUSH2 0x10C5 JUMP JUMPDEST SWAP4 SWAP3 POP POP POP JUMP JUMPDEST PUSH2 0x1538 DUP2 PUSH2 0xF6B JUMP JUMPDEST DUP2 EQ PUSH2 0x1542 JUMPI PUSH0 PUSH0 REVERT JUMPDEST POP JUMP JUMPDEST PUSH0 DUP2 MLOAD SWAP1 POP PUSH2 0x1553 DUP2 PUSH2 0x152F JUMP JUMPDEST SWAP3 SWAP2 POP POP JUMP JUMPDEST PUSH0 PUSH1 0x20 DUP3 DUP5 SUB SLT ISZERO PUSH2 0x156E JUMPI PUSH2 0x156D PUSH2 0xEE7 JUMP JUMPDEST JUMPDEST PUSH0 PUSH2 0x157B DUP5 DUP3 DUP6 ADD PUSH2 0x1545 JUMP JUMPDEST SWAP2 POP POP SWAP3 SWAP2 POP POP JUMP JUMPDEST PUSH0 PUSH1 0x60 DUP3 ADD SWAP1 POP PUSH2 0x1597 PUSH0 DUP4 ADD DUP7 PUSH2 0x10C5 JUMP JUMPDEST PUSH2 0x15A4 PUSH1 0x20 DUP4 ADD DUP6 PUSH2 0x10C5 JUMP JUMPDEST PUSH2 0x15B1 PUSH1 0x40 DUP4 ADD DUP5 PUSH2 0x10C5 JUMP JUMPDEST SWAP5 SWAP4 POP POP POP POP JUMP JUMPDEST PUSH0 PUSH1 0x60 DUP3 ADD SWAP1 POP PUSH2 0x15CC PUSH0 DUP4 ADD DUP7 PUSH2 0x14F9 JUMP JUMPDEST PUSH2 0x15D9 PUSH1 0x20 DUP4 ADD DUP6 PUSH2 0x14F9 JUMP JUMPDEST PUSH2 0x15E6 PUSH1 0x40 DUP4 ADD DUP5 PUSH2 0x10C5 JUMP JUMPDEST SWAP5 SWAP4 POP POP POP POP JUMP JUMPDEST PUSH0 PUSH1 0x40 DUP3 ADD SWAP1 POP PUSH2 0x1601 PUSH0 DUP4 ADD DUP6 PUSH2 0x10C5 JUMP JUMPDEST PUSH2 0x160E PUSH1 0x20 DUP4 ADD DUP5 PUSH2 0x117C JUMP JUMPDEST SWAP4 SWAP3 POP POP POP JUMP JUMPDEST PUSH0 PUSH1 0x40 DUP3 ADD SWAP1 POP PUSH2 0x1628 PUSH0 DUP4 ADD DUP6 PUSH2 0x14F9 JUMP JUMPDEST PUSH2 0x1635 PUSH1 0x20 DUP4 ADD DUP5 PUSH2 0xFFC JUMP JUMPDEST SWAP4 SWAP3 POP POP POP JUMP INVALID LOG2 PUSH5 0x6970667358 0x22 SLT KECCAK256 CODESIZE BALANCE 0xC6 0xB5 CALLVALUE 0xC6 0xDC KECCAK256 COINBASE ORIGIN PUSH25 0xBDB012EAAC3CFBAAA583A155DA4A98B406FA2049C64736F6C PUSH4 0x4300081E STOP CALLER "
				},
				"gasEstimates": {
					"creation": {
						"codeDepositCost": "1149200",
						"executionCost": "infinite",
						"totalCost": "infinite"
					},
					"external": {
						"DEFAULT_ADMIN_ROLE()": "418",
						"GOVERNOR_ROLE()": "414",
						"currentEpoch()": "2448",
						"defaultVestingEpochs()": "2536",
						"getRoleAdmin(bytes32)": "infinite",
						"grantRole(bytes32,address)": "infinite",
						"hasRole(bytes32,address)": "3187",
						"minVolumeThreshold()": "2470",
						"mockClaim(uint256)": "infinite",
						"mockStake(uint256)": "infinite",
						"renounceRole(bytes32,address)": "infinite",
						"revokeRole(bytes32,address)": "infinite",
						"rewardRatePerVolume()": "2469",
						"rewardStreams(address)": "infinite",
						"supportsInterface(bytes4)": "741",
						"token()": "infinite",
						"totalDistributed()": "2491",
						"users(address)": "infinite"
					},
					"internal": {
						"_calculateFeeTier(uint256)": "142",
						"_getRewardMultiplier(enum MockIDXFlow.FeeTier)": "338"
					}
				},
				"methodIdentifiers": {
					"DEFAULT_ADMIN_ROLE()": "a217fddf",
					"GOVERNOR_ROLE()": "ccc57490",
					"currentEpoch()": "76671808",
					"defaultVestingEpochs()": "a344c499",
					"getRoleAdmin(bytes32)": "248a9ca3",
					"grantRole(bytes32,address)": "2f2ff15d",
					"hasRole(bytes32,address)": "91d14854",
					"minVolumeThreshold()": "8209ce30",
					"mockClaim(uint256)": "a969ccef",
					"mockStake(uint256)": "af0fe497",
					"renounceRole(bytes32,address)": "36568abe",
					"revokeRole(bytes32,address)": "d547741f",
					"rewardRatePerVolume()": "d699b9d9",
					"rewardStreams(address)": "f5492e2f",
					"supportsInterface(bytes4)": "01ffc9a7",
					"token()": "fc0c546a",
					"totalDistributed()": "efca2eed",
					"users(address)": "a87430ba"
				}
			},
			"storageLayout": {
				"storage": [
					{
						"astId": 26,
						"contract": "contracts/MockIDXFlow.sol:MockIDXFlow",
						"label": "_roles",
						"offset": 0,
						"slot": "0",
						"type": "t_mapping(t_bytes32,t_struct(RoleData)21_storage)"
					},
					{
						"astId": 533,
						"contract": "contracts/MockIDXFlow.sol:MockIDXFlow",
						"label": "token",
						"offset": 0,
						"slot": "1",
						"type": "t_contract(IERC20)456"
					},
					{
						"astId": 543,
						"contract": "contracts/MockIDXFlow.sol:MockIDXFlow",
						"label": "currentEpoch",
						"offset": 0,
						"slot": "2",
						"type": "t_uint256"
					},
					{
						"astId": 547,
						"contract": "contracts/MockIDXFlow.sol:MockIDXFlow",
						"label": "rewardRatePerVolume",
						"offset": 0,
						"slot": "3",
						"type": "t_uint256"
					},
					{
						"astId": 553,
						"contract": "contracts/MockIDXFlow.sol:MockIDXFlow",
						"label": "minVolumeThreshold",
						"offset": 0,
						"slot": "4",
						"type": "t_uint256"
					},
					{
						"astId": 556,
						"contract": "contracts/MockIDXFlow.sol:MockIDXFlow",
						"label": "totalDistributed",
						"offset": 0,
						"slot": "5",
						"type": "t_uint256"
					},
					{
						"astId": 560,
						"contract": "contracts/MockIDXFlow.sol:MockIDXFlow",
						"label": "defaultVestingEpochs",
						"offset": 0,
						"slot": "6",
						"type": "t_uint256"
					},
					{
						"astId": 596,
						"contract": "contracts/MockIDXFlow.sol:MockIDXFlow",
						"label": "users",
						"offset": 0,
						"slot": "7",
						"type": "t_mapping(t_address,t_struct(UserInfo)590_storage)"
					},
					{
						"astId": 602,
						"contract": "contracts/MockIDXFlow.sol:MockIDXFlow",
						"label": "rewardStreams",
						"offset": 0,
						"slot": "8",
						"type": "t_mapping(t_address,t_struct(RewardStream)577_storage)"
					}
				],
				"types": {
					"t_address": {
						"encoding": "inplace",
						"label": "address",
						"numberOfBytes": "20"
					},
					"t_bool": {
						"encoding": "inplace",
						"label": "bool",
						"numberOfBytes": "1"
					},
					"t_bytes32": {
						"encoding": "inplace",
						"label": "bytes32",
						"numberOfBytes": "32"
					},
					"t_contract(IERC20)456": {
						"encoding": "inplace",
						"label": "contract IERC20",
						"numberOfBytes": "20"
					},
					"t_enum(FeeTier)567": {
						"encoding": "inplace",
						"label": "enum MockIDXFlow.FeeTier",
						"numberOfBytes": "1"
					},
					"t_mapping(t_address,t_bool)": {
						"encoding": "mapping",
						"key": "t_address",
						"label": "mapping(address => bool)",
						"numberOfBytes": "32",
						"value": "t_bool"
					},
					"t_mapping(t_address,t_struct(RewardStream)577_storage)": {
						"encoding": "mapping",
						"key": "t_address",
						"label": "mapping(address => struct MockIDXFlow.RewardStream)",
						"numberOfBytes": "32",
						"value": "t_struct(RewardStream)577_storage"
					},
					"t_mapping(t_address,t_struct(UserInfo)590_storage)": {
						"encoding": "mapping",
						"key": "t_address",
						"label": "mapping(address => struct MockIDXFlow.UserInfo)",
						"numberOfBytes": "32",
						"value": "t_struct(UserInfo)590_storage"
					},
					"t_mapping(t_bytes32,t_struct(RoleData)21_storage)": {
						"encoding": "mapping",
						"key": "t_bytes32",
						"label": "mapping(bytes32 => struct AccessControl.RoleData)",
						"numberOfBytes": "32",
						"value": "t_struct(RoleData)21_storage"
					},
					"t_struct(RewardStream)577_storage": {
						"encoding": "inplace",
						"label": "struct MockIDXFlow.RewardStream",
						"members": [
							{
								"astId": 570,
								"contract": "contracts/MockIDXFlow.sol:MockIDXFlow",
								"label": "total",
								"offset": 0,
								"slot": "0",
								"type": "t_uint256"
							},
							{
								"astId": 572,
								"contract": "contracts/MockIDXFlow.sol:MockIDXFlow",
								"label": "claimed",
								"offset": 0,
								"slot": "1",
								"type": "t_uint256"
							},
							{
								"astId": 574,
								"contract": "contracts/MockIDXFlow.sol:MockIDXFlow",
								"label": "startEpoch",
								"offset": 0,
								"slot": "2",
								"type": "t_uint256"
							},
							{
								"astId": 576,
								"contract": "contracts/MockIDXFlow.sol:MockIDXFlow",
								"label": "vestingEpochs",
								"offset": 0,
								"slot": "3",
								"type": "t_uint256"
							}
						],
						"numberOfBytes": "128"
					},
					"t_struct(RoleData)21_storage": {
						"encoding": "inplace",
						"label": "struct AccessControl.RoleData",
						"members": [
							{
								"astId": 18,
								"contract": "contracts/MockIDXFlow.sol:MockIDXFlow",
								"label": "hasRole",
								"offset": 0,
								"slot": "0",
								"type": "t_mapping(t_address,t_bool)"
							},
							{
								"astId": 20,
								"contract": "contracts/MockIDXFlow.sol:MockIDXFlow",
								"label": "adminRole",
								"offset": 0,
								"slot": "1",
								"type": "t_bytes32"
							}
						],
						"numberOfBytes": "64"
					},
					"t_struct(UserInfo)590_storage": {
						"encoding": "inplace",
						"label": "struct MockIDXFlow.UserInfo",
						"members": [
							{
								"astId": 580,
								"contract": "contracts/MockIDXFlow.sol:MockIDXFlow",
								"label": "epochVolume",
								"offset": 0,
								"slot": "0",
								"type": "t_uint256"
							},
							{
								"astId": 582,
								"contract": "contracts/MockIDXFlow.sol:MockIDXFlow",
								"label": "stakedAmount",
								"offset": 0,
								"slot": "1",
								"type": "t_uint256"
							},
							{
								"astId": 585,
								"contract": "contracts/MockIDXFlow.sol:MockIDXFlow",
								"label": "tier",
								"offset": 0,
								"slot": "2",
								"type": "t_enum(FeeTier)567"
							},
							{
								"astId": 587,
								"contract": "contracts/MockIDXFlow.sol:MockIDXFlow",
								"label": "lastClaimEpoch",
								"offset": 0,
								"slot": "3",
								"type": "t_uint256"
							},
							{
								"astId": 589,
								"contract": "contracts/MockIDXFlow.sol:MockIDXFlow",
								"label": "autoCompound",
								"offset": 0,
								"slot": "4",
								"type": "t_bool"
							}
						],
						"numberOfBytes": "160"
					},
					"t_uint256": {
						"encoding": "inplace",
						"label": "uint256",
						"numberOfBytes": "32"
					}
				}
			},
			"userdoc": {
				"events": {
					"RewardsClaimed(address,uint256)": {
						"notice": "Emitted when immediate rewards are paid out"
					},
					"RewardsVested(address,uint256,uint256,uint256)": {
						"notice": "Emitted when rewards are added to vesting"
					},
					"StakeUpdated(address,uint256,uint8)": {
						"notice": "Emitted when a user stakes tokens"
					}
				},
				"kind": "user",
				"methods": {
					"GOVERNOR_ROLE()": {
						"notice": "Role allowed to perform governance actions"
					},
					"constructor": {
						"notice": "Constructs the mock with a given ERC-20 token"
					},
					"currentEpoch()": {
						"notice": "Current epoch counter"
					},
					"defaultVestingEpochs()": {
						"notice": "Default number of epochs over which rewards vest"
					},
					"minVolumeThreshold()": {
						"notice": "Minimum volume required to be eligible for rewards"
					},
					"mockClaim(uint256)": {
						"notice": "Claims rewards based on provided volume"
					},
					"mockStake(uint256)": {
						"notice": "Stakes a specified amount of tokens"
					},
					"rewardRatePerVolume()": {
						"notice": "Reward rate per unit of volume (scaled by 1e6)"
					},
					"rewardStreams(address)": {
						"notice": "Vesting streams mapping"
					},
					"token()": {
						"notice": "ERC-20 token used for staking and reward distribution"
					},
					"totalDistributed()": {
						"notice": "Total rewards distributed so far"
					},
					"users(address)": {
						"notice": "User info mapping"
					}
				},
				"notice": "Simplified mock of IDXFlowOrderFlow for unit testing core staking and reward logic",
				"version": 1
			}
		}
	}
}