{
	"data": {
		"bytecode": {
			"linkReferences": {},
			"object": "6101a0604052348015610010575f5ffd5b50604051619547380380619547833981810160405281019061003291906109fc565b6040518060400160405280600781526020017f494458466c6f77000000000000000000000000000000000000000000000000008152506040518060400160405280600181526020017f31000000000000000000000000000000000000000000000000000000000000008152506100b15f8361042b60201b90919060201c565b61012081815250506100cd60018261042b60201b90919060201c565b6101408181525050818051906020012060e08181525050808051906020012061010081815250504660a0818152505061010a61047860201b60201c565b608081815250503073ffffffffffffffffffffffffffffffffffffffff1660c08173ffffffffffffffffffffffffffffffffffffffff168152505050505f60035f6101000a81548160ff021916908315150217905550815f015173ffffffffffffffffffffffffffffffffffffffff166101608173ffffffffffffffffffffffffffffffffffffffff1681525050815f015173ffffffffffffffffffffffffffffffffffffffff166101808173ffffffffffffffffffffffffffffffffffffffff16815250508160200151600360016101000a81548173ffffffffffffffffffffffffffffffffffffffff021916908373ffffffffffffffffffffffffffffffffffffffff160217905550816040015160045f6101000a81548173ffffffffffffffffffffffffffffffffffffffff021916908373ffffffffffffffffffffffffffffffffffffffff160217905550816060015160055f6101000a81548173ffffffffffffffffffffffffffffffffffffffff021916908373ffffffffffffffffffffffffffffffffffffffff160217905550816080015160065f6101000a81548173ffffffffffffffffffffffffffffffffffffffff021916908373ffffffffffffffffffffffffffffffffffffffff1602179055508160a001516008819055508160c001516009819055508160e00151600a81905550805f01516010819055508060200151601581905550806040015160168190555080606001516017819055506001600b8190555042600c8190555061034e5f5f1b336104d260201b60201c565b5061037f7f65d7a28e3265b37a6474929f336521b332c1681b933f6cb9f3376673440d862a336104d260201b60201c565b506103b07f7935bd0ae54bc31f548c14dba4d37c5c64b3f8ca900cb468fb8abd54d5894f55336104d260201b60201c565b50815f01516040516103c1906106a1565b6103cb9190610b3b565b604051809103905ff0801580156103e4573d5f5f3e3d5ffd5b5060075f6101000a81548173ffffffffffffffffffffffffffffffffffffffff021916908373ffffffffffffffffffffffffffffffffffffffff1602179055505050610fc7565b5f60208351101561044c57610445836105c860201b60201c565b9050610472565b8261045c8361062d60201b60201c565b5f01908161046a9190610d78565b5060ff5f1b90505b92915050565b5f7f8b73c3c69bb8fe3d512ecc4cf759cc79239f7b179b0ffacaa9a75d522b39400f60e0516101005146306040516020016104b7959493929190610e7d565b60405160208183030381529060405280519060200120905090565b5f6104e3838361063660201b60201c565b6105be57600160025f8581526020019081526020015f205f015f8473ffffffffffffffffffffffffffffffffffffffff1673ffffffffffffffffffffffffffffffffffffffff1681526020019081526020015f205f6101000a81548160ff02191690831515021790555061055b61069a60201b60201c565b73ffffffffffffffffffffffffffffffffffffffff168273ffffffffffffffffffffffffffffffffffffffff16847f2f8788117e7eff1d82e926ec794901d17c78024a50270940304540a733656f0d60405160405180910390a4600190506105c2565b5f90505b92915050565b5f5f829050601f8151111561061457826040517f305a27a900000000000000000000000000000000000000000000000000000000815260040161060b9190610f14565b60405180910390fd5b80518161062090610f61565b5f1c175f1b915050919050565b5f819050919050565b5f60025f8481526020019081526020015f205f015f8373ffffffffffffffffffffffffffffffffffffffff1673ffffffffffffffffffffffffffffffffffffffff1681526020019081526020015f205f9054906101000a900460ff16905092915050565b5f33905090565b61273f80616e0883390190565b5f604051905090565b5f5ffd5b5f5ffd5b5f601f19601f8301169050919050565b7f4e487b71000000000000000000000000000000000000000000000000000000005f52604160045260245ffd5b610705826106bf565b810181811067ffffffffffffffff82111715610724576107236106cf565b5b80604052505050565b5f6107366106ae565b905061074282826106fc565b919050565b5f73ffffffffffffffffffffffffffffffffffffffff82169050919050565b5f61077082610747565b9050919050565b61078081610766565b811461078a575f5ffd5b50565b5f8151905061079b81610777565b92915050565b5f6107ab82610766565b9050919050565b6107bb816107a1565b81146107c5575f5ffd5b50565b5f815190506107d6816107b2565b92915050565b5f6107e682610766565b9050919050565b6107f6816107dc565b8114610800575f5ffd5b50565b5f81519050610811816107ed565b92915050565b5f61082182610766565b9050919050565b61083181610817565b811461083b575f5ffd5b50565b5f8151905061084c81610828565b92915050565b5f61085c82610766565b9050919050565b61086c81610852565b8114610876575f5ffd5b50565b5f8151905061088781610863565b92915050565b5f819050919050565b61089f8161088d565b81146108a9575f5ffd5b50565b5f815190506108ba81610896565b92915050565b5f61010082840312156108d6576108d56106bb565b5b6108e161010061072d565b90505f6108f08482850161078d565b5f830152506020610903848285016107c8565b602083015250604061091784828501610803565b604083015250606061092b8482850161083e565b606083015250608061093f84828501610879565b60808301525060a0610953848285016108ac565b60a08301525060c0610967848285016108ac565b60c08301525060e061097b848285016108ac565b60e08301525092915050565b5f6080828403121561099c5761099b6106bb565b5b6109a6608061072d565b90505f6109b5848285016108ac565b5f8301525060206109c8848285016108ac565b60208301525060406109dc848285016108ac565b60408301525060606109f0848285016108ac565b60608301525092915050565b5f5f6101808385031215610a1357610a126106b7565b5b5f610a20858286016108c0565b925050610100610a3285828601610987565b9150509250929050565b5f819050919050565b5f610a5f610a5a610a5584610747565b610a3c565b610747565b9050919050565b5f610a7082610a45565b9050919050565b5f610a8182610a66565b9050919050565b610a9181610a77565b82525050565b5f82825260208201905092915050565b7f494458466c6f77205661756c74000000000000000000000000000000000000005f82015250565b5f610adb600d83610a97565b9150610ae682610aa7565b602082019050919050565b7f49445856000000000000000000000000000000000000000000000000000000005f82015250565b5f610b25600483610a97565b9150610b3082610af1565b602082019050919050565b5f606082019050610b4e5f830184610a88565b8181036020830152610b5f81610acf565b90508181036040830152610b7281610b19565b905092915050565b5f81519050919050565b7f4e487b71000000000000000000000000000000000000000000000000000000005f52602260045260245ffd5b5f6002820490506001821680610bc857607f821691505b602082108103610bdb57610bda610b84565b5b50919050565b5f819050815f5260205f209050919050565b5f6020601f8301049050919050565b5f82821b905092915050565b5f60088302610c3d7fffffffffffffffffffffffffffffffffffffffffffffffffffffffffffffffff82610c02565b610c478683610c02565b95508019841693508086168417925050509392505050565b5f610c79610c74610c6f8461088d565b610a3c565b61088d565b9050919050565b5f819050919050565b610c9283610c5f565b610ca6610c9e82610c80565b848454610c0e565b825550505050565b5f5f905090565b610cbd610cae565b610cc8818484610c89565b505050565b5b81811015610ceb57610ce05f82610cb5565b600181019050610cce565b5050565b601f821115610d3057610d0181610be1565b610d0a84610bf3565b81016020851015610d19578190505b610d2d610d2585610bf3565b830182610ccd565b50505b505050565b5f82821c905092915050565b5f610d505f1984600802610d35565b1980831691505092915050565b5f610d688383610d41565b9150826002028217905092915050565b610d8182610b7a565b67ffffffffffffffff811115610d9a57610d996106cf565b5b610da48254610bb1565b610daf828285610cef565b5f60209050601f831160018114610de0575f8415610dce578287015190505b610dd88582610d5d565b865550610e3f565b601f198416610dee86610be1565b5f5b82811015610e1557848901518255600182019150602085019450602081019050610df0565b86831015610e325784890151610e2e601f891682610d41565b8355505b6001600288020188555050505b505050505050565b5f819050919050565b610e5981610e47565b82525050565b610e688161088d565b82525050565b610e7781610766565b82525050565b5f60a082019050610e905f830188610e50565b610e9d6020830187610e50565b610eaa6040830186610e50565b610eb76060830185610e5f565b610ec46080830184610e6e565b9695505050505050565b8281835e5f83830152505050565b5f610ee682610b7a565b610ef08185610a97565b9350610f00818560208601610ece565b610f09816106bf565b840191505092915050565b5f6020820190508181035f830152610f2c8184610edc565b905092915050565b5f81519050919050565b5f819050602082019050919050565b5f610f588251610e47565b80915050919050565b5f610f6b82610f34565b82610f7584610f3e565b9050610f8081610f4d565b92506020821015610fc057610fbb7fffffffffffffffffffffffffffffffffffffffffffffffffffffffffffffffff83602003600802610c02565b831692505b5050919050565b60805160a05160c05160e0516101005161012051610140516101605161018051615d8f6110795f395f8181611bb5015261246f01525f818161134701528181611595015281816116c3015281816119c501528181611b0a0152818161207301528181612507015281816125b60152818161295a01528181612f45015261344001525f61309a01525f61305f01525f613d4801525f613d2701525f6139d601525f613a2c01525f613a550152615d8f5ff3fe60806040526004361061038a575f3560e01c8063847fdd12116101db578063cde6d21411610101578063e79c542a1161009f578063f5492e2f1161006e578063f5492e2f14610cc0578063fbfa77cf14610cff578063fc0c546a14610d29578063fe10d77414610d535761038a565b8063e79c542a14610c1c578063e8d40d8614610c46578063ecd9ba8214610c6e578063efca2eed14610c965761038a565b8063d6b6b23f116100db578063d6b6b23f14610b64578063d6df096d14610ba0578063e31f104914610bca578063e63ab1e914610bf25761038a565b8063cde6d21414610aea578063d547741f14610b12578063d699b9d914610b3a5761038a565b8063a217fddf11610179578063adb5086111610148578063adb5086114610a56578063b353aaa714610a6c578063b681a1e714610a96578063ccc5749014610ac05761038a565b8063a217fddf14610984578063a344c499146109ae578063a87430ba146109d8578063ac9650d814610a1a5761038a565b8063898700af116101b5578063898700af146108ce57806391d14854146108f857806399f34c46146109345780639ef3a2611461095c5761038a565b8063847fdd121461084c57806384b0196e1461086257806388a7ca5c146108925761038a565b80633f4ba83a116102c05780636b0509b11161025e5780637ecebe001161022d5780637ecebe00146107a65780637eefd5ae146107e25780638209ce301461080c5780638456cb59146108365761038a565b80636b0509b1146107025780636cf1e2391461072c57806376671808146107545780637cb647591461077e5761038a565b806355c6065d1161029a57806355c6065d1461067e5780635c975abb1461069a578063652d9af1146106c457806366eb9cec146106ec5761038a565b80633f4ba83a146106165780634ff0876a1461062c5780635345d1a0146106565761038a565b8063230957211161032d5780632f2ff15d116103075780632f2ff15d146105605780633170a7fb1461058857806336568abe146105c45780633dba6d63146105ec5761038a565b806323095721146104d2578063248a9ca3146104fa5780632eb4a7ab146105365761038a565b8063056d5afe11610369578063056d5afe1461041a57806305b0e4ae1461044457806308f7a61714610480578063134e18f4146104a85761038a565b80621d35671461038e57806301ffc9a7146103b6578063036ce8b1146103f2575b5f5ffd5b348015610399575f5ffd5b506103b460048036038101906103af9190613f70565b610d90565b005b3480156103c1575f5ffd5b506103dc60048036038101906103d79190614068565b610e4c565b6040516103e991906140ad565b60405180910390f35b3480156103fd575f5ffd5b50610418600480360381019061041391906140f9565b610ec5565b005b348015610425575f5ffd5b5061042e610fca565b60405161043b919061419e565b60405180910390f35b34801561044f575f5ffd5b5061046a600480360381019061046591906141f2565b610fef565b60405161047791906140ad565b60405180910390f35b34801561048b575f5ffd5b506104a660048036038101906104a191906140f9565b61100c565b005b3480156104b3575f5ffd5b506104bc611039565b6040516104c9919061423d565b60405180910390f35b3480156104dd575f5ffd5b506104f860048036038101906104f391906140f9565b61105e565b005b348015610505575f5ffd5b50610520600480360381019061051b9190614289565b611221565b60405161052d91906142c3565b60405180910390f35b348015610541575f5ffd5b5061054a61123e565b60405161055791906142c3565b60405180910390f35b34801561056b575f5ffd5b50610586600480360381019061058191906142dc565b611244565b005b348015610593575f5ffd5b506105ae60048036038101906105a991906141f2565b611266565b6040516105bb9190614329565b60405180910390f35b3480156105cf575f5ffd5b506105ea60048036038101906105e591906142dc565b61127b565b005b3480156105f7575f5ffd5b506106006112f6565b60405161060d9190614329565b60405180910390f35b348015610621575f5ffd5b5061062a6112fc565b005b348015610637575f5ffd5b50610640611331565b60405161064d9190614329565b60405180910390f35b348015610661575f5ffd5b5061067c60048036038101906106779190614342565b611337565b005b61069860048036038101906106939190614380565b611402565b005b3480156106a5575f5ffd5b506106ae6114e9565b6040516106bb91906140ad565b60405180910390f35b3480156106cf575f5ffd5b506106ea60048036038101906106e591906141f2565b6114fe565b005b3480156106f7575f5ffd5b5061070061162a565b005b34801561070d575f5ffd5b50610716611757565b60405161072391906142c3565b60405180910390f35b348015610737575f5ffd5b50610752600480360381019061074d9190614400565b61177b565b005b34801561075f575f5ffd5b506107686117a2565b6040516107759190614329565b60405180910390f35b348015610789575f5ffd5b506107a4600480360381019061079f9190614289565b6117a8565b005b3480156107b1575f5ffd5b506107cc60048036038101906107c791906141f2565b6117dd565b6040516107d99190614329565b60405180910390f35b3480156107ed575f5ffd5b506107f66117f2565b6040516108039190614329565b60405180910390f35b348015610817575f5ffd5b506108206117f8565b60405161082d9190614329565b60405180910390f35b348015610841575f5ffd5b5061084a6117fe565b005b348015610857575f5ffd5b50610860611833565b005b34801561086d575f5ffd5b50610876611a5a565b60405161088997969594939291906145cd565b60405180910390f35b34801561089d575f5ffd5b506108b860048036038101906108b3919061464f565b611aff565b6040516108c591906146e2565b60405180910390f35b3480156108d9575f5ffd5b506108e2611bb3565b6040516108ef919061471b565b60405180910390f35b348015610903575f5ffd5b5061091e600480360381019061091991906142dc565b611bd7565b60405161092b91906140ad565b60405180910390f35b34801561093f575f5ffd5b5061095a60048036038101906109559190614734565b611c3b565b005b348015610967575f5ffd5b50610982600480360381019061097d91906140f9565b611d4b565b005b34801561098f575f5ffd5b50610998611d80565b6040516109a591906142c3565b60405180910390f35b3480156109b9575f5ffd5b506109c2611d86565b6040516109cf9190614329565b60405180910390f35b3480156109e3575f5ffd5b506109fe60048036038101906109f991906141f2565b611d8c565b604051610a119796959493929190614804565b60405180910390f35b348015610a25575f5ffd5b50610a406004803603810190610a3b91906148c6565b611e02565b604051610a4d9190614a1e565b60405180910390f35b348015610a61575f5ffd5b50610a6a611f73565b005b348015610a77575f5ffd5b50610a80612109565b604051610a8d9190614a5e565b60405180910390f35b348015610aa1575f5ffd5b50610aaa61212e565b604051610ab79190614329565b60405180910390f35b348015610acb575f5ffd5b50610ad4612134565b604051610ae191906142c3565b60405180910390f35b348015610af5575f5ffd5b50610b106004803603810190610b0b9190614a77565b612158565b005b348015610b1d575f5ffd5b50610b386004803603810190610b3391906142dc565b612194565b005b348015610b45575f5ffd5b50610b4e6121b6565b604051610b5b9190614329565b60405180910390f35b348015610b6f575f5ffd5b50610b8a6004803603810190610b8591906141f2565b6121bc565b604051610b979190614329565b60405180910390f35b348015610bab575f5ffd5b50610bb46121d1565b604051610bc19190614b08565b60405180910390f35b348015610bd5575f5ffd5b50610bf06004803603810190610beb9190614b21565b6121f7565b005b348015610bfd575f5ffd5b50610c0661238a565b604051610c1391906142c3565b60405180910390f35b348015610c27575f5ffd5b50610c306123ae565b604051610c3d9190614329565b60405180910390f35b348015610c51575f5ffd5b50610c6c6004803603810190610c679190614b89565b6123b4565b005b348015610c79575f5ffd5b50610c946004803603810190610c8f9190614bea565b612465565b005b348015610ca1575f5ffd5b50610caa61255d565b604051610cb79190614329565b60405180910390f35b348015610ccb575f5ffd5b50610ce66004803603810190610ce191906141f2565b612563565b604051610cf69493929190614c61565b60405180910390f35b348015610d0a575f5ffd5b50610d1361258f565b604051610d209190614cc4565b60405180910390f35b348015610d34575f5ffd5b50610d3d6125b4565b604051610d4a9190614cfd565b60405180910390f35b348015610d5e575f5ffd5b50610d796004803603810190610d7491906141f2565b6125d8565b604051610d87929190614d16565b60405180910390f35b60065f9054906101000a900473ffffffffffffffffffffffffffffffffffffffff1673ffffffffffffffffffffffffffffffffffffffff163373ffffffffffffffffffffffffffffffffffffffff1614610e1f576040517f08c379a0000000000000000000000000000000000000000000000000000000008152600401610e1690614d87565b60405180910390fd5b5f5f8383810190610e309190614342565b9150915081600b8190555080600d819055505050505050505050565b5f7f7965db0b000000000000000000000000000000000000000000000000000000007bffffffffffffffffffffffffffffffffffffffffffffffffffffffff1916827bffffffffffffffffffffffffffffffffffffffffffffffffffffffff19161480610ebe5750610ebd826125f8565b5b9050919050565b610ecd612661565b5f5a905060045f9054906101000a900473ffffffffffffffffffffffffffffffffffffffff1673ffffffffffffffffffffffffffffffffffffffff1663b9209e33336040518263ffffffff1660e01b8152600401610f2b9190614da5565b602060405180830381865afa158015610f46573d5f5f3e3d5ffd5b505050506040513d601f19601f82011682018060405250810190610f6a9190614dd2565b610fa9576040517f08c379a0000000000000000000000000000000000000000000000000000000008152600401610fa090614e47565b60405180910390fd5b610fb333836126ab565b610fbc336127af565b610fc63382612912565b5050565b60055f9054906101000a900473ffffffffffffffffffffffffffffffffffffffff1681565b600f602052805f5260405f205f915054906101000a900460ff1681565b611014612661565b5f5a905061102233836126ab565b61102b336127af565b6110353382612912565b5050565b60045f9054906101000a900473ffffffffffffffffffffffffffffffffffffffff1681565b611066612661565b5f60185f3373ffffffffffffffffffffffffffffffffffffffff1673ffffffffffffffffffffffffffffffffffffffff1681526020019081526020015f20905081816002015410156110ed576040517f08c379a00000000000000000000000000000000000000000000000000000000081526004016110e490614eaf565b60405180910390fd5b81816002015f8282546111009190614efa565b9250508190555061111481600201546129f5565b816003015f6101000a81548160ff0219169083600481111561113957611138614791565b5b02179055508160115f3373ffffffffffffffffffffffffffffffffffffffff1673ffffffffffffffffffffffffffffffffffffffff1681526020019081526020015f20819055506010544261118e9190614f2d565b60125f3373ffffffffffffffffffffffffffffffffffffffff1673ffffffffffffffffffffffffffffffffffffffff1681526020019081526020015f20819055503373ffffffffffffffffffffffffffffffffffffffff167f828764c21e74c28710e19919735825aba966621c95cbd913f8ed65a2d298f48c836040516112159190614329565b60405180910390a25050565b5f60025f8381526020019081526020015f20600101549050919050565b600e5481565b61124d82611221565b61125681612a56565b6112608383612a6a565b50505050565b6012602052805f5260405f205f915090505481565b611283612b54565b73ffffffffffffffffffffffffffffffffffffffff168173ffffffffffffffffffffffffffffffffffffffff16146112e7576040517f6697b23200000000000000000000000000000000000000000000000000000000815260040160405180910390fd5b6112f18282612b5b565b505050565b600c5481565b7f65d7a28e3265b37a6474929f336521b332c1681b933f6cb9f3376673440d862a61132681612a56565b61132e612c45565b50565b60095481565b61133f612661565b61138c3330847f000000000000000000000000000000000000000000000000000000000000000073ffffffffffffffffffffffffffffffffffffffff16612ca6909392919063ffffffff16565b604051806040016040528083815260200182426113a99190614f2d565b81525060135f3373ffffffffffffffffffffffffffffffffffffffff1673ffffffffffffffffffffffffffffffffffffffff1681526020019081526020015f205f820151815f0155602082015181600101559050505050565b7f7935bd0ae54bc31f548c14dba4d37c5c64b3f8ca900cb468fb8abd54d5894f5561142c81612a56565b5f600b54600d54604051602001611444929190614d16565b604051602081830303815290604052905060065f9054906101000a900473ffffffffffffffffffffffffffffffffffffffff1673ffffffffffffffffffffffffffffffffffffffff16639ca4a0a2348584335f6040518663ffffffff1660e01b81526004016114b69493929190614ffa565b5f604051808303818588803b1580156114cd575f5ffd5b505af11580156114df573d5f5f3e3d5ffd5b5050505050505050565b5f60035f9054906101000a900460ff16905090565b611506612661565b5f60135f8373ffffffffffffffffffffffffffffffffffffffff1673ffffffffffffffffffffffffffffffffffffffff1681526020019081526020015f2090505f815f01541161158b576040517f08c379a0000000000000000000000000000000000000000000000000000000008152600401611582906150a1565b60405180910390fd5b6115d933825f01547f000000000000000000000000000000000000000000000000000000000000000073ffffffffffffffffffffffffffffffffffffffff16612d289092919063ffffffff16565b60135f8373ffffffffffffffffffffffffffffffffffffffff1673ffffffffffffffffffffffffffffffffffffffff1681526020019081526020015f205f5f82015f9055600182015f905550505050565b611632612661565b5f60135f3373ffffffffffffffffffffffffffffffffffffffff1673ffffffffffffffffffffffffffffffffffffffff1681526020019081526020015f20905080600101544210156116b9576040517f08c379a00000000000000000000000000000000000000000000000000000000081526004016116b090615109565b60405180910390fd5b61170733825f01547f000000000000000000000000000000000000000000000000000000000000000073ffffffffffffffffffffffffffffffffffffffff16612d289092919063ffffffff16565b60135f3373ffffffffffffffffffffffffffffffffffffffff1673ffffffffffffffffffffffffffffffffffffffff1681526020019081526020015f205f5f82015f9055600182015f9055505050565b7fd47f8513de5c0f6d90a8e751907df996f612c11328c0d9d7b92d573d2284e98281565b611783612661565b5f5a9050611792848484612da7565b61179c3382612912565b50505050565b600b5481565b7f7935bd0ae54bc31f548c14dba4d37c5c64b3f8ca900cb468fb8abd54d5894f556117d281612a56565b81600e819055505050565b6019602052805f5260405f205f915090505481565b60105481565b600a5481565b7f65d7a28e3265b37a6474929f336521b332c1681b933f6cb9f3376673440d862a61182881612a56565b611830612ff5565b50565b61183b612661565b5f60115f3373ffffffffffffffffffffffffffffffffffffffff1673ffffffffffffffffffffffffffffffffffffffff1681526020019081526020015f205490505f81116118be576040517f08c379a00000000000000000000000000000000000000000000000000000000081526004016118b590615171565b60405180910390fd5b60125f3373ffffffffffffffffffffffffffffffffffffffff1673ffffffffffffffffffffffffffffffffffffffff1681526020019081526020015f205442101561193e576040517f08c379a0000000000000000000000000000000000000000000000000000000008152600401611935906151d9565b60405180910390fd5b60115f3373ffffffffffffffffffffffffffffffffffffffff1673ffffffffffffffffffffffffffffffffffffffff1681526020019081526020015f205f905560125f3373ffffffffffffffffffffffffffffffffffffffff1673ffffffffffffffffffffffffffffffffffffffff1681526020019081526020015f205f9055611a0933827f000000000000000000000000000000000000000000000000000000000000000073ffffffffffffffffffffffffffffffffffffffff16612d289092919063ffffffff16565b3373ffffffffffffffffffffffffffffffffffffffff167fe3e01bae44eb85a30bd61c3742b60e379576ff5070a142675f575f53d5bbc2e482604051611a4f9190614329565b60405180910390a250565b5f6060805f5f5f6060611a6b613057565b611a73613091565b46305f5f1b5f67ffffffffffffffff811115611a9257611a916151f7565b5b604051908082528060200260200182016040528015611ac05781602001602082028036833780820191505090505b507f0f00000000000000000000000000000000000000000000000000000000000000959493929190965096509650965096509650965090919293949596565b5f611b08612661565b7f000000000000000000000000000000000000000000000000000000000000000073ffffffffffffffffffffffffffffffffffffffff163373ffffffffffffffffffffffffffffffffffffffff1614611b96576040517f08c379a0000000000000000000000000000000000000000000000000000000008152600401611b8d9061526e565b60405180910390fd5b611ba085856130cc565b6388a7ca5c60e01b905095945050505050565b7f000000000000000000000000000000000000000000000000000000000000000081565b5f60025f8481526020019081526020015f205f015f8373ffffffffffffffffffffffffffffffffffffffff1673ffffffffffffffffffffffffffffffffffffffff1681526020019081526020015f205f9054906101000a900460ff16905092915050565b611c43612661565b5f5a9050600360019054906101000a900473ffffffffffffffffffffffffffffffffffffffff1673ffffffffffffffffffffffffffffffffffffffff1663aee150c78484600b54336040518563ffffffff1660e01b8152600401611caa94939291906152c6565b602060405180830381865afa158015611cc5573d5f5f3e3d5ffd5b505050506040513d601f19601f82011682018060405250810190611ce99190614dd2565b611d28576040517f08c379a0000000000000000000000000000000000000000000000000000000008152600401611d1f9061534e565b60405180910390fd5b611d3233856126ab565b611d3b336127af565b611d453382612912565b50505050565b7f7935bd0ae54bc31f548c14dba4d37c5c64b3f8ca900cb468fb8abd54d5894f55611d7581612a56565b816008819055505050565b5f5f1b81565b60155481565b6018602052805f5260405f205f91509050805f015490806001015490806002015490806003015f9054906101000a900460ff1690806004015490806005015f9054906101000a900473ffffffffffffffffffffffffffffffffffffffff16908060050160149054906101000a900460ff16905087565b6060611e0c612661565b8282905067ffffffffffffffff811115611e2957611e286151f7565b5b604051908082528060200260200182016040528015611e5c57816020015b6060815260200190600190039081611e475790505b5090505f5f90505b83839050811015611f6c575f5f3073ffffffffffffffffffffffffffffffffffffffff16868685818110611e9b57611e9a61536c565b5b9050602002810190611ead91906153a5565b604051611ebb929190615435565b5f604051808303815f865af19150503d805f8114611ef4576040519150601f19603f3d011682016040523d82523d5f602084013e611ef9565b606091505b509150915081611f3e576040517f08c379a0000000000000000000000000000000000000000000000000000000008152600401611f3590615497565b60405180910390fd5b80848481518110611f5257611f5161536c565b5b602002602001018190525050508080600101915050611e64565b5092915050565b611f7b612661565b5f60145f3373ffffffffffffffffffffffffffffffffffffffff1673ffffffffffffffffffffffffffffffffffffffff1681526020019081526020015f2090508060010154815f015411612004576040517f08c379a0000000000000000000000000000000000000000000000000000000008152600401611ffb906154ff565b60405180910390fd5b5f61200e826131c2565b90505f8111612052576040517f08c379a000000000000000000000000000000000000000000000000000000000815260040161204990615567565b60405180910390fd5b80826001015f8282546120659190614f2d565b925050819055506120b733827f000000000000000000000000000000000000000000000000000000000000000073ffffffffffffffffffffffffffffffffffffffff16612d289092919063ffffffff16565b3373ffffffffffffffffffffffffffffffffffffffff167ff295d7b1dc83525860d9a2626877f603a897f06bb6533c5a1ddffa679868dc98826040516120fd9190614329565b60405180910390a25050565b60065f9054906101000a900473ffffffffffffffffffffffffffffffffffffffff1681565b60165481565b7f7935bd0ae54bc31f548c14dba4d37c5c64b3f8ca900cb468fb8abd54d5894f5581565b612160612661565b5f5a905061217085858585613224565b61217a33856126ab565b612183336127af565b61218d3382612912565b5050505050565b61219d82611221565b6121a681612a56565b6121b08383612b5b565b50505050565b60085481565b6011602052805f5260405f205f915090505481565b600360019054906101000a900473ffffffffffffffffffffffffffffffffffffffff1681565b5f60055f9054906101000a900473ffffffffffffffffffffffffffffffffffffffff1673ffffffffffffffffffffffffffffffffffffffff1663774023de844630866040518563ffffffff1660e01b81526004016122589493929190615585565b602060405180830381865afa158015612273573d5f5f3e3d5ffd5b505050506040513d601f19601f8201168201806040525081019061229791906155dc565b90505f73ffffffffffffffffffffffffffffffffffffffff168173ffffffffffffffffffffffffffffffffffffffff1603612307576040517f08c379a00000000000000000000000000000000000000000000000000000000081526004016122fe90615651565b60405180910390fd5b8060185f3373ffffffffffffffffffffffffffffffffffffffff1673ffffffffffffffffffffffffffffffffffffffff1681526020019081526020015f206005015f6101000a81548173ffffffffffffffffffffffffffffffffffffffff021916908373ffffffffffffffffffffffffffffffffffffffff160217905550505050565b7f65d7a28e3265b37a6474929f336521b332c1681b933f6cb9f3376673440d862a81565b60175481565b6123bc612661565b8060185f3373ffffffffffffffffffffffffffffffffffffffff1673ffffffffffffffffffffffffffffffffffffffff1681526020019081526020015f2060050160146101000a81548160ff0219169083151502179055503373ffffffffffffffffffffffffffffffffffffffff167f72defbb28064584321264302489076b65ae61a5c2886d9fa7cf076a60371d5cf8260405161245a91906140ad565b60405180910390a250565b61246d612661565b7f000000000000000000000000000000000000000000000000000000000000000073ffffffffffffffffffffffffffffffffffffffff1663d505accf333088888888886040518863ffffffff1660e01b81526004016124d2979695949392919061567e565b5f604051808303815f87803b1580156124e9575f5ffd5b505af11580156124fb573d5f5f3e3d5ffd5b5050505061254c3330877f000000000000000000000000000000000000000000000000000000000000000073ffffffffffffffffffffffffffffffffffffffff16612ca6909392919063ffffffff16565b61255633866130cc565b5050505050565b600d5481565b6014602052805f5260405f205f91509050805f0154908060010154908060020154908060030154905084565b60075f9054906101000a900473ffffffffffffffffffffffffffffffffffffffff1681565b7f000000000000000000000000000000000000000000000000000000000000000081565b6013602052805f5260405f205f91509050805f0154908060010154905082565b5f7f01ffc9a7000000000000000000000000000000000000000000000000000000007bffffffffffffffffffffffffffffffffffffffffffffffffffffffff1916827bffffffffffffffffffffffffffffffffffffffffffffffffffffffff1916149050919050565b6126696114e9565b156126a9576040517f08c379a00000000000000000000000000000000000000000000000000000000081526004016126a090615735565b60405180910390fd5b565b5f60185f8473ffffffffffffffffffffffffffffffffffffffff1673ffffffffffffffffffffffffffffffffffffffff1681526020019081526020015f209050600954600c546126fb9190614f2d565b421061272957600b5f81548092919061271390615753565b919050555042600c819055505f81600101819055505b81815f015f82825461273b9190614f2d565b9250508190555081816001015f8282546127559190614f2d565b925050819055508273ffffffffffffffffffffffffffffffffffffffff167f379842ba09700502a486ccbf48ed8f66ac8e6c9cdd6ffec9257b0fe53fe987f2836040516127a29190614329565b60405180910390a2505050565b5f60185f8373ffffffffffffffffffffffffffffffffffffffff1673ffffffffffffffffffffffffffffffffffffffff1681526020019081526020015f209050600b54816004015410612837576040517f08c379a000000000000000000000000000000000000000000000000000000000815260040161282e906157e4565b60405180910390fd5b600a5481600101541015612880576040517f08c379a00000000000000000000000000000000000000000000000000000000081526004016128779061584c565b60405180910390fd5b5f61288a82613398565b90505f81116128ce576040517f08c379a00000000000000000000000000000000000000000000000000000000081526004016128c5906158b4565b60405180910390fd5b600b54826004018190555080600d5f8282546128ea9190614f2d565b9250508190555061290d83828460050160149054906101000a900460ff166133f9565b505050565b5f5a8261291f9190614efa565b905060175481116129f0575f6016548261293991906158d2565b905080600d5f82825461294c9190614f2d565b9250508190555061299e84827f000000000000000000000000000000000000000000000000000000000000000073ffffffffffffffffffffffffffffffffffffffff16612d289092919063ffffffff16565b8373ffffffffffffffffffffffffffffffffffffffff167f6a1205d021d40b6588646695d13102757b80c2f232b61aa671cc353e7729675482846040516129e6929190614d16565b60405180910390a2505b505050565b5f633b9aca00821015612a0a575f9050612a51565b6402540be400821015612a205760019050612a51565b640ba43b7400821015612a365760029050612a51565b64174876e800821015612a4c5760039050612a51565b600490505b919050565b612a6781612a62612b54565b6134ed565b50565b5f612a758383611bd7565b612b4a57600160025f8581526020019081526020015f205f015f8473ffffffffffffffffffffffffffffffffffffffff1673ffffffffffffffffffffffffffffffffffffffff1681526020019081526020015f205f6101000a81548160ff021916908315150217905550612ae7612b54565b73ffffffffffffffffffffffffffffffffffffffff168273ffffffffffffffffffffffffffffffffffffffff16847f2f8788117e7eff1d82e926ec794901d17c78024a50270940304540a733656f0d60405160405180910390a460019050612b4e565b5f90505b92915050565b5f33905090565b5f612b668383611bd7565b15612c3b575f60025f8581526020019081526020015f205f015f8473ffffffffffffffffffffffffffffffffffffffff1673ffffffffffffffffffffffffffffffffffffffff1681526020019081526020015f205f6101000a81548160ff021916908315150217905550612bd8612b54565b73ffffffffffffffffffffffffffffffffffffffff168273ffffffffffffffffffffffffffffffffffffffff16847ff6391f5c32d9c69d2a47ea670b442974b53935d1edc7fd64eb21e047a839171b60405160405180910390a460019050612c3f565b5f90505b92915050565b612c4d61353e565b5f60035f6101000a81548160ff0219169083151502179055507f5db9ee0a495bf2e6ff9c91a7834c1ba4fdd244a5e8aa4e537bd38aeae4b073aa612c8f612b54565b604051612c9c9190614da5565b60405180910390a1565b612d22848573ffffffffffffffffffffffffffffffffffffffff166323b872dd868686604051602401612cdb93929190615913565b604051602081830303815290604052915060e01b6020820180517bffffffffffffffffffffffffffffffffffffffffffffffffffffffff8381831617835250505050613587565b50505050565b612da2838473ffffffffffffffffffffffffffffffffffffffff1663a9059cbb8585604051602401612d5b929190615948565b604051602081830303815290604052915060e01b6020820180517bffffffffffffffffffffffffffffffffffffffffffffffffffffffff8381831617835250505050613587565b505050565b600f5f3373ffffffffffffffffffffffffffffffffffffffff1673ffffffffffffffffffffffffffffffffffffffff1681526020019081526020015f205f9054906101000a900460ff1615612e31576040517f08c379a0000000000000000000000000000000000000000000000000000000008152600401612e28906157e4565b60405180910390fd5b5f3384604051602001612e459291906159d4565b604051602081830303815290604052805190602001209050612eaa8383808060200260200160405190810160405280939291908181526020018383602002808284375f81840152601f19601f82011690508083019250505050505050600e5483613622565b612ee9576040517f08c379a0000000000000000000000000000000000000000000000000000000008152600401612ee090615a49565b60405180910390fd5b6001600f5f3373ffffffffffffffffffffffffffffffffffffffff1673ffffffffffffffffffffffffffffffffffffffff1681526020019081526020015f205f6101000a81548160ff021916908315150217905550612f8933857f000000000000000000000000000000000000000000000000000000000000000073ffffffffffffffffffffffffffffffffffffffff16612d289092919063ffffffff16565b83600d5f828254612f9a9190614f2d565b925050819055503373ffffffffffffffffffffffffffffffffffffffff167ffc30cddea38e2bf4d6ea7d3f9ed3b6ad7f176419f4963bd81318067a4aee73fe85604051612fe79190614329565b60405180910390a250505050565b612ffd612661565b600160035f6101000a81548160ff0219169083151502179055507f62e78cea01bee320cd4e420270b5ea74000d11b0c9f74754ebdbfc544b05a258613040612b54565b60405161304d9190614da5565b60405180910390a1565b606061308c5f7f000000000000000000000000000000000000000000000000000000000000000061363890919063ffffffff16565b905090565b60606130c760017f000000000000000000000000000000000000000000000000000000000000000061363890919063ffffffff16565b905090565b5f60185f8473ffffffffffffffffffffffffffffffffffffffff1673ffffffffffffffffffffffffffffffffffffffff1681526020019081526020015f20905081816002015f82825461311f9190614f2d565b9250508190555061313381600201546129f5565b816003015f6101000a81548160ff0219169083600481111561315857613157614791565b5b02179055508273ffffffffffffffffffffffffffffffffffffffff167fe42710261dccb691e79e3f3e24a2b8cc0e13b9bec7be82a445c6a6992474ea4483836003015f9054906101000a900460ff166040516131b5929190615a67565b60405180910390a2505050565b5f5f8260020154600b546131d69190614efa565b90505f6131e78285600301546136e5565b90505f846003015482865f01546131fe91906158d2565b6132089190615abb565b905084600101548161321a9190614efa565b9350505050919050565b5f7fd47f8513de5c0f6d90a8e751907df996f612c11328c0d9d7b92d573d2284e982858560195f3373ffffffffffffffffffffffffffffffffffffffff1673ffffffffffffffffffffffffffffffffffffffff1681526020019081526020015f205f81548092919061329590615753565b91905055336040516020016132ae959493929190615aeb565b6040516020818303038152906040528051906020012090503373ffffffffffffffffffffffffffffffffffffffff1661333b84848080601f0160208091040260200160405190810160405280939291908181526020018383808284375f81840152601f19601f8201169050808301925050505050505061332d846136fb565b61371490919063ffffffff16565b73ffffffffffffffffffffffffffffffffffffffff1614613391576040517f08c379a000000000000000000000000000000000000000000000000000000000815260040161338890615b86565b60405180910390fd5b5050505050565b5f5f620f424060085484600101546133b091906158d2565b6133ba9190615abb565b90505f6133d6846003015f9054906101000a900460ff1661373e565b9050606481836133e691906158d2565b6133f09190615abb565b92505050919050565b5f606460198461340991906158d2565b6134139190615abb565b90505f81846134229190614efa565b905082156134395761343485836130cc565b6134d3565b61348485837f000000000000000000000000000000000000000000000000000000000000000073ffffffffffffffffffffffffffffffffffffffff16612d289092919063ffffffff16565b8473ffffffffffffffffffffffffffffffffffffffff167ffc30cddea38e2bf4d6ea7d3f9ed3b6ad7f176419f4963bd81318067a4aee73fe836040516134ca9190614329565b60405180910390a25b5f8111156134e6576134e5858261381d565b5b5050505050565b6134f78282611bd7565b61353a5780826040517fe2517d3f000000000000000000000000000000000000000000000000000000008152600401613531929190615ba4565b60405180910390fd5b5050565b6135466114e9565b613585576040517f08c379a000000000000000000000000000000000000000000000000000000000815260040161357c90615c15565b60405180910390fd5b565b5f5f60205f8451602086015f885af1806135a6576040513d5f823e3d81fd5b3d92505f519150505f82146135bf5760018114156135da565b5f8473ffffffffffffffffffffffffffffffffffffffff163b145b1561361c57836040517f5274afe70000000000000000000000000000000000000000000000000000000081526004016136139190614da5565b60405180910390fd5b50505050565b5f8261362e85846138f7565b1490509392505050565b606060ff5f1b83146136545761364d83613948565b90506136df565b81805461366090615c60565b80601f016020809104026020016040519081016040528092919081815260200182805461368c90615c60565b80156136d75780601f106136ae576101008083540402835291602001916136d7565b820191905f5260205f20905b8154815290600101906020018083116136ba57829003601f168201915b505050505090505b92915050565b5f6136f382841084846139ba565b905092915050565b5f61370d6137076139d3565b83613a89565b9050919050565b5f5f5f5f6137228686613ac9565b9250925092506137328282613b1e565b82935050505092915050565b5f6001600481111561375357613752614791565b5b82600481111561376657613765614791565b5b0361377457607d9050613818565b6002600481111561378857613787614791565b5b82600481111561379b5761379a614791565b5b036137a95760969050613818565b600360048111156137bd576137bc614791565b5b8260048111156137d0576137cf614791565b5b036137de5760c89050613818565b6004808111156137f1576137f0614791565b5b82600481111561380457613803614791565b5b036138135761012c9050613818565b606490505b919050565b5f60145f8473ffffffffffffffffffffffffffffffffffffffff1673ffffffffffffffffffffffffffffffffffffffff1681526020019081526020015f2090505f81600201540361387f57600b54816002018190555060155481600301819055505b81815f015f8282546138919190614f2d565b925050819055508273ffffffffffffffffffffffffffffffffffffffff167fcacf4a6e7c897ead5577524d96f0debb59ccd5bd3465d42cd2a958e2defb0b9483836002015484600301546040516138ea93929190615c90565b60405180910390a2505050565b5f5f8290505f5f90505b845181101561393d5761392e828683815181106139215761392061536c565b5b6020026020010151613c80565b91508080600101915050613901565b508091505092915050565b60605f61395483613caa565b90505f602067ffffffffffffffff811115613972576139716151f7565b5b6040519080825280601f01601f1916602001820160405280156139a45781602001600182028036833780820191505090505b5090508181528360208201528092505050919050565b5f6139c484613cf8565b82841802821890509392505050565b5f7f000000000000000000000000000000000000000000000000000000000000000073ffffffffffffffffffffffffffffffffffffffff163073ffffffffffffffffffffffffffffffffffffffff16148015613a4e57507f000000000000000000000000000000000000000000000000000000000000000046145b15613a7b577f00000000000000000000000000000000000000000000000000000000000000009050613a86565b613a83613d03565b90505b90565b5f6040517f190100000000000000000000000000000000000000000000000000000000000081528360028201528260228201526042812091505092915050565b5f5f5f6041845103613b09575f5f5f602087015192506040870151915060608701515f1a9050613afb88828585613d98565b955095509550505050613b17565b5f600285515f1b9250925092505b9250925092565b5f6003811115613b3157613b30614791565b5b826003811115613b4457613b43614791565b5b0315613c7c5760016003811115613b5e57613b5d614791565b5b826003811115613b7157613b70614791565b5b03613ba8576040517ff645eedf00000000000000000000000000000000000000000000000000000000815260040160405180910390fd5b60026003811115613bbc57613bbb614791565b5b826003811115613bcf57613bce614791565b5b03613c1357805f1c6040517ffce698f7000000000000000000000000000000000000000000000000000000008152600401613c0a9190614329565b60405180910390fd5b600380811115613c2657613c25614791565b5b826003811115613c3957613c38614791565b5b03613c7b57806040517fd78bce0c000000000000000000000000000000000000000000000000000000008152600401613c7291906142c3565b60405180910390fd5b5b5050565b5f818310613c9757613c928284613e7f565b613ca2565b613ca18383613e7f565b5b905092915050565b5f5f60ff835f1c169050601f811115613cef576040517fb3512b0c00000000000000000000000000000000000000000000000000000000815260040160405180910390fd5b80915050919050565b5f8115159050919050565b5f7f8b73c3c69bb8fe3d512ecc4cf759cc79239f7b179b0ffacaa9a75d522b39400f7f00000000000000000000000000000000000000000000000000000000000000007f00000000000000000000000000000000000000000000000000000000000000004630604051602001613d7d959493929190615cc5565b60405160208183030381529060405280519060200120905090565b5f5f5f7f7fffffffffffffffffffffffffffffff5d576e7357a4501ddfe92f46681b20a0845f1c1115613dd4575f600385925092509250613e75565b5f6001888888886040515f8152602001604052604051613df79493929190615d16565b6020604051602081039080840390855afa158015613e17573d5f5f3e3d5ffd5b5050506020604051035190505f73ffffffffffffffffffffffffffffffffffffffff168173ffffffffffffffffffffffffffffffffffffffff1603613e68575f60015f5f1b93509350935050613e75565b805f5f5f1b935093509350505b9450945094915050565b5f825f528160205260405f20905092915050565b5f5ffd5b5f5ffd5b5f61ffff82169050919050565b613eb181613e9b565b8114613ebb575f5ffd5b50565b5f81359050613ecc81613ea8565b92915050565b5f5ffd5b5f5ffd5b5f5ffd5b5f5f83601f840112613ef357613ef2613ed2565b5b8235905067ffffffffffffffff811115613f1057613f0f613ed6565b5b602083019150836001820283011115613f2c57613f2b613eda565b5b9250929050565b5f67ffffffffffffffff82169050919050565b613f4f81613f33565b8114613f59575f5ffd5b50565b5f81359050613f6a81613f46565b92915050565b5f5f5f5f5f5f60808789031215613f8a57613f89613e93565b5b5f613f9789828a01613ebe565b965050602087013567ffffffffffffffff811115613fb857613fb7613e97565b5b613fc489828a01613ede565b95509550506040613fd789828a01613f5c565b935050606087013567ffffffffffffffff811115613ff857613ff7613e97565b5b61400489828a01613ede565b92509250509295509295509295565b5f7fffffffff0000000000000000000000000000000000000000000000000000000082169050919050565b61404781614013565b8114614051575f5ffd5b50565b5f813590506140628161403e565b92915050565b5f6020828403121561407d5761407c613e93565b5b5f61408a84828501614054565b91505092915050565b5f8115159050919050565b6140a781614093565b82525050565b5f6020820190506140c05f83018461409e565b92915050565b5f819050919050565b6140d8816140c6565b81146140e2575f5ffd5b50565b5f813590506140f3816140cf565b92915050565b5f6020828403121561410e5761410d613e93565b5b5f61411b848285016140e5565b91505092915050565b5f73ffffffffffffffffffffffffffffffffffffffff82169050919050565b5f819050919050565b5f61416661416161415c84614124565b614143565b614124565b9050919050565b5f6141778261414c565b9050919050565b5f6141888261416d565b9050919050565b6141988161417e565b82525050565b5f6020820190506141b15f83018461418f565b92915050565b5f6141c182614124565b9050919050565b6141d1816141b7565b81146141db575f5ffd5b50565b5f813590506141ec816141c8565b92915050565b5f6020828403121561420757614206613e93565b5b5f614214848285016141de565b91505092915050565b5f6142278261416d565b9050919050565b6142378161421d565b82525050565b5f6020820190506142505f83018461422e565b92915050565b5f819050919050565b61426881614256565b8114614272575f5ffd5b50565b5f813590506142838161425f565b92915050565b5f6020828403121561429e5761429d613e93565b5b5f6142ab84828501614275565b91505092915050565b6142bd81614256565b82525050565b5f6020820190506142d65f8301846142b4565b92915050565b5f5f604083850312156142f2576142f1613e93565b5b5f6142ff85828601614275565b9250506020614310858286016141de565b9150509250929050565b614323816140c6565b82525050565b5f60208201905061433c5f83018461431a565b92915050565b5f5f6040838503121561435857614357613e93565b5b5f614365858286016140e5565b9250506020614376858286016140e5565b9150509250929050565b5f6020828403121561439557614394613e93565b5b5f6143a284828501613ebe565b91505092915050565b5f5f83601f8401126143c0576143bf613ed2565b5b8235905067ffffffffffffffff8111156143dd576143dc613ed6565b5b6020830191508360208202830111156143f9576143f8613eda565b5b9250929050565b5f5f5f6040848603121561441757614416613e93565b5b5f614424868287016140e5565b935050602084013567ffffffffffffffff81111561444557614444613e97565b5b614451868287016143ab565b92509250509250925092565b5f7fff0000000000000000000000000000000000000000000000000000000000000082169050919050565b6144918161445d565b82525050565b5f81519050919050565b5f82825260208201905092915050565b8281835e5f83830152505050565b5f601f19601f8301169050919050565b5f6144d982614497565b6144e381856144a1565b93506144f38185602086016144b1565b6144fc816144bf565b840191505092915050565b614510816141b7565b82525050565b5f81519050919050565b5f82825260208201905092915050565b5f819050602082019050919050565b614548816140c6565b82525050565b5f614559838361453f565b60208301905092915050565b5f602082019050919050565b5f61457b82614516565b6145858185614520565b935061459083614530565b805f5b838110156145c05781516145a7888261454e565b97506145b283614565565b925050600181019050614593565b5085935050505092915050565b5f60e0820190506145e05f83018a614488565b81810360208301526145f281896144cf565b9050818103604083015261460681886144cf565b9050614615606083018761431a565b6146226080830186614507565b61462f60a08301856142b4565b81810360c08301526146418184614571565b905098975050505050505050565b5f5f5f5f5f6080868803121561466857614667613e93565b5b5f614675888289016141de565b9550506020614686888289016141de565b9450506040614697888289016140e5565b935050606086013567ffffffffffffffff8111156146b8576146b7613e97565b5b6146c488828901613ede565b92509250509295509295909350565b6146dc81614013565b82525050565b5f6020820190506146f55f8301846146d3565b92915050565b5f6147058261416d565b9050919050565b614715816146fb565b82525050565b5f60208201905061472e5f83018461470c565b92915050565b5f5f5f6040848603121561474b5761474a613e93565b5b5f614758868287016140e5565b935050602084013567ffffffffffffffff81111561477957614778613e97565b5b61478586828701613ede565b92509250509250925092565b7f4e487b71000000000000000000000000000000000000000000000000000000005f52602160045260245ffd5b600581106147cf576147ce614791565b5b50565b5f8190506147df826147be565b919050565b5f6147ee826147d2565b9050919050565b6147fe816147e4565b82525050565b5f60e0820190506148175f83018a61431a565b614824602083018961431a565b614831604083018861431a565b61483e60608301876147f5565b61484b608083018661431a565b61485860a0830185614507565b61486560c083018461409e565b98975050505050505050565b5f5f83601f84011261488657614885613ed2565b5b8235905067ffffffffffffffff8111156148a3576148a2613ed6565b5b6020830191508360208202830111156148bf576148be613eda565b5b9250929050565b5f5f602083850312156148dc576148db613e93565b5b5f83013567ffffffffffffffff8111156148f9576148f8613e97565b5b61490585828601614871565b92509250509250929050565b5f81519050919050565b5f82825260208201905092915050565b5f819050602082019050919050565b5f81519050919050565b5f82825260208201905092915050565b5f61495e8261493a565b6149688185614944565b93506149788185602086016144b1565b614981816144bf565b840191505092915050565b5f6149978383614954565b905092915050565b5f602082019050919050565b5f6149b582614911565b6149bf818561491b565b9350836020820285016149d18561492b565b805f5b85811015614a0c57848403895281516149ed858261498c565b94506149f88361499f565b925060208a019950506001810190506149d4565b50829750879550505050505092915050565b5f6020820190508181035f830152614a3681846149ab565b905092915050565b5f614a488261416d565b9050919050565b614a5881614a3e565b82525050565b5f602082019050614a715f830184614a4f565b92915050565b5f5f5f5f60608587031215614a8f57614a8e613e93565b5b5f614a9c878288016140e5565b9450506020614aad878288016140e5565b935050604085013567ffffffffffffffff811115614ace57614acd613e97565b5b614ada87828801613ede565b925092505092959194509250565b5f614af28261416d565b9050919050565b614b0281614ae8565b82525050565b5f602082019050614b1b5f830184614af9565b92915050565b5f5f60408385031215614b3757614b36613e93565b5b5f614b44858286016141de565b9250506020614b55858286016140e5565b9150509250929050565b614b6881614093565b8114614b72575f5ffd5b50565b5f81359050614b8381614b5f565b92915050565b5f60208284031215614b9e57614b9d613e93565b5b5f614bab84828501614b75565b91505092915050565b5f60ff82169050919050565b614bc981614bb4565b8114614bd3575f5ffd5b50565b5f81359050614be481614bc0565b92915050565b5f5f5f5f5f60a08688031215614c0357614c02613e93565b5b5f614c10888289016140e5565b9550506020614c21888289016140e5565b9450506040614c3288828901614bd6565b9350506060614c4388828901614275565b9250506080614c5488828901614275565b9150509295509295909350565b5f608082019050614c745f83018761431a565b614c81602083018661431a565b614c8e604083018561431a565b614c9b606083018461431a565b95945050505050565b5f614cae8261416d565b9050919050565b614cbe81614ca4565b82525050565b5f602082019050614cd75f830184614cb5565b92915050565b5f614ce78261416d565b9050919050565b614cf781614cdd565b82525050565b5f602082019050614d105f830184614cee565b92915050565b5f604082019050614d295f83018561431a565b614d36602083018461431a565b9392505050565b7f496e76616c696420656e64706f696e74000000000000000000000000000000005f82015250565b5f614d716010836144a1565b9150614d7c82614d3d565b602082019050919050565b5f6020820190508181035f830152614d9e81614d65565b9050919050565b5f602082019050614db85f830184614507565b92915050565b5f81519050614dcc81614b5f565b92915050565b5f60208284031215614de757614de6613e93565b5b5f614df484828501614dbe565b91505092915050565b7f4e6f74204b5943000000000000000000000000000000000000000000000000005f82015250565b5f614e316007836144a1565b9150614e3c82614dfd565b602082019050919050565b5f6020820190508181035f830152614e5e81614e25565b9050919050565b7f496e73756666696369656e74207374616b6564000000000000000000000000005f82015250565b5f614e996013836144a1565b9150614ea482614e65565b602082019050919050565b5f6020820190508181035f830152614ec681614e8d565b9050919050565b7f4e487b71000000000000000000000000000000000000000000000000000000005f52601160045260245ffd5b5f614f04826140c6565b9150614f0f836140c6565b9250828203905081811115614f2757614f26614ecd565b5b92915050565b5f614f37826140c6565b9150614f42836140c6565b9250828201905080821115614f5a57614f59614ecd565b5b92915050565b614f6981613e9b565b82525050565b5f82825260208201905092915050565b5f614f898261493a565b614f938185614f6f565b9350614fa38185602086016144b1565b614fac816144bf565b840191505092915050565b5f614fc182614124565b9050919050565b614fd181614fb7565b82525050565b50565b5f614fe55f83614f6f565b9150614ff082614fd7565b5f82019050919050565b5f60a08201905061500d5f830187614f60565b818103602083015261501f8186614f7f565b905061502e6040830185614fc8565b61503b6060830184614507565b818103608083015261504c81614fda565b905095945050505050565b7f4e6f20626f6e64000000000000000000000000000000000000000000000000005f82015250565b5f61508b6007836144a1565b915061509682615057565b602082019050919050565b5f6020820190508181035f8301526150b88161507f565b9050919050565b7f426f6e64206c6f636b65640000000000000000000000000000000000000000005f82015250565b5f6150f3600b836144a1565b91506150fe826150bf565b602082019050919050565b5f6020820190508181035f830152615120816150e7565b9050919050565b7f4e6f2070656e64696e6720756e7374616b6500000000000000000000000000005f82015250565b5f61515b6012836144a1565b915061516682615127565b602082019050919050565b5f6020820190508181035f8301526151888161514f565b9050919050565b7f436f6f6c646f776e2061637469766500000000000000000000000000000000005f82015250565b5f6151c3600f836144a1565b91506151ce8261518f565b602082019050919050565b5f6020820190508181035f8301526151f0816151b7565b9050919050565b7f4e487b71000000000000000000000000000000000000000000000000000000005f52604160045260245ffd5b7f556e6b6e6f776e20746f6b656e000000000000000000000000000000000000005f82015250565b5f615258600d836144a1565b915061526382615224565b602082019050919050565b5f6020820190508181035f8301526152858161524c565b9050919050565b828183375f83830152505050565b5f6152a58385614f6f565b93506152b283858461528c565b6152bb836144bf565b840190509392505050565b5f6060820190508181035f8301526152df81868861529a565b90506152ee602083018561431a565b6152fb6040830184614507565b95945050505050565b7f496e76616c6964205a4b000000000000000000000000000000000000000000005f82015250565b5f615338600a836144a1565b915061534382615304565b602082019050919050565b5f6020820190508181035f8301526153658161532c565b9050919050565b7f4e487b71000000000000000000000000000000000000000000000000000000005f52603260045260245ffd5b5f5ffd5b5f5ffd5b5f5ffd5b5f5f833560016020038436030381126153c1576153c0615399565b5b80840192508235915067ffffffffffffffff8211156153e3576153e261539d565b5b6020830192506001820236038313156153ff576153fe6153a1565b5b509250929050565b5f81905092915050565b5f61541c8385615407565b935061542983858461528c565b82840190509392505050565b5f615441828486615411565b91508190509392505050565b7f4d756c746963616c6c206661696c6564000000000000000000000000000000005f82015250565b5f6154816010836144a1565b915061548c8261544d565b602082019050919050565b5f6020820190508181035f8301526154ae81615475565b9050919050565b7f4e6f6e65207665737465640000000000000000000000000000000000000000005f82015250565b5f6154e9600b836144a1565b91506154f4826154b5565b602082019050919050565b5f6020820190508181035f830152615516816154dd565b9050919050565b7f4e6f7468696e6720746f20636c61696d000000000000000000000000000000005f82015250565b5f6155516010836144a1565b915061555c8261551d565b602082019050919050565b5f6020820190508181035f83015261557e81615545565b9050919050565b5f6080820190506155985f830187614507565b6155a5602083018661431a565b6155b26040830185614507565b6155bf606083018461431a565b95945050505050565b5f815190506155d6816141c8565b92915050565b5f602082840312156155f1576155f0613e93565b5b5f6155fe848285016155c8565b91505092915050565b7f496e76616c6964203635353100000000000000000000000000000000000000005f82015250565b5f61563b600c836144a1565b915061564682615607565b602082019050919050565b5f6020820190508181035f8301526156688161562f565b9050919050565b61567881614bb4565b82525050565b5f60e0820190506156915f83018a614507565b61569e6020830189614507565b6156ab604083018861431a565b6156b8606083018761431a565b6156c5608083018661566f565b6156d260a08301856142b4565b6156df60c08301846142b4565b98975050505050505050565b7f5061757361626c653a20706175736564000000000000000000000000000000005f82015250565b5f61571f6010836144a1565b915061572a826156eb565b602082019050919050565b5f6020820190508181035f83015261574c81615713565b9050919050565b5f61575d826140c6565b91507fffffffffffffffffffffffffffffffffffffffffffffffffffffffffffffffff820361578f5761578e614ecd565b5b600182019050919050565b7f416c726561647920636c61696d656400000000000000000000000000000000005f82015250565b5f6157ce600f836144a1565b91506157d98261579a565b602082019050919050565b5f6020820190508181035f8301526157fb816157c2565b9050919050565b7f566f6c756d6520746f6f206c6f770000000000000000000000000000000000005f82015250565b5f615836600e836144a1565b915061584182615802565b602082019050919050565b5f6020820190508181035f8301526158638161582a565b9050919050565b7f4e6f2072657761726400000000000000000000000000000000000000000000005f82015250565b5f61589e6009836144a1565b91506158a98261586a565b602082019050919050565b5f6020820190508181035f8301526158cb81615892565b9050919050565b5f6158dc826140c6565b91506158e7836140c6565b92508282026158f5816140c6565b9150828204841483151761590c5761590b614ecd565b5b5092915050565b5f6060820190506159265f830186614507565b6159336020830185614507565b615940604083018461431a565b949350505050565b5f60408201905061595b5f830185614507565b615968602083018461431a565b9392505050565b5f8160601b9050919050565b5f6159858261596f565b9050919050565b5f6159968261597b565b9050919050565b6159ae6159a9826141b7565b61598c565b82525050565b5f819050919050565b6159ce6159c9826140c6565b6159b4565b82525050565b5f6159df828561599d565b6014820191506159ef82846159bd565b6020820191508190509392505050565b7f496e76616c69642070726f6f66000000000000000000000000000000000000005f82015250565b5f615a33600d836144a1565b9150615a3e826159ff565b602082019050919050565b5f6020820190508181035f830152615a6081615a27565b9050919050565b5f604082019050615a7a5f83018561431a565b615a8760208301846147f5565b9392505050565b7f4e487b71000000000000000000000000000000000000000000000000000000005f52601260045260245ffd5b5f615ac5826140c6565b9150615ad0836140c6565b925082615ae057615adf615a8e565b5b828204905092915050565b5f60a082019050615afe5f8301886142b4565b615b0b602083018761431a565b615b18604083018661431a565b615b25606083018561431a565b615b326080830184614507565b9695505050505050565b7f496e76616c6964207369670000000000000000000000000000000000000000005f82015250565b5f615b70600b836144a1565b9150615b7b82615b3c565b602082019050919050565b5f6020820190508181035f830152615b9d81615b64565b9050919050565b5f604082019050615bb75f830185614507565b615bc460208301846142b4565b9392505050565b7f5061757361626c653a206e6f74207061757365640000000000000000000000005f82015250565b5f615bff6014836144a1565b9150615c0a82615bcb565b602082019050919050565b5f6020820190508181035f830152615c2c81615bf3565b9050919050565b7f4e487b71000000000000000000000000000000000000000000000000000000005f52602260045260245ffd5b5f6002820490506001821680615c7757607f821691505b602082108103615c8a57615c89615c33565b5b50919050565b5f606082019050615ca35f83018661431a565b615cb0602083018561431a565b615cbd604083018461431a565b949350505050565b5f60a082019050615cd85f8301886142b4565b615ce560208301876142b4565b615cf260408301866142b4565b615cff606083018561431a565b615d0c6080830184614507565b9695505050505050565b5f608082019050615d295f8301876142b4565b615d36602083018661566f565b615d4360408301856142b4565b615d5060608301846142b4565b9594505050505056fea26469706673582212207659c220b5d9348f7a91f9a9d383b1e6a2ff03979ddcc64d3e08ab9a25c02a2f64736f6c634300081e003360c060405234801561000f575f5ffd5b5060405161273f38038061273f83398181016040528101906100319190610386565b8282828160039081610043919061061e565b508060049081610053919061061e565b5050505f5f610067836100c560201b60201c565b9150915081610077576012610079565b805b60ff1660a08160ff16815250508273ffffffffffffffffffffffffffffffffffffffff1660808173ffffffffffffffffffffffffffffffffffffffff168152505050505050505061079c565b5f5f5f5f8473ffffffffffffffffffffffffffffffffffffffff1660405160240160405160208183030381529060405263313ce56760e01b6020820180517bffffffffffffffffffffffffffffffffffffffffffffffffffffffff83818316178352505050506040516101389190610731565b5f60405180830381855afa9150503d805f8114610170576040519150601f19603f3d011682016040523d82523d5f602084013e610175565b606091505b509150915081801561018957506020815110155b156101c0575f818060200190518101906101a39190610771565b905060ff801681116101be57600181945094505050506101c9565b505b5f5f9350935050505b915091565b5f604051905090565b5f5ffd5b5f5ffd5b5f73ffffffffffffffffffffffffffffffffffffffff82169050919050565b5f610208826101df565b9050919050565b5f610219826101fe565b9050919050565b6102298161020f565b8114610233575f5ffd5b50565b5f8151905061024481610220565b92915050565b5f5ffd5b5f5ffd5b5f601f19601f8301169050919050565b7f4e487b71000000000000000000000000000000000000000000000000000000005f52604160045260245ffd5b61029882610252565b810181811067ffffffffffffffff821117156102b7576102b6610262565b5b80604052505050565b5f6102c96101ce565b90506102d5828261028f565b919050565b5f67ffffffffffffffff8211156102f4576102f3610262565b5b6102fd82610252565b9050602081019050919050565b8281835e5f83830152505050565b5f61032a610325846102da565b6102c0565b9050828152602081018484840111156103465761034561024e565b5b61035184828561030a565b509392505050565b5f82601f83011261036d5761036c61024a565b5b815161037d848260208601610318565b91505092915050565b5f5f5f6060848603121561039d5761039c6101d7565b5b5f6103aa86828701610236565b935050602084015167ffffffffffffffff8111156103cb576103ca6101db565b5b6103d786828701610359565b925050604084015167ffffffffffffffff8111156103f8576103f76101db565b5b61040486828701610359565b9150509250925092565b5f81519050919050565b7f4e487b71000000000000000000000000000000000000000000000000000000005f52602260045260245ffd5b5f600282049050600182168061045c57607f821691505b60208210810361046f5761046e610418565b5b50919050565b5f819050815f5260205f209050919050565b5f6020601f8301049050919050565b5f82821b905092915050565b5f600883026104d17fffffffffffffffffffffffffffffffffffffffffffffffffffffffffffffffff82610496565b6104db8683610496565b95508019841693508086168417925050509392505050565b5f819050919050565b5f819050919050565b5f61051f61051a610515846104f3565b6104fc565b6104f3565b9050919050565b5f819050919050565b61053883610505565b61054c61054482610526565b8484546104a2565b825550505050565b5f5f905090565b610563610554565b61056e81848461052f565b505050565b5b81811015610591576105865f8261055b565b600181019050610574565b5050565b601f8211156105d6576105a781610475565b6105b084610487565b810160208510156105bf578190505b6105d36105cb85610487565b830182610573565b50505b505050565b5f82821c905092915050565b5f6105f65f19846008026105db565b1980831691505092915050565b5f61060e83836105e7565b9150826002028217905092915050565b6106278261040e565b67ffffffffffffffff8111156106405761063f610262565b5b61064a8254610445565b610655828285610595565b5f60209050601f831160018114610686575f8415610674578287015190505b61067e8582610603565b8655506106e5565b601f19841661069486610475565b5f5b828110156106bb57848901518255600182019150602085019450602081019050610696565b868310156106d857848901516106d4601f8916826105e7565b8355505b6001600288020188555050505b505050505050565b5f81519050919050565b5f81905092915050565b5f61070b826106ed565b61071581856106f7565b935061072581856020860161030a565b80840191505092915050565b5f61073c8284610701565b915081905092915050565b610750816104f3565b811461075a575f5ffd5b50565b5f8151905061076b81610747565b92915050565b5f60208284031215610786576107856101d7565b5b5f6107938482850161075d565b91505092915050565b60805160a051611f826107bd5f395f61075701525f6107880152611f825ff3fe608060405234801561000f575f5ffd5b5060043610610171575f3560e01c806370a08231116100dc578063ba08765211610095578063ce96cb771161006f578063ce96cb77146104f9578063d905777e14610529578063dd62ed3e14610559578063ef8b30f71461058957610171565b8063ba08765214610469578063c63d75b614610499578063c6e6f592146104c957610171565b806370a082311461035b57806394bf804d1461038b57806395d89b41146103bb578063a9059cbb146103d9578063b3d7f6b914610409578063b460af941461043957610171565b806323b872dd1161012e57806323b872dd1461025f578063313ce5671461028f57806338d52e0f146102ad578063402d267d146102cb5780634cdad506146102fb5780636e553f651461032b57610171565b806301e1d1141461017557806306fdde031461019357806307a2d13a146101b1578063095ea7b3146101e15780630a28a4771461021157806318160ddd14610241575b5f5ffd5b61017d6105b9565b60405161018a91906117f1565b60405180910390f35b61019b61063e565b6040516101a8919061187a565b60405180910390f35b6101cb60048036038101906101c691906118c8565b6106ce565b6040516101d891906117f1565b60405180910390f35b6101fb60048036038101906101f6919061194d565b6106e0565b60405161020891906119a5565b60405180910390f35b61022b600480360381019061022691906118c8565b610702565b60405161023891906117f1565b60405180910390f35b610249610715565b60405161025691906117f1565b60405180910390f35b610279600480360381019061027491906119be565b61071e565b60405161028691906119a5565b60405180910390f35b61029761074c565b6040516102a49190611a29565b60405180910390f35b6102b5610785565b6040516102c29190611a51565b60405180910390f35b6102e560048036038101906102e09190611a6a565b6107ac565b6040516102f291906117f1565b60405180910390f35b610315600480360381019061031091906118c8565b6107d5565b60405161032291906117f1565b60405180910390f35b61034560048036038101906103409190611a95565b6107e7565b60405161035291906117f1565b60405180910390f35b61037560048036038101906103709190611a6a565b610867565b60405161038291906117f1565b60405180910390f35b6103a560048036038101906103a09190611a95565b6108ac565b6040516103b291906117f1565b60405180910390f35b6103c361092c565b6040516103d0919061187a565b60405180910390f35b6103f360048036038101906103ee919061194d565b6109bc565b60405161040091906119a5565b60405180910390f35b610423600480360381019061041e91906118c8565b6109de565b60405161043091906117f1565b60405180910390f35b610453600480360381019061044e9190611ad3565b6109f1565b60405161046091906117f1565b60405180910390f35b610483600480360381019061047e9190611ad3565b610a73565b60405161049091906117f1565b60405180910390f35b6104b360048036038101906104ae9190611a6a565b610af5565b6040516104c091906117f1565b60405180910390f35b6104e360048036038101906104de91906118c8565b610b1e565b6040516104f091906117f1565b60405180910390f35b610513600480360381019061050e9190611a6a565b610b30565b60405161052091906117f1565b60405180910390f35b610543600480360381019061053e9190611a6a565b610b4a565b60405161055091906117f1565b60405180910390f35b610573600480360381019061056e9190611b23565b610b5b565b60405161058091906117f1565b60405180910390f35b6105a3600480360381019061059e91906118c8565b610bdd565b6040516105b091906117f1565b60405180910390f35b5f6105c2610785565b73ffffffffffffffffffffffffffffffffffffffff166370a08231306040518263ffffffff1660e01b81526004016105fa9190611a51565b602060405180830381865afa158015610615573d5f5f3e3d5ffd5b505050506040513d601f19601f820116820180604052508101906106399190611b75565b905090565b60606003805461064d90611bcd565b80601f016020809104026020016040519081016040528092919081815260200182805461067990611bcd565b80156106c45780601f1061069b576101008083540402835291602001916106c4565b820191905f5260205f20905b8154815290600101906020018083116106a757829003601f168201915b5050505050905090565b5f6106d9825f610bef565b9050919050565b5f5f6106ea610c47565b90506106f7818585610c4e565b600191505092915050565b5f61070e826001610c60565b9050919050565b5f600254905090565b5f5f610728610c47565b9050610735858285610cb8565b610740858585610d4b565b60019150509392505050565b5f610755610e3b565b7f00000000000000000000000000000000000000000000000000000000000000006107809190611c2a565b905090565b5f7f0000000000000000000000000000000000000000000000000000000000000000905090565b5f7fffffffffffffffffffffffffffffffffffffffffffffffffffffffffffffffff9050919050565b5f6107e0825f610bef565b9050919050565b5f5f6107f2836107ac565b90508084111561083d578284826040517f79012fb200000000000000000000000000000000000000000000000000000000815260040161083493929190611c5e565b60405180910390fd5b5f61084785610bdd565b905061085c610854610c47565b858784610e42565b809250505092915050565b5f5f5f8373ffffffffffffffffffffffffffffffffffffffff1673ffffffffffffffffffffffffffffffffffffffff1681526020019081526020015f20549050919050565b5f5f6108b783610af5565b905080841115610902578284826040517f284ff6670000000000000000000000000000000000000000000000000000000081526004016108f993929190611c5e565b60405180910390fd5b5f61090c856109de565b9050610921610919610c47565b858388610e42565b809250505092915050565b60606004805461093b90611bcd565b80601f016020809104026020016040519081016040528092919081815260200182805461096790611bcd565b80156109b25780601f10610989576101008083540402835291602001916109b2565b820191905f5260205f20905b81548152906001019060200180831161099557829003601f168201915b5050505050905090565b5f5f6109c6610c47565b90506109d3818585610d4b565b600191505092915050565b5f6109ea826001610bef565b9050919050565b5f5f6109fc83610b30565b905080851115610a47578285826040517ffe9cceec000000000000000000000000000000000000000000000000000000008152600401610a3e93929190611c5e565b60405180910390fd5b5f610a5186610702565b9050610a67610a5e610c47565b86868985610ecc565b80925050509392505050565b5f5f610a7e83610b4a565b905080851115610ac9578285826040517fb94abeec000000000000000000000000000000000000000000000000000000008152600401610ac093929190611c5e565b60405180910390fd5b5f610ad3866107d5565b9050610ae9610ae0610c47565b8686848a610ecc565b80925050509392505050565b5f7fffffffffffffffffffffffffffffffffffffffffffffffffffffffffffffffff9050919050565b5f610b29825f610c60565b9050919050565b5f610b43610b3d83610867565b5f610bef565b9050919050565b5f610b5482610867565b9050919050565b5f60015f8473ffffffffffffffffffffffffffffffffffffffff1673ffffffffffffffffffffffffffffffffffffffff1681526020019081526020015f205f8373ffffffffffffffffffffffffffffffffffffffff1673ffffffffffffffffffffffffffffffffffffffff1681526020019081526020015f2054905092915050565b5f610be8825f610c60565b9050919050565b5f610c3f6001610bfd6105b9565b610c079190611c93565b610c0f610e3b565b600a610c1b9190611df5565b610c23610715565b610c2d9190611c93565b8486610fac909392919063ffffffff16565b905092915050565b5f33905090565b610c5b8383836001610ff9565b505050565b5f610cb0610c6c610e3b565b600a610c789190611df5565b610c80610715565b610c8a9190611c93565b6001610c946105b9565b610c9e9190611c93565b8486610fac909392919063ffffffff16565b905092915050565b5f610cc38484610b5b565b90507fffffffffffffffffffffffffffffffffffffffffffffffffffffffffffffffff811015610d455781811015610d36578281836040517ffb8f41b2000000000000000000000000000000000000000000000000000000008152600401610d2d93929190611c5e565b60405180910390fd5b610d4484848484035f610ff9565b5b50505050565b5f73ffffffffffffffffffffffffffffffffffffffff168373ffffffffffffffffffffffffffffffffffffffff1603610dbb575f6040517f96c6fd1e000000000000000000000000000000000000000000000000000000008152600401610db29190611a51565b60405180910390fd5b5f73ffffffffffffffffffffffffffffffffffffffff168273ffffffffffffffffffffffffffffffffffffffff1603610e2b575f6040517fec442f05000000000000000000000000000000000000000000000000000000008152600401610e229190611a51565b60405180910390fd5b610e368383836111c8565b505050565b5f5f905090565b610e55610e4d610785565b8530856113e1565b610e5f8382611463565b8273ffffffffffffffffffffffffffffffffffffffff168473ffffffffffffffffffffffffffffffffffffffff167fdcbc1c05240f31ff3ad067ef1ee35ce4997762752e3a095284754544f4c709d78484604051610ebe929190611e3f565b60405180910390a350505050565b8273ffffffffffffffffffffffffffffffffffffffff168573ffffffffffffffffffffffffffffffffffffffff1614610f0b57610f0a838683610cb8565b5b610f1583826114e2565b610f27610f20610785565b8584611561565b8273ffffffffffffffffffffffffffffffffffffffff168473ffffffffffffffffffffffffffffffffffffffff168673ffffffffffffffffffffffffffffffffffffffff167ffbde797d201c681b91056529119e0b02407c7bb96a4a2c75c01fc9667232c8db8585604051610f9d929190611e3f565b60405180910390a45050505050565b5f610fda610fb9836115e0565b8015610fd557505f8480610fd057610fcf611e66565b5b868809115b61160d565b610fe5868686611618565b610fef9190611c93565b9050949350505050565b5f73ffffffffffffffffffffffffffffffffffffffff168473ffffffffffffffffffffffffffffffffffffffff1603611069575f6040517fe602df050000000000000000000000000000000000000000000000000000000081526004016110609190611a51565b60405180910390fd5b5f73ffffffffffffffffffffffffffffffffffffffff168373ffffffffffffffffffffffffffffffffffffffff16036110d9575f6040517f94280d620000000000000000000000000000000000000000000000000000000081526004016110d09190611a51565b60405180910390fd5b8160015f8673ffffffffffffffffffffffffffffffffffffffff1673ffffffffffffffffffffffffffffffffffffffff1681526020019081526020015f205f8573ffffffffffffffffffffffffffffffffffffffff1673ffffffffffffffffffffffffffffffffffffffff1681526020019081526020015f208190555080156111c2578273ffffffffffffffffffffffffffffffffffffffff168473ffffffffffffffffffffffffffffffffffffffff167f8c5be1e5ebec7d5bd14f71427d1e84f3dd0314c0f7b2291e5b200ac8c7c3b925846040516111b991906117f1565b60405180910390a35b50505050565b5f73ffffffffffffffffffffffffffffffffffffffff168373ffffffffffffffffffffffffffffffffffffffff1603611218578060025f82825461120c9190611c93565b925050819055506112e6565b5f5f5f8573ffffffffffffffffffffffffffffffffffffffff1673ffffffffffffffffffffffffffffffffffffffff1681526020019081526020015f20549050818110156112a1578381836040517fe450d38c00000000000000000000000000000000000000000000000000000000815260040161129893929190611c5e565b60405180910390fd5b8181035f5f8673ffffffffffffffffffffffffffffffffffffffff1673ffffffffffffffffffffffffffffffffffffffff1681526020019081526020015f2081905550505b5f73ffffffffffffffffffffffffffffffffffffffff168273ffffffffffffffffffffffffffffffffffffffff160361132d578060025f8282540392505081905550611377565b805f5f8473ffffffffffffffffffffffffffffffffffffffff1673ffffffffffffffffffffffffffffffffffffffff1681526020019081526020015f205f82825401925050819055505b8173ffffffffffffffffffffffffffffffffffffffff168373ffffffffffffffffffffffffffffffffffffffff167fddf252ad1be2c89b69c2b068fc378daa952ba7f163c4a11628f55a4df523b3ef836040516113d491906117f1565b60405180910390a3505050565b61145d848573ffffffffffffffffffffffffffffffffffffffff166323b872dd86868660405160240161141693929190611e93565b604051602081830303815290604052915060e01b6020820180517bffffffffffffffffffffffffffffffffffffffffffffffffffffffff83818316178352505050506116f7565b50505050565b5f73ffffffffffffffffffffffffffffffffffffffff168273ffffffffffffffffffffffffffffffffffffffff16036114d3575f6040517fec442f050000000000000000000000000000000000000000000000000000000081526004016114ca9190611a51565b60405180910390fd5b6114de5f83836111c8565b5050565b5f73ffffffffffffffffffffffffffffffffffffffff168273ffffffffffffffffffffffffffffffffffffffff1603611552575f6040517f96c6fd1e0000000000000000000000000000000000000000000000000000000081526004016115499190611a51565b60405180910390fd5b61155d825f836111c8565b5050565b6115db838473ffffffffffffffffffffffffffffffffffffffff1663a9059cbb8585604051602401611594929190611ec8565b604051602081830303815290604052915060e01b6020820180517bffffffffffffffffffffffffffffffffffffffffffffffffffffffff83818316178352505050506116f7565b505050565b5f600160028360038111156115f8576115f7611eef565b5b6116029190611f1c565b60ff16149050919050565b5f8115159050919050565b5f5f5f6116258686611792565b915091505f820361164a578381816116405761163f611e66565b5b04925050506116f0565b818411611669576116686116635f8614601260116117af565b6117c8565b5b5f8486880990508181118303925080820391505f855f038616905080860495508083049250600181825f0304019050808402831792505f600287600302189050808702600203810290508087026002038102905080870260020381029050808702600203810290508087026002038102905080870260020381029050808402955050505050505b9392505050565b5f5f60205f8451602086015f885af180611716576040513d5f823e3d81fd5b3d92505f519150505f821461172f57600181141561174a565b5f8473ffffffffffffffffffffffffffffffffffffffff163b145b1561178c57836040517f5274afe70000000000000000000000000000000000000000000000000000000081526004016117839190611a51565b60405180910390fd5b50505050565b5f5f5f198385098385029150818110828203039250509250929050565b5f6117b98461160d565b82841802821890509392505050565b634e487b715f52806020526024601cfd5b5f819050919050565b6117eb816117d9565b82525050565b5f6020820190506118045f8301846117e2565b92915050565b5f81519050919050565b5f82825260208201905092915050565b8281835e5f83830152505050565b5f601f19601f8301169050919050565b5f61184c8261180a565b6118568185611814565b9350611866818560208601611824565b61186f81611832565b840191505092915050565b5f6020820190508181035f8301526118928184611842565b905092915050565b5f5ffd5b6118a7816117d9565b81146118b1575f5ffd5b50565b5f813590506118c28161189e565b92915050565b5f602082840312156118dd576118dc61189a565b5b5f6118ea848285016118b4565b91505092915050565b5f73ffffffffffffffffffffffffffffffffffffffff82169050919050565b5f61191c826118f3565b9050919050565b61192c81611912565b8114611936575f5ffd5b50565b5f8135905061194781611923565b92915050565b5f5f604083850312156119635761196261189a565b5b5f61197085828601611939565b9250506020611981858286016118b4565b9150509250929050565b5f8115159050919050565b61199f8161198b565b82525050565b5f6020820190506119b85f830184611996565b92915050565b5f5f5f606084860312156119d5576119d461189a565b5b5f6119e286828701611939565b93505060206119f386828701611939565b9250506040611a04868287016118b4565b9150509250925092565b5f60ff82169050919050565b611a2381611a0e565b82525050565b5f602082019050611a3c5f830184611a1a565b92915050565b611a4b81611912565b82525050565b5f602082019050611a645f830184611a42565b92915050565b5f60208284031215611a7f57611a7e61189a565b5b5f611a8c84828501611939565b91505092915050565b5f5f60408385031215611aab57611aaa61189a565b5b5f611ab8858286016118b4565b9250506020611ac985828601611939565b9150509250929050565b5f5f5f60608486031215611aea57611ae961189a565b5b5f611af7868287016118b4565b9350506020611b0886828701611939565b9250506040611b1986828701611939565b9150509250925092565b5f5f60408385031215611b3957611b3861189a565b5b5f611b4685828601611939565b9250506020611b5785828601611939565b9150509250929050565b5f81519050611b6f8161189e565b92915050565b5f60208284031215611b8a57611b8961189a565b5b5f611b9784828501611b61565b91505092915050565b7f4e487b71000000000000000000000000000000000000000000000000000000005f52602260045260245ffd5b5f6002820490506001821680611be457607f821691505b602082108103611bf757611bf6611ba0565b5b50919050565b7f4e487b71000000000000000000000000000000000000000000000000000000005f52601160045260245ffd5b5f611c3482611a0e565b9150611c3f83611a0e565b9250828201905060ff811115611c5857611c57611bfd565b5b92915050565b5f606082019050611c715f830186611a42565b611c7e60208301856117e2565b611c8b60408301846117e2565b949350505050565b5f611c9d826117d9565b9150611ca8836117d9565b9250828201905080821115611cc057611cbf611bfd565b5b92915050565b5f8160011c9050919050565b5f5f8291508390505b6001851115611d1b57808604811115611cf757611cf6611bfd565b5b6001851615611d065780820291505b8081029050611d1485611cc6565b9450611cdb565b94509492505050565b5f82611d335760019050611dee565b81611d40575f9050611dee565b8160018114611d565760028114611d6057611d8f565b6001915050611dee565b60ff841115611d7257611d71611bfd565b5b8360020a915084821115611d8957611d88611bfd565b5b50611dee565b5060208310610133831016604e8410600b8410161715611dc45782820a905083811115611dbf57611dbe611bfd565b5b611dee565b611dd18484846001611cd2565b92509050818404811115611de857611de7611bfd565b5b81810290505b9392505050565b5f611dff826117d9565b9150611e0a83611a0e565b9250611e377fffffffffffffffffffffffffffffffffffffffffffffffffffffffffffffffff8484611d24565b905092915050565b5f604082019050611e525f8301856117e2565b611e5f60208301846117e2565b9392505050565b7f4e487b71000000000000000000000000000000000000000000000000000000005f52601260045260245ffd5b5f606082019050611ea65f830186611a42565b611eb36020830185611a42565b611ec060408301846117e2565b949350505050565b5f604082019050611edb5f830185611a42565b611ee860208301846117e2565b9392505050565b7f4e487b71000000000000000000000000000000000000000000000000000000005f52602160045260245ffd5b5f611f2682611a0e565b9150611f3183611a0e565b925082611f4157611f40611e66565b5b82820690509291505056fea26469706673582212207ba13ad175bfbaea15ab28fe83b2c1f64b99bad20358713c6c15c3e5debf989064736f6c634300081e0033",
			"opcodes": "PUSH2 0x1A0 PUSH1 0x40 MSTORE CALLVALUE DUP1 ISZERO PUSH2 0x10 JUMPI PUSH0 PUSH0 REVERT JUMPDEST POP PUSH1 0x40 MLOAD PUSH2 0x9547 CODESIZE SUB DUP1 PUSH2 0x9547 DUP4 CODECOPY DUP2 DUP2 ADD PUSH1 0x40 MSTORE DUP2 ADD SWAP1 PUSH2 0x32 SWAP2 SWAP1 PUSH2 0x9FC JUMP JUMPDEST PUSH1 0x40 MLOAD DUP1 PUSH1 0x40 ADD PUSH1 0x40 MSTORE DUP1 PUSH1 0x7 DUP2 MSTORE PUSH1 0x20 ADD PUSH32 0x494458466C6F7700000000000000000000000000000000000000000000000000 DUP2 MSTORE POP PUSH1 0x40 MLOAD DUP1 PUSH1 0x40 ADD PUSH1 0x40 MSTORE DUP1 PUSH1 0x1 DUP2 MSTORE PUSH1 0x20 ADD PUSH32 0x3100000000000000000000000000000000000000000000000000000000000000 DUP2 MSTORE POP PUSH2 0xB1 PUSH0 DUP4 PUSH2 0x42B PUSH1 0x20 SHL SWAP1 SWAP2 SWAP1 PUSH1 0x20 SHR JUMP JUMPDEST PUSH2 0x120 DUP2 DUP2 MSTORE POP POP PUSH2 0xCD PUSH1 0x1 DUP3 PUSH2 0x42B PUSH1 0x20 SHL SWAP1 SWAP2 SWAP1 PUSH1 0x20 SHR JUMP JUMPDEST PUSH2 0x140 DUP2 DUP2 MSTORE POP POP DUP2 DUP1 MLOAD SWAP1 PUSH1 0x20 ADD KECCAK256 PUSH1 0xE0 DUP2 DUP2 MSTORE POP POP DUP1 DUP1 MLOAD SWAP1 PUSH1 0x20 ADD KECCAK256 PUSH2 0x100 DUP2 DUP2 MSTORE POP POP CHAINID PUSH1 0xA0 DUP2 DUP2 MSTORE POP POP PUSH2 0x10A PUSH2 0x478 PUSH1 0x20 SHL PUSH1 0x20 SHR JUMP JUMPDEST PUSH1 0x80 DUP2 DUP2 MSTORE POP POP ADDRESS PUSH20 0xFFFFFFFFFFFFFFFFFFFFFFFFFFFFFFFFFFFFFFFF AND PUSH1 0xC0 DUP2 PUSH20 0xFFFFFFFFFFFFFFFFFFFFFFFFFFFFFFFFFFFFFFFF AND DUP2 MSTORE POP POP POP POP PUSH0 PUSH1 0x3 PUSH0 PUSH2 0x100 EXP DUP2 SLOAD DUP2 PUSH1 0xFF MUL NOT AND SWAP1 DUP4 ISZERO ISZERO MUL OR SWAP1 SSTORE POP DUP2 PUSH0 ADD MLOAD PUSH20 0xFFFFFFFFFFFFFFFFFFFFFFFFFFFFFFFFFFFFFFFF AND PUSH2 0x160 DUP2 PUSH20 0xFFFFFFFFFFFFFFFFFFFFFFFFFFFFFFFFFFFFFFFF AND DUP2 MSTORE POP POP DUP2 PUSH0 ADD MLOAD PUSH20 0xFFFFFFFFFFFFFFFFFFFFFFFFFFFFFFFFFFFFFFFF AND PUSH2 0x180 DUP2 PUSH20 0xFFFFFFFFFFFFFFFFFFFFFFFFFFFFFFFFFFFFFFFF AND DUP2 MSTORE POP POP DUP2 PUSH1 0x20 ADD MLOAD PUSH1 0x3 PUSH1 0x1 PUSH2 0x100 EXP DUP2 SLOAD DUP2 PUSH20 0xFFFFFFFFFFFFFFFFFFFFFFFFFFFFFFFFFFFFFFFF MUL NOT AND SWAP1 DUP4 PUSH20 0xFFFFFFFFFFFFFFFFFFFFFFFFFFFFFFFFFFFFFFFF AND MUL OR SWAP1 SSTORE POP DUP2 PUSH1 0x40 ADD MLOAD PUSH1 0x4 PUSH0 PUSH2 0x100 EXP DUP2 SLOAD DUP2 PUSH20 0xFFFFFFFFFFFFFFFFFFFFFFFFFFFFFFFFFFFFFFFF MUL NOT AND SWAP1 DUP4 PUSH20 0xFFFFFFFFFFFFFFFFFFFFFFFFFFFFFFFFFFFFFFFF AND MUL OR SWAP1 SSTORE POP DUP2 PUSH1 0x60 ADD MLOAD PUSH1 0x5 PUSH0 PUSH2 0x100 EXP DUP2 SLOAD DUP2 PUSH20 0xFFFFFFFFFFFFFFFFFFFFFFFFFFFFFFFFFFFFFFFF MUL NOT AND SWAP1 DUP4 PUSH20 0xFFFFFFFFFFFFFFFFFFFFFFFFFFFFFFFFFFFFFFFF AND MUL OR SWAP1 SSTORE POP DUP2 PUSH1 0x80 ADD MLOAD PUSH1 0x6 PUSH0 PUSH2 0x100 EXP DUP2 SLOAD DUP2 PUSH20 0xFFFFFFFFFFFFFFFFFFFFFFFFFFFFFFFFFFFFFFFF MUL NOT AND SWAP1 DUP4 PUSH20 0xFFFFFFFFFFFFFFFFFFFFFFFFFFFFFFFFFFFFFFFF AND MUL OR SWAP1 SSTORE POP DUP2 PUSH1 0xA0 ADD MLOAD PUSH1 0x8 DUP2 SWAP1 SSTORE POP DUP2 PUSH1 0xC0 ADD MLOAD PUSH1 0x9 DUP2 SWAP1 SSTORE POP DUP2 PUSH1 0xE0 ADD MLOAD PUSH1 0xA DUP2 SWAP1 SSTORE POP DUP1 PUSH0 ADD MLOAD PUSH1 0x10 DUP2 SWAP1 SSTORE POP DUP1 PUSH1 0x20 ADD MLOAD PUSH1 0x15 DUP2 SWAP1 SSTORE POP DUP1 PUSH1 0x40 ADD MLOAD PUSH1 0x16 DUP2 SWAP1 SSTORE POP DUP1 PUSH1 0x60 ADD MLOAD PUSH1 0x17 DUP2 SWAP1 SSTORE POP PUSH1 0x1 PUSH1 0xB DUP2 SWAP1 SSTORE POP TIMESTAMP PUSH1 0xC DUP2 SWAP1 SSTORE POP PUSH2 0x34E PUSH0 PUSH0 SHL CALLER PUSH2 0x4D2 PUSH1 0x20 SHL PUSH1 0x20 SHR JUMP JUMPDEST POP PUSH2 0x37F PUSH32 0x65D7A28E3265B37A6474929F336521B332C1681B933F6CB9F3376673440D862A CALLER PUSH2 0x4D2 PUSH1 0x20 SHL PUSH1 0x20 SHR JUMP JUMPDEST POP PUSH2 0x3B0 PUSH32 0x7935BD0AE54BC31F548C14DBA4D37C5C64B3F8CA900CB468FB8ABD54D5894F55 CALLER PUSH2 0x4D2 PUSH1 0x20 SHL PUSH1 0x20 SHR JUMP JUMPDEST POP DUP2 PUSH0 ADD MLOAD PUSH1 0x40 MLOAD PUSH2 0x3C1 SWAP1 PUSH2 0x6A1 JUMP JUMPDEST PUSH2 0x3CB SWAP2 SWAP1 PUSH2 0xB3B JUMP JUMPDEST PUSH1 0x40 MLOAD DUP1 SWAP2 SUB SWAP1 PUSH0 CREATE DUP1 ISZERO DUP1 ISZERO PUSH2 0x3E4 JUMPI RETURNDATASIZE PUSH0 PUSH0 RETURNDATACOPY RETURNDATASIZE PUSH0 REVERT JUMPDEST POP PUSH1 0x7 PUSH0 PUSH2 0x100 EXP DUP2 SLOAD DUP2 PUSH20 0xFFFFFFFFFFFFFFFFFFFFFFFFFFFFFFFFFFFFFFFF MUL NOT AND SWAP1 DUP4 PUSH20 0xFFFFFFFFFFFFFFFFFFFFFFFFFFFFFFFFFFFFFFFF AND MUL OR SWAP1 SSTORE POP POP POP PUSH2 0xFC7 JUMP JUMPDEST PUSH0 PUSH1 0x20 DUP4 MLOAD LT ISZERO PUSH2 0x44C JUMPI PUSH2 0x445 DUP4 PUSH2 0x5C8 PUSH1 0x20 SHL PUSH1 0x20 SHR JUMP JUMPDEST SWAP1 POP PUSH2 0x472 JUMP JUMPDEST DUP3 PUSH2 0x45C DUP4 PUSH2 0x62D PUSH1 0x20 SHL PUSH1 0x20 SHR JUMP JUMPDEST PUSH0 ADD SWAP1 DUP2 PUSH2 0x46A SWAP2 SWAP1 PUSH2 0xD78 JUMP JUMPDEST POP PUSH1 0xFF PUSH0 SHL SWAP1 POP JUMPDEST SWAP3 SWAP2 POP POP JUMP JUMPDEST PUSH0 PUSH32 0x8B73C3C69BB8FE3D512ECC4CF759CC79239F7B179B0FFACAA9A75D522B39400F PUSH1 0xE0 MLOAD PUSH2 0x100 MLOAD CHAINID ADDRESS PUSH1 0x40 MLOAD PUSH1 0x20 ADD PUSH2 0x4B7 SWAP6 SWAP5 SWAP4 SWAP3 SWAP2 SWAP1 PUSH2 0xE7D JUMP JUMPDEST PUSH1 0x40 MLOAD PUSH1 0x20 DUP2 DUP4 SUB SUB DUP2 MSTORE SWAP1 PUSH1 0x40 MSTORE DUP1 MLOAD SWAP1 PUSH1 0x20 ADD KECCAK256 SWAP1 POP SWAP1 JUMP JUMPDEST PUSH0 PUSH2 0x4E3 DUP4 DUP4 PUSH2 0x636 PUSH1 0x20 SHL PUSH1 0x20 SHR JUMP JUMPDEST PUSH2 0x5BE JUMPI PUSH1 0x1 PUSH1 0x2 PUSH0 DUP6 DUP2 MSTORE PUSH1 0x20 ADD SWAP1 DUP2 MSTORE PUSH1 0x20 ADD PUSH0 KECCAK256 PUSH0 ADD PUSH0 DUP5 PUSH20 0xFFFFFFFFFFFFFFFFFFFFFFFFFFFFFFFFFFFFFFFF AND PUSH20 0xFFFFFFFFFFFFFFFFFFFFFFFFFFFFFFFFFFFFFFFF AND DUP2 MSTORE PUSH1 0x20 ADD SWAP1 DUP2 MSTORE PUSH1 0x20 ADD PUSH0 KECCAK256 PUSH0 PUSH2 0x100 EXP DUP2 SLOAD DUP2 PUSH1 0xFF MUL NOT AND SWAP1 DUP4 ISZERO ISZERO MUL OR SWAP1 SSTORE POP PUSH2 0x55B PUSH2 0x69A PUSH1 0x20 SHL PUSH1 0x20 SHR JUMP JUMPDEST PUSH20 0xFFFFFFFFFFFFFFFFFFFFFFFFFFFFFFFFFFFFFFFF AND DUP3 PUSH20 0xFFFFFFFFFFFFFFFFFFFFFFFFFFFFFFFFFFFFFFFF AND DUP5 PUSH32 0x2F8788117E7EFF1D82E926EC794901D17C78024A50270940304540A733656F0D PUSH1 0x40 MLOAD PUSH1 0x40 MLOAD DUP1 SWAP2 SUB SWAP1 LOG4 PUSH1 0x1 SWAP1 POP PUSH2 0x5C2 JUMP JUMPDEST PUSH0 SWAP1 POP JUMPDEST SWAP3 SWAP2 POP POP JUMP JUMPDEST PUSH0 PUSH0 DUP3 SWAP1 POP PUSH1 0x1F DUP2 MLOAD GT ISZERO PUSH2 0x614 JUMPI DUP3 PUSH1 0x40 MLOAD PUSH32 0x305A27A900000000000000000000000000000000000000000000000000000000 DUP2 MSTORE PUSH1 0x4 ADD PUSH2 0x60B SWAP2 SWAP1 PUSH2 0xF14 JUMP JUMPDEST PUSH1 0x40 MLOAD DUP1 SWAP2 SUB SWAP1 REVERT JUMPDEST DUP1 MLOAD DUP2 PUSH2 0x620 SWAP1 PUSH2 0xF61 JUMP JUMPDEST PUSH0 SHR OR PUSH0 SHL SWAP2 POP POP SWAP2 SWAP1 POP JUMP JUMPDEST PUSH0 DUP2 SWAP1 POP SWAP2 SWAP1 POP JUMP JUMPDEST PUSH0 PUSH1 0x2 PUSH0 DUP5 DUP2 MSTORE PUSH1 0x20 ADD SWAP1 DUP2 MSTORE PUSH1 0x20 ADD PUSH0 KECCAK256 PUSH0 ADD PUSH0 DUP4 PUSH20 0xFFFFFFFFFFFFFFFFFFFFFFFFFFFFFFFFFFFFFFFF AND PUSH20 0xFFFFFFFFFFFFFFFFFFFFFFFFFFFFFFFFFFFFFFFF AND DUP2 MSTORE PUSH1 0x20 ADD SWAP1 DUP2 MSTORE PUSH1 0x20 ADD PUSH0 KECCAK256 PUSH0 SWAP1 SLOAD SWAP1 PUSH2 0x100 EXP SWAP1 DIV PUSH1 0xFF AND SWAP1 POP SWAP3 SWAP2 POP POP JUMP JUMPDEST PUSH0 CALLER SWAP1 POP SWAP1 JUMP JUMPDEST PUSH2 0x273F DUP1 PUSH2 0x6E08 DUP4 CODECOPY ADD SWAP1 JUMP JUMPDEST PUSH0 PUSH1 0x40 MLOAD SWAP1 POP SWAP1 JUMP JUMPDEST PUSH0 PUSH0 REVERT JUMPDEST PUSH0 PUSH0 REVERT JUMPDEST PUSH0 PUSH1 0x1F NOT PUSH1 0x1F DUP4 ADD AND SWAP1 POP SWAP2 SWAP1 POP JUMP JUMPDEST PUSH32 0x4E487B7100000000000000000000000000000000000000000000000000000000 PUSH0 MSTORE PUSH1 0x41 PUSH1 0x4 MSTORE PUSH1 0x24 PUSH0 REVERT JUMPDEST PUSH2 0x705 DUP3 PUSH2 0x6BF JUMP JUMPDEST DUP2 ADD DUP2 DUP2 LT PUSH8 0xFFFFFFFFFFFFFFFF DUP3 GT OR ISZERO PUSH2 0x724 JUMPI PUSH2 0x723 PUSH2 0x6CF JUMP JUMPDEST JUMPDEST DUP1 PUSH1 0x40 MSTORE POP POP POP JUMP JUMPDEST PUSH0 PUSH2 0x736 PUSH2 0x6AE JUMP JUMPDEST SWAP1 POP PUSH2 0x742 DUP3 DUP3 PUSH2 0x6FC JUMP JUMPDEST SWAP2 SWAP1 POP JUMP JUMPDEST PUSH0 PUSH20 0xFFFFFFFFFFFFFFFFFFFFFFFFFFFFFFFFFFFFFFFF DUP3 AND SWAP1 POP SWAP2 SWAP1 POP JUMP JUMPDEST PUSH0 PUSH2 0x770 DUP3 PUSH2 0x747 JUMP JUMPDEST SWAP1 POP SWAP2 SWAP1 POP JUMP JUMPDEST PUSH2 0x780 DUP2 PUSH2 0x766 JUMP JUMPDEST DUP2 EQ PUSH2 0x78A JUMPI PUSH0 PUSH0 REVERT JUMPDEST POP JUMP JUMPDEST PUSH0 DUP2 MLOAD SWAP1 POP PUSH2 0x79B DUP2 PUSH2 0x777 JUMP JUMPDEST SWAP3 SWAP2 POP POP JUMP JUMPDEST PUSH0 PUSH2 0x7AB DUP3 PUSH2 0x766 JUMP JUMPDEST SWAP1 POP SWAP2 SWAP1 POP JUMP JUMPDEST PUSH2 0x7BB DUP2 PUSH2 0x7A1 JUMP JUMPDEST DUP2 EQ PUSH2 0x7C5 JUMPI PUSH0 PUSH0 REVERT JUMPDEST POP JUMP JUMPDEST PUSH0 DUP2 MLOAD SWAP1 POP PUSH2 0x7D6 DUP2 PUSH2 0x7B2 JUMP JUMPDEST SWAP3 SWAP2 POP POP JUMP JUMPDEST PUSH0 PUSH2 0x7E6 DUP3 PUSH2 0x766 JUMP JUMPDEST SWAP1 POP SWAP2 SWAP1 POP JUMP JUMPDEST PUSH2 0x7F6 DUP2 PUSH2 0x7DC JUMP JUMPDEST DUP2 EQ PUSH2 0x800 JUMPI PUSH0 PUSH0 REVERT JUMPDEST POP JUMP JUMPDEST PUSH0 DUP2 MLOAD SWAP1 POP PUSH2 0x811 DUP2 PUSH2 0x7ED JUMP JUMPDEST SWAP3 SWAP2 POP POP JUMP JUMPDEST PUSH0 PUSH2 0x821 DUP3 PUSH2 0x766 JUMP JUMPDEST SWAP1 POP SWAP2 SWAP1 POP JUMP JUMPDEST PUSH2 0x831 DUP2 PUSH2 0x817 JUMP JUMPDEST DUP2 EQ PUSH2 0x83B JUMPI PUSH0 PUSH0 REVERT JUMPDEST POP JUMP JUMPDEST PUSH0 DUP2 MLOAD SWAP1 POP PUSH2 0x84C DUP2 PUSH2 0x828 JUMP JUMPDEST SWAP3 SWAP2 POP POP JUMP JUMPDEST PUSH0 PUSH2 0x85C DUP3 PUSH2 0x766 JUMP JUMPDEST SWAP1 POP SWAP2 SWAP1 POP JUMP JUMPDEST PUSH2 0x86C DUP2 PUSH2 0x852 JUMP JUMPDEST DUP2 EQ PUSH2 0x876 JUMPI PUSH0 PUSH0 REVERT JUMPDEST POP JUMP JUMPDEST PUSH0 DUP2 MLOAD SWAP1 POP PUSH2 0x887 DUP2 PUSH2 0x863 JUMP JUMPDEST SWAP3 SWAP2 POP POP JUMP JUMPDEST PUSH0 DUP2 SWAP1 POP SWAP2 SWAP1 POP JUMP JUMPDEST PUSH2 0x89F DUP2 PUSH2 0x88D JUMP JUMPDEST DUP2 EQ PUSH2 0x8A9 JUMPI PUSH0 PUSH0 REVERT JUMPDEST POP JUMP JUMPDEST PUSH0 DUP2 MLOAD SWAP1 POP PUSH2 0x8BA DUP2 PUSH2 0x896 JUMP JUMPDEST SWAP3 SWAP2 POP POP JUMP JUMPDEST PUSH0 PUSH2 0x100 DUP3 DUP5 SUB SLT ISZERO PUSH2 0x8D6 JUMPI PUSH2 0x8D5 PUSH2 0x6BB JUMP JUMPDEST JUMPDEST PUSH2 0x8E1 PUSH2 0x100 PUSH2 0x72D JUMP JUMPDEST SWAP1 POP PUSH0 PUSH2 0x8F0 DUP5 DUP3 DUP6 ADD PUSH2 0x78D JUMP JUMPDEST PUSH0 DUP4 ADD MSTORE POP PUSH1 0x20 PUSH2 0x903 DUP5 DUP3 DUP6 ADD PUSH2 0x7C8 JUMP JUMPDEST PUSH1 0x20 DUP4 ADD MSTORE POP PUSH1 0x40 PUSH2 0x917 DUP5 DUP3 DUP6 ADD PUSH2 0x803 JUMP JUMPDEST PUSH1 0x40 DUP4 ADD MSTORE POP PUSH1 0x60 PUSH2 0x92B DUP5 DUP3 DUP6 ADD PUSH2 0x83E JUMP JUMPDEST PUSH1 0x60 DUP4 ADD MSTORE POP PUSH1 0x80 PUSH2 0x93F DUP5 DUP3 DUP6 ADD PUSH2 0x879 JUMP JUMPDEST PUSH1 0x80 DUP4 ADD MSTORE POP PUSH1 0xA0 PUSH2 0x953 DUP5 DUP3 DUP6 ADD PUSH2 0x8AC JUMP JUMPDEST PUSH1 0xA0 DUP4 ADD MSTORE POP PUSH1 0xC0 PUSH2 0x967 DUP5 DUP3 DUP6 ADD PUSH2 0x8AC JUMP JUMPDEST PUSH1 0xC0 DUP4 ADD MSTORE POP PUSH1 0xE0 PUSH2 0x97B DUP5 DUP3 DUP6 ADD PUSH2 0x8AC JUMP JUMPDEST PUSH1 0xE0 DUP4 ADD MSTORE POP SWAP3 SWAP2 POP POP JUMP JUMPDEST PUSH0 PUSH1 0x80 DUP3 DUP5 SUB SLT ISZERO PUSH2 0x99C JUMPI PUSH2 0x99B PUSH2 0x6BB JUMP JUMPDEST JUMPDEST PUSH2 0x9A6 PUSH1 0x80 PUSH2 0x72D JUMP JUMPDEST SWAP1 POP PUSH0 PUSH2 0x9B5 DUP5 DUP3 DUP6 ADD PUSH2 0x8AC JUMP JUMPDEST PUSH0 DUP4 ADD MSTORE POP PUSH1 0x20 PUSH2 0x9C8 DUP5 DUP3 DUP6 ADD PUSH2 0x8AC JUMP JUMPDEST PUSH1 0x20 DUP4 ADD MSTORE POP PUSH1 0x40 PUSH2 0x9DC DUP5 DUP3 DUP6 ADD PUSH2 0x8AC JUMP JUMPDEST PUSH1 0x40 DUP4 ADD MSTORE POP PUSH1 0x60 PUSH2 0x9F0 DUP5 DUP3 DUP6 ADD PUSH2 0x8AC JUMP JUMPDEST PUSH1 0x60 DUP4 ADD MSTORE POP SWAP3 SWAP2 POP POP JUMP JUMPDEST PUSH0 PUSH0 PUSH2 0x180 DUP4 DUP6 SUB SLT ISZERO PUSH2 0xA13 JUMPI PUSH2 0xA12 PUSH2 0x6B7 JUMP JUMPDEST JUMPDEST PUSH0 PUSH2 0xA20 DUP6 DUP3 DUP7 ADD PUSH2 0x8C0 JUMP JUMPDEST SWAP3 POP POP PUSH2 0x100 PUSH2 0xA32 DUP6 DUP3 DUP7 ADD PUSH2 0x987 JUMP JUMPDEST SWAP2 POP POP SWAP3 POP SWAP3 SWAP1 POP JUMP JUMPDEST PUSH0 DUP2 SWAP1 POP SWAP2 SWAP1 POP JUMP JUMPDEST PUSH0 PUSH2 0xA5F PUSH2 0xA5A PUSH2 0xA55 DUP5 PUSH2 0x747 JUMP JUMPDEST PUSH2 0xA3C JUMP JUMPDEST PUSH2 0x747 JUMP JUMPDEST SWAP1 POP SWAP2 SWAP1 POP JUMP JUMPDEST PUSH0 PUSH2 0xA70 DUP3 PUSH2 0xA45 JUMP JUMPDEST SWAP1 POP SWAP2 SWAP1 POP JUMP JUMPDEST PUSH0 PUSH2 0xA81 DUP3 PUSH2 0xA66 JUMP JUMPDEST SWAP1 POP SWAP2 SWAP1 POP JUMP JUMPDEST PUSH2 0xA91 DUP2 PUSH2 0xA77 JUMP JUMPDEST DUP3 MSTORE POP POP JUMP JUMPDEST PUSH0 DUP3 DUP3 MSTORE PUSH1 0x20 DUP3 ADD SWAP1 POP SWAP3 SWAP2 POP POP JUMP JUMPDEST PUSH32 0x494458466C6F77205661756C7400000000000000000000000000000000000000 PUSH0 DUP3 ADD MSTORE POP JUMP JUMPDEST PUSH0 PUSH2 0xADB PUSH1 0xD DUP4 PUSH2 0xA97 JUMP JUMPDEST SWAP2 POP PUSH2 0xAE6 DUP3 PUSH2 0xAA7 JUMP JUMPDEST PUSH1 0x20 DUP3 ADD SWAP1 POP SWAP2 SWAP1 POP JUMP JUMPDEST PUSH32 0x4944585600000000000000000000000000000000000000000000000000000000 PUSH0 DUP3 ADD MSTORE POP JUMP JUMPDEST PUSH0 PUSH2 0xB25 PUSH1 0x4 DUP4 PUSH2 0xA97 JUMP JUMPDEST SWAP2 POP PUSH2 0xB30 DUP3 PUSH2 0xAF1 JUMP JUMPDEST PUSH1 0x20 DUP3 ADD SWAP1 POP SWAP2 SWAP1 POP JUMP JUMPDEST PUSH0 PUSH1 0x60 DUP3 ADD SWAP1 POP PUSH2 0xB4E PUSH0 DUP4 ADD DUP5 PUSH2 0xA88 JUMP JUMPDEST DUP2 DUP2 SUB PUSH1 0x20 DUP4 ADD MSTORE PUSH2 0xB5F DUP2 PUSH2 0xACF JUMP JUMPDEST SWAP1 POP DUP2 DUP2 SUB PUSH1 0x40 DUP4 ADD MSTORE PUSH2 0xB72 DUP2 PUSH2 0xB19 JUMP JUMPDEST SWAP1 POP SWAP3 SWAP2 POP POP JUMP JUMPDEST PUSH0 DUP2 MLOAD SWAP1 POP SWAP2 SWAP1 POP JUMP JUMPDEST PUSH32 0x4E487B7100000000000000000000000000000000000000000000000000000000 PUSH0 MSTORE PUSH1 0x22 PUSH1 0x4 MSTORE PUSH1 0x24 PUSH0 REVERT JUMPDEST PUSH0 PUSH1 0x2 DUP3 DIV SWAP1 POP PUSH1 0x1 DUP3 AND DUP1 PUSH2 0xBC8 JUMPI PUSH1 0x7F DUP3 AND SWAP2 POP JUMPDEST PUSH1 0x20 DUP3 LT DUP2 SUB PUSH2 0xBDB JUMPI PUSH2 0xBDA PUSH2 0xB84 JUMP JUMPDEST JUMPDEST POP SWAP2 SWAP1 POP JUMP JUMPDEST PUSH0 DUP2 SWAP1 POP DUP2 PUSH0 MSTORE PUSH1 0x20 PUSH0 KECCAK256 SWAP1 POP SWAP2 SWAP1 POP JUMP JUMPDEST PUSH0 PUSH1 0x20 PUSH1 0x1F DUP4 ADD DIV SWAP1 POP SWAP2 SWAP1 POP JUMP JUMPDEST PUSH0 DUP3 DUP3 SHL SWAP1 POP SWAP3 SWAP2 POP POP JUMP JUMPDEST PUSH0 PUSH1 0x8 DUP4 MUL PUSH2 0xC3D PUSH32 0xFFFFFFFFFFFFFFFFFFFFFFFFFFFFFFFFFFFFFFFFFFFFFFFFFFFFFFFFFFFFFFFF DUP3 PUSH2 0xC02 JUMP JUMPDEST PUSH2 0xC47 DUP7 DUP4 PUSH2 0xC02 JUMP JUMPDEST SWAP6 POP DUP1 NOT DUP5 AND SWAP4 POP DUP1 DUP7 AND DUP5 OR SWAP3 POP POP POP SWAP4 SWAP3 POP POP POP JUMP JUMPDEST PUSH0 PUSH2 0xC79 PUSH2 0xC74 PUSH2 0xC6F DUP5 PUSH2 0x88D JUMP JUMPDEST PUSH2 0xA3C JUMP JUMPDEST PUSH2 0x88D JUMP JUMPDEST SWAP1 POP SWAP2 SWAP1 POP JUMP JUMPDEST PUSH0 DUP2 SWAP1 POP SWAP2 SWAP1 POP JUMP JUMPDEST PUSH2 0xC92 DUP4 PUSH2 0xC5F JUMP JUMPDEST PUSH2 0xCA6 PUSH2 0xC9E DUP3 PUSH2 0xC80 JUMP JUMPDEST DUP5 DUP5 SLOAD PUSH2 0xC0E JUMP JUMPDEST DUP3 SSTORE POP POP POP POP JUMP JUMPDEST PUSH0 PUSH0 SWAP1 POP SWAP1 JUMP JUMPDEST PUSH2 0xCBD PUSH2 0xCAE JUMP JUMPDEST PUSH2 0xCC8 DUP2 DUP5 DUP5 PUSH2 0xC89 JUMP JUMPDEST POP POP POP JUMP JUMPDEST JUMPDEST DUP2 DUP2 LT ISZERO PUSH2 0xCEB JUMPI PUSH2 0xCE0 PUSH0 DUP3 PUSH2 0xCB5 JUMP JUMPDEST PUSH1 0x1 DUP2 ADD SWAP1 POP PUSH2 0xCCE JUMP JUMPDEST POP POP JUMP JUMPDEST PUSH1 0x1F DUP3 GT ISZERO PUSH2 0xD30 JUMPI PUSH2 0xD01 DUP2 PUSH2 0xBE1 JUMP JUMPDEST PUSH2 0xD0A DUP5 PUSH2 0xBF3 JUMP JUMPDEST DUP2 ADD PUSH1 0x20 DUP6 LT ISZERO PUSH2 0xD19 JUMPI DUP2 SWAP1 POP JUMPDEST PUSH2 0xD2D PUSH2 0xD25 DUP6 PUSH2 0xBF3 JUMP JUMPDEST DUP4 ADD DUP3 PUSH2 0xCCD JUMP JUMPDEST POP POP JUMPDEST POP POP POP JUMP JUMPDEST PUSH0 DUP3 DUP3 SHR SWAP1 POP SWAP3 SWAP2 POP POP JUMP JUMPDEST PUSH0 PUSH2 0xD50 PUSH0 NOT DUP5 PUSH1 0x8 MUL PUSH2 0xD35 JUMP JUMPDEST NOT DUP1 DUP4 AND SWAP2 POP POP SWAP3 SWAP2 POP POP JUMP JUMPDEST PUSH0 PUSH2 0xD68 DUP4 DUP4 PUSH2 0xD41 JUMP JUMPDEST SWAP2 POP DUP3 PUSH1 0x2 MUL DUP3 OR SWAP1 POP SWAP3 SWAP2 POP POP JUMP JUMPDEST PUSH2 0xD81 DUP3 PUSH2 0xB7A JUMP JUMPDEST PUSH8 0xFFFFFFFFFFFFFFFF DUP2 GT ISZERO PUSH2 0xD9A JUMPI PUSH2 0xD99 PUSH2 0x6CF JUMP JUMPDEST JUMPDEST PUSH2 0xDA4 DUP3 SLOAD PUSH2 0xBB1 JUMP JUMPDEST PUSH2 0xDAF DUP3 DUP3 DUP6 PUSH2 0xCEF JUMP JUMPDEST PUSH0 PUSH1 0x20 SWAP1 POP PUSH1 0x1F DUP4 GT PUSH1 0x1 DUP2 EQ PUSH2 0xDE0 JUMPI PUSH0 DUP5 ISZERO PUSH2 0xDCE JUMPI DUP3 DUP8 ADD MLOAD SWAP1 POP JUMPDEST PUSH2 0xDD8 DUP6 DUP3 PUSH2 0xD5D JUMP JUMPDEST DUP7 SSTORE POP PUSH2 0xE3F JUMP JUMPDEST PUSH1 0x1F NOT DUP5 AND PUSH2 0xDEE DUP7 PUSH2 0xBE1 JUMP JUMPDEST PUSH0 JUMPDEST DUP3 DUP2 LT ISZERO PUSH2 0xE15 JUMPI DUP5 DUP10 ADD MLOAD DUP3 SSTORE PUSH1 0x1 DUP3 ADD SWAP2 POP PUSH1 0x20 DUP6 ADD SWAP5 POP PUSH1 0x20 DUP2 ADD SWAP1 POP PUSH2 0xDF0 JUMP JUMPDEST DUP7 DUP4 LT ISZERO PUSH2 0xE32 JUMPI DUP5 DUP10 ADD MLOAD PUSH2 0xE2E PUSH1 0x1F DUP10 AND DUP3 PUSH2 0xD41 JUMP JUMPDEST DUP4 SSTORE POP JUMPDEST PUSH1 0x1 PUSH1 0x2 DUP9 MUL ADD DUP9 SSTORE POP POP POP JUMPDEST POP POP POP POP POP POP JUMP JUMPDEST PUSH0 DUP2 SWAP1 POP SWAP2 SWAP1 POP JUMP JUMPDEST PUSH2 0xE59 DUP2 PUSH2 0xE47 JUMP JUMPDEST DUP3 MSTORE POP POP JUMP JUMPDEST PUSH2 0xE68 DUP2 PUSH2 0x88D JUMP JUMPDEST DUP3 MSTORE POP POP JUMP JUMPDEST PUSH2 0xE77 DUP2 PUSH2 0x766 JUMP JUMPDEST DUP3 MSTORE POP POP JUMP JUMPDEST PUSH0 PUSH1 0xA0 DUP3 ADD SWAP1 POP PUSH2 0xE90 PUSH0 DUP4 ADD DUP9 PUSH2 0xE50 JUMP JUMPDEST PUSH2 0xE9D PUSH1 0x20 DUP4 ADD DUP8 PUSH2 0xE50 JUMP JUMPDEST PUSH2 0xEAA PUSH1 0x40 DUP4 ADD DUP7 PUSH2 0xE50 JUMP JUMPDEST PUSH2 0xEB7 PUSH1 0x60 DUP4 ADD DUP6 PUSH2 0xE5F JUMP JUMPDEST PUSH2 0xEC4 PUSH1 0x80 DUP4 ADD DUP5 PUSH2 0xE6E JUMP JUMPDEST SWAP7 SWAP6 POP POP POP POP POP POP JUMP JUMPDEST DUP3 DUP2 DUP4 MCOPY PUSH0 DUP4 DUP4 ADD MSTORE POP POP POP JUMP JUMPDEST PUSH0 PUSH2 0xEE6 DUP3 PUSH2 0xB7A JUMP JUMPDEST PUSH2 0xEF0 DUP2 DUP6 PUSH2 0xA97 JUMP JUMPDEST SWAP4 POP PUSH2 0xF00 DUP2 DUP6 PUSH1 0x20 DUP7 ADD PUSH2 0xECE JUMP JUMPDEST PUSH2 0xF09 DUP2 PUSH2 0x6BF JUMP JUMPDEST DUP5 ADD SWAP2 POP POP SWAP3 SWAP2 POP POP JUMP JUMPDEST PUSH0 PUSH1 0x20 DUP3 ADD SWAP1 POP DUP2 DUP2 SUB PUSH0 DUP4 ADD MSTORE PUSH2 0xF2C DUP2 DUP5 PUSH2 0xEDC JUMP JUMPDEST SWAP1 POP SWAP3 SWAP2 POP POP JUMP JUMPDEST PUSH0 DUP2 MLOAD SWAP1 POP SWAP2 SWAP1 POP JUMP JUMPDEST PUSH0 DUP2 SWAP1 POP PUSH1 0x20 DUP3 ADD SWAP1 POP SWAP2 SWAP1 POP JUMP JUMPDEST PUSH0 PUSH2 0xF58 DUP3 MLOAD PUSH2 0xE47 JUMP JUMPDEST DUP1 SWAP2 POP POP SWAP2 SWAP1 POP JUMP JUMPDEST PUSH0 PUSH2 0xF6B DUP3 PUSH2 0xF34 JUMP JUMPDEST DUP3 PUSH2 0xF75 DUP5 PUSH2 0xF3E JUMP JUMPDEST SWAP1 POP PUSH2 0xF80 DUP2 PUSH2 0xF4D JUMP JUMPDEST SWAP3 POP PUSH1 0x20 DUP3 LT ISZERO PUSH2 0xFC0 JUMPI PUSH2 0xFBB PUSH32 0xFFFFFFFFFFFFFFFFFFFFFFFFFFFFFFFFFFFFFFFFFFFFFFFFFFFFFFFFFFFFFFFF DUP4 PUSH1 0x20 SUB PUSH1 0x8 MUL PUSH2 0xC02 JUMP JUMPDEST DUP4 AND SWAP3 POP JUMPDEST POP POP SWAP2 SWAP1 POP JUMP JUMPDEST PUSH1 0x80 MLOAD PUSH1 0xA0 MLOAD PUSH1 0xC0 MLOAD PUSH1 0xE0 MLOAD PUSH2 0x100 MLOAD PUSH2 0x120 MLOAD PUSH2 0x140 MLOAD PUSH2 0x160 MLOAD PUSH2 0x180 MLOAD PUSH2 0x5D8F PUSH2 0x1079 PUSH0 CODECOPY PUSH0 DUP2 DUP2 PUSH2 0x1BB5 ADD MSTORE PUSH2 0x246F ADD MSTORE PUSH0 DUP2 DUP2 PUSH2 0x1347 ADD MSTORE DUP2 DUP2 PUSH2 0x1595 ADD MSTORE DUP2 DUP2 PUSH2 0x16C3 ADD MSTORE DUP2 DUP2 PUSH2 0x19C5 ADD MSTORE DUP2 DUP2 PUSH2 0x1B0A ADD MSTORE DUP2 DUP2 PUSH2 0x2073 ADD MSTORE DUP2 DUP2 PUSH2 0x2507 ADD MSTORE DUP2 DUP2 PUSH2 0x25B6 ADD MSTORE DUP2 DUP2 PUSH2 0x295A ADD MSTORE DUP2 DUP2 PUSH2 0x2F45 ADD MSTORE PUSH2 0x3440 ADD MSTORE PUSH0 PUSH2 0x309A ADD MSTORE PUSH0 PUSH2 0x305F ADD MSTORE PUSH0 PUSH2 0x3D48 ADD MSTORE PUSH0 PUSH2 0x3D27 ADD MSTORE PUSH0 PUSH2 0x39D6 ADD MSTORE PUSH0 PUSH2 0x3A2C ADD MSTORE PUSH0 PUSH2 0x3A55 ADD MSTORE PUSH2 0x5D8F PUSH0 RETURN INVALID PUSH1 0x80 PUSH1 0x40 MSTORE PUSH1 0x4 CALLDATASIZE LT PUSH2 0x38A JUMPI PUSH0 CALLDATALOAD PUSH1 0xE0 SHR DUP1 PUSH4 0x847FDD12 GT PUSH2 0x1DB JUMPI DUP1 PUSH4 0xCDE6D214 GT PUSH2 0x101 JUMPI DUP1 PUSH4 0xE79C542A GT PUSH2 0x9F JUMPI DUP1 PUSH4 0xF5492E2F GT PUSH2 0x6E JUMPI DUP1 PUSH4 0xF5492E2F EQ PUSH2 0xCC0 JUMPI DUP1 PUSH4 0xFBFA77CF EQ PUSH2 0xCFF JUMPI DUP1 PUSH4 0xFC0C546A EQ PUSH2 0xD29 JUMPI DUP1 PUSH4 0xFE10D774 EQ PUSH2 0xD53 JUMPI PUSH2 0x38A JUMP JUMPDEST DUP1 PUSH4 0xE79C542A EQ PUSH2 0xC1C JUMPI DUP1 PUSH4 0xE8D40D86 EQ PUSH2 0xC46 JUMPI DUP1 PUSH4 0xECD9BA82 EQ PUSH2 0xC6E JUMPI DUP1 PUSH4 0xEFCA2EED EQ PUSH2 0xC96 JUMPI PUSH2 0x38A JUMP JUMPDEST DUP1 PUSH4 0xD6B6B23F GT PUSH2 0xDB JUMPI DUP1 PUSH4 0xD6B6B23F EQ PUSH2 0xB64 JUMPI DUP1 PUSH4 0xD6DF096D EQ PUSH2 0xBA0 JUMPI DUP1 PUSH4 0xE31F1049 EQ PUSH2 0xBCA JUMPI DUP1 PUSH4 0xE63AB1E9 EQ PUSH2 0xBF2 JUMPI PUSH2 0x38A JUMP JUMPDEST DUP1 PUSH4 0xCDE6D214 EQ PUSH2 0xAEA JUMPI DUP1 PUSH4 0xD547741F EQ PUSH2 0xB12 JUMPI DUP1 PUSH4 0xD699B9D9 EQ PUSH2 0xB3A JUMPI PUSH2 0x38A JUMP JUMPDEST DUP1 PUSH4 0xA217FDDF GT PUSH2 0x179 JUMPI DUP1 PUSH4 0xADB50861 GT PUSH2 0x148 JUMPI DUP1 PUSH4 0xADB50861 EQ PUSH2 0xA56 JUMPI DUP1 PUSH4 0xB353AAA7 EQ PUSH2 0xA6C JUMPI DUP1 PUSH4 0xB681A1E7 EQ PUSH2 0xA96 JUMPI DUP1 PUSH4 0xCCC57490 EQ PUSH2 0xAC0 JUMPI PUSH2 0x38A JUMP JUMPDEST DUP1 PUSH4 0xA217FDDF EQ PUSH2 0x984 JUMPI DUP1 PUSH4 0xA344C499 EQ PUSH2 0x9AE JUMPI DUP1 PUSH4 0xA87430BA EQ PUSH2 0x9D8 JUMPI DUP1 PUSH4 0xAC9650D8 EQ PUSH2 0xA1A JUMPI PUSH2 0x38A JUMP JUMPDEST DUP1 PUSH4 0x898700AF GT PUSH2 0x1B5 JUMPI DUP1 PUSH4 0x898700AF EQ PUSH2 0x8CE JUMPI DUP1 PUSH4 0x91D14854 EQ PUSH2 0x8F8 JUMPI DUP1 PUSH4 0x99F34C46 EQ PUSH2 0x934 JUMPI DUP1 PUSH4 0x9EF3A261 EQ PUSH2 0x95C JUMPI PUSH2 0x38A JUMP JUMPDEST DUP1 PUSH4 0x847FDD12 EQ PUSH2 0x84C JUMPI DUP1 PUSH4 0x84B0196E EQ PUSH2 0x862 JUMPI DUP1 PUSH4 0x88A7CA5C EQ PUSH2 0x892 JUMPI PUSH2 0x38A JUMP JUMPDEST DUP1 PUSH4 0x3F4BA83A GT PUSH2 0x2C0 JUMPI DUP1 PUSH4 0x6B0509B1 GT PUSH2 0x25E JUMPI DUP1 PUSH4 0x7ECEBE00 GT PUSH2 0x22D JUMPI DUP1 PUSH4 0x7ECEBE00 EQ PUSH2 0x7A6 JUMPI DUP1 PUSH4 0x7EEFD5AE EQ PUSH2 0x7E2 JUMPI DUP1 PUSH4 0x8209CE30 EQ PUSH2 0x80C JUMPI DUP1 PUSH4 0x8456CB59 EQ PUSH2 0x836 JUMPI PUSH2 0x38A JUMP JUMPDEST DUP1 PUSH4 0x6B0509B1 EQ PUSH2 0x702 JUMPI DUP1 PUSH4 0x6CF1E239 EQ PUSH2 0x72C JUMPI DUP1 PUSH4 0x76671808 EQ PUSH2 0x754 JUMPI DUP1 PUSH4 0x7CB64759 EQ PUSH2 0x77E JUMPI PUSH2 0x38A JUMP JUMPDEST DUP1 PUSH4 0x55C6065D GT PUSH2 0x29A JUMPI DUP1 PUSH4 0x55C6065D EQ PUSH2 0x67E JUMPI DUP1 PUSH4 0x5C975ABB EQ PUSH2 0x69A JUMPI DUP1 PUSH4 0x652D9AF1 EQ PUSH2 0x6C4 JUMPI DUP1 PUSH4 0x66EB9CEC EQ PUSH2 0x6EC JUMPI PUSH2 0x38A JUMP JUMPDEST DUP1 PUSH4 0x3F4BA83A EQ PUSH2 0x616 JUMPI DUP1 PUSH4 0x4FF0876A EQ PUSH2 0x62C JUMPI DUP1 PUSH4 0x5345D1A0 EQ PUSH2 0x656 JUMPI PUSH2 0x38A JUMP JUMPDEST DUP1 PUSH4 0x23095721 GT PUSH2 0x32D JUMPI DUP1 PUSH4 0x2F2FF15D GT PUSH2 0x307 JUMPI DUP1 PUSH4 0x2F2FF15D EQ PUSH2 0x560 JUMPI DUP1 PUSH4 0x3170A7FB EQ PUSH2 0x588 JUMPI DUP1 PUSH4 0x36568ABE EQ PUSH2 0x5C4 JUMPI DUP1 PUSH4 0x3DBA6D63 EQ PUSH2 0x5EC JUMPI PUSH2 0x38A JUMP JUMPDEST DUP1 PUSH4 0x23095721 EQ PUSH2 0x4D2 JUMPI DUP1 PUSH4 0x248A9CA3 EQ PUSH2 0x4FA JUMPI DUP1 PUSH4 0x2EB4A7AB EQ PUSH2 0x536 JUMPI PUSH2 0x38A JUMP JUMPDEST DUP1 PUSH4 0x56D5AFE GT PUSH2 0x369 JUMPI DUP1 PUSH4 0x56D5AFE EQ PUSH2 0x41A JUMPI DUP1 PUSH4 0x5B0E4AE EQ PUSH2 0x444 JUMPI DUP1 PUSH4 0x8F7A617 EQ PUSH2 0x480 JUMPI DUP1 PUSH4 0x134E18F4 EQ PUSH2 0x4A8 JUMPI PUSH2 0x38A JUMP JUMPDEST DUP1 PUSH3 0x1D3567 EQ PUSH2 0x38E JUMPI DUP1 PUSH4 0x1FFC9A7 EQ PUSH2 0x3B6 JUMPI DUP1 PUSH4 0x36CE8B1 EQ PUSH2 0x3F2 JUMPI JUMPDEST PUSH0 PUSH0 REVERT JUMPDEST CALLVALUE DUP1 ISZERO PUSH2 0x399 JUMPI PUSH0 PUSH0 REVERT JUMPDEST POP PUSH2 0x3B4 PUSH1 0x4 DUP1 CALLDATASIZE SUB DUP2 ADD SWAP1 PUSH2 0x3AF SWAP2 SWAP1 PUSH2 0x3F70 JUMP JUMPDEST PUSH2 0xD90 JUMP JUMPDEST STOP JUMPDEST CALLVALUE DUP1 ISZERO PUSH2 0x3C1 JUMPI PUSH0 PUSH0 REVERT JUMPDEST POP PUSH2 0x3DC PUSH1 0x4 DUP1 CALLDATASIZE SUB DUP2 ADD SWAP1 PUSH2 0x3D7 SWAP2 SWAP1 PUSH2 0x4068 JUMP JUMPDEST PUSH2 0xE4C JUMP JUMPDEST PUSH1 0x40 MLOAD PUSH2 0x3E9 SWAP2 SWAP1 PUSH2 0x40AD JUMP JUMPDEST PUSH1 0x40 MLOAD DUP1 SWAP2 SUB SWAP1 RETURN JUMPDEST CALLVALUE DUP1 ISZERO PUSH2 0x3FD JUMPI PUSH0 PUSH0 REVERT JUMPDEST POP PUSH2 0x418 PUSH1 0x4 DUP1 CALLDATASIZE SUB DUP2 ADD SWAP1 PUSH2 0x413 SWAP2 SWAP1 PUSH2 0x40F9 JUMP JUMPDEST PUSH2 0xEC5 JUMP JUMPDEST STOP JUMPDEST CALLVALUE DUP1 ISZERO PUSH2 0x425 JUMPI PUSH0 PUSH0 REVERT JUMPDEST POP PUSH2 0x42E PUSH2 0xFCA JUMP JUMPDEST PUSH1 0x40 MLOAD PUSH2 0x43B SWAP2 SWAP1 PUSH2 0x419E JUMP JUMPDEST PUSH1 0x40 MLOAD DUP1 SWAP2 SUB SWAP1 RETURN JUMPDEST CALLVALUE DUP1 ISZERO PUSH2 0x44F JUMPI PUSH0 PUSH0 REVERT JUMPDEST POP PUSH2 0x46A PUSH1 0x4 DUP1 CALLDATASIZE SUB DUP2 ADD SWAP1 PUSH2 0x465 SWAP2 SWAP1 PUSH2 0x41F2 JUMP JUMPDEST PUSH2 0xFEF JUMP JUMPDEST PUSH1 0x40 MLOAD PUSH2 0x477 SWAP2 SWAP1 PUSH2 0x40AD JUMP JUMPDEST PUSH1 0x40 MLOAD DUP1 SWAP2 SUB SWAP1 RETURN JUMPDEST CALLVALUE DUP1 ISZERO PUSH2 0x48B JUMPI PUSH0 PUSH0 REVERT JUMPDEST POP PUSH2 0x4A6 PUSH1 0x4 DUP1 CALLDATASIZE SUB DUP2 ADD SWAP1 PUSH2 0x4A1 SWAP2 SWAP1 PUSH2 0x40F9 JUMP JUMPDEST PUSH2 0x100C JUMP JUMPDEST STOP JUMPDEST CALLVALUE DUP1 ISZERO PUSH2 0x4B3 JUMPI PUSH0 PUSH0 REVERT JUMPDEST POP PUSH2 0x4BC PUSH2 0x1039 JUMP JUMPDEST PUSH1 0x40 MLOAD PUSH2 0x4C9 SWAP2 SWAP1 PUSH2 0x423D JUMP JUMPDEST PUSH1 0x40 MLOAD DUP1 SWAP2 SUB SWAP1 RETURN JUMPDEST CALLVALUE DUP1 ISZERO PUSH2 0x4DD JUMPI PUSH0 PUSH0 REVERT JUMPDEST POP PUSH2 0x4F8 PUSH1 0x4 DUP1 CALLDATASIZE SUB DUP2 ADD SWAP1 PUSH2 0x4F3 SWAP2 SWAP1 PUSH2 0x40F9 JUMP JUMPDEST PUSH2 0x105E JUMP JUMPDEST STOP JUMPDEST CALLVALUE DUP1 ISZERO PUSH2 0x505 JUMPI PUSH0 PUSH0 REVERT JUMPDEST POP PUSH2 0x520 PUSH1 0x4 DUP1 CALLDATASIZE SUB DUP2 ADD SWAP1 PUSH2 0x51B SWAP2 SWAP1 PUSH2 0x4289 JUMP JUMPDEST PUSH2 0x1221 JUMP JUMPDEST PUSH1 0x40 MLOAD PUSH2 0x52D SWAP2 SWAP1 PUSH2 0x42C3 JUMP JUMPDEST PUSH1 0x40 MLOAD DUP1 SWAP2 SUB SWAP1 RETURN JUMPDEST CALLVALUE DUP1 ISZERO PUSH2 0x541 JUMPI PUSH0 PUSH0 REVERT JUMPDEST POP PUSH2 0x54A PUSH2 0x123E JUMP JUMPDEST PUSH1 0x40 MLOAD PUSH2 0x557 SWAP2 SWAP1 PUSH2 0x42C3 JUMP JUMPDEST PUSH1 0x40 MLOAD DUP1 SWAP2 SUB SWAP1 RETURN JUMPDEST CALLVALUE DUP1 ISZERO PUSH2 0x56B JUMPI PUSH0 PUSH0 REVERT JUMPDEST POP PUSH2 0x586 PUSH1 0x4 DUP1 CALLDATASIZE SUB DUP2 ADD SWAP1 PUSH2 0x581 SWAP2 SWAP1 PUSH2 0x42DC JUMP JUMPDEST PUSH2 0x1244 JUMP JUMPDEST STOP JUMPDEST CALLVALUE DUP1 ISZERO PUSH2 0x593 JUMPI PUSH0 PUSH0 REVERT JUMPDEST POP PUSH2 0x5AE PUSH1 0x4 DUP1 CALLDATASIZE SUB DUP2 ADD SWAP1 PUSH2 0x5A9 SWAP2 SWAP1 PUSH2 0x41F2 JUMP JUMPDEST PUSH2 0x1266 JUMP JUMPDEST PUSH1 0x40 MLOAD PUSH2 0x5BB SWAP2 SWAP1 PUSH2 0x4329 JUMP JUMPDEST PUSH1 0x40 MLOAD DUP1 SWAP2 SUB SWAP1 RETURN JUMPDEST CALLVALUE DUP1 ISZERO PUSH2 0x5CF JUMPI PUSH0 PUSH0 REVERT JUMPDEST POP PUSH2 0x5EA PUSH1 0x4 DUP1 CALLDATASIZE SUB DUP2 ADD SWAP1 PUSH2 0x5E5 SWAP2 SWAP1 PUSH2 0x42DC JUMP JUMPDEST PUSH2 0x127B JUMP JUMPDEST STOP JUMPDEST CALLVALUE DUP1 ISZERO PUSH2 0x5F7 JUMPI PUSH0 PUSH0 REVERT JUMPDEST POP PUSH2 0x600 PUSH2 0x12F6 JUMP JUMPDEST PUSH1 0x40 MLOAD PUSH2 0x60D SWAP2 SWAP1 PUSH2 0x4329 JUMP JUMPDEST PUSH1 0x40 MLOAD DUP1 SWAP2 SUB SWAP1 RETURN JUMPDEST CALLVALUE DUP1 ISZERO PUSH2 0x621 JUMPI PUSH0 PUSH0 REVERT JUMPDEST POP PUSH2 0x62A PUSH2 0x12FC JUMP JUMPDEST STOP JUMPDEST CALLVALUE DUP1 ISZERO PUSH2 0x637 JUMPI PUSH0 PUSH0 REVERT JUMPDEST POP PUSH2 0x640 PUSH2 0x1331 JUMP JUMPDEST PUSH1 0x40 MLOAD PUSH2 0x64D SWAP2 SWAP1 PUSH2 0x4329 JUMP JUMPDEST PUSH1 0x40 MLOAD DUP1 SWAP2 SUB SWAP1 RETURN JUMPDEST CALLVALUE DUP1 ISZERO PUSH2 0x661 JUMPI PUSH0 PUSH0 REVERT JUMPDEST POP PUSH2 0x67C PUSH1 0x4 DUP1 CALLDATASIZE SUB DUP2 ADD SWAP1 PUSH2 0x677 SWAP2 SWAP1 PUSH2 0x4342 JUMP JUMPDEST PUSH2 0x1337 JUMP JUMPDEST STOP JUMPDEST PUSH2 0x698 PUSH1 0x4 DUP1 CALLDATASIZE SUB DUP2 ADD SWAP1 PUSH2 0x693 SWAP2 SWAP1 PUSH2 0x4380 JUMP JUMPDEST PUSH2 0x1402 JUMP JUMPDEST STOP JUMPDEST CALLVALUE DUP1 ISZERO PUSH2 0x6A5 JUMPI PUSH0 PUSH0 REVERT JUMPDEST POP PUSH2 0x6AE PUSH2 0x14E9 JUMP JUMPDEST PUSH1 0x40 MLOAD PUSH2 0x6BB SWAP2 SWAP1 PUSH2 0x40AD JUMP JUMPDEST PUSH1 0x40 MLOAD DUP1 SWAP2 SUB SWAP1 RETURN JUMPDEST CALLVALUE DUP1 ISZERO PUSH2 0x6CF JUMPI PUSH0 PUSH0 REVERT JUMPDEST POP PUSH2 0x6EA PUSH1 0x4 DUP1 CALLDATASIZE SUB DUP2 ADD SWAP1 PUSH2 0x6E5 SWAP2 SWAP1 PUSH2 0x41F2 JUMP JUMPDEST PUSH2 0x14FE JUMP JUMPDEST STOP JUMPDEST CALLVALUE DUP1 ISZERO PUSH2 0x6F7 JUMPI PUSH0 PUSH0 REVERT JUMPDEST POP PUSH2 0x700 PUSH2 0x162A JUMP JUMPDEST STOP JUMPDEST CALLVALUE DUP1 ISZERO PUSH2 0x70D JUMPI PUSH0 PUSH0 REVERT JUMPDEST POP PUSH2 0x716 PUSH2 0x1757 JUMP JUMPDEST PUSH1 0x40 MLOAD PUSH2 0x723 SWAP2 SWAP1 PUSH2 0x42C3 JUMP JUMPDEST PUSH1 0x40 MLOAD DUP1 SWAP2 SUB SWAP1 RETURN JUMPDEST CALLVALUE DUP1 ISZERO PUSH2 0x737 JUMPI PUSH0 PUSH0 REVERT JUMPDEST POP PUSH2 0x752 PUSH1 0x4 DUP1 CALLDATASIZE SUB DUP2 ADD SWAP1 PUSH2 0x74D SWAP2 SWAP1 PUSH2 0x4400 JUMP JUMPDEST PUSH2 0x177B JUMP JUMPDEST STOP JUMPDEST CALLVALUE DUP1 ISZERO PUSH2 0x75F JUMPI PUSH0 PUSH0 REVERT JUMPDEST POP PUSH2 0x768 PUSH2 0x17A2 JUMP JUMPDEST PUSH1 0x40 MLOAD PUSH2 0x775 SWAP2 SWAP1 PUSH2 0x4329 JUMP JUMPDEST PUSH1 0x40 MLOAD DUP1 SWAP2 SUB SWAP1 RETURN JUMPDEST CALLVALUE DUP1 ISZERO PUSH2 0x789 JUMPI PUSH0 PUSH0 REVERT JUMPDEST POP PUSH2 0x7A4 PUSH1 0x4 DUP1 CALLDATASIZE SUB DUP2 ADD SWAP1 PUSH2 0x79F SWAP2 SWAP1 PUSH2 0x4289 JUMP JUMPDEST PUSH2 0x17A8 JUMP JUMPDEST STOP JUMPDEST CALLVALUE DUP1 ISZERO PUSH2 0x7B1 JUMPI PUSH0 PUSH0 REVERT JUMPDEST POP PUSH2 0x7CC PUSH1 0x4 DUP1 CALLDATASIZE SUB DUP2 ADD SWAP1 PUSH2 0x7C7 SWAP2 SWAP1 PUSH2 0x41F2 JUMP JUMPDEST PUSH2 0x17DD JUMP JUMPDEST PUSH1 0x40 MLOAD PUSH2 0x7D9 SWAP2 SWAP1 PUSH2 0x4329 JUMP JUMPDEST PUSH1 0x40 MLOAD DUP1 SWAP2 SUB SWAP1 RETURN JUMPDEST CALLVALUE DUP1 ISZERO PUSH2 0x7ED JUMPI PUSH0 PUSH0 REVERT JUMPDEST POP PUSH2 0x7F6 PUSH2 0x17F2 JUMP JUMPDEST PUSH1 0x40 MLOAD PUSH2 0x803 SWAP2 SWAP1 PUSH2 0x4329 JUMP JUMPDEST PUSH1 0x40 MLOAD DUP1 SWAP2 SUB SWAP1 RETURN JUMPDEST CALLVALUE DUP1 ISZERO PUSH2 0x817 JUMPI PUSH0 PUSH0 REVERT JUMPDEST POP PUSH2 0x820 PUSH2 0x17F8 JUMP JUMPDEST PUSH1 0x40 MLOAD PUSH2 0x82D SWAP2 SWAP1 PUSH2 0x4329 JUMP JUMPDEST PUSH1 0x40 MLOAD DUP1 SWAP2 SUB SWAP1 RETURN JUMPDEST CALLVALUE DUP1 ISZERO PUSH2 0x841 JUMPI PUSH0 PUSH0 REVERT JUMPDEST POP PUSH2 0x84A PUSH2 0x17FE JUMP JUMPDEST STOP JUMPDEST CALLVALUE DUP1 ISZERO PUSH2 0x857 JUMPI PUSH0 PUSH0 REVERT JUMPDEST POP PUSH2 0x860 PUSH2 0x1833 JUMP JUMPDEST STOP JUMPDEST CALLVALUE DUP1 ISZERO PUSH2 0x86D JUMPI PUSH0 PUSH0 REVERT JUMPDEST POP PUSH2 0x876 PUSH2 0x1A5A JUMP JUMPDEST PUSH1 0x40 MLOAD PUSH2 0x889 SWAP8 SWAP7 SWAP6 SWAP5 SWAP4 SWAP3 SWAP2 SWAP1 PUSH2 0x45CD JUMP JUMPDEST PUSH1 0x40 MLOAD DUP1 SWAP2 SUB SWAP1 RETURN JUMPDEST CALLVALUE DUP1 ISZERO PUSH2 0x89D JUMPI PUSH0 PUSH0 REVERT JUMPDEST POP PUSH2 0x8B8 PUSH1 0x4 DUP1 CALLDATASIZE SUB DUP2 ADD SWAP1 PUSH2 0x8B3 SWAP2 SWAP1 PUSH2 0x464F JUMP JUMPDEST PUSH2 0x1AFF JUMP JUMPDEST PUSH1 0x40 MLOAD PUSH2 0x8C5 SWAP2 SWAP1 PUSH2 0x46E2 JUMP JUMPDEST PUSH1 0x40 MLOAD DUP1 SWAP2 SUB SWAP1 RETURN JUMPDEST CALLVALUE DUP1 ISZERO PUSH2 0x8D9 JUMPI PUSH0 PUSH0 REVERT JUMPDEST POP PUSH2 0x8E2 PUSH2 0x1BB3 JUMP JUMPDEST PUSH1 0x40 MLOAD PUSH2 0x8EF SWAP2 SWAP1 PUSH2 0x471B JUMP JUMPDEST PUSH1 0x40 MLOAD DUP1 SWAP2 SUB SWAP1 RETURN JUMPDEST CALLVALUE DUP1 ISZERO PUSH2 0x903 JUMPI PUSH0 PUSH0 REVERT JUMPDEST POP PUSH2 0x91E PUSH1 0x4 DUP1 CALLDATASIZE SUB DUP2 ADD SWAP1 PUSH2 0x919 SWAP2 SWAP1 PUSH2 0x42DC JUMP JUMPDEST PUSH2 0x1BD7 JUMP JUMPDEST PUSH1 0x40 MLOAD PUSH2 0x92B SWAP2 SWAP1 PUSH2 0x40AD JUMP JUMPDEST PUSH1 0x40 MLOAD DUP1 SWAP2 SUB SWAP1 RETURN JUMPDEST CALLVALUE DUP1 ISZERO PUSH2 0x93F JUMPI PUSH0 PUSH0 REVERT JUMPDEST POP PUSH2 0x95A PUSH1 0x4 DUP1 CALLDATASIZE SUB DUP2 ADD SWAP1 PUSH2 0x955 SWAP2 SWAP1 PUSH2 0x4734 JUMP JUMPDEST PUSH2 0x1C3B JUMP JUMPDEST STOP JUMPDEST CALLVALUE DUP1 ISZERO PUSH2 0x967 JUMPI PUSH0 PUSH0 REVERT JUMPDEST POP PUSH2 0x982 PUSH1 0x4 DUP1 CALLDATASIZE SUB DUP2 ADD SWAP1 PUSH2 0x97D SWAP2 SWAP1 PUSH2 0x40F9 JUMP JUMPDEST PUSH2 0x1D4B JUMP JUMPDEST STOP JUMPDEST CALLVALUE DUP1 ISZERO PUSH2 0x98F JUMPI PUSH0 PUSH0 REVERT JUMPDEST POP PUSH2 0x998 PUSH2 0x1D80 JUMP JUMPDEST PUSH1 0x40 MLOAD PUSH2 0x9A5 SWAP2 SWAP1 PUSH2 0x42C3 JUMP JUMPDEST PUSH1 0x40 MLOAD DUP1 SWAP2 SUB SWAP1 RETURN JUMPDEST CALLVALUE DUP1 ISZERO PUSH2 0x9B9 JUMPI PUSH0 PUSH0 REVERT JUMPDEST POP PUSH2 0x9C2 PUSH2 0x1D86 JUMP JUMPDEST PUSH1 0x40 MLOAD PUSH2 0x9CF SWAP2 SWAP1 PUSH2 0x4329 JUMP JUMPDEST PUSH1 0x40 MLOAD DUP1 SWAP2 SUB SWAP1 RETURN JUMPDEST CALLVALUE DUP1 ISZERO PUSH2 0x9E3 JUMPI PUSH0 PUSH0 REVERT JUMPDEST POP PUSH2 0x9FE PUSH1 0x4 DUP1 CALLDATASIZE SUB DUP2 ADD SWAP1 PUSH2 0x9F9 SWAP2 SWAP1 PUSH2 0x41F2 JUMP JUMPDEST PUSH2 0x1D8C JUMP JUMPDEST PUSH1 0x40 MLOAD PUSH2 0xA11 SWAP8 SWAP7 SWAP6 SWAP5 SWAP4 SWAP3 SWAP2 SWAP1 PUSH2 0x4804 JUMP JUMPDEST PUSH1 0x40 MLOAD DUP1 SWAP2 SUB SWAP1 RETURN JUMPDEST CALLVALUE DUP1 ISZERO PUSH2 0xA25 JUMPI PUSH0 PUSH0 REVERT JUMPDEST POP PUSH2 0xA40 PUSH1 0x4 DUP1 CALLDATASIZE SUB DUP2 ADD SWAP1 PUSH2 0xA3B SWAP2 SWAP1 PUSH2 0x48C6 JUMP JUMPDEST PUSH2 0x1E02 JUMP JUMPDEST PUSH1 0x40 MLOAD PUSH2 0xA4D SWAP2 SWAP1 PUSH2 0x4A1E JUMP JUMPDEST PUSH1 0x40 MLOAD DUP1 SWAP2 SUB SWAP1 RETURN JUMPDEST CALLVALUE DUP1 ISZERO PUSH2 0xA61 JUMPI PUSH0 PUSH0 REVERT JUMPDEST POP PUSH2 0xA6A PUSH2 0x1F73 JUMP JUMPDEST STOP JUMPDEST CALLVALUE DUP1 ISZERO PUSH2 0xA77 JUMPI PUSH0 PUSH0 REVERT JUMPDEST POP PUSH2 0xA80 PUSH2 0x2109 JUMP JUMPDEST PUSH1 0x40 MLOAD PUSH2 0xA8D SWAP2 SWAP1 PUSH2 0x4A5E JUMP JUMPDEST PUSH1 0x40 MLOAD DUP1 SWAP2 SUB SWAP1 RETURN JUMPDEST CALLVALUE DUP1 ISZERO PUSH2 0xAA1 JUMPI PUSH0 PUSH0 REVERT JUMPDEST POP PUSH2 0xAAA PUSH2 0x212E JUMP JUMPDEST PUSH1 0x40 MLOAD PUSH2 0xAB7 SWAP2 SWAP1 PUSH2 0x4329 JUMP JUMPDEST PUSH1 0x40 MLOAD DUP1 SWAP2 SUB SWAP1 RETURN JUMPDEST CALLVALUE DUP1 ISZERO PUSH2 0xACB JUMPI PUSH0 PUSH0 REVERT JUMPDEST POP PUSH2 0xAD4 PUSH2 0x2134 JUMP JUMPDEST PUSH1 0x40 MLOAD PUSH2 0xAE1 SWAP2 SWAP1 PUSH2 0x42C3 JUMP JUMPDEST PUSH1 0x40 MLOAD DUP1 SWAP2 SUB SWAP1 RETURN JUMPDEST CALLVALUE DUP1 ISZERO PUSH2 0xAF5 JUMPI PUSH0 PUSH0 REVERT JUMPDEST POP PUSH2 0xB10 PUSH1 0x4 DUP1 CALLDATASIZE SUB DUP2 ADD SWAP1 PUSH2 0xB0B SWAP2 SWAP1 PUSH2 0x4A77 JUMP JUMPDEST PUSH2 0x2158 JUMP JUMPDEST STOP JUMPDEST CALLVALUE DUP1 ISZERO PUSH2 0xB1D JUMPI PUSH0 PUSH0 REVERT JUMPDEST POP PUSH2 0xB38 PUSH1 0x4 DUP1 CALLDATASIZE SUB DUP2 ADD SWAP1 PUSH2 0xB33 SWAP2 SWAP1 PUSH2 0x42DC JUMP JUMPDEST PUSH2 0x2194 JUMP JUMPDEST STOP JUMPDEST CALLVALUE DUP1 ISZERO PUSH2 0xB45 JUMPI PUSH0 PUSH0 REVERT JUMPDEST POP PUSH2 0xB4E PUSH2 0x21B6 JUMP JUMPDEST PUSH1 0x40 MLOAD PUSH2 0xB5B SWAP2 SWAP1 PUSH2 0x4329 JUMP JUMPDEST PUSH1 0x40 MLOAD DUP1 SWAP2 SUB SWAP1 RETURN JUMPDEST CALLVALUE DUP1 ISZERO PUSH2 0xB6F JUMPI PUSH0 PUSH0 REVERT JUMPDEST POP PUSH2 0xB8A PUSH1 0x4 DUP1 CALLDATASIZE SUB DUP2 ADD SWAP1 PUSH2 0xB85 SWAP2 SWAP1 PUSH2 0x41F2 JUMP JUMPDEST PUSH2 0x21BC JUMP JUMPDEST PUSH1 0x40 MLOAD PUSH2 0xB97 SWAP2 SWAP1 PUSH2 0x4329 JUMP JUMPDEST PUSH1 0x40 MLOAD DUP1 SWAP2 SUB SWAP1 RETURN JUMPDEST CALLVALUE DUP1 ISZERO PUSH2 0xBAB JUMPI PUSH0 PUSH0 REVERT JUMPDEST POP PUSH2 0xBB4 PUSH2 0x21D1 JUMP JUMPDEST PUSH1 0x40 MLOAD PUSH2 0xBC1 SWAP2 SWAP1 PUSH2 0x4B08 JUMP JUMPDEST PUSH1 0x40 MLOAD DUP1 SWAP2 SUB SWAP1 RETURN JUMPDEST CALLVALUE DUP1 ISZERO PUSH2 0xBD5 JUMPI PUSH0 PUSH0 REVERT JUMPDEST POP PUSH2 0xBF0 PUSH1 0x4 DUP1 CALLDATASIZE SUB DUP2 ADD SWAP1 PUSH2 0xBEB SWAP2 SWAP1 PUSH2 0x4B21 JUMP JUMPDEST PUSH2 0x21F7 JUMP JUMPDEST STOP JUMPDEST CALLVALUE DUP1 ISZERO PUSH2 0xBFD JUMPI PUSH0 PUSH0 REVERT JUMPDEST POP PUSH2 0xC06 PUSH2 0x238A JUMP JUMPDEST PUSH1 0x40 MLOAD PUSH2 0xC13 SWAP2 SWAP1 PUSH2 0x42C3 JUMP JUMPDEST PUSH1 0x40 MLOAD DUP1 SWAP2 SUB SWAP1 RETURN JUMPDEST CALLVALUE DUP1 ISZERO PUSH2 0xC27 JUMPI PUSH0 PUSH0 REVERT JUMPDEST POP PUSH2 0xC30 PUSH2 0x23AE JUMP JUMPDEST PUSH1 0x40 MLOAD PUSH2 0xC3D SWAP2 SWAP1 PUSH2 0x4329 JUMP JUMPDEST PUSH1 0x40 MLOAD DUP1 SWAP2 SUB SWAP1 RETURN JUMPDEST CALLVALUE DUP1 ISZERO PUSH2 0xC51 JUMPI PUSH0 PUSH0 REVERT JUMPDEST POP PUSH2 0xC6C PUSH1 0x4 DUP1 CALLDATASIZE SUB DUP2 ADD SWAP1 PUSH2 0xC67 SWAP2 SWAP1 PUSH2 0x4B89 JUMP JUMPDEST PUSH2 0x23B4 JUMP JUMPDEST STOP JUMPDEST CALLVALUE DUP1 ISZERO PUSH2 0xC79 JUMPI PUSH0 PUSH0 REVERT JUMPDEST POP PUSH2 0xC94 PUSH1 0x4 DUP1 CALLDATASIZE SUB DUP2 ADD SWAP1 PUSH2 0xC8F SWAP2 SWAP1 PUSH2 0x4BEA JUMP JUMPDEST PUSH2 0x2465 JUMP JUMPDEST STOP JUMPDEST CALLVALUE DUP1 ISZERO PUSH2 0xCA1 JUMPI PUSH0 PUSH0 REVERT JUMPDEST POP PUSH2 0xCAA PUSH2 0x255D JUMP JUMPDEST PUSH1 0x40 MLOAD PUSH2 0xCB7 SWAP2 SWAP1 PUSH2 0x4329 JUMP JUMPDEST PUSH1 0x40 MLOAD DUP1 SWAP2 SUB SWAP1 RETURN JUMPDEST CALLVALUE DUP1 ISZERO PUSH2 0xCCB JUMPI PUSH0 PUSH0 REVERT JUMPDEST POP PUSH2 0xCE6 PUSH1 0x4 DUP1 CALLDATASIZE SUB DUP2 ADD SWAP1 PUSH2 0xCE1 SWAP2 SWAP1 PUSH2 0x41F2 JUMP JUMPDEST PUSH2 0x2563 JUMP JUMPDEST PUSH1 0x40 MLOAD PUSH2 0xCF6 SWAP5 SWAP4 SWAP3 SWAP2 SWAP1 PUSH2 0x4C61 JUMP JUMPDEST PUSH1 0x40 MLOAD DUP1 SWAP2 SUB SWAP1 RETURN JUMPDEST CALLVALUE DUP1 ISZERO PUSH2 0xD0A JUMPI PUSH0 PUSH0 REVERT JUMPDEST POP PUSH2 0xD13 PUSH2 0x258F JUMP JUMPDEST PUSH1 0x40 MLOAD PUSH2 0xD20 SWAP2 SWAP1 PUSH2 0x4CC4 JUMP JUMPDEST PUSH1 0x40 MLOAD DUP1 SWAP2 SUB SWAP1 RETURN JUMPDEST CALLVALUE DUP1 ISZERO PUSH2 0xD34 JUMPI PUSH0 PUSH0 REVERT JUMPDEST POP PUSH2 0xD3D PUSH2 0x25B4 JUMP JUMPDEST PUSH1 0x40 MLOAD PUSH2 0xD4A SWAP2 SWAP1 PUSH2 0x4CFD JUMP JUMPDEST PUSH1 0x40 MLOAD DUP1 SWAP2 SUB SWAP1 RETURN JUMPDEST CALLVALUE DUP1 ISZERO PUSH2 0xD5E JUMPI PUSH0 PUSH0 REVERT JUMPDEST POP PUSH2 0xD79 PUSH1 0x4 DUP1 CALLDATASIZE SUB DUP2 ADD SWAP1 PUSH2 0xD74 SWAP2 SWAP1 PUSH2 0x41F2 JUMP JUMPDEST PUSH2 0x25D8 JUMP JUMPDEST PUSH1 0x40 MLOAD PUSH2 0xD87 SWAP3 SWAP2 SWAP1 PUSH2 0x4D16 JUMP JUMPDEST PUSH1 0x40 MLOAD DUP1 SWAP2 SUB SWAP1 RETURN JUMPDEST PUSH1 0x6 PUSH0 SWAP1 SLOAD SWAP1 PUSH2 0x100 EXP SWAP1 DIV PUSH20 0xFFFFFFFFFFFFFFFFFFFFFFFFFFFFFFFFFFFFFFFF AND PUSH20 0xFFFFFFFFFFFFFFFFFFFFFFFFFFFFFFFFFFFFFFFF AND CALLER PUSH20 0xFFFFFFFFFFFFFFFFFFFFFFFFFFFFFFFFFFFFFFFF AND EQ PUSH2 0xE1F JUMPI PUSH1 0x40 MLOAD PUSH32 0x8C379A000000000000000000000000000000000000000000000000000000000 DUP2 MSTORE PUSH1 0x4 ADD PUSH2 0xE16 SWAP1 PUSH2 0x4D87 JUMP JUMPDEST PUSH1 0x40 MLOAD DUP1 SWAP2 SUB SWAP1 REVERT JUMPDEST PUSH0 PUSH0 DUP4 DUP4 DUP2 ADD SWAP1 PUSH2 0xE30 SWAP2 SWAP1 PUSH2 0x4342 JUMP JUMPDEST SWAP2 POP SWAP2 POP DUP2 PUSH1 0xB DUP2 SWAP1 SSTORE POP DUP1 PUSH1 0xD DUP2 SWAP1 SSTORE POP POP POP POP POP POP POP POP POP JUMP JUMPDEST PUSH0 PUSH32 0x7965DB0B00000000000000000000000000000000000000000000000000000000 PUSH28 0xFFFFFFFFFFFFFFFFFFFFFFFFFFFFFFFFFFFFFFFFFFFFFFFFFFFFFFFF NOT AND DUP3 PUSH28 0xFFFFFFFFFFFFFFFFFFFFFFFFFFFFFFFFFFFFFFFFFFFFFFFFFFFFFFFF NOT AND EQ DUP1 PUSH2 0xEBE JUMPI POP PUSH2 0xEBD DUP3 PUSH2 0x25F8 JUMP JUMPDEST JUMPDEST SWAP1 POP SWAP2 SWAP1 POP JUMP JUMPDEST PUSH2 0xECD PUSH2 0x2661 JUMP JUMPDEST PUSH0 GAS SWAP1 POP PUSH1 0x4 PUSH0 SWAP1 SLOAD SWAP1 PUSH2 0x100 EXP SWAP1 DIV PUSH20 0xFFFFFFFFFFFFFFFFFFFFFFFFFFFFFFFFFFFFFFFF AND PUSH20 0xFFFFFFFFFFFFFFFFFFFFFFFFFFFFFFFFFFFFFFFF AND PUSH4 0xB9209E33 CALLER PUSH1 0x40 MLOAD DUP3 PUSH4 0xFFFFFFFF AND PUSH1 0xE0 SHL DUP2 MSTORE PUSH1 0x4 ADD PUSH2 0xF2B SWAP2 SWAP1 PUSH2 0x4DA5 JUMP JUMPDEST PUSH1 0x20 PUSH1 0x40 MLOAD DUP1 DUP4 SUB DUP2 DUP7 GAS STATICCALL ISZERO DUP1 ISZERO PUSH2 0xF46 JUMPI RETURNDATASIZE PUSH0 PUSH0 RETURNDATACOPY RETURNDATASIZE PUSH0 REVERT JUMPDEST POP POP POP POP PUSH1 0x40 MLOAD RETURNDATASIZE PUSH1 0x1F NOT PUSH1 0x1F DUP3 ADD AND DUP3 ADD DUP1 PUSH1 0x40 MSTORE POP DUP2 ADD SWAP1 PUSH2 0xF6A SWAP2 SWAP1 PUSH2 0x4DD2 JUMP JUMPDEST PUSH2 0xFA9 JUMPI PUSH1 0x40 MLOAD PUSH32 0x8C379A000000000000000000000000000000000000000000000000000000000 DUP2 MSTORE PUSH1 0x4 ADD PUSH2 0xFA0 SWAP1 PUSH2 0x4E47 JUMP JUMPDEST PUSH1 0x40 MLOAD DUP1 SWAP2 SUB SWAP1 REVERT JUMPDEST PUSH2 0xFB3 CALLER DUP4 PUSH2 0x26AB JUMP JUMPDEST PUSH2 0xFBC CALLER PUSH2 0x27AF JUMP JUMPDEST PUSH2 0xFC6 CALLER DUP3 PUSH2 0x2912 JUMP JUMPDEST POP POP JUMP JUMPDEST PUSH1 0x5 PUSH0 SWAP1 SLOAD SWAP1 PUSH2 0x100 EXP SWAP1 DIV PUSH20 0xFFFFFFFFFFFFFFFFFFFFFFFFFFFFFFFFFFFFFFFF AND DUP2 JUMP JUMPDEST PUSH1 0xF PUSH1 0x20 MSTORE DUP1 PUSH0 MSTORE PUSH1 0x40 PUSH0 KECCAK256 PUSH0 SWAP2 POP SLOAD SWAP1 PUSH2 0x100 EXP SWAP1 DIV PUSH1 0xFF AND DUP2 JUMP JUMPDEST PUSH2 0x1014 PUSH2 0x2661 JUMP JUMPDEST PUSH0 GAS SWAP1 POP PUSH2 0x1022 CALLER DUP4 PUSH2 0x26AB JUMP JUMPDEST PUSH2 0x102B CALLER PUSH2 0x27AF JUMP JUMPDEST PUSH2 0x1035 CALLER DUP3 PUSH2 0x2912 JUMP JUMPDEST POP POP JUMP JUMPDEST PUSH1 0x4 PUSH0 SWAP1 SLOAD SWAP1 PUSH2 0x100 EXP SWAP1 DIV PUSH20 0xFFFFFFFFFFFFFFFFFFFFFFFFFFFFFFFFFFFFFFFF AND DUP2 JUMP JUMPDEST PUSH2 0x1066 PUSH2 0x2661 JUMP JUMPDEST PUSH0 PUSH1 0x18 PUSH0 CALLER PUSH20 0xFFFFFFFFFFFFFFFFFFFFFFFFFFFFFFFFFFFFFFFF AND PUSH20 0xFFFFFFFFFFFFFFFFFFFFFFFFFFFFFFFFFFFFFFFF AND DUP2 MSTORE PUSH1 0x20 ADD SWAP1 DUP2 MSTORE PUSH1 0x20 ADD PUSH0 KECCAK256 SWAP1 POP DUP2 DUP2 PUSH1 0x2 ADD SLOAD LT ISZERO PUSH2 0x10ED JUMPI PUSH1 0x40 MLOAD PUSH32 0x8C379A000000000000000000000000000000000000000000000000000000000 DUP2 MSTORE PUSH1 0x4 ADD PUSH2 0x10E4 SWAP1 PUSH2 0x4EAF JUMP JUMPDEST PUSH1 0x40 MLOAD DUP1 SWAP2 SUB SWAP1 REVERT JUMPDEST DUP2 DUP2 PUSH1 0x2 ADD PUSH0 DUP3 DUP3 SLOAD PUSH2 0x1100 SWAP2 SWAP1 PUSH2 0x4EFA JUMP JUMPDEST SWAP3 POP POP DUP2 SWAP1 SSTORE POP PUSH2 0x1114 DUP2 PUSH1 0x2 ADD SLOAD PUSH2 0x29F5 JUMP JUMPDEST DUP2 PUSH1 0x3 ADD PUSH0 PUSH2 0x100 EXP DUP2 SLOAD DUP2 PUSH1 0xFF MUL NOT AND SWAP1 DUP4 PUSH1 0x4 DUP2 GT ISZERO PUSH2 0x1139 JUMPI PUSH2 0x1138 PUSH2 0x4791 JUMP JUMPDEST JUMPDEST MUL OR SWAP1 SSTORE POP DUP2 PUSH1 0x11 PUSH0 CALLER PUSH20 0xFFFFFFFFFFFFFFFFFFFFFFFFFFFFFFFFFFFFFFFF AND PUSH20 0xFFFFFFFFFFFFFFFFFFFFFFFFFFFFFFFFFFFFFFFF AND DUP2 MSTORE PUSH1 0x20 ADD SWAP1 DUP2 MSTORE PUSH1 0x20 ADD PUSH0 KECCAK256 DUP2 SWAP1 SSTORE POP PUSH1 0x10 SLOAD TIMESTAMP PUSH2 0x118E SWAP2 SWAP1 PUSH2 0x4F2D JUMP JUMPDEST PUSH1 0x12 PUSH0 CALLER PUSH20 0xFFFFFFFFFFFFFFFFFFFFFFFFFFFFFFFFFFFFFFFF AND PUSH20 0xFFFFFFFFFFFFFFFFFFFFFFFFFFFFFFFFFFFFFFFF AND DUP2 MSTORE PUSH1 0x20 ADD SWAP1 DUP2 MSTORE PUSH1 0x20 ADD PUSH0 KECCAK256 DUP2 SWAP1 SSTORE POP CALLER PUSH20 0xFFFFFFFFFFFFFFFFFFFFFFFFFFFFFFFFFFFFFFFF AND PUSH32 0x828764C21E74C28710E19919735825ABA966621C95CBD913F8ED65A2D298F48C DUP4 PUSH1 0x40 MLOAD PUSH2 0x1215 SWAP2 SWAP1 PUSH2 0x4329 JUMP JUMPDEST PUSH1 0x40 MLOAD DUP1 SWAP2 SUB SWAP1 LOG2 POP POP JUMP JUMPDEST PUSH0 PUSH1 0x2 PUSH0 DUP4 DUP2 MSTORE PUSH1 0x20 ADD SWAP1 DUP2 MSTORE PUSH1 0x20 ADD PUSH0 KECCAK256 PUSH1 0x1 ADD SLOAD SWAP1 POP SWAP2 SWAP1 POP JUMP JUMPDEST PUSH1 0xE SLOAD DUP2 JUMP JUMPDEST PUSH2 0x124D DUP3 PUSH2 0x1221 JUMP JUMPDEST PUSH2 0x1256 DUP2 PUSH2 0x2A56 JUMP JUMPDEST PUSH2 0x1260 DUP4 DUP4 PUSH2 0x2A6A JUMP JUMPDEST POP POP POP POP JUMP JUMPDEST PUSH1 0x12 PUSH1 0x20 MSTORE DUP1 PUSH0 MSTORE PUSH1 0x40 PUSH0 KECCAK256 PUSH0 SWAP2 POP SWAP1 POP SLOAD DUP2 JUMP JUMPDEST PUSH2 0x1283 PUSH2 0x2B54 JUMP JUMPDEST PUSH20 0xFFFFFFFFFFFFFFFFFFFFFFFFFFFFFFFFFFFFFFFF AND DUP2 PUSH20 0xFFFFFFFFFFFFFFFFFFFFFFFFFFFFFFFFFFFFFFFF AND EQ PUSH2 0x12E7 JUMPI PUSH1 0x40 MLOAD PUSH32 0x6697B23200000000000000000000000000000000000000000000000000000000 DUP2 MSTORE PUSH1 0x4 ADD PUSH1 0x40 MLOAD DUP1 SWAP2 SUB SWAP1 REVERT JUMPDEST PUSH2 0x12F1 DUP3 DUP3 PUSH2 0x2B5B JUMP JUMPDEST POP POP POP JUMP JUMPDEST PUSH1 0xC SLOAD DUP2 JUMP JUMPDEST PUSH32 0x65D7A28E3265B37A6474929F336521B332C1681B933F6CB9F3376673440D862A PUSH2 0x1326 DUP2 PUSH2 0x2A56 JUMP JUMPDEST PUSH2 0x132E PUSH2 0x2C45 JUMP JUMPDEST POP JUMP JUMPDEST PUSH1 0x9 SLOAD DUP2 JUMP JUMPDEST PUSH2 0x133F PUSH2 0x2661 JUMP JUMPDEST PUSH2 0x138C CALLER ADDRESS DUP5 PUSH32 0x0 PUSH20 0xFFFFFFFFFFFFFFFFFFFFFFFFFFFFFFFFFFFFFFFF AND PUSH2 0x2CA6 SWAP1 SWAP4 SWAP3 SWAP2 SWAP1 PUSH4 0xFFFFFFFF AND JUMP JUMPDEST PUSH1 0x40 MLOAD DUP1 PUSH1 0x40 ADD PUSH1 0x40 MSTORE DUP1 DUP4 DUP2 MSTORE PUSH1 0x20 ADD DUP3 TIMESTAMP PUSH2 0x13A9 SWAP2 SWAP1 PUSH2 0x4F2D JUMP JUMPDEST DUP2 MSTORE POP PUSH1 0x13 PUSH0 CALLER PUSH20 0xFFFFFFFFFFFFFFFFFFFFFFFFFFFFFFFFFFFFFFFF AND PUSH20 0xFFFFFFFFFFFFFFFFFFFFFFFFFFFFFFFFFFFFFFFF AND DUP2 MSTORE PUSH1 0x20 ADD SWAP1 DUP2 MSTORE PUSH1 0x20 ADD PUSH0 KECCAK256 PUSH0 DUP3 ADD MLOAD DUP2 PUSH0 ADD SSTORE PUSH1 0x20 DUP3 ADD MLOAD DUP2 PUSH1 0x1 ADD SSTORE SWAP1 POP POP POP POP JUMP JUMPDEST PUSH32 0x7935BD0AE54BC31F548C14DBA4D37C5C64B3F8CA900CB468FB8ABD54D5894F55 PUSH2 0x142C DUP2 PUSH2 0x2A56 JUMP JUMPDEST PUSH0 PUSH1 0xB SLOAD PUSH1 0xD SLOAD PUSH1 0x40 MLOAD PUSH1 0x20 ADD PUSH2 0x1444 SWAP3 SWAP2 SWAP1 PUSH2 0x4D16 JUMP JUMPDEST PUSH1 0x40 MLOAD PUSH1 0x20 DUP2 DUP4 SUB SUB DUP2 MSTORE SWAP1 PUSH1 0x40 MSTORE SWAP1 POP PUSH1 0x6 PUSH0 SWAP1 SLOAD SWAP1 PUSH2 0x100 EXP SWAP1 DIV PUSH20 0xFFFFFFFFFFFFFFFFFFFFFFFFFFFFFFFFFFFFFFFF AND PUSH20 0xFFFFFFFFFFFFFFFFFFFFFFFFFFFFFFFFFFFFFFFF AND PUSH4 0x9CA4A0A2 CALLVALUE DUP6 DUP5 CALLER PUSH0 PUSH1 0x40 MLOAD DUP7 PUSH4 0xFFFFFFFF AND PUSH1 0xE0 SHL DUP2 MSTORE PUSH1 0x4 ADD PUSH2 0x14B6 SWAP5 SWAP4 SWAP3 SWAP2 SWAP1 PUSH2 0x4FFA JUMP JUMPDEST PUSH0 PUSH1 0x40 MLOAD DUP1 DUP4 SUB DUP2 DUP6 DUP9 DUP1 EXTCODESIZE ISZERO DUP1 ISZERO PUSH2 0x14CD JUMPI PUSH0 PUSH0 REVERT JUMPDEST POP GAS CALL ISZERO DUP1 ISZERO PUSH2 0x14DF JUMPI RETURNDATASIZE PUSH0 PUSH0 RETURNDATACOPY RETURNDATASIZE PUSH0 REVERT JUMPDEST POP POP POP POP POP POP POP POP JUMP JUMPDEST PUSH0 PUSH1 0x3 PUSH0 SWAP1 SLOAD SWAP1 PUSH2 0x100 EXP SWAP1 DIV PUSH1 0xFF AND SWAP1 POP SWAP1 JUMP JUMPDEST PUSH2 0x1506 PUSH2 0x2661 JUMP JUMPDEST PUSH0 PUSH1 0x13 PUSH0 DUP4 PUSH20 0xFFFFFFFFFFFFFFFFFFFFFFFFFFFFFFFFFFFFFFFF AND PUSH20 0xFFFFFFFFFFFFFFFFFFFFFFFFFFFFFFFFFFFFFFFF AND DUP2 MSTORE PUSH1 0x20 ADD SWAP1 DUP2 MSTORE PUSH1 0x20 ADD PUSH0 KECCAK256 SWAP1 POP PUSH0 DUP2 PUSH0 ADD SLOAD GT PUSH2 0x158B JUMPI PUSH1 0x40 MLOAD PUSH32 0x8C379A000000000000000000000000000000000000000000000000000000000 DUP2 MSTORE PUSH1 0x4 ADD PUSH2 0x1582 SWAP1 PUSH2 0x50A1 JUMP JUMPDEST PUSH1 0x40 MLOAD DUP1 SWAP2 SUB SWAP1 REVERT JUMPDEST PUSH2 0x15D9 CALLER DUP3 PUSH0 ADD SLOAD PUSH32 0x0 PUSH20 0xFFFFFFFFFFFFFFFFFFFFFFFFFFFFFFFFFFFFFFFF AND PUSH2 0x2D28 SWAP1 SWAP3 SWAP2 SWAP1 PUSH4 0xFFFFFFFF AND JUMP JUMPDEST PUSH1 0x13 PUSH0 DUP4 PUSH20 0xFFFFFFFFFFFFFFFFFFFFFFFFFFFFFFFFFFFFFFFF AND PUSH20 0xFFFFFFFFFFFFFFFFFFFFFFFFFFFFFFFFFFFFFFFF AND DUP2 MSTORE PUSH1 0x20 ADD SWAP1 DUP2 MSTORE PUSH1 0x20 ADD PUSH0 KECCAK256 PUSH0 PUSH0 DUP3 ADD PUSH0 SWAP1 SSTORE PUSH1 0x1 DUP3 ADD PUSH0 SWAP1 SSTORE POP POP POP POP JUMP JUMPDEST PUSH2 0x1632 PUSH2 0x2661 JUMP JUMPDEST PUSH0 PUSH1 0x13 PUSH0 CALLER PUSH20 0xFFFFFFFFFFFFFFFFFFFFFFFFFFFFFFFFFFFFFFFF AND PUSH20 0xFFFFFFFFFFFFFFFFFFFFFFFFFFFFFFFFFFFFFFFF AND DUP2 MSTORE PUSH1 0x20 ADD SWAP1 DUP2 MSTORE PUSH1 0x20 ADD PUSH0 KECCAK256 SWAP1 POP DUP1 PUSH1 0x1 ADD SLOAD TIMESTAMP LT ISZERO PUSH2 0x16B9 JUMPI PUSH1 0x40 MLOAD PUSH32 0x8C379A000000000000000000000000000000000000000000000000000000000 DUP2 MSTORE PUSH1 0x4 ADD PUSH2 0x16B0 SWAP1 PUSH2 0x5109 JUMP JUMPDEST PUSH1 0x40 MLOAD DUP1 SWAP2 SUB SWAP1 REVERT JUMPDEST PUSH2 0x1707 CALLER DUP3 PUSH0 ADD SLOAD PUSH32 0x0 PUSH20 0xFFFFFFFFFFFFFFFFFFFFFFFFFFFFFFFFFFFFFFFF AND PUSH2 0x2D28 SWAP1 SWAP3 SWAP2 SWAP1 PUSH4 0xFFFFFFFF AND JUMP JUMPDEST PUSH1 0x13 PUSH0 CALLER PUSH20 0xFFFFFFFFFFFFFFFFFFFFFFFFFFFFFFFFFFFFFFFF AND PUSH20 0xFFFFFFFFFFFFFFFFFFFFFFFFFFFFFFFFFFFFFFFF AND DUP2 MSTORE PUSH1 0x20 ADD SWAP1 DUP2 MSTORE PUSH1 0x20 ADD PUSH0 KECCAK256 PUSH0 PUSH0 DUP3 ADD PUSH0 SWAP1 SSTORE PUSH1 0x1 DUP3 ADD PUSH0 SWAP1 SSTORE POP POP POP JUMP JUMPDEST PUSH32 0xD47F8513DE5C0F6D90A8E751907DF996F612C11328C0D9D7B92D573D2284E982 DUP2 JUMP JUMPDEST PUSH2 0x1783 PUSH2 0x2661 JUMP JUMPDEST PUSH0 GAS SWAP1 POP PUSH2 0x1792 DUP5 DUP5 DUP5 PUSH2 0x2DA7 JUMP JUMPDEST PUSH2 0x179C CALLER DUP3 PUSH2 0x2912 JUMP JUMPDEST POP POP POP POP JUMP JUMPDEST PUSH1 0xB SLOAD DUP2 JUMP JUMPDEST PUSH32 0x7935BD0AE54BC31F548C14DBA4D37C5C64B3F8CA900CB468FB8ABD54D5894F55 PUSH2 0x17D2 DUP2 PUSH2 0x2A56 JUMP JUMPDEST DUP2 PUSH1 0xE DUP2 SWAP1 SSTORE POP POP POP JUMP JUMPDEST PUSH1 0x19 PUSH1 0x20 MSTORE DUP1 PUSH0 MSTORE PUSH1 0x40 PUSH0 KECCAK256 PUSH0 SWAP2 POP SWAP1 POP SLOAD DUP2 JUMP JUMPDEST PUSH1 0x10 SLOAD DUP2 JUMP JUMPDEST PUSH1 0xA SLOAD DUP2 JUMP JUMPDEST PUSH32 0x65D7A28E3265B37A6474929F336521B332C1681B933F6CB9F3376673440D862A PUSH2 0x1828 DUP2 PUSH2 0x2A56 JUMP JUMPDEST PUSH2 0x1830 PUSH2 0x2FF5 JUMP JUMPDEST POP JUMP JUMPDEST PUSH2 0x183B PUSH2 0x2661 JUMP JUMPDEST PUSH0 PUSH1 0x11 PUSH0 CALLER PUSH20 0xFFFFFFFFFFFFFFFFFFFFFFFFFFFFFFFFFFFFFFFF AND PUSH20 0xFFFFFFFFFFFFFFFFFFFFFFFFFFFFFFFFFFFFFFFF AND DUP2 MSTORE PUSH1 0x20 ADD SWAP1 DUP2 MSTORE PUSH1 0x20 ADD PUSH0 KECCAK256 SLOAD SWAP1 POP PUSH0 DUP2 GT PUSH2 0x18BE JUMPI PUSH1 0x40 MLOAD PUSH32 0x8C379A000000000000000000000000000000000000000000000000000000000 DUP2 MSTORE PUSH1 0x4 ADD PUSH2 0x18B5 SWAP1 PUSH2 0x5171 JUMP JUMPDEST PUSH1 0x40 MLOAD DUP1 SWAP2 SUB SWAP1 REVERT JUMPDEST PUSH1 0x12 PUSH0 CALLER PUSH20 0xFFFFFFFFFFFFFFFFFFFFFFFFFFFFFFFFFFFFFFFF AND PUSH20 0xFFFFFFFFFFFFFFFFFFFFFFFFFFFFFFFFFFFFFFFF AND DUP2 MSTORE PUSH1 0x20 ADD SWAP1 DUP2 MSTORE PUSH1 0x20 ADD PUSH0 KECCAK256 SLOAD TIMESTAMP LT ISZERO PUSH2 0x193E JUMPI PUSH1 0x40 MLOAD PUSH32 0x8C379A000000000000000000000000000000000000000000000000000000000 DUP2 MSTORE PUSH1 0x4 ADD PUSH2 0x1935 SWAP1 PUSH2 0x51D9 JUMP JUMPDEST PUSH1 0x40 MLOAD DUP1 SWAP2 SUB SWAP1 REVERT JUMPDEST PUSH1 0x11 PUSH0 CALLER PUSH20 0xFFFFFFFFFFFFFFFFFFFFFFFFFFFFFFFFFFFFFFFF AND PUSH20 0xFFFFFFFFFFFFFFFFFFFFFFFFFFFFFFFFFFFFFFFF AND DUP2 MSTORE PUSH1 0x20 ADD SWAP1 DUP2 MSTORE PUSH1 0x20 ADD PUSH0 KECCAK256 PUSH0 SWAP1 SSTORE PUSH1 0x12 PUSH0 CALLER PUSH20 0xFFFFFFFFFFFFFFFFFFFFFFFFFFFFFFFFFFFFFFFF AND PUSH20 0xFFFFFFFFFFFFFFFFFFFFFFFFFFFFFFFFFFFFFFFF AND DUP2 MSTORE PUSH1 0x20 ADD SWAP1 DUP2 MSTORE PUSH1 0x20 ADD PUSH0 KECCAK256 PUSH0 SWAP1 SSTORE PUSH2 0x1A09 CALLER DUP3 PUSH32 0x0 PUSH20 0xFFFFFFFFFFFFFFFFFFFFFFFFFFFFFFFFFFFFFFFF AND PUSH2 0x2D28 SWAP1 SWAP3 SWAP2 SWAP1 PUSH4 0xFFFFFFFF AND JUMP JUMPDEST CALLER PUSH20 0xFFFFFFFFFFFFFFFFFFFFFFFFFFFFFFFFFFFFFFFF AND PUSH32 0xE3E01BAE44EB85A30BD61C3742B60E379576FF5070A142675F575F53D5BBC2E4 DUP3 PUSH1 0x40 MLOAD PUSH2 0x1A4F SWAP2 SWAP1 PUSH2 0x4329 JUMP JUMPDEST PUSH1 0x40 MLOAD DUP1 SWAP2 SUB SWAP1 LOG2 POP JUMP JUMPDEST PUSH0 PUSH1 0x60 DUP1 PUSH0 PUSH0 PUSH0 PUSH1 0x60 PUSH2 0x1A6B PUSH2 0x3057 JUMP JUMPDEST PUSH2 0x1A73 PUSH2 0x3091 JUMP JUMPDEST CHAINID ADDRESS PUSH0 PUSH0 SHL PUSH0 PUSH8 0xFFFFFFFFFFFFFFFF DUP2 GT ISZERO PUSH2 0x1A92 JUMPI PUSH2 0x1A91 PUSH2 0x51F7 JUMP JUMPDEST JUMPDEST PUSH1 0x40 MLOAD SWAP1 DUP1 DUP3 MSTORE DUP1 PUSH1 0x20 MUL PUSH1 0x20 ADD DUP3 ADD PUSH1 0x40 MSTORE DUP1 ISZERO PUSH2 0x1AC0 JUMPI DUP2 PUSH1 0x20 ADD PUSH1 0x20 DUP3 MUL DUP1 CALLDATASIZE DUP4 CALLDATACOPY DUP1 DUP3 ADD SWAP2 POP POP SWAP1 POP JUMPDEST POP PUSH32 0xF00000000000000000000000000000000000000000000000000000000000000 SWAP6 SWAP5 SWAP4 SWAP3 SWAP2 SWAP1 SWAP7 POP SWAP7 POP SWAP7 POP SWAP7 POP SWAP7 POP SWAP7 POP SWAP7 POP SWAP1 SWAP2 SWAP3 SWAP4 SWAP5 SWAP6 SWAP7 JUMP JUMPDEST PUSH0 PUSH2 0x1B08 PUSH2 0x2661 JUMP JUMPDEST PUSH32 0x0 PUSH20 0xFFFFFFFFFFFFFFFFFFFFFFFFFFFFFFFFFFFFFFFF AND CALLER PUSH20 0xFFFFFFFFFFFFFFFFFFFFFFFFFFFFFFFFFFFFFFFF AND EQ PUSH2 0x1B96 JUMPI PUSH1 0x40 MLOAD PUSH32 0x8C379A000000000000000000000000000000000000000000000000000000000 DUP2 MSTORE PUSH1 0x4 ADD PUSH2 0x1B8D SWAP1 PUSH2 0x526E JUMP JUMPDEST PUSH1 0x40 MLOAD DUP1 SWAP2 SUB SWAP1 REVERT JUMPDEST PUSH2 0x1BA0 DUP6 DUP6 PUSH2 0x30CC JUMP JUMPDEST PUSH4 0x88A7CA5C PUSH1 0xE0 SHL SWAP1 POP SWAP6 SWAP5 POP POP POP POP POP JUMP JUMPDEST PUSH32 0x0 DUP2 JUMP JUMPDEST PUSH0 PUSH1 0x2 PUSH0 DUP5 DUP2 MSTORE PUSH1 0x20 ADD SWAP1 DUP2 MSTORE PUSH1 0x20 ADD PUSH0 KECCAK256 PUSH0 ADD PUSH0 DUP4 PUSH20 0xFFFFFFFFFFFFFFFFFFFFFFFFFFFFFFFFFFFFFFFF AND PUSH20 0xFFFFFFFFFFFFFFFFFFFFFFFFFFFFFFFFFFFFFFFF AND DUP2 MSTORE PUSH1 0x20 ADD SWAP1 DUP2 MSTORE PUSH1 0x20 ADD PUSH0 KECCAK256 PUSH0 SWAP1 SLOAD SWAP1 PUSH2 0x100 EXP SWAP1 DIV PUSH1 0xFF AND SWAP1 POP SWAP3 SWAP2 POP POP JUMP JUMPDEST PUSH2 0x1C43 PUSH2 0x2661 JUMP JUMPDEST PUSH0 GAS SWAP1 POP PUSH1 0x3 PUSH1 0x1 SWAP1 SLOAD SWAP1 PUSH2 0x100 EXP SWAP1 DIV PUSH20 0xFFFFFFFFFFFFFFFFFFFFFFFFFFFFFFFFFFFFFFFF AND PUSH20 0xFFFFFFFFFFFFFFFFFFFFFFFFFFFFFFFFFFFFFFFF AND PUSH4 0xAEE150C7 DUP5 DUP5 PUSH1 0xB SLOAD CALLER PUSH1 0x40 MLOAD DUP6 PUSH4 0xFFFFFFFF AND PUSH1 0xE0 SHL DUP2 MSTORE PUSH1 0x4 ADD PUSH2 0x1CAA SWAP5 SWAP4 SWAP3 SWAP2 SWAP1 PUSH2 0x52C6 JUMP JUMPDEST PUSH1 0x20 PUSH1 0x40 MLOAD DUP1 DUP4 SUB DUP2 DUP7 GAS STATICCALL ISZERO DUP1 ISZERO PUSH2 0x1CC5 JUMPI RETURNDATASIZE PUSH0 PUSH0 RETURNDATACOPY RETURNDATASIZE PUSH0 REVERT JUMPDEST POP POP POP POP PUSH1 0x40 MLOAD RETURNDATASIZE PUSH1 0x1F NOT PUSH1 0x1F DUP3 ADD AND DUP3 ADD DUP1 PUSH1 0x40 MSTORE POP DUP2 ADD SWAP1 PUSH2 0x1CE9 SWAP2 SWAP1 PUSH2 0x4DD2 JUMP JUMPDEST PUSH2 0x1D28 JUMPI PUSH1 0x40 MLOAD PUSH32 0x8C379A000000000000000000000000000000000000000000000000000000000 DUP2 MSTORE PUSH1 0x4 ADD PUSH2 0x1D1F SWAP1 PUSH2 0x534E JUMP JUMPDEST PUSH1 0x40 MLOAD DUP1 SWAP2 SUB SWAP1 REVERT JUMPDEST PUSH2 0x1D32 CALLER DUP6 PUSH2 0x26AB JUMP JUMPDEST PUSH2 0x1D3B CALLER PUSH2 0x27AF JUMP JUMPDEST PUSH2 0x1D45 CALLER DUP3 PUSH2 0x2912 JUMP JUMPDEST POP POP POP POP JUMP JUMPDEST PUSH32 0x7935BD0AE54BC31F548C14DBA4D37C5C64B3F8CA900CB468FB8ABD54D5894F55 PUSH2 0x1D75 DUP2 PUSH2 0x2A56 JUMP JUMPDEST DUP2 PUSH1 0x8 DUP2 SWAP1 SSTORE POP POP POP JUMP JUMPDEST PUSH0 PUSH0 SHL DUP2 JUMP JUMPDEST PUSH1 0x15 SLOAD DUP2 JUMP JUMPDEST PUSH1 0x18 PUSH1 0x20 MSTORE DUP1 PUSH0 MSTORE PUSH1 0x40 PUSH0 KECCAK256 PUSH0 SWAP2 POP SWAP1 POP DUP1 PUSH0 ADD SLOAD SWAP1 DUP1 PUSH1 0x1 ADD SLOAD SWAP1 DUP1 PUSH1 0x2 ADD SLOAD SWAP1 DUP1 PUSH1 0x3 ADD PUSH0 SWAP1 SLOAD SWAP1 PUSH2 0x100 EXP SWAP1 DIV PUSH1 0xFF AND SWAP1 DUP1 PUSH1 0x4 ADD SLOAD SWAP1 DUP1 PUSH1 0x5 ADD PUSH0 SWAP1 SLOAD SWAP1 PUSH2 0x100 EXP SWAP1 DIV PUSH20 0xFFFFFFFFFFFFFFFFFFFFFFFFFFFFFFFFFFFFFFFF AND SWAP1 DUP1 PUSH1 0x5 ADD PUSH1 0x14 SWAP1 SLOAD SWAP1 PUSH2 0x100 EXP SWAP1 DIV PUSH1 0xFF AND SWAP1 POP DUP8 JUMP JUMPDEST PUSH1 0x60 PUSH2 0x1E0C PUSH2 0x2661 JUMP JUMPDEST DUP3 DUP3 SWAP1 POP PUSH8 0xFFFFFFFFFFFFFFFF DUP2 GT ISZERO PUSH2 0x1E29 JUMPI PUSH2 0x1E28 PUSH2 0x51F7 JUMP JUMPDEST JUMPDEST PUSH1 0x40 MLOAD SWAP1 DUP1 DUP3 MSTORE DUP1 PUSH1 0x20 MUL PUSH1 0x20 ADD DUP3 ADD PUSH1 0x40 MSTORE DUP1 ISZERO PUSH2 0x1E5C JUMPI DUP2 PUSH1 0x20 ADD JUMPDEST PUSH1 0x60 DUP2 MSTORE PUSH1 0x20 ADD SWAP1 PUSH1 0x1 SWAP1 SUB SWAP1 DUP2 PUSH2 0x1E47 JUMPI SWAP1 POP JUMPDEST POP SWAP1 POP PUSH0 PUSH0 SWAP1 POP JUMPDEST DUP4 DUP4 SWAP1 POP DUP2 LT ISZERO PUSH2 0x1F6C JUMPI PUSH0 PUSH0 ADDRESS PUSH20 0xFFFFFFFFFFFFFFFFFFFFFFFFFFFFFFFFFFFFFFFF AND DUP7 DUP7 DUP6 DUP2 DUP2 LT PUSH2 0x1E9B JUMPI PUSH2 0x1E9A PUSH2 0x536C JUMP JUMPDEST JUMPDEST SWAP1 POP PUSH1 0x20 MUL DUP2 ADD SWAP1 PUSH2 0x1EAD SWAP2 SWAP1 PUSH2 0x53A5 JUMP JUMPDEST PUSH1 0x40 MLOAD PUSH2 0x1EBB SWAP3 SWAP2 SWAP1 PUSH2 0x5435 JUMP JUMPDEST PUSH0 PUSH1 0x40 MLOAD DUP1 DUP4 SUB DUP2 PUSH0 DUP7 GAS CALL SWAP2 POP POP RETURNDATASIZE DUP1 PUSH0 DUP2 EQ PUSH2 0x1EF4 JUMPI PUSH1 0x40 MLOAD SWAP2 POP PUSH1 0x1F NOT PUSH1 0x3F RETURNDATASIZE ADD AND DUP3 ADD PUSH1 0x40 MSTORE RETURNDATASIZE DUP3 MSTORE RETURNDATASIZE PUSH0 PUSH1 0x20 DUP5 ADD RETURNDATACOPY PUSH2 0x1EF9 JUMP JUMPDEST PUSH1 0x60 SWAP2 POP JUMPDEST POP SWAP2 POP SWAP2 POP DUP2 PUSH2 0x1F3E JUMPI PUSH1 0x40 MLOAD PUSH32 0x8C379A000000000000000000000000000000000000000000000000000000000 DUP2 MSTORE PUSH1 0x4 ADD PUSH2 0x1F35 SWAP1 PUSH2 0x5497 JUMP JUMPDEST PUSH1 0x40 MLOAD DUP1 SWAP2 SUB SWAP1 REVERT JUMPDEST DUP1 DUP5 DUP5 DUP2 MLOAD DUP2 LT PUSH2 0x1F52 JUMPI PUSH2 0x1F51 PUSH2 0x536C JUMP JUMPDEST JUMPDEST PUSH1 0x20 MUL PUSH1 0x20 ADD ADD DUP2 SWAP1 MSTORE POP POP POP DUP1 DUP1 PUSH1 0x1 ADD SWAP2 POP POP PUSH2 0x1E64 JUMP JUMPDEST POP SWAP3 SWAP2 POP POP JUMP JUMPDEST PUSH2 0x1F7B PUSH2 0x2661 JUMP JUMPDEST PUSH0 PUSH1 0x14 PUSH0 CALLER PUSH20 0xFFFFFFFFFFFFFFFFFFFFFFFFFFFFFFFFFFFFFFFF AND PUSH20 0xFFFFFFFFFFFFFFFFFFFFFFFFFFFFFFFFFFFFFFFF AND DUP2 MSTORE PUSH1 0x20 ADD SWAP1 DUP2 MSTORE PUSH1 0x20 ADD PUSH0 KECCAK256 SWAP1 POP DUP1 PUSH1 0x1 ADD SLOAD DUP2 PUSH0 ADD SLOAD GT PUSH2 0x2004 JUMPI PUSH1 0x40 MLOAD PUSH32 0x8C379A000000000000000000000000000000000000000000000000000000000 DUP2 MSTORE PUSH1 0x4 ADD PUSH2 0x1FFB SWAP1 PUSH2 0x54FF JUMP JUMPDEST PUSH1 0x40 MLOAD DUP1 SWAP2 SUB SWAP1 REVERT JUMPDEST PUSH0 PUSH2 0x200E DUP3 PUSH2 0x31C2 JUMP JUMPDEST SWAP1 POP PUSH0 DUP2 GT PUSH2 0x2052 JUMPI PUSH1 0x40 MLOAD PUSH32 0x8C379A000000000000000000000000000000000000000000000000000000000 DUP2 MSTORE PUSH1 0x4 ADD PUSH2 0x2049 SWAP1 PUSH2 0x5567 JUMP JUMPDEST PUSH1 0x40 MLOAD DUP1 SWAP2 SUB SWAP1 REVERT JUMPDEST DUP1 DUP3 PUSH1 0x1 ADD PUSH0 DUP3 DUP3 SLOAD PUSH2 0x2065 SWAP2 SWAP1 PUSH2 0x4F2D JUMP JUMPDEST SWAP3 POP POP DUP2 SWAP1 SSTORE POP PUSH2 0x20B7 CALLER DUP3 PUSH32 0x0 PUSH20 0xFFFFFFFFFFFFFFFFFFFFFFFFFFFFFFFFFFFFFFFF AND PUSH2 0x2D28 SWAP1 SWAP3 SWAP2 SWAP1 PUSH4 0xFFFFFFFF AND JUMP JUMPDEST CALLER PUSH20 0xFFFFFFFFFFFFFFFFFFFFFFFFFFFFFFFFFFFFFFFF AND PUSH32 0xF295D7B1DC83525860D9A2626877F603A897F06BB6533C5A1DDFFA679868DC98 DUP3 PUSH1 0x40 MLOAD PUSH2 0x20FD SWAP2 SWAP1 PUSH2 0x4329 JUMP JUMPDEST PUSH1 0x40 MLOAD DUP1 SWAP2 SUB SWAP1 LOG2 POP POP JUMP JUMPDEST PUSH1 0x6 PUSH0 SWAP1 SLOAD SWAP1 PUSH2 0x100 EXP SWAP1 DIV PUSH20 0xFFFFFFFFFFFFFFFFFFFFFFFFFFFFFFFFFFFFFFFF AND DUP2 JUMP JUMPDEST PUSH1 0x16 SLOAD DUP2 JUMP JUMPDEST PUSH32 0x7935BD0AE54BC31F548C14DBA4D37C5C64B3F8CA900CB468FB8ABD54D5894F55 DUP2 JUMP JUMPDEST PUSH2 0x2160 PUSH2 0x2661 JUMP JUMPDEST PUSH0 GAS SWAP1 POP PUSH2 0x2170 DUP6 DUP6 DUP6 DUP6 PUSH2 0x3224 JUMP JUMPDEST PUSH2 0x217A CALLER DUP6 PUSH2 0x26AB JUMP JUMPDEST PUSH2 0x2183 CALLER PUSH2 0x27AF JUMP JUMPDEST PUSH2 0x218D CALLER DUP3 PUSH2 0x2912 JUMP JUMPDEST POP POP POP POP POP JUMP JUMPDEST PUSH2 0x219D DUP3 PUSH2 0x1221 JUMP JUMPDEST PUSH2 0x21A6 DUP2 PUSH2 0x2A56 JUMP JUMPDEST PUSH2 0x21B0 DUP4 DUP4 PUSH2 0x2B5B JUMP JUMPDEST POP POP POP POP JUMP JUMPDEST PUSH1 0x8 SLOAD DUP2 JUMP JUMPDEST PUSH1 0x11 PUSH1 0x20 MSTORE DUP1 PUSH0 MSTORE PUSH1 0x40 PUSH0 KECCAK256 PUSH0 SWAP2 POP SWAP1 POP SLOAD DUP2 JUMP JUMPDEST PUSH1 0x3 PUSH1 0x1 SWAP1 SLOAD SWAP1 PUSH2 0x100 EXP SWAP1 DIV PUSH20 0xFFFFFFFFFFFFFFFFFFFFFFFFFFFFFFFFFFFFFFFF AND DUP2 JUMP JUMPDEST PUSH0 PUSH1 0x5 PUSH0 SWAP1 SLOAD SWAP1 PUSH2 0x100 EXP SWAP1 DIV PUSH20 0xFFFFFFFFFFFFFFFFFFFFFFFFFFFFFFFFFFFFFFFF AND PUSH20 0xFFFFFFFFFFFFFFFFFFFFFFFFFFFFFFFFFFFFFFFF AND PUSH4 0x774023DE DUP5 CHAINID ADDRESS DUP7 PUSH1 0x40 MLOAD DUP6 PUSH4 0xFFFFFFFF AND PUSH1 0xE0 SHL DUP2 MSTORE PUSH1 0x4 ADD PUSH2 0x2258 SWAP5 SWAP4 SWAP3 SWAP2 SWAP1 PUSH2 0x5585 JUMP JUMPDEST PUSH1 0x20 PUSH1 0x40 MLOAD DUP1 DUP4 SUB DUP2 DUP7 GAS STATICCALL ISZERO DUP1 ISZERO PUSH2 0x2273 JUMPI RETURNDATASIZE PUSH0 PUSH0 RETURNDATACOPY RETURNDATASIZE PUSH0 REVERT JUMPDEST POP POP POP POP PUSH1 0x40 MLOAD RETURNDATASIZE PUSH1 0x1F NOT PUSH1 0x1F DUP3 ADD AND DUP3 ADD DUP1 PUSH1 0x40 MSTORE POP DUP2 ADD SWAP1 PUSH2 0x2297 SWAP2 SWAP1 PUSH2 0x55DC JUMP JUMPDEST SWAP1 POP PUSH0 PUSH20 0xFFFFFFFFFFFFFFFFFFFFFFFFFFFFFFFFFFFFFFFF AND DUP2 PUSH20 0xFFFFFFFFFFFFFFFFFFFFFFFFFFFFFFFFFFFFFFFF AND SUB PUSH2 0x2307 JUMPI PUSH1 0x40 MLOAD PUSH32 0x8C379A000000000000000000000000000000000000000000000000000000000 DUP2 MSTORE PUSH1 0x4 ADD PUSH2 0x22FE SWAP1 PUSH2 0x5651 JUMP JUMPDEST PUSH1 0x40 MLOAD DUP1 SWAP2 SUB SWAP1 REVERT JUMPDEST DUP1 PUSH1 0x18 PUSH0 CALLER PUSH20 0xFFFFFFFFFFFFFFFFFFFFFFFFFFFFFFFFFFFFFFFF AND PUSH20 0xFFFFFFFFFFFFFFFFFFFFFFFFFFFFFFFFFFFFFFFF AND DUP2 MSTORE PUSH1 0x20 ADD SWAP1 DUP2 MSTORE PUSH1 0x20 ADD PUSH0 KECCAK256 PUSH1 0x5 ADD PUSH0 PUSH2 0x100 EXP DUP2 SLOAD DUP2 PUSH20 0xFFFFFFFFFFFFFFFFFFFFFFFFFFFFFFFFFFFFFFFF MUL NOT AND SWAP1 DUP4 PUSH20 0xFFFFFFFFFFFFFFFFFFFFFFFFFFFFFFFFFFFFFFFF AND MUL OR SWAP1 SSTORE POP POP POP POP JUMP JUMPDEST PUSH32 0x65D7A28E3265B37A6474929F336521B332C1681B933F6CB9F3376673440D862A DUP2 JUMP JUMPDEST PUSH1 0x17 SLOAD DUP2 JUMP JUMPDEST PUSH2 0x23BC PUSH2 0x2661 JUMP JUMPDEST DUP1 PUSH1 0x18 PUSH0 CALLER PUSH20 0xFFFFFFFFFFFFFFFFFFFFFFFFFFFFFFFFFFFFFFFF AND PUSH20 0xFFFFFFFFFFFFFFFFFFFFFFFFFFFFFFFFFFFFFFFF AND DUP2 MSTORE PUSH1 0x20 ADD SWAP1 DUP2 MSTORE PUSH1 0x20 ADD PUSH0 KECCAK256 PUSH1 0x5 ADD PUSH1 0x14 PUSH2 0x100 EXP DUP2 SLOAD DUP2 PUSH1 0xFF MUL NOT AND SWAP1 DUP4 ISZERO ISZERO MUL OR SWAP1 SSTORE POP CALLER PUSH20 0xFFFFFFFFFFFFFFFFFFFFFFFFFFFFFFFFFFFFFFFF AND PUSH32 0x72DEFBB28064584321264302489076B65AE61A5C2886D9FA7CF076A60371D5CF DUP3 PUSH1 0x40 MLOAD PUSH2 0x245A SWAP2 SWAP1 PUSH2 0x40AD JUMP JUMPDEST PUSH1 0x40 MLOAD DUP1 SWAP2 SUB SWAP1 LOG2 POP JUMP JUMPDEST PUSH2 0x246D PUSH2 0x2661 JUMP JUMPDEST PUSH32 0x0 PUSH20 0xFFFFFFFFFFFFFFFFFFFFFFFFFFFFFFFFFFFFFFFF AND PUSH4 0xD505ACCF CALLER ADDRESS DUP9 DUP9 DUP9 DUP9 DUP9 PUSH1 0x40 MLOAD DUP9 PUSH4 0xFFFFFFFF AND PUSH1 0xE0 SHL DUP2 MSTORE PUSH1 0x4 ADD PUSH2 0x24D2 SWAP8 SWAP7 SWAP6 SWAP5 SWAP4 SWAP3 SWAP2 SWAP1 PUSH2 0x567E JUMP JUMPDEST PUSH0 PUSH1 0x40 MLOAD DUP1 DUP4 SUB DUP2 PUSH0 DUP8 DUP1 EXTCODESIZE ISZERO DUP1 ISZERO PUSH2 0x24E9 JUMPI PUSH0 PUSH0 REVERT JUMPDEST POP GAS CALL ISZERO DUP1 ISZERO PUSH2 0x24FB JUMPI RETURNDATASIZE PUSH0 PUSH0 RETURNDATACOPY RETURNDATASIZE PUSH0 REVERT JUMPDEST POP POP POP POP PUSH2 0x254C CALLER ADDRESS DUP8 PUSH32 0x0 PUSH20 0xFFFFFFFFFFFFFFFFFFFFFFFFFFFFFFFFFFFFFFFF AND PUSH2 0x2CA6 SWAP1 SWAP4 SWAP3 SWAP2 SWAP1 PUSH4 0xFFFFFFFF AND JUMP JUMPDEST PUSH2 0x2556 CALLER DUP7 PUSH2 0x30CC JUMP JUMPDEST POP POP POP POP POP JUMP JUMPDEST PUSH1 0xD SLOAD DUP2 JUMP JUMPDEST PUSH1 0x14 PUSH1 0x20 MSTORE DUP1 PUSH0 MSTORE PUSH1 0x40 PUSH0 KECCAK256 PUSH0 SWAP2 POP SWAP1 POP DUP1 PUSH0 ADD SLOAD SWAP1 DUP1 PUSH1 0x1 ADD SLOAD SWAP1 DUP1 PUSH1 0x2 ADD SLOAD SWAP1 DUP1 PUSH1 0x3 ADD SLOAD SWAP1 POP DUP5 JUMP JUMPDEST PUSH1 0x7 PUSH0 SWAP1 SLOAD SWAP1 PUSH2 0x100 EXP SWAP1 DIV PUSH20 0xFFFFFFFFFFFFFFFFFFFFFFFFFFFFFFFFFFFFFFFF AND DUP2 JUMP JUMPDEST PUSH32 0x0 DUP2 JUMP JUMPDEST PUSH1 0x13 PUSH1 0x20 MSTORE DUP1 PUSH0 MSTORE PUSH1 0x40 PUSH0 KECCAK256 PUSH0 SWAP2 POP SWAP1 POP DUP1 PUSH0 ADD SLOAD SWAP1 DUP1 PUSH1 0x1 ADD SLOAD SWAP1 POP DUP3 JUMP JUMPDEST PUSH0 PUSH32 0x1FFC9A700000000000000000000000000000000000000000000000000000000 PUSH28 0xFFFFFFFFFFFFFFFFFFFFFFFFFFFFFFFFFFFFFFFFFFFFFFFFFFFFFFFF NOT AND DUP3 PUSH28 0xFFFFFFFFFFFFFFFFFFFFFFFFFFFFFFFFFFFFFFFFFFFFFFFFFFFFFFFF NOT AND EQ SWAP1 POP SWAP2 SWAP1 POP JUMP JUMPDEST PUSH2 0x2669 PUSH2 0x14E9 JUMP JUMPDEST ISZERO PUSH2 0x26A9 JUMPI PUSH1 0x40 MLOAD PUSH32 0x8C379A000000000000000000000000000000000000000000000000000000000 DUP2 MSTORE PUSH1 0x4 ADD PUSH2 0x26A0 SWAP1 PUSH2 0x5735 JUMP JUMPDEST PUSH1 0x40 MLOAD DUP1 SWAP2 SUB SWAP1 REVERT JUMPDEST JUMP JUMPDEST PUSH0 PUSH1 0x18 PUSH0 DUP5 PUSH20 0xFFFFFFFFFFFFFFFFFFFFFFFFFFFFFFFFFFFFFFFF AND PUSH20 0xFFFFFFFFFFFFFFFFFFFFFFFFFFFFFFFFFFFFFFFF AND DUP2 MSTORE PUSH1 0x20 ADD SWAP1 DUP2 MSTORE PUSH1 0x20 ADD PUSH0 KECCAK256 SWAP1 POP PUSH1 0x9 SLOAD PUSH1 0xC SLOAD PUSH2 0x26FB SWAP2 SWAP1 PUSH2 0x4F2D JUMP JUMPDEST TIMESTAMP LT PUSH2 0x2729 JUMPI PUSH1 0xB PUSH0 DUP2 SLOAD DUP1 SWAP3 SWAP2 SWAP1 PUSH2 0x2713 SWAP1 PUSH2 0x5753 JUMP JUMPDEST SWAP2 SWAP1 POP SSTORE POP TIMESTAMP PUSH1 0xC DUP2 SWAP1 SSTORE POP PUSH0 DUP2 PUSH1 0x1 ADD DUP2 SWAP1 SSTORE POP JUMPDEST DUP2 DUP2 PUSH0 ADD PUSH0 DUP3 DUP3 SLOAD PUSH2 0x273B SWAP2 SWAP1 PUSH2 0x4F2D JUMP JUMPDEST SWAP3 POP POP DUP2 SWAP1 SSTORE POP DUP2 DUP2 PUSH1 0x1 ADD PUSH0 DUP3 DUP3 SLOAD PUSH2 0x2755 SWAP2 SWAP1 PUSH2 0x4F2D JUMP JUMPDEST SWAP3 POP POP DUP2 SWAP1 SSTORE POP DUP3 PUSH20 0xFFFFFFFFFFFFFFFFFFFFFFFFFFFFFFFFFFFFFFFF AND PUSH32 0x379842BA09700502A486CCBF48ED8F66AC8E6C9CDD6FFEC9257B0FE53FE987F2 DUP4 PUSH1 0x40 MLOAD PUSH2 0x27A2 SWAP2 SWAP1 PUSH2 0x4329 JUMP JUMPDEST PUSH1 0x40 MLOAD DUP1 SWAP2 SUB SWAP1 LOG2 POP POP POP JUMP JUMPDEST PUSH0 PUSH1 0x18 PUSH0 DUP4 PUSH20 0xFFFFFFFFFFFFFFFFFFFFFFFFFFFFFFFFFFFFFFFF AND PUSH20 0xFFFFFFFFFFFFFFFFFFFFFFFFFFFFFFFFFFFFFFFF AND DUP2 MSTORE PUSH1 0x20 ADD SWAP1 DUP2 MSTORE PUSH1 0x20 ADD PUSH0 KECCAK256 SWAP1 POP PUSH1 0xB SLOAD DUP2 PUSH1 0x4 ADD SLOAD LT PUSH2 0x2837 JUMPI PUSH1 0x40 MLOAD PUSH32 0x8C379A000000000000000000000000000000000000000000000000000000000 DUP2 MSTORE PUSH1 0x4 ADD PUSH2 0x282E SWAP1 PUSH2 0x57E4 JUMP JUMPDEST PUSH1 0x40 MLOAD DUP1 SWAP2 SUB SWAP1 REVERT JUMPDEST PUSH1 0xA SLOAD DUP2 PUSH1 0x1 ADD SLOAD LT ISZERO PUSH2 0x2880 JUMPI PUSH1 0x40 MLOAD PUSH32 0x8C379A000000000000000000000000000000000000000000000000000000000 DUP2 MSTORE PUSH1 0x4 ADD PUSH2 0x2877 SWAP1 PUSH2 0x584C JUMP JUMPDEST PUSH1 0x40 MLOAD DUP1 SWAP2 SUB SWAP1 REVERT JUMPDEST PUSH0 PUSH2 0x288A DUP3 PUSH2 0x3398 JUMP JUMPDEST SWAP1 POP PUSH0 DUP2 GT PUSH2 0x28CE JUMPI PUSH1 0x40 MLOAD PUSH32 0x8C379A000000000000000000000000000000000000000000000000000000000 DUP2 MSTORE PUSH1 0x4 ADD PUSH2 0x28C5 SWAP1 PUSH2 0x58B4 JUMP JUMPDEST PUSH1 0x40 MLOAD DUP1 SWAP2 SUB SWAP1 REVERT JUMPDEST PUSH1 0xB SLOAD DUP3 PUSH1 0x4 ADD DUP2 SWAP1 SSTORE POP DUP1 PUSH1 0xD PUSH0 DUP3 DUP3 SLOAD PUSH2 0x28EA SWAP2 SWAP1 PUSH2 0x4F2D JUMP JUMPDEST SWAP3 POP POP DUP2 SWAP1 SSTORE POP PUSH2 0x290D DUP4 DUP3 DUP5 PUSH1 0x5 ADD PUSH1 0x14 SWAP1 SLOAD SWAP1 PUSH2 0x100 EXP SWAP1 DIV PUSH1 0xFF AND PUSH2 0x33F9 JUMP JUMPDEST POP POP POP JUMP JUMPDEST PUSH0 GAS DUP3 PUSH2 0x291F SWAP2 SWAP1 PUSH2 0x4EFA JUMP JUMPDEST SWAP1 POP PUSH1 0x17 SLOAD DUP2 GT PUSH2 0x29F0 JUMPI PUSH0 PUSH1 0x16 SLOAD DUP3 PUSH2 0x2939 SWAP2 SWAP1 PUSH2 0x58D2 JUMP JUMPDEST SWAP1 POP DUP1 PUSH1 0xD PUSH0 DUP3 DUP3 SLOAD PUSH2 0x294C SWAP2 SWAP1 PUSH2 0x4F2D JUMP JUMPDEST SWAP3 POP POP DUP2 SWAP1 SSTORE POP PUSH2 0x299E DUP5 DUP3 PUSH32 0x0 PUSH20 0xFFFFFFFFFFFFFFFFFFFFFFFFFFFFFFFFFFFFFFFF AND PUSH2 0x2D28 SWAP1 SWAP3 SWAP2 SWAP1 PUSH4 0xFFFFFFFF AND JUMP JUMPDEST DUP4 PUSH20 0xFFFFFFFFFFFFFFFFFFFFFFFFFFFFFFFFFFFFFFFF AND PUSH32 0x6A1205D021D40B6588646695D13102757B80C2F232B61AA671CC353E77296754 DUP3 DUP5 PUSH1 0x40 MLOAD PUSH2 0x29E6 SWAP3 SWAP2 SWAP1 PUSH2 0x4D16 JUMP JUMPDEST PUSH1 0x40 MLOAD DUP1 SWAP2 SUB SWAP1 LOG2 POP JUMPDEST POP POP POP JUMP JUMPDEST PUSH0 PUSH4 0x3B9ACA00 DUP3 LT ISZERO PUSH2 0x2A0A JUMPI PUSH0 SWAP1 POP PUSH2 0x2A51 JUMP JUMPDEST PUSH5 0x2540BE400 DUP3 LT ISZERO PUSH2 0x2A20 JUMPI PUSH1 0x1 SWAP1 POP PUSH2 0x2A51 JUMP JUMPDEST PUSH5 0xBA43B7400 DUP3 LT ISZERO PUSH2 0x2A36 JUMPI PUSH1 0x2 SWAP1 POP PUSH2 0x2A51 JUMP JUMPDEST PUSH5 0x174876E800 DUP3 LT ISZERO PUSH2 0x2A4C JUMPI PUSH1 0x3 SWAP1 POP PUSH2 0x2A51 JUMP JUMPDEST PUSH1 0x4 SWAP1 POP JUMPDEST SWAP2 SWAP1 POP JUMP JUMPDEST PUSH2 0x2A67 DUP2 PUSH2 0x2A62 PUSH2 0x2B54 JUMP JUMPDEST PUSH2 0x34ED JUMP JUMPDEST POP JUMP JUMPDEST PUSH0 PUSH2 0x2A75 DUP4 DUP4 PUSH2 0x1BD7 JUMP JUMPDEST PUSH2 0x2B4A JUMPI PUSH1 0x1 PUSH1 0x2 PUSH0 DUP6 DUP2 MSTORE PUSH1 0x20 ADD SWAP1 DUP2 MSTORE PUSH1 0x20 ADD PUSH0 KECCAK256 PUSH0 ADD PUSH0 DUP5 PUSH20 0xFFFFFFFFFFFFFFFFFFFFFFFFFFFFFFFFFFFFFFFF AND PUSH20 0xFFFFFFFFFFFFFFFFFFFFFFFFFFFFFFFFFFFFFFFF AND DUP2 MSTORE PUSH1 0x20 ADD SWAP1 DUP2 MSTORE PUSH1 0x20 ADD PUSH0 KECCAK256 PUSH0 PUSH2 0x100 EXP DUP2 SLOAD DUP2 PUSH1 0xFF MUL NOT AND SWAP1 DUP4 ISZERO ISZERO MUL OR SWAP1 SSTORE POP PUSH2 0x2AE7 PUSH2 0x2B54 JUMP JUMPDEST PUSH20 0xFFFFFFFFFFFFFFFFFFFFFFFFFFFFFFFFFFFFFFFF AND DUP3 PUSH20 0xFFFFFFFFFFFFFFFFFFFFFFFFFFFFFFFFFFFFFFFF AND DUP5 PUSH32 0x2F8788117E7EFF1D82E926EC794901D17C78024A50270940304540A733656F0D PUSH1 0x40 MLOAD PUSH1 0x40 MLOAD DUP1 SWAP2 SUB SWAP1 LOG4 PUSH1 0x1 SWAP1 POP PUSH2 0x2B4E JUMP JUMPDEST PUSH0 SWAP1 POP JUMPDEST SWAP3 SWAP2 POP POP JUMP JUMPDEST PUSH0 CALLER SWAP1 POP SWAP1 JUMP JUMPDEST PUSH0 PUSH2 0x2B66 DUP4 DUP4 PUSH2 0x1BD7 JUMP JUMPDEST ISZERO PUSH2 0x2C3B JUMPI PUSH0 PUSH1 0x2 PUSH0 DUP6 DUP2 MSTORE PUSH1 0x20 ADD SWAP1 DUP2 MSTORE PUSH1 0x20 ADD PUSH0 KECCAK256 PUSH0 ADD PUSH0 DUP5 PUSH20 0xFFFFFFFFFFFFFFFFFFFFFFFFFFFFFFFFFFFFFFFF AND PUSH20 0xFFFFFFFFFFFFFFFFFFFFFFFFFFFFFFFFFFFFFFFF AND DUP2 MSTORE PUSH1 0x20 ADD SWAP1 DUP2 MSTORE PUSH1 0x20 ADD PUSH0 KECCAK256 PUSH0 PUSH2 0x100 EXP DUP2 SLOAD DUP2 PUSH1 0xFF MUL NOT AND SWAP1 DUP4 ISZERO ISZERO MUL OR SWAP1 SSTORE POP PUSH2 0x2BD8 PUSH2 0x2B54 JUMP JUMPDEST PUSH20 0xFFFFFFFFFFFFFFFFFFFFFFFFFFFFFFFFFFFFFFFF AND DUP3 PUSH20 0xFFFFFFFFFFFFFFFFFFFFFFFFFFFFFFFFFFFFFFFF AND DUP5 PUSH32 0xF6391F5C32D9C69D2A47EA670B442974B53935D1EDC7FD64EB21E047A839171B PUSH1 0x40 MLOAD PUSH1 0x40 MLOAD DUP1 SWAP2 SUB SWAP1 LOG4 PUSH1 0x1 SWAP1 POP PUSH2 0x2C3F JUMP JUMPDEST PUSH0 SWAP1 POP JUMPDEST SWAP3 SWAP2 POP POP JUMP JUMPDEST PUSH2 0x2C4D PUSH2 0x353E JUMP JUMPDEST PUSH0 PUSH1 0x3 PUSH0 PUSH2 0x100 EXP DUP2 SLOAD DUP2 PUSH1 0xFF MUL NOT AND SWAP1 DUP4 ISZERO ISZERO MUL OR SWAP1 SSTORE POP PUSH32 0x5DB9EE0A495BF2E6FF9C91A7834C1BA4FDD244A5E8AA4E537BD38AEAE4B073AA PUSH2 0x2C8F PUSH2 0x2B54 JUMP JUMPDEST PUSH1 0x40 MLOAD PUSH2 0x2C9C SWAP2 SWAP1 PUSH2 0x4DA5 JUMP JUMPDEST PUSH1 0x40 MLOAD DUP1 SWAP2 SUB SWAP1 LOG1 JUMP JUMPDEST PUSH2 0x2D22 DUP5 DUP6 PUSH20 0xFFFFFFFFFFFFFFFFFFFFFFFFFFFFFFFFFFFFFFFF AND PUSH4 0x23B872DD DUP7 DUP7 DUP7 PUSH1 0x40 MLOAD PUSH1 0x24 ADD PUSH2 0x2CDB SWAP4 SWAP3 SWAP2 SWAP1 PUSH2 0x5913 JUMP JUMPDEST PUSH1 0x40 MLOAD PUSH1 0x20 DUP2 DUP4 SUB SUB DUP2 MSTORE SWAP1 PUSH1 0x40 MSTORE SWAP2 POP PUSH1 0xE0 SHL PUSH1 0x20 DUP3 ADD DUP1 MLOAD PUSH28 0xFFFFFFFFFFFFFFFFFFFFFFFFFFFFFFFFFFFFFFFFFFFFFFFFFFFFFFFF DUP4 DUP2 DUP4 AND OR DUP4 MSTORE POP POP POP POP PUSH2 0x3587 JUMP JUMPDEST POP POP POP POP JUMP JUMPDEST PUSH2 0x2DA2 DUP4 DUP5 PUSH20 0xFFFFFFFFFFFFFFFFFFFFFFFFFFFFFFFFFFFFFFFF AND PUSH4 0xA9059CBB DUP6 DUP6 PUSH1 0x40 MLOAD PUSH1 0x24 ADD PUSH2 0x2D5B SWAP3 SWAP2 SWAP1 PUSH2 0x5948 JUMP JUMPDEST PUSH1 0x40 MLOAD PUSH1 0x20 DUP2 DUP4 SUB SUB DUP2 MSTORE SWAP1 PUSH1 0x40 MSTORE SWAP2 POP PUSH1 0xE0 SHL PUSH1 0x20 DUP3 ADD DUP1 MLOAD PUSH28 0xFFFFFFFFFFFFFFFFFFFFFFFFFFFFFFFFFFFFFFFFFFFFFFFFFFFFFFFF DUP4 DUP2 DUP4 AND OR DUP4 MSTORE POP POP POP POP PUSH2 0x3587 JUMP JUMPDEST POP POP POP JUMP JUMPDEST PUSH1 0xF PUSH0 CALLER PUSH20 0xFFFFFFFFFFFFFFFFFFFFFFFFFFFFFFFFFFFFFFFF AND PUSH20 0xFFFFFFFFFFFFFFFFFFFFFFFFFFFFFFFFFFFFFFFF AND DUP2 MSTORE PUSH1 0x20 ADD SWAP1 DUP2 MSTORE PUSH1 0x20 ADD PUSH0 KECCAK256 PUSH0 SWAP1 SLOAD SWAP1 PUSH2 0x100 EXP SWAP1 DIV PUSH1 0xFF AND ISZERO PUSH2 0x2E31 JUMPI PUSH1 0x40 MLOAD PUSH32 0x8C379A000000000000000000000000000000000000000000000000000000000 DUP2 MSTORE PUSH1 0x4 ADD PUSH2 0x2E28 SWAP1 PUSH2 0x57E4 JUMP JUMPDEST PUSH1 0x40 MLOAD DUP1 SWAP2 SUB SWAP1 REVERT JUMPDEST PUSH0 CALLER DUP5 PUSH1 0x40 MLOAD PUSH1 0x20 ADD PUSH2 0x2E45 SWAP3 SWAP2 SWAP1 PUSH2 0x59D4 JUMP JUMPDEST PUSH1 0x40 MLOAD PUSH1 0x20 DUP2 DUP4 SUB SUB DUP2 MSTORE SWAP1 PUSH1 0x40 MSTORE DUP1 MLOAD SWAP1 PUSH1 0x20 ADD KECCAK256 SWAP1 POP PUSH2 0x2EAA DUP4 DUP4 DUP1 DUP1 PUSH1 0x20 MUL PUSH1 0x20 ADD PUSH1 0x40 MLOAD SWAP1 DUP2 ADD PUSH1 0x40 MSTORE DUP1 SWAP4 SWAP3 SWAP2 SWAP1 DUP2 DUP2 MSTORE PUSH1 0x20 ADD DUP4 DUP4 PUSH1 0x20 MUL DUP1 DUP3 DUP5 CALLDATACOPY PUSH0 DUP2 DUP5 ADD MSTORE PUSH1 0x1F NOT PUSH1 0x1F DUP3 ADD AND SWAP1 POP DUP1 DUP4 ADD SWAP3 POP POP POP POP POP POP POP PUSH1 0xE SLOAD DUP4 PUSH2 0x3622 JUMP JUMPDEST PUSH2 0x2EE9 JUMPI PUSH1 0x40 MLOAD PUSH32 0x8C379A000000000000000000000000000000000000000000000000000000000 DUP2 MSTORE PUSH1 0x4 ADD PUSH2 0x2EE0 SWAP1 PUSH2 0x5A49 JUMP JUMPDEST PUSH1 0x40 MLOAD DUP1 SWAP2 SUB SWAP1 REVERT JUMPDEST PUSH1 0x1 PUSH1 0xF PUSH0 CALLER PUSH20 0xFFFFFFFFFFFFFFFFFFFFFFFFFFFFFFFFFFFFFFFF AND PUSH20 0xFFFFFFFFFFFFFFFFFFFFFFFFFFFFFFFFFFFFFFFF AND DUP2 MSTORE PUSH1 0x20 ADD SWAP1 DUP2 MSTORE PUSH1 0x20 ADD PUSH0 KECCAK256 PUSH0 PUSH2 0x100 EXP DUP2 SLOAD DUP2 PUSH1 0xFF MUL NOT AND SWAP1 DUP4 ISZERO ISZERO MUL OR SWAP1 SSTORE POP PUSH2 0x2F89 CALLER DUP6 PUSH32 0x0 PUSH20 0xFFFFFFFFFFFFFFFFFFFFFFFFFFFFFFFFFFFFFFFF AND PUSH2 0x2D28 SWAP1 SWAP3 SWAP2 SWAP1 PUSH4 0xFFFFFFFF AND JUMP JUMPDEST DUP4 PUSH1 0xD PUSH0 DUP3 DUP3 SLOAD PUSH2 0x2F9A SWAP2 SWAP1 PUSH2 0x4F2D JUMP JUMPDEST SWAP3 POP POP DUP2 SWAP1 SSTORE POP CALLER PUSH20 0xFFFFFFFFFFFFFFFFFFFFFFFFFFFFFFFFFFFFFFFF AND PUSH32 0xFC30CDDEA38E2BF4D6EA7D3F9ED3B6AD7F176419F4963BD81318067A4AEE73FE DUP6 PUSH1 0x40 MLOAD PUSH2 0x2FE7 SWAP2 SWAP1 PUSH2 0x4329 JUMP JUMPDEST PUSH1 0x40 MLOAD DUP1 SWAP2 SUB SWAP1 LOG2 POP POP POP POP JUMP JUMPDEST PUSH2 0x2FFD PUSH2 0x2661 JUMP JUMPDEST PUSH1 0x1 PUSH1 0x3 PUSH0 PUSH2 0x100 EXP DUP2 SLOAD DUP2 PUSH1 0xFF MUL NOT AND SWAP1 DUP4 ISZERO ISZERO MUL OR SWAP1 SSTORE POP PUSH32 0x62E78CEA01BEE320CD4E420270B5EA74000D11B0C9F74754EBDBFC544B05A258 PUSH2 0x3040 PUSH2 0x2B54 JUMP JUMPDEST PUSH1 0x40 MLOAD PUSH2 0x304D SWAP2 SWAP1 PUSH2 0x4DA5 JUMP JUMPDEST PUSH1 0x40 MLOAD DUP1 SWAP2 SUB SWAP1 LOG1 JUMP JUMPDEST PUSH1 0x60 PUSH2 0x308C PUSH0 PUSH32 0x0 PUSH2 0x3638 SWAP1 SWAP2 SWAP1 PUSH4 0xFFFFFFFF AND JUMP JUMPDEST SWAP1 POP SWAP1 JUMP JUMPDEST PUSH1 0x60 PUSH2 0x30C7 PUSH1 0x1 PUSH32 0x0 PUSH2 0x3638 SWAP1 SWAP2 SWAP1 PUSH4 0xFFFFFFFF AND JUMP JUMPDEST SWAP1 POP SWAP1 JUMP JUMPDEST PUSH0 PUSH1 0x18 PUSH0 DUP5 PUSH20 0xFFFFFFFFFFFFFFFFFFFFFFFFFFFFFFFFFFFFFFFF AND PUSH20 0xFFFFFFFFFFFFFFFFFFFFFFFFFFFFFFFFFFFFFFFF AND DUP2 MSTORE PUSH1 0x20 ADD SWAP1 DUP2 MSTORE PUSH1 0x20 ADD PUSH0 KECCAK256 SWAP1 POP DUP2 DUP2 PUSH1 0x2 ADD PUSH0 DUP3 DUP3 SLOAD PUSH2 0x311F SWAP2 SWAP1 PUSH2 0x4F2D JUMP JUMPDEST SWAP3 POP POP DUP2 SWAP1 SSTORE POP PUSH2 0x3133 DUP2 PUSH1 0x2 ADD SLOAD PUSH2 0x29F5 JUMP JUMPDEST DUP2 PUSH1 0x3 ADD PUSH0 PUSH2 0x100 EXP DUP2 SLOAD DUP2 PUSH1 0xFF MUL NOT AND SWAP1 DUP4 PUSH1 0x4 DUP2 GT ISZERO PUSH2 0x3158 JUMPI PUSH2 0x3157 PUSH2 0x4791 JUMP JUMPDEST JUMPDEST MUL OR SWAP1 SSTORE POP DUP3 PUSH20 0xFFFFFFFFFFFFFFFFFFFFFFFFFFFFFFFFFFFFFFFF AND PUSH32 0xE42710261DCCB691E79E3F3E24A2B8CC0E13B9BEC7BE82A445C6A6992474EA44 DUP4 DUP4 PUSH1 0x3 ADD PUSH0 SWAP1 SLOAD SWAP1 PUSH2 0x100 EXP SWAP1 DIV PUSH1 0xFF AND PUSH1 0x40 MLOAD PUSH2 0x31B5 SWAP3 SWAP2 SWAP1 PUSH2 0x5A67 JUMP JUMPDEST PUSH1 0x40 MLOAD DUP1 SWAP2 SUB SWAP1 LOG2 POP POP POP JUMP JUMPDEST PUSH0 PUSH0 DUP3 PUSH1 0x2 ADD SLOAD PUSH1 0xB SLOAD PUSH2 0x31D6 SWAP2 SWAP1 PUSH2 0x4EFA JUMP JUMPDEST SWAP1 POP PUSH0 PUSH2 0x31E7 DUP3 DUP6 PUSH1 0x3 ADD SLOAD PUSH2 0x36E5 JUMP JUMPDEST SWAP1 POP PUSH0 DUP5 PUSH1 0x3 ADD SLOAD DUP3 DUP7 PUSH0 ADD SLOAD PUSH2 0x31FE SWAP2 SWAP1 PUSH2 0x58D2 JUMP JUMPDEST PUSH2 0x3208 SWAP2 SWAP1 PUSH2 0x5ABB JUMP JUMPDEST SWAP1 POP DUP5 PUSH1 0x1 ADD SLOAD DUP2 PUSH2 0x321A SWAP2 SWAP1 PUSH2 0x4EFA JUMP JUMPDEST SWAP4 POP POP POP POP SWAP2 SWAP1 POP JUMP JUMPDEST PUSH0 PUSH32 0xD47F8513DE5C0F6D90A8E751907DF996F612C11328C0D9D7B92D573D2284E982 DUP6 DUP6 PUSH1 0x19 PUSH0 CALLER PUSH20 0xFFFFFFFFFFFFFFFFFFFFFFFFFFFFFFFFFFFFFFFF AND PUSH20 0xFFFFFFFFFFFFFFFFFFFFFFFFFFFFFFFFFFFFFFFF AND DUP2 MSTORE PUSH1 0x20 ADD SWAP1 DUP2 MSTORE PUSH1 0x20 ADD PUSH0 KECCAK256 PUSH0 DUP2 SLOAD DUP1 SWAP3 SWAP2 SWAP1 PUSH2 0x3295 SWAP1 PUSH2 0x5753 JUMP JUMPDEST SWAP2 SWAP1 POP SSTORE CALLER PUSH1 0x40 MLOAD PUSH1 0x20 ADD PUSH2 0x32AE SWAP6 SWAP5 SWAP4 SWAP3 SWAP2 SWAP1 PUSH2 0x5AEB JUMP JUMPDEST PUSH1 0x40 MLOAD PUSH1 0x20 DUP2 DUP4 SUB SUB DUP2 MSTORE SWAP1 PUSH1 0x40 MSTORE DUP1 MLOAD SWAP1 PUSH1 0x20 ADD KECCAK256 SWAP1 POP CALLER PUSH20 0xFFFFFFFFFFFFFFFFFFFFFFFFFFFFFFFFFFFFFFFF AND PUSH2 0x333B DUP5 DUP5 DUP1 DUP1 PUSH1 0x1F ADD PUSH1 0x20 DUP1 SWAP2 DIV MUL PUSH1 0x20 ADD PUSH1 0x40 MLOAD SWAP1 DUP2 ADD PUSH1 0x40 MSTORE DUP1 SWAP4 SWAP3 SWAP2 SWAP1 DUP2 DUP2 MSTORE PUSH1 0x20 ADD DUP4 DUP4 DUP1 DUP3 DUP5 CALLDATACOPY PUSH0 DUP2 DUP5 ADD MSTORE PUSH1 0x1F NOT PUSH1 0x1F DUP3 ADD AND SWAP1 POP DUP1 DUP4 ADD SWAP3 POP POP POP POP POP POP POP PUSH2 0x332D DUP5 PUSH2 0x36FB JUMP JUMPDEST PUSH2 0x3714 SWAP1 SWAP2 SWAP1 PUSH4 0xFFFFFFFF AND JUMP JUMPDEST PUSH20 0xFFFFFFFFFFFFFFFFFFFFFFFFFFFFFFFFFFFFFFFF AND EQ PUSH2 0x3391 JUMPI PUSH1 0x40 MLOAD PUSH32 0x8C379A000000000000000000000000000000000000000000000000000000000 DUP2 MSTORE PUSH1 0x4 ADD PUSH2 0x3388 SWAP1 PUSH2 0x5B86 JUMP JUMPDEST PUSH1 0x40 MLOAD DUP1 SWAP2 SUB SWAP1 REVERT JUMPDEST POP POP POP POP POP JUMP JUMPDEST PUSH0 PUSH0 PUSH3 0xF4240 PUSH1 0x8 SLOAD DUP5 PUSH1 0x1 ADD SLOAD PUSH2 0x33B0 SWAP2 SWAP1 PUSH2 0x58D2 JUMP JUMPDEST PUSH2 0x33BA SWAP2 SWAP1 PUSH2 0x5ABB JUMP JUMPDEST SWAP1 POP PUSH0 PUSH2 0x33D6 DUP5 PUSH1 0x3 ADD PUSH0 SWAP1 SLOAD SWAP1 PUSH2 0x100 EXP SWAP1 DIV PUSH1 0xFF AND PUSH2 0x373E JUMP JUMPDEST SWAP1 POP PUSH1 0x64 DUP2 DUP4 PUSH2 0x33E6 SWAP2 SWAP1 PUSH2 0x58D2 JUMP JUMPDEST PUSH2 0x33F0 SWAP2 SWAP1 PUSH2 0x5ABB JUMP JUMPDEST SWAP3 POP POP POP SWAP2 SWAP1 POP JUMP JUMPDEST PUSH0 PUSH1 0x64 PUSH1 0x19 DUP5 PUSH2 0x3409 SWAP2 SWAP1 PUSH2 0x58D2 JUMP JUMPDEST PUSH2 0x3413 SWAP2 SWAP1 PUSH2 0x5ABB JUMP JUMPDEST SWAP1 POP PUSH0 DUP2 DUP5 PUSH2 0x3422 SWAP2 SWAP1 PUSH2 0x4EFA JUMP JUMPDEST SWAP1 POP DUP3 ISZERO PUSH2 0x3439 JUMPI PUSH2 0x3434 DUP6 DUP4 PUSH2 0x30CC JUMP JUMPDEST PUSH2 0x34D3 JUMP JUMPDEST PUSH2 0x3484 DUP6 DUP4 PUSH32 0x0 PUSH20 0xFFFFFFFFFFFFFFFFFFFFFFFFFFFFFFFFFFFFFFFF AND PUSH2 0x2D28 SWAP1 SWAP3 SWAP2 SWAP1 PUSH4 0xFFFFFFFF AND JUMP JUMPDEST DUP5 PUSH20 0xFFFFFFFFFFFFFFFFFFFFFFFFFFFFFFFFFFFFFFFF AND PUSH32 0xFC30CDDEA38E2BF4D6EA7D3F9ED3B6AD7F176419F4963BD81318067A4AEE73FE DUP4 PUSH1 0x40 MLOAD PUSH2 0x34CA SWAP2 SWAP1 PUSH2 0x4329 JUMP JUMPDEST PUSH1 0x40 MLOAD DUP1 SWAP2 SUB SWAP1 LOG2 JUMPDEST PUSH0 DUP2 GT ISZERO PUSH2 0x34E6 JUMPI PUSH2 0x34E5 DUP6 DUP3 PUSH2 0x381D JUMP JUMPDEST JUMPDEST POP POP POP POP POP JUMP JUMPDEST PUSH2 0x34F7 DUP3 DUP3 PUSH2 0x1BD7 JUMP JUMPDEST PUSH2 0x353A JUMPI DUP1 DUP3 PUSH1 0x40 MLOAD PUSH32 0xE2517D3F00000000000000000000000000000000000000000000000000000000 DUP2 MSTORE PUSH1 0x4 ADD PUSH2 0x3531 SWAP3 SWAP2 SWAP1 PUSH2 0x5BA4 JUMP JUMPDEST PUSH1 0x40 MLOAD DUP1 SWAP2 SUB SWAP1 REVERT JUMPDEST POP POP JUMP JUMPDEST PUSH2 0x3546 PUSH2 0x14E9 JUMP JUMPDEST PUSH2 0x3585 JUMPI PUSH1 0x40 MLOAD PUSH32 0x8C379A000000000000000000000000000000000000000000000000000000000 DUP2 MSTORE PUSH1 0x4 ADD PUSH2 0x357C SWAP1 PUSH2 0x5C15 JUMP JUMPDEST PUSH1 0x40 MLOAD DUP1 SWAP2 SUB SWAP1 REVERT JUMPDEST JUMP JUMPDEST PUSH0 PUSH0 PUSH1 0x20 PUSH0 DUP5 MLOAD PUSH1 0x20 DUP7 ADD PUSH0 DUP9 GAS CALL DUP1 PUSH2 0x35A6 JUMPI PUSH1 0x40 MLOAD RETURNDATASIZE PUSH0 DUP3 RETURNDATACOPY RETURNDATASIZE DUP2 REVERT JUMPDEST RETURNDATASIZE SWAP3 POP PUSH0 MLOAD SWAP2 POP POP PUSH0 DUP3 EQ PUSH2 0x35BF JUMPI PUSH1 0x1 DUP2 EQ ISZERO PUSH2 0x35DA JUMP JUMPDEST PUSH0 DUP5 PUSH20 0xFFFFFFFFFFFFFFFFFFFFFFFFFFFFFFFFFFFFFFFF AND EXTCODESIZE EQ JUMPDEST ISZERO PUSH2 0x361C JUMPI DUP4 PUSH1 0x40 MLOAD PUSH32 0x5274AFE700000000000000000000000000000000000000000000000000000000 DUP2 MSTORE PUSH1 0x4 ADD PUSH2 0x3613 SWAP2 SWAP1 PUSH2 0x4DA5 JUMP JUMPDEST PUSH1 0x40 MLOAD DUP1 SWAP2 SUB SWAP1 REVERT JUMPDEST POP POP POP POP JUMP JUMPDEST PUSH0 DUP3 PUSH2 0x362E DUP6 DUP5 PUSH2 0x38F7 JUMP JUMPDEST EQ SWAP1 POP SWAP4 SWAP3 POP POP POP JUMP JUMPDEST PUSH1 0x60 PUSH1 0xFF PUSH0 SHL DUP4 EQ PUSH2 0x3654 JUMPI PUSH2 0x364D DUP4 PUSH2 0x3948 JUMP JUMPDEST SWAP1 POP PUSH2 0x36DF JUMP JUMPDEST DUP2 DUP1 SLOAD PUSH2 0x3660 SWAP1 PUSH2 0x5C60 JUMP JUMPDEST DUP1 PUSH1 0x1F ADD PUSH1 0x20 DUP1 SWAP2 DIV MUL PUSH1 0x20 ADD PUSH1 0x40 MLOAD SWAP1 DUP2 ADD PUSH1 0x40 MSTORE DUP1 SWAP3 SWAP2 SWAP1 DUP2 DUP2 MSTORE PUSH1 0x20 ADD DUP3 DUP1 SLOAD PUSH2 0x368C SWAP1 PUSH2 0x5C60 JUMP JUMPDEST DUP1 ISZERO PUSH2 0x36D7 JUMPI DUP1 PUSH1 0x1F LT PUSH2 0x36AE JUMPI PUSH2 0x100 DUP1 DUP4 SLOAD DIV MUL DUP4 MSTORE SWAP2 PUSH1 0x20 ADD SWAP2 PUSH2 0x36D7 JUMP JUMPDEST DUP3 ADD SWAP2 SWAP1 PUSH0 MSTORE PUSH1 0x20 PUSH0 KECCAK256 SWAP1 JUMPDEST DUP2 SLOAD DUP2 MSTORE SWAP1 PUSH1 0x1 ADD SWAP1 PUSH1 0x20 ADD DUP1 DUP4 GT PUSH2 0x36BA JUMPI DUP3 SWAP1 SUB PUSH1 0x1F AND DUP3 ADD SWAP2 JUMPDEST POP POP POP POP POP SWAP1 POP JUMPDEST SWAP3 SWAP2 POP POP JUMP JUMPDEST PUSH0 PUSH2 0x36F3 DUP3 DUP5 LT DUP5 DUP5 PUSH2 0x39BA JUMP JUMPDEST SWAP1 POP SWAP3 SWAP2 POP POP JUMP JUMPDEST PUSH0 PUSH2 0x370D PUSH2 0x3707 PUSH2 0x39D3 JUMP JUMPDEST DUP4 PUSH2 0x3A89 JUMP JUMPDEST SWAP1 POP SWAP2 SWAP1 POP JUMP JUMPDEST PUSH0 PUSH0 PUSH0 PUSH0 PUSH2 0x3722 DUP7 DUP7 PUSH2 0x3AC9 JUMP JUMPDEST SWAP3 POP SWAP3 POP SWAP3 POP PUSH2 0x3732 DUP3 DUP3 PUSH2 0x3B1E JUMP JUMPDEST DUP3 SWAP4 POP POP POP POP SWAP3 SWAP2 POP POP JUMP JUMPDEST PUSH0 PUSH1 0x1 PUSH1 0x4 DUP2 GT ISZERO PUSH2 0x3753 JUMPI PUSH2 0x3752 PUSH2 0x4791 JUMP JUMPDEST JUMPDEST DUP3 PUSH1 0x4 DUP2 GT ISZERO PUSH2 0x3766 JUMPI PUSH2 0x3765 PUSH2 0x4791 JUMP JUMPDEST JUMPDEST SUB PUSH2 0x3774 JUMPI PUSH1 0x7D SWAP1 POP PUSH2 0x3818 JUMP JUMPDEST PUSH1 0x2 PUSH1 0x4 DUP2 GT ISZERO PUSH2 0x3788 JUMPI PUSH2 0x3787 PUSH2 0x4791 JUMP JUMPDEST JUMPDEST DUP3 PUSH1 0x4 DUP2 GT ISZERO PUSH2 0x379B JUMPI PUSH2 0x379A PUSH2 0x4791 JUMP JUMPDEST JUMPDEST SUB PUSH2 0x37A9 JUMPI PUSH1 0x96 SWAP1 POP PUSH2 0x3818 JUMP JUMPDEST PUSH1 0x3 PUSH1 0x4 DUP2 GT ISZERO PUSH2 0x37BD JUMPI PUSH2 0x37BC PUSH2 0x4791 JUMP JUMPDEST JUMPDEST DUP3 PUSH1 0x4 DUP2 GT ISZERO PUSH2 0x37D0 JUMPI PUSH2 0x37CF PUSH2 0x4791 JUMP JUMPDEST JUMPDEST SUB PUSH2 0x37DE JUMPI PUSH1 0xC8 SWAP1 POP PUSH2 0x3818 JUMP JUMPDEST PUSH1 0x4 DUP1 DUP2 GT ISZERO PUSH2 0x37F1 JUMPI PUSH2 0x37F0 PUSH2 0x4791 JUMP JUMPDEST JUMPDEST DUP3 PUSH1 0x4 DUP2 GT ISZERO PUSH2 0x3804 JUMPI PUSH2 0x3803 PUSH2 0x4791 JUMP JUMPDEST JUMPDEST SUB PUSH2 0x3813 JUMPI PUSH2 0x12C SWAP1 POP PUSH2 0x3818 JUMP JUMPDEST PUSH1 0x64 SWAP1 POP JUMPDEST SWAP2 SWAP1 POP JUMP JUMPDEST PUSH0 PUSH1 0x14 PUSH0 DUP5 PUSH20 0xFFFFFFFFFFFFFFFFFFFFFFFFFFFFFFFFFFFFFFFF AND PUSH20 0xFFFFFFFFFFFFFFFFFFFFFFFFFFFFFFFFFFFFFFFF AND DUP2 MSTORE PUSH1 0x20 ADD SWAP1 DUP2 MSTORE PUSH1 0x20 ADD PUSH0 KECCAK256 SWAP1 POP PUSH0 DUP2 PUSH1 0x2 ADD SLOAD SUB PUSH2 0x387F JUMPI PUSH1 0xB SLOAD DUP2 PUSH1 0x2 ADD DUP2 SWAP1 SSTORE POP PUSH1 0x15 SLOAD DUP2 PUSH1 0x3 ADD DUP2 SWAP1 SSTORE POP JUMPDEST DUP2 DUP2 PUSH0 ADD PUSH0 DUP3 DUP3 SLOAD PUSH2 0x3891 SWAP2 SWAP1 PUSH2 0x4F2D JUMP JUMPDEST SWAP3 POP POP DUP2 SWAP1 SSTORE POP DUP3 PUSH20 0xFFFFFFFFFFFFFFFFFFFFFFFFFFFFFFFFFFFFFFFF AND PUSH32 0xCACF4A6E7C897EAD5577524D96F0DEBB59CCD5BD3465D42CD2A958E2DEFB0B94 DUP4 DUP4 PUSH1 0x2 ADD SLOAD DUP5 PUSH1 0x3 ADD SLOAD PUSH1 0x40 MLOAD PUSH2 0x38EA SWAP4 SWAP3 SWAP2 SWAP1 PUSH2 0x5C90 JUMP JUMPDEST PUSH1 0x40 MLOAD DUP1 SWAP2 SUB SWAP1 LOG2 POP POP POP JUMP JUMPDEST PUSH0 PUSH0 DUP3 SWAP1 POP PUSH0 PUSH0 SWAP1 POP JUMPDEST DUP5 MLOAD DUP2 LT ISZERO PUSH2 0x393D JUMPI PUSH2 0x392E DUP3 DUP7 DUP4 DUP2 MLOAD DUP2 LT PUSH2 0x3921 JUMPI PUSH2 0x3920 PUSH2 0x536C JUMP JUMPDEST JUMPDEST PUSH1 0x20 MUL PUSH1 0x20 ADD ADD MLOAD PUSH2 0x3C80 JUMP JUMPDEST SWAP2 POP DUP1 DUP1 PUSH1 0x1 ADD SWAP2 POP POP PUSH2 0x3901 JUMP JUMPDEST POP DUP1 SWAP2 POP POP SWAP3 SWAP2 POP POP JUMP JUMPDEST PUSH1 0x60 PUSH0 PUSH2 0x3954 DUP4 PUSH2 0x3CAA JUMP JUMPDEST SWAP1 POP PUSH0 PUSH1 0x20 PUSH8 0xFFFFFFFFFFFFFFFF DUP2 GT ISZERO PUSH2 0x3972 JUMPI PUSH2 0x3971 PUSH2 0x51F7 JUMP JUMPDEST JUMPDEST PUSH1 0x40 MLOAD SWAP1 DUP1 DUP3 MSTORE DUP1 PUSH1 0x1F ADD PUSH1 0x1F NOT AND PUSH1 0x20 ADD DUP3 ADD PUSH1 0x40 MSTORE DUP1 ISZERO PUSH2 0x39A4 JUMPI DUP2 PUSH1 0x20 ADD PUSH1 0x1 DUP3 MUL DUP1 CALLDATASIZE DUP4 CALLDATACOPY DUP1 DUP3 ADD SWAP2 POP POP SWAP1 POP JUMPDEST POP SWAP1 POP DUP2 DUP2 MSTORE DUP4 PUSH1 0x20 DUP3 ADD MSTORE DUP1 SWAP3 POP POP POP SWAP2 SWAP1 POP JUMP JUMPDEST PUSH0 PUSH2 0x39C4 DUP5 PUSH2 0x3CF8 JUMP JUMPDEST DUP3 DUP5 XOR MUL DUP3 XOR SWAP1 POP SWAP4 SWAP3 POP POP POP JUMP JUMPDEST PUSH0 PUSH32 0x0 PUSH20 0xFFFFFFFFFFFFFFFFFFFFFFFFFFFFFFFFFFFFFFFF AND ADDRESS PUSH20 0xFFFFFFFFFFFFFFFFFFFFFFFFFFFFFFFFFFFFFFFF AND EQ DUP1 ISZERO PUSH2 0x3A4E JUMPI POP PUSH32 0x0 CHAINID EQ JUMPDEST ISZERO PUSH2 0x3A7B JUMPI PUSH32 0x0 SWAP1 POP PUSH2 0x3A86 JUMP JUMPDEST PUSH2 0x3A83 PUSH2 0x3D03 JUMP JUMPDEST SWAP1 POP JUMPDEST SWAP1 JUMP JUMPDEST PUSH0 PUSH1 0x40 MLOAD PUSH32 0x1901000000000000000000000000000000000000000000000000000000000000 DUP2 MSTORE DUP4 PUSH1 0x2 DUP3 ADD MSTORE DUP3 PUSH1 0x22 DUP3 ADD MSTORE PUSH1 0x42 DUP2 KECCAK256 SWAP2 POP POP SWAP3 SWAP2 POP POP JUMP JUMPDEST PUSH0 PUSH0 PUSH0 PUSH1 0x41 DUP5 MLOAD SUB PUSH2 0x3B09 JUMPI PUSH0 PUSH0 PUSH0 PUSH1 0x20 DUP8 ADD MLOAD SWAP3 POP PUSH1 0x40 DUP8 ADD MLOAD SWAP2 POP PUSH1 0x60 DUP8 ADD MLOAD PUSH0 BYTE SWAP1 POP PUSH2 0x3AFB DUP9 DUP3 DUP6 DUP6 PUSH2 0x3D98 JUMP JUMPDEST SWAP6 POP SWAP6 POP SWAP6 POP POP POP POP PUSH2 0x3B17 JUMP JUMPDEST PUSH0 PUSH1 0x2 DUP6 MLOAD PUSH0 SHL SWAP3 POP SWAP3 POP SWAP3 POP JUMPDEST SWAP3 POP SWAP3 POP SWAP3 JUMP JUMPDEST PUSH0 PUSH1 0x3 DUP2 GT ISZERO PUSH2 0x3B31 JUMPI PUSH2 0x3B30 PUSH2 0x4791 JUMP JUMPDEST JUMPDEST DUP3 PUSH1 0x3 DUP2 GT ISZERO PUSH2 0x3B44 JUMPI PUSH2 0x3B43 PUSH2 0x4791 JUMP JUMPDEST JUMPDEST SUB ISZERO PUSH2 0x3C7C JUMPI PUSH1 0x1 PUSH1 0x3 DUP2 GT ISZERO PUSH2 0x3B5E JUMPI PUSH2 0x3B5D PUSH2 0x4791 JUMP JUMPDEST JUMPDEST DUP3 PUSH1 0x3 DUP2 GT ISZERO PUSH2 0x3B71 JUMPI PUSH2 0x3B70 PUSH2 0x4791 JUMP JUMPDEST JUMPDEST SUB PUSH2 0x3BA8 JUMPI PUSH1 0x40 MLOAD PUSH32 0xF645EEDF00000000000000000000000000000000000000000000000000000000 DUP2 MSTORE PUSH1 0x4 ADD PUSH1 0x40 MLOAD DUP1 SWAP2 SUB SWAP1 REVERT JUMPDEST PUSH1 0x2 PUSH1 0x3 DUP2 GT ISZERO PUSH2 0x3BBC JUMPI PUSH2 0x3BBB PUSH2 0x4791 JUMP JUMPDEST JUMPDEST DUP3 PUSH1 0x3 DUP2 GT ISZERO PUSH2 0x3BCF JUMPI PUSH2 0x3BCE PUSH2 0x4791 JUMP JUMPDEST JUMPDEST SUB PUSH2 0x3C13 JUMPI DUP1 PUSH0 SHR PUSH1 0x40 MLOAD PUSH32 0xFCE698F700000000000000000000000000000000000000000000000000000000 DUP2 MSTORE PUSH1 0x4 ADD PUSH2 0x3C0A SWAP2 SWAP1 PUSH2 0x4329 JUMP JUMPDEST PUSH1 0x40 MLOAD DUP1 SWAP2 SUB SWAP1 REVERT JUMPDEST PUSH1 0x3 DUP1 DUP2 GT ISZERO PUSH2 0x3C26 JUMPI PUSH2 0x3C25 PUSH2 0x4791 JUMP JUMPDEST JUMPDEST DUP3 PUSH1 0x3 DUP2 GT ISZERO PUSH2 0x3C39 JUMPI PUSH2 0x3C38 PUSH2 0x4791 JUMP JUMPDEST JUMPDEST SUB PUSH2 0x3C7B JUMPI DUP1 PUSH1 0x40 MLOAD PUSH32 0xD78BCE0C00000000000000000000000000000000000000000000000000000000 DUP2 MSTORE PUSH1 0x4 ADD PUSH2 0x3C72 SWAP2 SWAP1 PUSH2 0x42C3 JUMP JUMPDEST PUSH1 0x40 MLOAD DUP1 SWAP2 SUB SWAP1 REVERT JUMPDEST JUMPDEST POP POP JUMP JUMPDEST PUSH0 DUP2 DUP4 LT PUSH2 0x3C97 JUMPI PUSH2 0x3C92 DUP3 DUP5 PUSH2 0x3E7F JUMP JUMPDEST PUSH2 0x3CA2 JUMP JUMPDEST PUSH2 0x3CA1 DUP4 DUP4 PUSH2 0x3E7F JUMP JUMPDEST JUMPDEST SWAP1 POP SWAP3 SWAP2 POP POP JUMP JUMPDEST PUSH0 PUSH0 PUSH1 0xFF DUP4 PUSH0 SHR AND SWAP1 POP PUSH1 0x1F DUP2 GT ISZERO PUSH2 0x3CEF JUMPI PUSH1 0x40 MLOAD PUSH32 0xB3512B0C00000000000000000000000000000000000000000000000000000000 DUP2 MSTORE PUSH1 0x4 ADD PUSH1 0x40 MLOAD DUP1 SWAP2 SUB SWAP1 REVERT JUMPDEST DUP1 SWAP2 POP POP SWAP2 SWAP1 POP JUMP JUMPDEST PUSH0 DUP2 ISZERO ISZERO SWAP1 POP SWAP2 SWAP1 POP JUMP JUMPDEST PUSH0 PUSH32 0x8B73C3C69BB8FE3D512ECC4CF759CC79239F7B179B0FFACAA9A75D522B39400F PUSH32 0x0 PUSH32 0x0 CHAINID ADDRESS PUSH1 0x40 MLOAD PUSH1 0x20 ADD PUSH2 0x3D7D SWAP6 SWAP5 SWAP4 SWAP3 SWAP2 SWAP1 PUSH2 0x5CC5 JUMP JUMPDEST PUSH1 0x40 MLOAD PUSH1 0x20 DUP2 DUP4 SUB SUB DUP2 MSTORE SWAP1 PUSH1 0x40 MSTORE DUP1 MLOAD SWAP1 PUSH1 0x20 ADD KECCAK256 SWAP1 POP SWAP1 JUMP JUMPDEST PUSH0 PUSH0 PUSH0 PUSH32 0x7FFFFFFFFFFFFFFFFFFFFFFFFFFFFFFF5D576E7357A4501DDFE92F46681B20A0 DUP5 PUSH0 SHR GT ISZERO PUSH2 0x3DD4 JUMPI PUSH0 PUSH1 0x3 DUP6 SWAP3 POP SWAP3 POP SWAP3 POP PUSH2 0x3E75 JUMP JUMPDEST PUSH0 PUSH1 0x1 DUP9 DUP9 DUP9 DUP9 PUSH1 0x40 MLOAD PUSH0 DUP2 MSTORE PUSH1 0x20 ADD PUSH1 0x40 MSTORE PUSH1 0x40 MLOAD PUSH2 0x3DF7 SWAP5 SWAP4 SWAP3 SWAP2 SWAP1 PUSH2 0x5D16 JUMP JUMPDEST PUSH1 0x20 PUSH1 0x40 MLOAD PUSH1 0x20 DUP2 SUB SWAP1 DUP1 DUP5 SUB SWAP1 DUP6 GAS STATICCALL ISZERO DUP1 ISZERO PUSH2 0x3E17 JUMPI RETURNDATASIZE PUSH0 PUSH0 RETURNDATACOPY RETURNDATASIZE PUSH0 REVERT JUMPDEST POP POP POP PUSH1 0x20 PUSH1 0x40 MLOAD SUB MLOAD SWAP1 POP PUSH0 PUSH20 0xFFFFFFFFFFFFFFFFFFFFFFFFFFFFFFFFFFFFFFFF AND DUP2 PUSH20 0xFFFFFFFFFFFFFFFFFFFFFFFFFFFFFFFFFFFFFFFF AND SUB PUSH2 0x3E68 JUMPI PUSH0 PUSH1 0x1 PUSH0 PUSH0 SHL SWAP4 POP SWAP4 POP SWAP4 POP POP PUSH2 0x3E75 JUMP JUMPDEST DUP1 PUSH0 PUSH0 PUSH0 SHL SWAP4 POP SWAP4 POP SWAP4 POP POP JUMPDEST SWAP5 POP SWAP5 POP SWAP5 SWAP2 POP POP JUMP JUMPDEST PUSH0 DUP3 PUSH0 MSTORE DUP2 PUSH1 0x20 MSTORE PUSH1 0x40 PUSH0 KECCAK256 SWAP1 POP SWAP3 SWAP2 POP POP JUMP JUMPDEST PUSH0 PUSH0 REVERT JUMPDEST PUSH0 PUSH0 REVERT JUMPDEST PUSH0 PUSH2 0xFFFF DUP3 AND SWAP1 POP SWAP2 SWAP1 POP JUMP JUMPDEST PUSH2 0x3EB1 DUP2 PUSH2 0x3E9B JUMP JUMPDEST DUP2 EQ PUSH2 0x3EBB JUMPI PUSH0 PUSH0 REVERT JUMPDEST POP JUMP JUMPDEST PUSH0 DUP2 CALLDATALOAD SWAP1 POP PUSH2 0x3ECC DUP2 PUSH2 0x3EA8 JUMP JUMPDEST SWAP3 SWAP2 POP POP JUMP JUMPDEST PUSH0 PUSH0 REVERT JUMPDEST PUSH0 PUSH0 REVERT JUMPDEST PUSH0 PUSH0 REVERT JUMPDEST PUSH0 PUSH0 DUP4 PUSH1 0x1F DUP5 ADD SLT PUSH2 0x3EF3 JUMPI PUSH2 0x3EF2 PUSH2 0x3ED2 JUMP JUMPDEST JUMPDEST DUP3 CALLDATALOAD SWAP1 POP PUSH8 0xFFFFFFFFFFFFFFFF DUP2 GT ISZERO PUSH2 0x3F10 JUMPI PUSH2 0x3F0F PUSH2 0x3ED6 JUMP JUMPDEST JUMPDEST PUSH1 0x20 DUP4 ADD SWAP2 POP DUP4 PUSH1 0x1 DUP3 MUL DUP4 ADD GT ISZERO PUSH2 0x3F2C JUMPI PUSH2 0x3F2B PUSH2 0x3EDA JUMP JUMPDEST JUMPDEST SWAP3 POP SWAP3 SWAP1 POP JUMP JUMPDEST PUSH0 PUSH8 0xFFFFFFFFFFFFFFFF DUP3 AND SWAP1 POP SWAP2 SWAP1 POP JUMP JUMPDEST PUSH2 0x3F4F DUP2 PUSH2 0x3F33 JUMP JUMPDEST DUP2 EQ PUSH2 0x3F59 JUMPI PUSH0 PUSH0 REVERT JUMPDEST POP JUMP JUMPDEST PUSH0 DUP2 CALLDATALOAD SWAP1 POP PUSH2 0x3F6A DUP2 PUSH2 0x3F46 JUMP JUMPDEST SWAP3 SWAP2 POP POP JUMP JUMPDEST PUSH0 PUSH0 PUSH0 PUSH0 PUSH0 PUSH0 PUSH1 0x80 DUP8 DUP10 SUB SLT ISZERO PUSH2 0x3F8A JUMPI PUSH2 0x3F89 PUSH2 0x3E93 JUMP JUMPDEST JUMPDEST PUSH0 PUSH2 0x3F97 DUP10 DUP3 DUP11 ADD PUSH2 0x3EBE JUMP JUMPDEST SWAP7 POP POP PUSH1 0x20 DUP8 ADD CALLDATALOAD PUSH8 0xFFFFFFFFFFFFFFFF DUP2 GT ISZERO PUSH2 0x3FB8 JUMPI PUSH2 0x3FB7 PUSH2 0x3E97 JUMP JUMPDEST JUMPDEST PUSH2 0x3FC4 DUP10 DUP3 DUP11 ADD PUSH2 0x3EDE JUMP JUMPDEST SWAP6 POP SWAP6 POP POP PUSH1 0x40 PUSH2 0x3FD7 DUP10 DUP3 DUP11 ADD PUSH2 0x3F5C JUMP JUMPDEST SWAP4 POP POP PUSH1 0x60 DUP8 ADD CALLDATALOAD PUSH8 0xFFFFFFFFFFFFFFFF DUP2 GT ISZERO PUSH2 0x3FF8 JUMPI PUSH2 0x3FF7 PUSH2 0x3E97 JUMP JUMPDEST JUMPDEST PUSH2 0x4004 DUP10 DUP3 DUP11 ADD PUSH2 0x3EDE JUMP JUMPDEST SWAP3 POP SWAP3 POP POP SWAP3 SWAP6 POP SWAP3 SWAP6 POP SWAP3 SWAP6 JUMP JUMPDEST PUSH0 PUSH32 0xFFFFFFFF00000000000000000000000000000000000000000000000000000000 DUP3 AND SWAP1 POP SWAP2 SWAP1 POP JUMP JUMPDEST PUSH2 0x4047 DUP2 PUSH2 0x4013 JUMP JUMPDEST DUP2 EQ PUSH2 0x4051 JUMPI PUSH0 PUSH0 REVERT JUMPDEST POP JUMP JUMPDEST PUSH0 DUP2 CALLDATALOAD SWAP1 POP PUSH2 0x4062 DUP2 PUSH2 0x403E JUMP JUMPDEST SWAP3 SWAP2 POP POP JUMP JUMPDEST PUSH0 PUSH1 0x20 DUP3 DUP5 SUB SLT ISZERO PUSH2 0x407D JUMPI PUSH2 0x407C PUSH2 0x3E93 JUMP JUMPDEST JUMPDEST PUSH0 PUSH2 0x408A DUP5 DUP3 DUP6 ADD PUSH2 0x4054 JUMP JUMPDEST SWAP2 POP POP SWAP3 SWAP2 POP POP JUMP JUMPDEST PUSH0 DUP2 ISZERO ISZERO SWAP1 POP SWAP2 SWAP1 POP JUMP JUMPDEST PUSH2 0x40A7 DUP2 PUSH2 0x4093 JUMP JUMPDEST DUP3 MSTORE POP POP JUMP JUMPDEST PUSH0 PUSH1 0x20 DUP3 ADD SWAP1 POP PUSH2 0x40C0 PUSH0 DUP4 ADD DUP5 PUSH2 0x409E JUMP JUMPDEST SWAP3 SWAP2 POP POP JUMP JUMPDEST PUSH0 DUP2 SWAP1 POP SWAP2 SWAP1 POP JUMP JUMPDEST PUSH2 0x40D8 DUP2 PUSH2 0x40C6 JUMP JUMPDEST DUP2 EQ PUSH2 0x40E2 JUMPI PUSH0 PUSH0 REVERT JUMPDEST POP JUMP JUMPDEST PUSH0 DUP2 CALLDATALOAD SWAP1 POP PUSH2 0x40F3 DUP2 PUSH2 0x40CF JUMP JUMPDEST SWAP3 SWAP2 POP POP JUMP JUMPDEST PUSH0 PUSH1 0x20 DUP3 DUP5 SUB SLT ISZERO PUSH2 0x410E JUMPI PUSH2 0x410D PUSH2 0x3E93 JUMP JUMPDEST JUMPDEST PUSH0 PUSH2 0x411B DUP5 DUP3 DUP6 ADD PUSH2 0x40E5 JUMP JUMPDEST SWAP2 POP POP SWAP3 SWAP2 POP POP JUMP JUMPDEST PUSH0 PUSH20 0xFFFFFFFFFFFFFFFFFFFFFFFFFFFFFFFFFFFFFFFF DUP3 AND SWAP1 POP SWAP2 SWAP1 POP JUMP JUMPDEST PUSH0 DUP2 SWAP1 POP SWAP2 SWAP1 POP JUMP JUMPDEST PUSH0 PUSH2 0x4166 PUSH2 0x4161 PUSH2 0x415C DUP5 PUSH2 0x4124 JUMP JUMPDEST PUSH2 0x4143 JUMP JUMPDEST PUSH2 0x4124 JUMP JUMPDEST SWAP1 POP SWAP2 SWAP1 POP JUMP JUMPDEST PUSH0 PUSH2 0x4177 DUP3 PUSH2 0x414C JUMP JUMPDEST SWAP1 POP SWAP2 SWAP1 POP JUMP JUMPDEST PUSH0 PUSH2 0x4188 DUP3 PUSH2 0x416D JUMP JUMPDEST SWAP1 POP SWAP2 SWAP1 POP JUMP JUMPDEST PUSH2 0x4198 DUP2 PUSH2 0x417E JUMP JUMPDEST DUP3 MSTORE POP POP JUMP JUMPDEST PUSH0 PUSH1 0x20 DUP3 ADD SWAP1 POP PUSH2 0x41B1 PUSH0 DUP4 ADD DUP5 PUSH2 0x418F JUMP JUMPDEST SWAP3 SWAP2 POP POP JUMP JUMPDEST PUSH0 PUSH2 0x41C1 DUP3 PUSH2 0x4124 JUMP JUMPDEST SWAP1 POP SWAP2 SWAP1 POP JUMP JUMPDEST PUSH2 0x41D1 DUP2 PUSH2 0x41B7 JUMP JUMPDEST DUP2 EQ PUSH2 0x41DB JUMPI PUSH0 PUSH0 REVERT JUMPDEST POP JUMP JUMPDEST PUSH0 DUP2 CALLDATALOAD SWAP1 POP PUSH2 0x41EC DUP2 PUSH2 0x41C8 JUMP JUMPDEST SWAP3 SWAP2 POP POP JUMP JUMPDEST PUSH0 PUSH1 0x20 DUP3 DUP5 SUB SLT ISZERO PUSH2 0x4207 JUMPI PUSH2 0x4206 PUSH2 0x3E93 JUMP JUMPDEST JUMPDEST PUSH0 PUSH2 0x4214 DUP5 DUP3 DUP6 ADD PUSH2 0x41DE JUMP JUMPDEST SWAP2 POP POP SWAP3 SWAP2 POP POP JUMP JUMPDEST PUSH0 PUSH2 0x4227 DUP3 PUSH2 0x416D JUMP JUMPDEST SWAP1 POP SWAP2 SWAP1 POP JUMP JUMPDEST PUSH2 0x4237 DUP2 PUSH2 0x421D JUMP JUMPDEST DUP3 MSTORE POP POP JUMP JUMPDEST PUSH0 PUSH1 0x20 DUP3 ADD SWAP1 POP PUSH2 0x4250 PUSH0 DUP4 ADD DUP5 PUSH2 0x422E JUMP JUMPDEST SWAP3 SWAP2 POP POP JUMP JUMPDEST PUSH0 DUP2 SWAP1 POP SWAP2 SWAP1 POP JUMP JUMPDEST PUSH2 0x4268 DUP2 PUSH2 0x4256 JUMP JUMPDEST DUP2 EQ PUSH2 0x4272 JUMPI PUSH0 PUSH0 REVERT JUMPDEST POP JUMP JUMPDEST PUSH0 DUP2 CALLDATALOAD SWAP1 POP PUSH2 0x4283 DUP2 PUSH2 0x425F JUMP JUMPDEST SWAP3 SWAP2 POP POP JUMP JUMPDEST PUSH0 PUSH1 0x20 DUP3 DUP5 SUB SLT ISZERO PUSH2 0x429E JUMPI PUSH2 0x429D PUSH2 0x3E93 JUMP JUMPDEST JUMPDEST PUSH0 PUSH2 0x42AB DUP5 DUP3 DUP6 ADD PUSH2 0x4275 JUMP JUMPDEST SWAP2 POP POP SWAP3 SWAP2 POP POP JUMP JUMPDEST PUSH2 0x42BD DUP2 PUSH2 0x4256 JUMP JUMPDEST DUP3 MSTORE POP POP JUMP JUMPDEST PUSH0 PUSH1 0x20 DUP3 ADD SWAP1 POP PUSH2 0x42D6 PUSH0 DUP4 ADD DUP5 PUSH2 0x42B4 JUMP JUMPDEST SWAP3 SWAP2 POP POP JUMP JUMPDEST PUSH0 PUSH0 PUSH1 0x40 DUP4 DUP6 SUB SLT ISZERO PUSH2 0x42F2 JUMPI PUSH2 0x42F1 PUSH2 0x3E93 JUMP JUMPDEST JUMPDEST PUSH0 PUSH2 0x42FF DUP6 DUP3 DUP7 ADD PUSH2 0x4275 JUMP JUMPDEST SWAP3 POP POP PUSH1 0x20 PUSH2 0x4310 DUP6 DUP3 DUP7 ADD PUSH2 0x41DE JUMP JUMPDEST SWAP2 POP POP SWAP3 POP SWAP3 SWAP1 POP JUMP JUMPDEST PUSH2 0x4323 DUP2 PUSH2 0x40C6 JUMP JUMPDEST DUP3 MSTORE POP POP JUMP JUMPDEST PUSH0 PUSH1 0x20 DUP3 ADD SWAP1 POP PUSH2 0x433C PUSH0 DUP4 ADD DUP5 PUSH2 0x431A JUMP JUMPDEST SWAP3 SWAP2 POP POP JUMP JUMPDEST PUSH0 PUSH0 PUSH1 0x40 DUP4 DUP6 SUB SLT ISZERO PUSH2 0x4358 JUMPI PUSH2 0x4357 PUSH2 0x3E93 JUMP JUMPDEST JUMPDEST PUSH0 PUSH2 0x4365 DUP6 DUP3 DUP7 ADD PUSH2 0x40E5 JUMP JUMPDEST SWAP3 POP POP PUSH1 0x20 PUSH2 0x4376 DUP6 DUP3 DUP7 ADD PUSH2 0x40E5 JUMP JUMPDEST SWAP2 POP POP SWAP3 POP SWAP3 SWAP1 POP JUMP JUMPDEST PUSH0 PUSH1 0x20 DUP3 DUP5 SUB SLT ISZERO PUSH2 0x4395 JUMPI PUSH2 0x4394 PUSH2 0x3E93 JUMP JUMPDEST JUMPDEST PUSH0 PUSH2 0x43A2 DUP5 DUP3 DUP6 ADD PUSH2 0x3EBE JUMP JUMPDEST SWAP2 POP POP SWAP3 SWAP2 POP POP JUMP JUMPDEST PUSH0 PUSH0 DUP4 PUSH1 0x1F DUP5 ADD SLT PUSH2 0x43C0 JUMPI PUSH2 0x43BF PUSH2 0x3ED2 JUMP JUMPDEST JUMPDEST DUP3 CALLDATALOAD SWAP1 POP PUSH8 0xFFFFFFFFFFFFFFFF DUP2 GT ISZERO PUSH2 0x43DD JUMPI PUSH2 0x43DC PUSH2 0x3ED6 JUMP JUMPDEST JUMPDEST PUSH1 0x20 DUP4 ADD SWAP2 POP DUP4 PUSH1 0x20 DUP3 MUL DUP4 ADD GT ISZERO PUSH2 0x43F9 JUMPI PUSH2 0x43F8 PUSH2 0x3EDA JUMP JUMPDEST JUMPDEST SWAP3 POP SWAP3 SWAP1 POP JUMP JUMPDEST PUSH0 PUSH0 PUSH0 PUSH1 0x40 DUP5 DUP7 SUB SLT ISZERO PUSH2 0x4417 JUMPI PUSH2 0x4416 PUSH2 0x3E93 JUMP JUMPDEST JUMPDEST PUSH0 PUSH2 0x4424 DUP7 DUP3 DUP8 ADD PUSH2 0x40E5 JUMP JUMPDEST SWAP4 POP POP PUSH1 0x20 DUP5 ADD CALLDATALOAD PUSH8 0xFFFFFFFFFFFFFFFF DUP2 GT ISZERO PUSH2 0x4445 JUMPI PUSH2 0x4444 PUSH2 0x3E97 JUMP JUMPDEST JUMPDEST PUSH2 0x4451 DUP7 DUP3 DUP8 ADD PUSH2 0x43AB JUMP JUMPDEST SWAP3 POP SWAP3 POP POP SWAP3 POP SWAP3 POP SWAP3 JUMP JUMPDEST PUSH0 PUSH32 0xFF00000000000000000000000000000000000000000000000000000000000000 DUP3 AND SWAP1 POP SWAP2 SWAP1 POP JUMP JUMPDEST PUSH2 0x4491 DUP2 PUSH2 0x445D JUMP JUMPDEST DUP3 MSTORE POP POP JUMP JUMPDEST PUSH0 DUP2 MLOAD SWAP1 POP SWAP2 SWAP1 POP JUMP JUMPDEST PUSH0 DUP3 DUP3 MSTORE PUSH1 0x20 DUP3 ADD SWAP1 POP SWAP3 SWAP2 POP POP JUMP JUMPDEST DUP3 DUP2 DUP4 MCOPY PUSH0 DUP4 DUP4 ADD MSTORE POP POP POP JUMP JUMPDEST PUSH0 PUSH1 0x1F NOT PUSH1 0x1F DUP4 ADD AND SWAP1 POP SWAP2 SWAP1 POP JUMP JUMPDEST PUSH0 PUSH2 0x44D9 DUP3 PUSH2 0x4497 JUMP JUMPDEST PUSH2 0x44E3 DUP2 DUP6 PUSH2 0x44A1 JUMP JUMPDEST SWAP4 POP PUSH2 0x44F3 DUP2 DUP6 PUSH1 0x20 DUP7 ADD PUSH2 0x44B1 JUMP JUMPDEST PUSH2 0x44FC DUP2 PUSH2 0x44BF JUMP JUMPDEST DUP5 ADD SWAP2 POP POP SWAP3 SWAP2 POP POP JUMP JUMPDEST PUSH2 0x4510 DUP2 PUSH2 0x41B7 JUMP JUMPDEST DUP3 MSTORE POP POP JUMP JUMPDEST PUSH0 DUP2 MLOAD SWAP1 POP SWAP2 SWAP1 POP JUMP JUMPDEST PUSH0 DUP3 DUP3 MSTORE PUSH1 0x20 DUP3 ADD SWAP1 POP SWAP3 SWAP2 POP POP JUMP JUMPDEST PUSH0 DUP2 SWAP1 POP PUSH1 0x20 DUP3 ADD SWAP1 POP SWAP2 SWAP1 POP JUMP JUMPDEST PUSH2 0x4548 DUP2 PUSH2 0x40C6 JUMP JUMPDEST DUP3 MSTORE POP POP JUMP JUMPDEST PUSH0 PUSH2 0x4559 DUP4 DUP4 PUSH2 0x453F JUMP JUMPDEST PUSH1 0x20 DUP4 ADD SWAP1 POP SWAP3 SWAP2 POP POP JUMP JUMPDEST PUSH0 PUSH1 0x20 DUP3 ADD SWAP1 POP SWAP2 SWAP1 POP JUMP JUMPDEST PUSH0 PUSH2 0x457B DUP3 PUSH2 0x4516 JUMP JUMPDEST PUSH2 0x4585 DUP2 DUP6 PUSH2 0x4520 JUMP JUMPDEST SWAP4 POP PUSH2 0x4590 DUP4 PUSH2 0x4530 JUMP JUMPDEST DUP1 PUSH0 JUMPDEST DUP4 DUP2 LT ISZERO PUSH2 0x45C0 JUMPI DUP2 MLOAD PUSH2 0x45A7 DUP9 DUP3 PUSH2 0x454E JUMP JUMPDEST SWAP8 POP PUSH2 0x45B2 DUP4 PUSH2 0x4565 JUMP JUMPDEST SWAP3 POP POP PUSH1 0x1 DUP2 ADD SWAP1 POP PUSH2 0x4593 JUMP JUMPDEST POP DUP6 SWAP4 POP POP POP POP SWAP3 SWAP2 POP POP JUMP JUMPDEST PUSH0 PUSH1 0xE0 DUP3 ADD SWAP1 POP PUSH2 0x45E0 PUSH0 DUP4 ADD DUP11 PUSH2 0x4488 JUMP JUMPDEST DUP2 DUP2 SUB PUSH1 0x20 DUP4 ADD MSTORE PUSH2 0x45F2 DUP2 DUP10 PUSH2 0x44CF JUMP JUMPDEST SWAP1 POP DUP2 DUP2 SUB PUSH1 0x40 DUP4 ADD MSTORE PUSH2 0x4606 DUP2 DUP9 PUSH2 0x44CF JUMP JUMPDEST SWAP1 POP PUSH2 0x4615 PUSH1 0x60 DUP4 ADD DUP8 PUSH2 0x431A JUMP JUMPDEST PUSH2 0x4622 PUSH1 0x80 DUP4 ADD DUP7 PUSH2 0x4507 JUMP JUMPDEST PUSH2 0x462F PUSH1 0xA0 DUP4 ADD DUP6 PUSH2 0x42B4 JUMP JUMPDEST DUP2 DUP2 SUB PUSH1 0xC0 DUP4 ADD MSTORE PUSH2 0x4641 DUP2 DUP5 PUSH2 0x4571 JUMP JUMPDEST SWAP1 POP SWAP9 SWAP8 POP POP POP POP POP POP POP POP JUMP JUMPDEST PUSH0 PUSH0 PUSH0 PUSH0 PUSH0 PUSH1 0x80 DUP7 DUP9 SUB SLT ISZERO PUSH2 0x4668 JUMPI PUSH2 0x4667 PUSH2 0x3E93 JUMP JUMPDEST JUMPDEST PUSH0 PUSH2 0x4675 DUP9 DUP3 DUP10 ADD PUSH2 0x41DE JUMP JUMPDEST SWAP6 POP POP PUSH1 0x20 PUSH2 0x4686 DUP9 DUP3 DUP10 ADD PUSH2 0x41DE JUMP JUMPDEST SWAP5 POP POP PUSH1 0x40 PUSH2 0x4697 DUP9 DUP3 DUP10 ADD PUSH2 0x40E5 JUMP JUMPDEST SWAP4 POP POP PUSH1 0x60 DUP7 ADD CALLDATALOAD PUSH8 0xFFFFFFFFFFFFFFFF DUP2 GT ISZERO PUSH2 0x46B8 JUMPI PUSH2 0x46B7 PUSH2 0x3E97 JUMP JUMPDEST JUMPDEST PUSH2 0x46C4 DUP9 DUP3 DUP10 ADD PUSH2 0x3EDE JUMP JUMPDEST SWAP3 POP SWAP3 POP POP SWAP3 SWAP6 POP SWAP3 SWAP6 SWAP1 SWAP4 POP JUMP JUMPDEST PUSH2 0x46DC DUP2 PUSH2 0x4013 JUMP JUMPDEST DUP3 MSTORE POP POP JUMP JUMPDEST PUSH0 PUSH1 0x20 DUP3 ADD SWAP1 POP PUSH2 0x46F5 PUSH0 DUP4 ADD DUP5 PUSH2 0x46D3 JUMP JUMPDEST SWAP3 SWAP2 POP POP JUMP JUMPDEST PUSH0 PUSH2 0x4705 DUP3 PUSH2 0x416D JUMP JUMPDEST SWAP1 POP SWAP2 SWAP1 POP JUMP JUMPDEST PUSH2 0x4715 DUP2 PUSH2 0x46FB JUMP JUMPDEST DUP3 MSTORE POP POP JUMP JUMPDEST PUSH0 PUSH1 0x20 DUP3 ADD SWAP1 POP PUSH2 0x472E PUSH0 DUP4 ADD DUP5 PUSH2 0x470C JUMP JUMPDEST SWAP3 SWAP2 POP POP JUMP JUMPDEST PUSH0 PUSH0 PUSH0 PUSH1 0x40 DUP5 DUP7 SUB SLT ISZERO PUSH2 0x474B JUMPI PUSH2 0x474A PUSH2 0x3E93 JUMP JUMPDEST JUMPDEST PUSH0 PUSH2 0x4758 DUP7 DUP3 DUP8 ADD PUSH2 0x40E5 JUMP JUMPDEST SWAP4 POP POP PUSH1 0x20 DUP5 ADD CALLDATALOAD PUSH8 0xFFFFFFFFFFFFFFFF DUP2 GT ISZERO PUSH2 0x4779 JUMPI PUSH2 0x4778 PUSH2 0x3E97 JUMP JUMPDEST JUMPDEST PUSH2 0x4785 DUP7 DUP3 DUP8 ADD PUSH2 0x3EDE JUMP JUMPDEST SWAP3 POP SWAP3 POP POP SWAP3 POP SWAP3 POP SWAP3 JUMP JUMPDEST PUSH32 0x4E487B7100000000000000000000000000000000000000000000000000000000 PUSH0 MSTORE PUSH1 0x21 PUSH1 0x4 MSTORE PUSH1 0x24 PUSH0 REVERT JUMPDEST PUSH1 0x5 DUP2 LT PUSH2 0x47CF JUMPI PUSH2 0x47CE PUSH2 0x4791 JUMP JUMPDEST JUMPDEST POP JUMP JUMPDEST PUSH0 DUP2 SWAP1 POP PUSH2 0x47DF DUP3 PUSH2 0x47BE JUMP JUMPDEST SWAP2 SWAP1 POP JUMP JUMPDEST PUSH0 PUSH2 0x47EE DUP3 PUSH2 0x47D2 JUMP JUMPDEST SWAP1 POP SWAP2 SWAP1 POP JUMP JUMPDEST PUSH2 0x47FE DUP2 PUSH2 0x47E4 JUMP JUMPDEST DUP3 MSTORE POP POP JUMP JUMPDEST PUSH0 PUSH1 0xE0 DUP3 ADD SWAP1 POP PUSH2 0x4817 PUSH0 DUP4 ADD DUP11 PUSH2 0x431A JUMP JUMPDEST PUSH2 0x4824 PUSH1 0x20 DUP4 ADD DUP10 PUSH2 0x431A JUMP JUMPDEST PUSH2 0x4831 PUSH1 0x40 DUP4 ADD DUP9 PUSH2 0x431A JUMP JUMPDEST PUSH2 0x483E PUSH1 0x60 DUP4 ADD DUP8 PUSH2 0x47F5 JUMP JUMPDEST PUSH2 0x484B PUSH1 0x80 DUP4 ADD DUP7 PUSH2 0x431A JUMP JUMPDEST PUSH2 0x4858 PUSH1 0xA0 DUP4 ADD DUP6 PUSH2 0x4507 JUMP JUMPDEST PUSH2 0x4865 PUSH1 0xC0 DUP4 ADD DUP5 PUSH2 0x409E JUMP JUMPDEST SWAP9 SWAP8 POP POP POP POP POP POP POP POP JUMP JUMPDEST PUSH0 PUSH0 DUP4 PUSH1 0x1F DUP5 ADD SLT PUSH2 0x4886 JUMPI PUSH2 0x4885 PUSH2 0x3ED2 JUMP JUMPDEST JUMPDEST DUP3 CALLDATALOAD SWAP1 POP PUSH8 0xFFFFFFFFFFFFFFFF DUP2 GT ISZERO PUSH2 0x48A3 JUMPI PUSH2 0x48A2 PUSH2 0x3ED6 JUMP JUMPDEST JUMPDEST PUSH1 0x20 DUP4 ADD SWAP2 POP DUP4 PUSH1 0x20 DUP3 MUL DUP4 ADD GT ISZERO PUSH2 0x48BF JUMPI PUSH2 0x48BE PUSH2 0x3EDA JUMP JUMPDEST JUMPDEST SWAP3 POP SWAP3 SWAP1 POP JUMP JUMPDEST PUSH0 PUSH0 PUSH1 0x20 DUP4 DUP6 SUB SLT ISZERO PUSH2 0x48DC JUMPI PUSH2 0x48DB PUSH2 0x3E93 JUMP JUMPDEST JUMPDEST PUSH0 DUP4 ADD CALLDATALOAD PUSH8 0xFFFFFFFFFFFFFFFF DUP2 GT ISZERO PUSH2 0x48F9 JUMPI PUSH2 0x48F8 PUSH2 0x3E97 JUMP JUMPDEST JUMPDEST PUSH2 0x4905 DUP6 DUP3 DUP7 ADD PUSH2 0x4871 JUMP JUMPDEST SWAP3 POP SWAP3 POP POP SWAP3 POP SWAP3 SWAP1 POP JUMP JUMPDEST PUSH0 DUP2 MLOAD SWAP1 POP SWAP2 SWAP1 POP JUMP JUMPDEST PUSH0 DUP3 DUP3 MSTORE PUSH1 0x20 DUP3 ADD SWAP1 POP SWAP3 SWAP2 POP POP JUMP JUMPDEST PUSH0 DUP2 SWAP1 POP PUSH1 0x20 DUP3 ADD SWAP1 POP SWAP2 SWAP1 POP JUMP JUMPDEST PUSH0 DUP2 MLOAD SWAP1 POP SWAP2 SWAP1 POP JUMP JUMPDEST PUSH0 DUP3 DUP3 MSTORE PUSH1 0x20 DUP3 ADD SWAP1 POP SWAP3 SWAP2 POP POP JUMP JUMPDEST PUSH0 PUSH2 0x495E DUP3 PUSH2 0x493A JUMP JUMPDEST PUSH2 0x4968 DUP2 DUP6 PUSH2 0x4944 JUMP JUMPDEST SWAP4 POP PUSH2 0x4978 DUP2 DUP6 PUSH1 0x20 DUP7 ADD PUSH2 0x44B1 JUMP JUMPDEST PUSH2 0x4981 DUP2 PUSH2 0x44BF JUMP JUMPDEST DUP5 ADD SWAP2 POP POP SWAP3 SWAP2 POP POP JUMP JUMPDEST PUSH0 PUSH2 0x4997 DUP4 DUP4 PUSH2 0x4954 JUMP JUMPDEST SWAP1 POP SWAP3 SWAP2 POP POP JUMP JUMPDEST PUSH0 PUSH1 0x20 DUP3 ADD SWAP1 POP SWAP2 SWAP1 POP JUMP JUMPDEST PUSH0 PUSH2 0x49B5 DUP3 PUSH2 0x4911 JUMP JUMPDEST PUSH2 0x49BF DUP2 DUP6 PUSH2 0x491B JUMP JUMPDEST SWAP4 POP DUP4 PUSH1 0x20 DUP3 MUL DUP6 ADD PUSH2 0x49D1 DUP6 PUSH2 0x492B JUMP JUMPDEST DUP1 PUSH0 JUMPDEST DUP6 DUP2 LT ISZERO PUSH2 0x4A0C JUMPI DUP5 DUP5 SUB DUP10 MSTORE DUP2 MLOAD PUSH2 0x49ED DUP6 DUP3 PUSH2 0x498C JUMP JUMPDEST SWAP5 POP PUSH2 0x49F8 DUP4 PUSH2 0x499F JUMP JUMPDEST SWAP3 POP PUSH1 0x20 DUP11 ADD SWAP10 POP POP PUSH1 0x1 DUP2 ADD SWAP1 POP PUSH2 0x49D4 JUMP JUMPDEST POP DUP3 SWAP8 POP DUP8 SWAP6 POP POP POP POP POP POP SWAP3 SWAP2 POP POP JUMP JUMPDEST PUSH0 PUSH1 0x20 DUP3 ADD SWAP1 POP DUP2 DUP2 SUB PUSH0 DUP4 ADD MSTORE PUSH2 0x4A36 DUP2 DUP5 PUSH2 0x49AB JUMP JUMPDEST SWAP1 POP SWAP3 SWAP2 POP POP JUMP JUMPDEST PUSH0 PUSH2 0x4A48 DUP3 PUSH2 0x416D JUMP JUMPDEST SWAP1 POP SWAP2 SWAP1 POP JUMP JUMPDEST PUSH2 0x4A58 DUP2 PUSH2 0x4A3E JUMP JUMPDEST DUP3 MSTORE POP POP JUMP JUMPDEST PUSH0 PUSH1 0x20 DUP3 ADD SWAP1 POP PUSH2 0x4A71 PUSH0 DUP4 ADD DUP5 PUSH2 0x4A4F JUMP JUMPDEST SWAP3 SWAP2 POP POP JUMP JUMPDEST PUSH0 PUSH0 PUSH0 PUSH0 PUSH1 0x60 DUP6 DUP8 SUB SLT ISZERO PUSH2 0x4A8F JUMPI PUSH2 0x4A8E PUSH2 0x3E93 JUMP JUMPDEST JUMPDEST PUSH0 PUSH2 0x4A9C DUP8 DUP3 DUP9 ADD PUSH2 0x40E5 JUMP JUMPDEST SWAP5 POP POP PUSH1 0x20 PUSH2 0x4AAD DUP8 DUP3 DUP9 ADD PUSH2 0x40E5 JUMP JUMPDEST SWAP4 POP POP PUSH1 0x40 DUP6 ADD CALLDATALOAD PUSH8 0xFFFFFFFFFFFFFFFF DUP2 GT ISZERO PUSH2 0x4ACE JUMPI PUSH2 0x4ACD PUSH2 0x3E97 JUMP JUMPDEST JUMPDEST PUSH2 0x4ADA DUP8 DUP3 DUP9 ADD PUSH2 0x3EDE JUMP JUMPDEST SWAP3 POP SWAP3 POP POP SWAP3 SWAP6 SWAP2 SWAP5 POP SWAP3 POP JUMP JUMPDEST PUSH0 PUSH2 0x4AF2 DUP3 PUSH2 0x416D JUMP JUMPDEST SWAP1 POP SWAP2 SWAP1 POP JUMP JUMPDEST PUSH2 0x4B02 DUP2 PUSH2 0x4AE8 JUMP JUMPDEST DUP3 MSTORE POP POP JUMP JUMPDEST PUSH0 PUSH1 0x20 DUP3 ADD SWAP1 POP PUSH2 0x4B1B PUSH0 DUP4 ADD DUP5 PUSH2 0x4AF9 JUMP JUMPDEST SWAP3 SWAP2 POP POP JUMP JUMPDEST PUSH0 PUSH0 PUSH1 0x40 DUP4 DUP6 SUB SLT ISZERO PUSH2 0x4B37 JUMPI PUSH2 0x4B36 PUSH2 0x3E93 JUMP JUMPDEST JUMPDEST PUSH0 PUSH2 0x4B44 DUP6 DUP3 DUP7 ADD PUSH2 0x41DE JUMP JUMPDEST SWAP3 POP POP PUSH1 0x20 PUSH2 0x4B55 DUP6 DUP3 DUP7 ADD PUSH2 0x40E5 JUMP JUMPDEST SWAP2 POP POP SWAP3 POP SWAP3 SWAP1 POP JUMP JUMPDEST PUSH2 0x4B68 DUP2 PUSH2 0x4093 JUMP JUMPDEST DUP2 EQ PUSH2 0x4B72 JUMPI PUSH0 PUSH0 REVERT JUMPDEST POP JUMP JUMPDEST PUSH0 DUP2 CALLDATALOAD SWAP1 POP PUSH2 0x4B83 DUP2 PUSH2 0x4B5F JUMP JUMPDEST SWAP3 SWAP2 POP POP JUMP JUMPDEST PUSH0 PUSH1 0x20 DUP3 DUP5 SUB SLT ISZERO PUSH2 0x4B9E JUMPI PUSH2 0x4B9D PUSH2 0x3E93 JUMP JUMPDEST JUMPDEST PUSH0 PUSH2 0x4BAB DUP5 DUP3 DUP6 ADD PUSH2 0x4B75 JUMP JUMPDEST SWAP2 POP POP SWAP3 SWAP2 POP POP JUMP JUMPDEST PUSH0 PUSH1 0xFF DUP3 AND SWAP1 POP SWAP2 SWAP1 POP JUMP JUMPDEST PUSH2 0x4BC9 DUP2 PUSH2 0x4BB4 JUMP JUMPDEST DUP2 EQ PUSH2 0x4BD3 JUMPI PUSH0 PUSH0 REVERT JUMPDEST POP JUMP JUMPDEST PUSH0 DUP2 CALLDATALOAD SWAP1 POP PUSH2 0x4BE4 DUP2 PUSH2 0x4BC0 JUMP JUMPDEST SWAP3 SWAP2 POP POP JUMP JUMPDEST PUSH0 PUSH0 PUSH0 PUSH0 PUSH0 PUSH1 0xA0 DUP7 DUP9 SUB SLT ISZERO PUSH2 0x4C03 JUMPI PUSH2 0x4C02 PUSH2 0x3E93 JUMP JUMPDEST JUMPDEST PUSH0 PUSH2 0x4C10 DUP9 DUP3 DUP10 ADD PUSH2 0x40E5 JUMP JUMPDEST SWAP6 POP POP PUSH1 0x20 PUSH2 0x4C21 DUP9 DUP3 DUP10 ADD PUSH2 0x40E5 JUMP JUMPDEST SWAP5 POP POP PUSH1 0x40 PUSH2 0x4C32 DUP9 DUP3 DUP10 ADD PUSH2 0x4BD6 JUMP JUMPDEST SWAP4 POP POP PUSH1 0x60 PUSH2 0x4C43 DUP9 DUP3 DUP10 ADD PUSH2 0x4275 JUMP JUMPDEST SWAP3 POP POP PUSH1 0x80 PUSH2 0x4C54 DUP9 DUP3 DUP10 ADD PUSH2 0x4275 JUMP JUMPDEST SWAP2 POP POP SWAP3 SWAP6 POP SWAP3 SWAP6 SWAP1 SWAP4 POP JUMP JUMPDEST PUSH0 PUSH1 0x80 DUP3 ADD SWAP1 POP PUSH2 0x4C74 PUSH0 DUP4 ADD DUP8 PUSH2 0x431A JUMP JUMPDEST PUSH2 0x4C81 PUSH1 0x20 DUP4 ADD DUP7 PUSH2 0x431A JUMP JUMPDEST PUSH2 0x4C8E PUSH1 0x40 DUP4 ADD DUP6 PUSH2 0x431A JUMP JUMPDEST PUSH2 0x4C9B PUSH1 0x60 DUP4 ADD DUP5 PUSH2 0x431A JUMP JUMPDEST SWAP6 SWAP5 POP POP POP POP POP JUMP JUMPDEST PUSH0 PUSH2 0x4CAE DUP3 PUSH2 0x416D JUMP JUMPDEST SWAP1 POP SWAP2 SWAP1 POP JUMP JUMPDEST PUSH2 0x4CBE DUP2 PUSH2 0x4CA4 JUMP JUMPDEST DUP3 MSTORE POP POP JUMP JUMPDEST PUSH0 PUSH1 0x20 DUP3 ADD SWAP1 POP PUSH2 0x4CD7 PUSH0 DUP4 ADD DUP5 PUSH2 0x4CB5 JUMP JUMPDEST SWAP3 SWAP2 POP POP JUMP JUMPDEST PUSH0 PUSH2 0x4CE7 DUP3 PUSH2 0x416D JUMP JUMPDEST SWAP1 POP SWAP2 SWAP1 POP JUMP JUMPDEST PUSH2 0x4CF7 DUP2 PUSH2 0x4CDD JUMP JUMPDEST DUP3 MSTORE POP POP JUMP JUMPDEST PUSH0 PUSH1 0x20 DUP3 ADD SWAP1 POP PUSH2 0x4D10 PUSH0 DUP4 ADD DUP5 PUSH2 0x4CEE JUMP JUMPDEST SWAP3 SWAP2 POP POP JUMP JUMPDEST PUSH0 PUSH1 0x40 DUP3 ADD SWAP1 POP PUSH2 0x4D29 PUSH0 DUP4 ADD DUP6 PUSH2 0x431A JUMP JUMPDEST PUSH2 0x4D36 PUSH1 0x20 DUP4 ADD DUP5 PUSH2 0x431A JUMP JUMPDEST SWAP4 SWAP3 POP POP POP JUMP JUMPDEST PUSH32 0x496E76616C696420656E64706F696E7400000000000000000000000000000000 PUSH0 DUP3 ADD MSTORE POP JUMP JUMPDEST PUSH0 PUSH2 0x4D71 PUSH1 0x10 DUP4 PUSH2 0x44A1 JUMP JUMPDEST SWAP2 POP PUSH2 0x4D7C DUP3 PUSH2 0x4D3D JUMP JUMPDEST PUSH1 0x20 DUP3 ADD SWAP1 POP SWAP2 SWAP1 POP JUMP JUMPDEST PUSH0 PUSH1 0x20 DUP3 ADD SWAP1 POP DUP2 DUP2 SUB PUSH0 DUP4 ADD MSTORE PUSH2 0x4D9E DUP2 PUSH2 0x4D65 JUMP JUMPDEST SWAP1 POP SWAP2 SWAP1 POP JUMP JUMPDEST PUSH0 PUSH1 0x20 DUP3 ADD SWAP1 POP PUSH2 0x4DB8 PUSH0 DUP4 ADD DUP5 PUSH2 0x4507 JUMP JUMPDEST SWAP3 SWAP2 POP POP JUMP JUMPDEST PUSH0 DUP2 MLOAD SWAP1 POP PUSH2 0x4DCC DUP2 PUSH2 0x4B5F JUMP JUMPDEST SWAP3 SWAP2 POP POP JUMP JUMPDEST PUSH0 PUSH1 0x20 DUP3 DUP5 SUB SLT ISZERO PUSH2 0x4DE7 JUMPI PUSH2 0x4DE6 PUSH2 0x3E93 JUMP JUMPDEST JUMPDEST PUSH0 PUSH2 0x4DF4 DUP5 DUP3 DUP6 ADD PUSH2 0x4DBE JUMP JUMPDEST SWAP2 POP POP SWAP3 SWAP2 POP POP JUMP JUMPDEST PUSH32 0x4E6F74204B594300000000000000000000000000000000000000000000000000 PUSH0 DUP3 ADD MSTORE POP JUMP JUMPDEST PUSH0 PUSH2 0x4E31 PUSH1 0x7 DUP4 PUSH2 0x44A1 JUMP JUMPDEST SWAP2 POP PUSH2 0x4E3C DUP3 PUSH2 0x4DFD JUMP JUMPDEST PUSH1 0x20 DUP3 ADD SWAP1 POP SWAP2 SWAP1 POP JUMP JUMPDEST PUSH0 PUSH1 0x20 DUP3 ADD SWAP1 POP DUP2 DUP2 SUB PUSH0 DUP4 ADD MSTORE PUSH2 0x4E5E DUP2 PUSH2 0x4E25 JUMP JUMPDEST SWAP1 POP SWAP2 SWAP1 POP JUMP JUMPDEST PUSH32 0x496E73756666696369656E74207374616B656400000000000000000000000000 PUSH0 DUP3 ADD MSTORE POP JUMP JUMPDEST PUSH0 PUSH2 0x4E99 PUSH1 0x13 DUP4 PUSH2 0x44A1 JUMP JUMPDEST SWAP2 POP PUSH2 0x4EA4 DUP3 PUSH2 0x4E65 JUMP JUMPDEST PUSH1 0x20 DUP3 ADD SWAP1 POP SWAP2 SWAP1 POP JUMP JUMPDEST PUSH0 PUSH1 0x20 DUP3 ADD SWAP1 POP DUP2 DUP2 SUB PUSH0 DUP4 ADD MSTORE PUSH2 0x4EC6 DUP2 PUSH2 0x4E8D JUMP JUMPDEST SWAP1 POP SWAP2 SWAP1 POP JUMP JUMPDEST PUSH32 0x4E487B7100000000000000000000000000000000000000000000000000000000 PUSH0 MSTORE PUSH1 0x11 PUSH1 0x4 MSTORE PUSH1 0x24 PUSH0 REVERT JUMPDEST PUSH0 PUSH2 0x4F04 DUP3 PUSH2 0x40C6 JUMP JUMPDEST SWAP2 POP PUSH2 0x4F0F DUP4 PUSH2 0x40C6 JUMP JUMPDEST SWAP3 POP DUP3 DUP3 SUB SWAP1 POP DUP2 DUP2 GT ISZERO PUSH2 0x4F27 JUMPI PUSH2 0x4F26 PUSH2 0x4ECD JUMP JUMPDEST JUMPDEST SWAP3 SWAP2 POP POP JUMP JUMPDEST PUSH0 PUSH2 0x4F37 DUP3 PUSH2 0x40C6 JUMP JUMPDEST SWAP2 POP PUSH2 0x4F42 DUP4 PUSH2 0x40C6 JUMP JUMPDEST SWAP3 POP DUP3 DUP3 ADD SWAP1 POP DUP1 DUP3 GT ISZERO PUSH2 0x4F5A JUMPI PUSH2 0x4F59 PUSH2 0x4ECD JUMP JUMPDEST JUMPDEST SWAP3 SWAP2 POP POP JUMP JUMPDEST PUSH2 0x4F69 DUP2 PUSH2 0x3E9B JUMP JUMPDEST DUP3 MSTORE POP POP JUMP JUMPDEST PUSH0 DUP3 DUP3 MSTORE PUSH1 0x20 DUP3 ADD SWAP1 POP SWAP3 SWAP2 POP POP JUMP JUMPDEST PUSH0 PUSH2 0x4F89 DUP3 PUSH2 0x493A JUMP JUMPDEST PUSH2 0x4F93 DUP2 DUP6 PUSH2 0x4F6F JUMP JUMPDEST SWAP4 POP PUSH2 0x4FA3 DUP2 DUP6 PUSH1 0x20 DUP7 ADD PUSH2 0x44B1 JUMP JUMPDEST PUSH2 0x4FAC DUP2 PUSH2 0x44BF JUMP JUMPDEST DUP5 ADD SWAP2 POP POP SWAP3 SWAP2 POP POP JUMP JUMPDEST PUSH0 PUSH2 0x4FC1 DUP3 PUSH2 0x4124 JUMP JUMPDEST SWAP1 POP SWAP2 SWAP1 POP JUMP JUMPDEST PUSH2 0x4FD1 DUP2 PUSH2 0x4FB7 JUMP JUMPDEST DUP3 MSTORE POP POP JUMP JUMPDEST POP JUMP JUMPDEST PUSH0 PUSH2 0x4FE5 PUSH0 DUP4 PUSH2 0x4F6F JUMP JUMPDEST SWAP2 POP PUSH2 0x4FF0 DUP3 PUSH2 0x4FD7 JUMP JUMPDEST PUSH0 DUP3 ADD SWAP1 POP SWAP2 SWAP1 POP JUMP JUMPDEST PUSH0 PUSH1 0xA0 DUP3 ADD SWAP1 POP PUSH2 0x500D PUSH0 DUP4 ADD DUP8 PUSH2 0x4F60 JUMP JUMPDEST DUP2 DUP2 SUB PUSH1 0x20 DUP4 ADD MSTORE PUSH2 0x501F DUP2 DUP7 PUSH2 0x4F7F JUMP JUMPDEST SWAP1 POP PUSH2 0x502E PUSH1 0x40 DUP4 ADD DUP6 PUSH2 0x4FC8 JUMP JUMPDEST PUSH2 0x503B PUSH1 0x60 DUP4 ADD DUP5 PUSH2 0x4507 JUMP JUMPDEST DUP2 DUP2 SUB PUSH1 0x80 DUP4 ADD MSTORE PUSH2 0x504C DUP2 PUSH2 0x4FDA JUMP JUMPDEST SWAP1 POP SWAP6 SWAP5 POP POP POP POP POP JUMP JUMPDEST PUSH32 0x4E6F20626F6E6400000000000000000000000000000000000000000000000000 PUSH0 DUP3 ADD MSTORE POP JUMP JUMPDEST PUSH0 PUSH2 0x508B PUSH1 0x7 DUP4 PUSH2 0x44A1 JUMP JUMPDEST SWAP2 POP PUSH2 0x5096 DUP3 PUSH2 0x5057 JUMP JUMPDEST PUSH1 0x20 DUP3 ADD SWAP1 POP SWAP2 SWAP1 POP JUMP JUMPDEST PUSH0 PUSH1 0x20 DUP3 ADD SWAP1 POP DUP2 DUP2 SUB PUSH0 DUP4 ADD MSTORE PUSH2 0x50B8 DUP2 PUSH2 0x507F JUMP JUMPDEST SWAP1 POP SWAP2 SWAP1 POP JUMP JUMPDEST PUSH32 0x426F6E64206C6F636B6564000000000000000000000000000000000000000000 PUSH0 DUP3 ADD MSTORE POP JUMP JUMPDEST PUSH0 PUSH2 0x50F3 PUSH1 0xB DUP4 PUSH2 0x44A1 JUMP JUMPDEST SWAP2 POP PUSH2 0x50FE DUP3 PUSH2 0x50BF JUMP JUMPDEST PUSH1 0x20 DUP3 ADD SWAP1 POP SWAP2 SWAP1 POP JUMP JUMPDEST PUSH0 PUSH1 0x20 DUP3 ADD SWAP1 POP DUP2 DUP2 SUB PUSH0 DUP4 ADD MSTORE PUSH2 0x5120 DUP2 PUSH2 0x50E7 JUMP JUMPDEST SWAP1 POP SWAP2 SWAP1 POP JUMP JUMPDEST PUSH32 0x4E6F2070656E64696E6720756E7374616B650000000000000000000000000000 PUSH0 DUP3 ADD MSTORE POP JUMP JUMPDEST PUSH0 PUSH2 0x515B PUSH1 0x12 DUP4 PUSH2 0x44A1 JUMP JUMPDEST SWAP2 POP PUSH2 0x5166 DUP3 PUSH2 0x5127 JUMP JUMPDEST PUSH1 0x20 DUP3 ADD SWAP1 POP SWAP2 SWAP1 POP JUMP JUMPDEST PUSH0 PUSH1 0x20 DUP3 ADD SWAP1 POP DUP2 DUP2 SUB PUSH0 DUP4 ADD MSTORE PUSH2 0x5188 DUP2 PUSH2 0x514F JUMP JUMPDEST SWAP1 POP SWAP2 SWAP1 POP JUMP JUMPDEST PUSH32 0x436F6F6C646F776E206163746976650000000000000000000000000000000000 PUSH0 DUP3 ADD MSTORE POP JUMP JUMPDEST PUSH0 PUSH2 0x51C3 PUSH1 0xF DUP4 PUSH2 0x44A1 JUMP JUMPDEST SWAP2 POP PUSH2 0x51CE DUP3 PUSH2 0x518F JUMP JUMPDEST PUSH1 0x20 DUP3 ADD SWAP1 POP SWAP2 SWAP1 POP JUMP JUMPDEST PUSH0 PUSH1 0x20 DUP3 ADD SWAP1 POP DUP2 DUP2 SUB PUSH0 DUP4 ADD MSTORE PUSH2 0x51F0 DUP2 PUSH2 0x51B7 JUMP JUMPDEST SWAP1 POP SWAP2 SWAP1 POP JUMP JUMPDEST PUSH32 0x4E487B7100000000000000000000000000000000000000000000000000000000 PUSH0 MSTORE PUSH1 0x41 PUSH1 0x4 MSTORE PUSH1 0x24 PUSH0 REVERT JUMPDEST PUSH32 0x556E6B6E6F776E20746F6B656E00000000000000000000000000000000000000 PUSH0 DUP3 ADD MSTORE POP JUMP JUMPDEST PUSH0 PUSH2 0x5258 PUSH1 0xD DUP4 PUSH2 0x44A1 JUMP JUMPDEST SWAP2 POP PUSH2 0x5263 DUP3 PUSH2 0x5224 JUMP JUMPDEST PUSH1 0x20 DUP3 ADD SWAP1 POP SWAP2 SWAP1 POP JUMP JUMPDEST PUSH0 PUSH1 0x20 DUP3 ADD SWAP1 POP DUP2 DUP2 SUB PUSH0 DUP4 ADD MSTORE PUSH2 0x5285 DUP2 PUSH2 0x524C JUMP JUMPDEST SWAP1 POP SWAP2 SWAP1 POP JUMP JUMPDEST DUP3 DUP2 DUP4 CALLDATACOPY PUSH0 DUP4 DUP4 ADD MSTORE POP POP POP JUMP JUMPDEST PUSH0 PUSH2 0x52A5 DUP4 DUP6 PUSH2 0x4F6F JUMP JUMPDEST SWAP4 POP PUSH2 0x52B2 DUP4 DUP6 DUP5 PUSH2 0x528C JUMP JUMPDEST PUSH2 0x52BB DUP4 PUSH2 0x44BF JUMP JUMPDEST DUP5 ADD SWAP1 POP SWAP4 SWAP3 POP POP POP JUMP JUMPDEST PUSH0 PUSH1 0x60 DUP3 ADD SWAP1 POP DUP2 DUP2 SUB PUSH0 DUP4 ADD MSTORE PUSH2 0x52DF DUP2 DUP7 DUP9 PUSH2 0x529A JUMP JUMPDEST SWAP1 POP PUSH2 0x52EE PUSH1 0x20 DUP4 ADD DUP6 PUSH2 0x431A JUMP JUMPDEST PUSH2 0x52FB PUSH1 0x40 DUP4 ADD DUP5 PUSH2 0x4507 JUMP JUMPDEST SWAP6 SWAP5 POP POP POP POP POP JUMP JUMPDEST PUSH32 0x496E76616C6964205A4B00000000000000000000000000000000000000000000 PUSH0 DUP3 ADD MSTORE POP JUMP JUMPDEST PUSH0 PUSH2 0x5338 PUSH1 0xA DUP4 PUSH2 0x44A1 JUMP JUMPDEST SWAP2 POP PUSH2 0x5343 DUP3 PUSH2 0x5304 JUMP JUMPDEST PUSH1 0x20 DUP3 ADD SWAP1 POP SWAP2 SWAP1 POP JUMP JUMPDEST PUSH0 PUSH1 0x20 DUP3 ADD SWAP1 POP DUP2 DUP2 SUB PUSH0 DUP4 ADD MSTORE PUSH2 0x5365 DUP2 PUSH2 0x532C JUMP JUMPDEST SWAP1 POP SWAP2 SWAP1 POP JUMP JUMPDEST PUSH32 0x4E487B7100000000000000000000000000000000000000000000000000000000 PUSH0 MSTORE PUSH1 0x32 PUSH1 0x4 MSTORE PUSH1 0x24 PUSH0 REVERT JUMPDEST PUSH0 PUSH0 REVERT JUMPDEST PUSH0 PUSH0 REVERT JUMPDEST PUSH0 PUSH0 REVERT JUMPDEST PUSH0 PUSH0 DUP4 CALLDATALOAD PUSH1 0x1 PUSH1 0x20 SUB DUP5 CALLDATASIZE SUB SUB DUP2 SLT PUSH2 0x53C1 JUMPI PUSH2 0x53C0 PUSH2 0x5399 JUMP JUMPDEST JUMPDEST DUP1 DUP5 ADD SWAP3 POP DUP3 CALLDATALOAD SWAP2 POP PUSH8 0xFFFFFFFFFFFFFFFF DUP3 GT ISZERO PUSH2 0x53E3 JUMPI PUSH2 0x53E2 PUSH2 0x539D JUMP JUMPDEST JUMPDEST PUSH1 0x20 DUP4 ADD SWAP3 POP PUSH1 0x1 DUP3 MUL CALLDATASIZE SUB DUP4 SGT ISZERO PUSH2 0x53FF JUMPI PUSH2 0x53FE PUSH2 0x53A1 JUMP JUMPDEST JUMPDEST POP SWAP3 POP SWAP3 SWAP1 POP JUMP JUMPDEST PUSH0 DUP2 SWAP1 POP SWAP3 SWAP2 POP POP JUMP JUMPDEST PUSH0 PUSH2 0x541C DUP4 DUP6 PUSH2 0x5407 JUMP JUMPDEST SWAP4 POP PUSH2 0x5429 DUP4 DUP6 DUP5 PUSH2 0x528C JUMP JUMPDEST DUP3 DUP5 ADD SWAP1 POP SWAP4 SWAP3 POP POP POP JUMP JUMPDEST PUSH0 PUSH2 0x5441 DUP3 DUP5 DUP7 PUSH2 0x5411 JUMP JUMPDEST SWAP2 POP DUP2 SWAP1 POP SWAP4 SWAP3 POP POP POP JUMP JUMPDEST PUSH32 0x4D756C746963616C6C206661696C656400000000000000000000000000000000 PUSH0 DUP3 ADD MSTORE POP JUMP JUMPDEST PUSH0 PUSH2 0x5481 PUSH1 0x10 DUP4 PUSH2 0x44A1 JUMP JUMPDEST SWAP2 POP PUSH2 0x548C DUP3 PUSH2 0x544D JUMP JUMPDEST PUSH1 0x20 DUP3 ADD SWAP1 POP SWAP2 SWAP1 POP JUMP JUMPDEST PUSH0 PUSH1 0x20 DUP3 ADD SWAP1 POP DUP2 DUP2 SUB PUSH0 DUP4 ADD MSTORE PUSH2 0x54AE DUP2 PUSH2 0x5475 JUMP JUMPDEST SWAP1 POP SWAP2 SWAP1 POP JUMP JUMPDEST PUSH32 0x4E6F6E6520766573746564000000000000000000000000000000000000000000 PUSH0 DUP3 ADD MSTORE POP JUMP JUMPDEST PUSH0 PUSH2 0x54E9 PUSH1 0xB DUP4 PUSH2 0x44A1 JUMP JUMPDEST SWAP2 POP PUSH2 0x54F4 DUP3 PUSH2 0x54B5 JUMP JUMPDEST PUSH1 0x20 DUP3 ADD SWAP1 POP SWAP2 SWAP1 POP JUMP JUMPDEST PUSH0 PUSH1 0x20 DUP3 ADD SWAP1 POP DUP2 DUP2 SUB PUSH0 DUP4 ADD MSTORE PUSH2 0x5516 DUP2 PUSH2 0x54DD JUMP JUMPDEST SWAP1 POP SWAP2 SWAP1 POP JUMP JUMPDEST PUSH32 0x4E6F7468696E6720746F20636C61696D00000000000000000000000000000000 PUSH0 DUP3 ADD MSTORE POP JUMP JUMPDEST PUSH0 PUSH2 0x5551 PUSH1 0x10 DUP4 PUSH2 0x44A1 JUMP JUMPDEST SWAP2 POP PUSH2 0x555C DUP3 PUSH2 0x551D JUMP JUMPDEST PUSH1 0x20 DUP3 ADD SWAP1 POP SWAP2 SWAP1 POP JUMP JUMPDEST PUSH0 PUSH1 0x20 DUP3 ADD SWAP1 POP DUP2 DUP2 SUB PUSH0 DUP4 ADD MSTORE PUSH2 0x557E DUP2 PUSH2 0x5545 JUMP JUMPDEST SWAP1 POP SWAP2 SWAP1 POP JUMP JUMPDEST PUSH0 PUSH1 0x80 DUP3 ADD SWAP1 POP PUSH2 0x5598 PUSH0 DUP4 ADD DUP8 PUSH2 0x4507 JUMP JUMPDEST PUSH2 0x55A5 PUSH1 0x20 DUP4 ADD DUP7 PUSH2 0x431A JUMP JUMPDEST PUSH2 0x55B2 PUSH1 0x40 DUP4 ADD DUP6 PUSH2 0x4507 JUMP JUMPDEST PUSH2 0x55BF PUSH1 0x60 DUP4 ADD DUP5 PUSH2 0x431A JUMP JUMPDEST SWAP6 SWAP5 POP POP POP POP POP JUMP JUMPDEST PUSH0 DUP2 MLOAD SWAP1 POP PUSH2 0x55D6 DUP2 PUSH2 0x41C8 JUMP JUMPDEST SWAP3 SWAP2 POP POP JUMP JUMPDEST PUSH0 PUSH1 0x20 DUP3 DUP5 SUB SLT ISZERO PUSH2 0x55F1 JUMPI PUSH2 0x55F0 PUSH2 0x3E93 JUMP JUMPDEST JUMPDEST PUSH0 PUSH2 0x55FE DUP5 DUP3 DUP6 ADD PUSH2 0x55C8 JUMP JUMPDEST SWAP2 POP POP SWAP3 SWAP2 POP POP JUMP JUMPDEST PUSH32 0x496E76616C696420363535310000000000000000000000000000000000000000 PUSH0 DUP3 ADD MSTORE POP JUMP JUMPDEST PUSH0 PUSH2 0x563B PUSH1 0xC DUP4 PUSH2 0x44A1 JUMP JUMPDEST SWAP2 POP PUSH2 0x5646 DUP3 PUSH2 0x5607 JUMP JUMPDEST PUSH1 0x20 DUP3 ADD SWAP1 POP SWAP2 SWAP1 POP JUMP JUMPDEST PUSH0 PUSH1 0x20 DUP3 ADD SWAP1 POP DUP2 DUP2 SUB PUSH0 DUP4 ADD MSTORE PUSH2 0x5668 DUP2 PUSH2 0x562F JUMP JUMPDEST SWAP1 POP SWAP2 SWAP1 POP JUMP JUMPDEST PUSH2 0x5678 DUP2 PUSH2 0x4BB4 JUMP JUMPDEST DUP3 MSTORE POP POP JUMP JUMPDEST PUSH0 PUSH1 0xE0 DUP3 ADD SWAP1 POP PUSH2 0x5691 PUSH0 DUP4 ADD DUP11 PUSH2 0x4507 JUMP JUMPDEST PUSH2 0x569E PUSH1 0x20 DUP4 ADD DUP10 PUSH2 0x4507 JUMP JUMPDEST PUSH2 0x56AB PUSH1 0x40 DUP4 ADD DUP9 PUSH2 0x431A JUMP JUMPDEST PUSH2 0x56B8 PUSH1 0x60 DUP4 ADD DUP8 PUSH2 0x431A JUMP JUMPDEST PUSH2 0x56C5 PUSH1 0x80 DUP4 ADD DUP7 PUSH2 0x566F JUMP JUMPDEST PUSH2 0x56D2 PUSH1 0xA0 DUP4 ADD DUP6 PUSH2 0x42B4 JUMP JUMPDEST PUSH2 0x56DF PUSH1 0xC0 DUP4 ADD DUP5 PUSH2 0x42B4 JUMP JUMPDEST SWAP9 SWAP8 POP POP POP POP POP POP POP POP JUMP JUMPDEST PUSH32 0x5061757361626C653A2070617573656400000000000000000000000000000000 PUSH0 DUP3 ADD MSTORE POP JUMP JUMPDEST PUSH0 PUSH2 0x571F PUSH1 0x10 DUP4 PUSH2 0x44A1 JUMP JUMPDEST SWAP2 POP PUSH2 0x572A DUP3 PUSH2 0x56EB JUMP JUMPDEST PUSH1 0x20 DUP3 ADD SWAP1 POP SWAP2 SWAP1 POP JUMP JUMPDEST PUSH0 PUSH1 0x20 DUP3 ADD SWAP1 POP DUP2 DUP2 SUB PUSH0 DUP4 ADD MSTORE PUSH2 0x574C DUP2 PUSH2 0x5713 JUMP JUMPDEST SWAP1 POP SWAP2 SWAP1 POP JUMP JUMPDEST PUSH0 PUSH2 0x575D DUP3 PUSH2 0x40C6 JUMP JUMPDEST SWAP2 POP PUSH32 0xFFFFFFFFFFFFFFFFFFFFFFFFFFFFFFFFFFFFFFFFFFFFFFFFFFFFFFFFFFFFFFFF DUP3 SUB PUSH2 0x578F JUMPI PUSH2 0x578E PUSH2 0x4ECD JUMP JUMPDEST JUMPDEST PUSH1 0x1 DUP3 ADD SWAP1 POP SWAP2 SWAP1 POP JUMP JUMPDEST PUSH32 0x416C726561647920636C61696D65640000000000000000000000000000000000 PUSH0 DUP3 ADD MSTORE POP JUMP JUMPDEST PUSH0 PUSH2 0x57CE PUSH1 0xF DUP4 PUSH2 0x44A1 JUMP JUMPDEST SWAP2 POP PUSH2 0x57D9 DUP3 PUSH2 0x579A JUMP JUMPDEST PUSH1 0x20 DUP3 ADD SWAP1 POP SWAP2 SWAP1 POP JUMP JUMPDEST PUSH0 PUSH1 0x20 DUP3 ADD SWAP1 POP DUP2 DUP2 SUB PUSH0 DUP4 ADD MSTORE PUSH2 0x57FB DUP2 PUSH2 0x57C2 JUMP JUMPDEST SWAP1 POP SWAP2 SWAP1 POP JUMP JUMPDEST PUSH32 0x566F6C756D6520746F6F206C6F77000000000000000000000000000000000000 PUSH0 DUP3 ADD MSTORE POP JUMP JUMPDEST PUSH0 PUSH2 0x5836 PUSH1 0xE DUP4 PUSH2 0x44A1 JUMP JUMPDEST SWAP2 POP PUSH2 0x5841 DUP3 PUSH2 0x5802 JUMP JUMPDEST PUSH1 0x20 DUP3 ADD SWAP1 POP SWAP2 SWAP1 POP JUMP JUMPDEST PUSH0 PUSH1 0x20 DUP3 ADD SWAP1 POP DUP2 DUP2 SUB PUSH0 DUP4 ADD MSTORE PUSH2 0x5863 DUP2 PUSH2 0x582A JUMP JUMPDEST SWAP1 POP SWAP2 SWAP1 POP JUMP JUMPDEST PUSH32 0x4E6F207265776172640000000000000000000000000000000000000000000000 PUSH0 DUP3 ADD MSTORE POP JUMP JUMPDEST PUSH0 PUSH2 0x589E PUSH1 0x9 DUP4 PUSH2 0x44A1 JUMP JUMPDEST SWAP2 POP PUSH2 0x58A9 DUP3 PUSH2 0x586A JUMP JUMPDEST PUSH1 0x20 DUP3 ADD SWAP1 POP SWAP2 SWAP1 POP JUMP JUMPDEST PUSH0 PUSH1 0x20 DUP3 ADD SWAP1 POP DUP2 DUP2 SUB PUSH0 DUP4 ADD MSTORE PUSH2 0x58CB DUP2 PUSH2 0x5892 JUMP JUMPDEST SWAP1 POP SWAP2 SWAP1 POP JUMP JUMPDEST PUSH0 PUSH2 0x58DC DUP3 PUSH2 0x40C6 JUMP JUMPDEST SWAP2 POP PUSH2 0x58E7 DUP4 PUSH2 0x40C6 JUMP JUMPDEST SWAP3 POP DUP3 DUP3 MUL PUSH2 0x58F5 DUP2 PUSH2 0x40C6 JUMP JUMPDEST SWAP2 POP DUP3 DUP3 DIV DUP5 EQ DUP4 ISZERO OR PUSH2 0x590C JUMPI PUSH2 0x590B PUSH2 0x4ECD JUMP JUMPDEST JUMPDEST POP SWAP3 SWAP2 POP POP JUMP JUMPDEST PUSH0 PUSH1 0x60 DUP3 ADD SWAP1 POP PUSH2 0x5926 PUSH0 DUP4 ADD DUP7 PUSH2 0x4507 JUMP JUMPDEST PUSH2 0x5933 PUSH1 0x20 DUP4 ADD DUP6 PUSH2 0x4507 JUMP JUMPDEST PUSH2 0x5940 PUSH1 0x40 DUP4 ADD DUP5 PUSH2 0x431A JUMP JUMPDEST SWAP5 SWAP4 POP POP POP POP JUMP JUMPDEST PUSH0 PUSH1 0x40 DUP3 ADD SWAP1 POP PUSH2 0x595B PUSH0 DUP4 ADD DUP6 PUSH2 0x4507 JUMP JUMPDEST PUSH2 0x5968 PUSH1 0x20 DUP4 ADD DUP5 PUSH2 0x431A JUMP JUMPDEST SWAP4 SWAP3 POP POP POP JUMP JUMPDEST PUSH0 DUP2 PUSH1 0x60 SHL SWAP1 POP SWAP2 SWAP1 POP JUMP JUMPDEST PUSH0 PUSH2 0x5985 DUP3 PUSH2 0x596F JUMP JUMPDEST SWAP1 POP SWAP2 SWAP1 POP JUMP JUMPDEST PUSH0 PUSH2 0x5996 DUP3 PUSH2 0x597B JUMP JUMPDEST SWAP1 POP SWAP2 SWAP1 POP JUMP JUMPDEST PUSH2 0x59AE PUSH2 0x59A9 DUP3 PUSH2 0x41B7 JUMP JUMPDEST PUSH2 0x598C JUMP JUMPDEST DUP3 MSTORE POP POP JUMP JUMPDEST PUSH0 DUP2 SWAP1 POP SWAP2 SWAP1 POP JUMP JUMPDEST PUSH2 0x59CE PUSH2 0x59C9 DUP3 PUSH2 0x40C6 JUMP JUMPDEST PUSH2 0x59B4 JUMP JUMPDEST DUP3 MSTORE POP POP JUMP JUMPDEST PUSH0 PUSH2 0x59DF DUP3 DUP6 PUSH2 0x599D JUMP JUMPDEST PUSH1 0x14 DUP3 ADD SWAP2 POP PUSH2 0x59EF DUP3 DUP5 PUSH2 0x59BD JUMP JUMPDEST PUSH1 0x20 DUP3 ADD SWAP2 POP DUP2 SWAP1 POP SWAP4 SWAP3 POP POP POP JUMP JUMPDEST PUSH32 0x496E76616C69642070726F6F6600000000000000000000000000000000000000 PUSH0 DUP3 ADD MSTORE POP JUMP JUMPDEST PUSH0 PUSH2 0x5A33 PUSH1 0xD DUP4 PUSH2 0x44A1 JUMP JUMPDEST SWAP2 POP PUSH2 0x5A3E DUP3 PUSH2 0x59FF JUMP JUMPDEST PUSH1 0x20 DUP3 ADD SWAP1 POP SWAP2 SWAP1 POP JUMP JUMPDEST PUSH0 PUSH1 0x20 DUP3 ADD SWAP1 POP DUP2 DUP2 SUB PUSH0 DUP4 ADD MSTORE PUSH2 0x5A60 DUP2 PUSH2 0x5A27 JUMP JUMPDEST SWAP1 POP SWAP2 SWAP1 POP JUMP JUMPDEST PUSH0 PUSH1 0x40 DUP3 ADD SWAP1 POP PUSH2 0x5A7A PUSH0 DUP4 ADD DUP6 PUSH2 0x431A JUMP JUMPDEST PUSH2 0x5A87 PUSH1 0x20 DUP4 ADD DUP5 PUSH2 0x47F5 JUMP JUMPDEST SWAP4 SWAP3 POP POP POP JUMP JUMPDEST PUSH32 0x4E487B7100000000000000000000000000000000000000000000000000000000 PUSH0 MSTORE PUSH1 0x12 PUSH1 0x4 MSTORE PUSH1 0x24 PUSH0 REVERT JUMPDEST PUSH0 PUSH2 0x5AC5 DUP3 PUSH2 0x40C6 JUMP JUMPDEST SWAP2 POP PUSH2 0x5AD0 DUP4 PUSH2 0x40C6 JUMP JUMPDEST SWAP3 POP DUP3 PUSH2 0x5AE0 JUMPI PUSH2 0x5ADF PUSH2 0x5A8E JUMP JUMPDEST JUMPDEST DUP3 DUP3 DIV SWAP1 POP SWAP3 SWAP2 POP POP JUMP JUMPDEST PUSH0 PUSH1 0xA0 DUP3 ADD SWAP1 POP PUSH2 0x5AFE PUSH0 DUP4 ADD DUP9 PUSH2 0x42B4 JUMP JUMPDEST PUSH2 0x5B0B PUSH1 0x20 DUP4 ADD DUP8 PUSH2 0x431A JUMP JUMPDEST PUSH2 0x5B18 PUSH1 0x40 DUP4 ADD DUP7 PUSH2 0x431A JUMP JUMPDEST PUSH2 0x5B25 PUSH1 0x60 DUP4 ADD DUP6 PUSH2 0x431A JUMP JUMPDEST PUSH2 0x5B32 PUSH1 0x80 DUP4 ADD DUP5 PUSH2 0x4507 JUMP JUMPDEST SWAP7 SWAP6 POP POP POP POP POP POP JUMP JUMPDEST PUSH32 0x496E76616C696420736967000000000000000000000000000000000000000000 PUSH0 DUP3 ADD MSTORE POP JUMP JUMPDEST PUSH0 PUSH2 0x5B70 PUSH1 0xB DUP4 PUSH2 0x44A1 JUMP JUMPDEST SWAP2 POP PUSH2 0x5B7B DUP3 PUSH2 0x5B3C JUMP JUMPDEST PUSH1 0x20 DUP3 ADD SWAP1 POP SWAP2 SWAP1 POP JUMP JUMPDEST PUSH0 PUSH1 0x20 DUP3 ADD SWAP1 POP DUP2 DUP2 SUB PUSH0 DUP4 ADD MSTORE PUSH2 0x5B9D DUP2 PUSH2 0x5B64 JUMP JUMPDEST SWAP1 POP SWAP2 SWAP1 POP JUMP JUMPDEST PUSH0 PUSH1 0x40 DUP3 ADD SWAP1 POP PUSH2 0x5BB7 PUSH0 DUP4 ADD DUP6 PUSH2 0x4507 JUMP JUMPDEST PUSH2 0x5BC4 PUSH1 0x20 DUP4 ADD DUP5 PUSH2 0x42B4 JUMP JUMPDEST SWAP4 SWAP3 POP POP POP JUMP JUMPDEST PUSH32 0x5061757361626C653A206E6F7420706175736564000000000000000000000000 PUSH0 DUP3 ADD MSTORE POP JUMP JUMPDEST PUSH0 PUSH2 0x5BFF PUSH1 0x14 DUP4 PUSH2 0x44A1 JUMP JUMPDEST SWAP2 POP PUSH2 0x5C0A DUP3 PUSH2 0x5BCB JUMP JUMPDEST PUSH1 0x20 DUP3 ADD SWAP1 POP SWAP2 SWAP1 POP JUMP JUMPDEST PUSH0 PUSH1 0x20 DUP3 ADD SWAP1 POP DUP2 DUP2 SUB PUSH0 DUP4 ADD MSTORE PUSH2 0x5C2C DUP2 PUSH2 0x5BF3 JUMP JUMPDEST SWAP1 POP SWAP2 SWAP1 POP JUMP JUMPDEST PUSH32 0x4E487B7100000000000000000000000000000000000000000000000000000000 PUSH0 MSTORE PUSH1 0x22 PUSH1 0x4 MSTORE PUSH1 0x24 PUSH0 REVERT JUMPDEST PUSH0 PUSH1 0x2 DUP3 DIV SWAP1 POP PUSH1 0x1 DUP3 AND DUP1 PUSH2 0x5C77 JUMPI PUSH1 0x7F DUP3 AND SWAP2 POP JUMPDEST PUSH1 0x20 DUP3 LT DUP2 SUB PUSH2 0x5C8A JUMPI PUSH2 0x5C89 PUSH2 0x5C33 JUMP JUMPDEST JUMPDEST POP SWAP2 SWAP1 POP JUMP JUMPDEST PUSH0 PUSH1 0x60 DUP3 ADD SWAP1 POP PUSH2 0x5CA3 PUSH0 DUP4 ADD DUP7 PUSH2 0x431A JUMP JUMPDEST PUSH2 0x5CB0 PUSH1 0x20 DUP4 ADD DUP6 PUSH2 0x431A JUMP JUMPDEST PUSH2 0x5CBD PUSH1 0x40 DUP4 ADD DUP5 PUSH2 0x431A JUMP JUMPDEST SWAP5 SWAP4 POP POP POP POP JUMP JUMPDEST PUSH0 PUSH1 0xA0 DUP3 ADD SWAP1 POP PUSH2 0x5CD8 PUSH0 DUP4 ADD DUP9 PUSH2 0x42B4 JUMP JUMPDEST PUSH2 0x5CE5 PUSH1 0x20 DUP4 ADD DUP8 PUSH2 0x42B4 JUMP JUMPDEST PUSH2 0x5CF2 PUSH1 0x40 DUP4 ADD DUP7 PUSH2 0x42B4 JUMP JUMPDEST PUSH2 0x5CFF PUSH1 0x60 DUP4 ADD DUP6 PUSH2 0x431A JUMP JUMPDEST PUSH2 0x5D0C PUSH1 0x80 DUP4 ADD DUP5 PUSH2 0x4507 JUMP JUMPDEST SWAP7 SWAP6 POP POP POP POP POP POP JUMP JUMPDEST PUSH0 PUSH1 0x80 DUP3 ADD SWAP1 POP PUSH2 0x5D29 PUSH0 DUP4 ADD DUP8 PUSH2 0x42B4 JUMP JUMPDEST PUSH2 0x5D36 PUSH1 0x20 DUP4 ADD DUP7 PUSH2 0x566F JUMP JUMPDEST PUSH2 0x5D43 PUSH1 0x40 DUP4 ADD DUP6 PUSH2 0x42B4 JUMP JUMPDEST PUSH2 0x5D50 PUSH1 0x60 DUP4 ADD DUP5 PUSH2 0x42B4 JUMP JUMPDEST SWAP6 SWAP5 POP POP POP POP POP JUMP INVALID LOG2 PUSH5 0x6970667358 0x22 SLT KECCAK256 PUSH23 0x59C220B5D9348F7A91F9A9D383B1E6A2FF03979DDCC64D RETURNDATACOPY ADDMOD 0xAB SWAP11 0x25 0xC0 0x2A 0x2F PUSH5 0x736F6C6343 STOP ADDMOD 0x1E STOP CALLER PUSH1 0xC0 PUSH1 0x40 MSTORE CALLVALUE DUP1 ISZERO PUSH2 0xF JUMPI PUSH0 PUSH0 REVERT JUMPDEST POP PUSH1 0x40 MLOAD PUSH2 0x273F CODESIZE SUB DUP1 PUSH2 0x273F DUP4 CODECOPY DUP2 DUP2 ADD PUSH1 0x40 MSTORE DUP2 ADD SWAP1 PUSH2 0x31 SWAP2 SWAP1 PUSH2 0x386 JUMP JUMPDEST DUP3 DUP3 DUP3 DUP2 PUSH1 0x3 SWAP1 DUP2 PUSH2 0x43 SWAP2 SWAP1 PUSH2 0x61E JUMP JUMPDEST POP DUP1 PUSH1 0x4 SWAP1 DUP2 PUSH2 0x53 SWAP2 SWAP1 PUSH2 0x61E JUMP JUMPDEST POP POP POP PUSH0 PUSH0 PUSH2 0x67 DUP4 PUSH2 0xC5 PUSH1 0x20 SHL PUSH1 0x20 SHR JUMP JUMPDEST SWAP2 POP SWAP2 POP DUP2 PUSH2 0x77 JUMPI PUSH1 0x12 PUSH2 0x79 JUMP JUMPDEST DUP1 JUMPDEST PUSH1 0xFF AND PUSH1 0xA0 DUP2 PUSH1 0xFF AND DUP2 MSTORE POP POP DUP3 PUSH20 0xFFFFFFFFFFFFFFFFFFFFFFFFFFFFFFFFFFFFFFFF AND PUSH1 0x80 DUP2 PUSH20 0xFFFFFFFFFFFFFFFFFFFFFFFFFFFFFFFFFFFFFFFF AND DUP2 MSTORE POP POP POP POP POP POP POP POP PUSH2 0x79C JUMP JUMPDEST PUSH0 PUSH0 PUSH0 PUSH0 DUP5 PUSH20 0xFFFFFFFFFFFFFFFFFFFFFFFFFFFFFFFFFFFFFFFF AND PUSH1 0x40 MLOAD PUSH1 0x24 ADD PUSH1 0x40 MLOAD PUSH1 0x20 DUP2 DUP4 SUB SUB DUP2 MSTORE SWAP1 PUSH1 0x40 MSTORE PUSH4 0x313CE567 PUSH1 0xE0 SHL PUSH1 0x20 DUP3 ADD DUP1 MLOAD PUSH28 0xFFFFFFFFFFFFFFFFFFFFFFFFFFFFFFFFFFFFFFFFFFFFFFFFFFFFFFFF DUP4 DUP2 DUP4 AND OR DUP4 MSTORE POP POP POP POP PUSH1 0x40 MLOAD PUSH2 0x138 SWAP2 SWAP1 PUSH2 0x731 JUMP JUMPDEST PUSH0 PUSH1 0x40 MLOAD DUP1 DUP4 SUB DUP2 DUP6 GAS STATICCALL SWAP2 POP POP RETURNDATASIZE DUP1 PUSH0 DUP2 EQ PUSH2 0x170 JUMPI PUSH1 0x40 MLOAD SWAP2 POP PUSH1 0x1F NOT PUSH1 0x3F RETURNDATASIZE ADD AND DUP3 ADD PUSH1 0x40 MSTORE RETURNDATASIZE DUP3 MSTORE RETURNDATASIZE PUSH0 PUSH1 0x20 DUP5 ADD RETURNDATACOPY PUSH2 0x175 JUMP JUMPDEST PUSH1 0x60 SWAP2 POP JUMPDEST POP SWAP2 POP SWAP2 POP DUP2 DUP1 ISZERO PUSH2 0x189 JUMPI POP PUSH1 0x20 DUP2 MLOAD LT ISZERO JUMPDEST ISZERO PUSH2 0x1C0 JUMPI PUSH0 DUP2 DUP1 PUSH1 0x20 ADD SWAP1 MLOAD DUP2 ADD SWAP1 PUSH2 0x1A3 SWAP2 SWAP1 PUSH2 0x771 JUMP JUMPDEST SWAP1 POP PUSH1 0xFF DUP1 AND DUP2 GT PUSH2 0x1BE JUMPI PUSH1 0x1 DUP2 SWAP5 POP SWAP5 POP POP POP POP PUSH2 0x1C9 JUMP JUMPDEST POP JUMPDEST PUSH0 PUSH0 SWAP4 POP SWAP4 POP POP POP JUMPDEST SWAP2 POP SWAP2 JUMP JUMPDEST PUSH0 PUSH1 0x40 MLOAD SWAP1 POP SWAP1 JUMP JUMPDEST PUSH0 PUSH0 REVERT JUMPDEST PUSH0 PUSH0 REVERT JUMPDEST PUSH0 PUSH20 0xFFFFFFFFFFFFFFFFFFFFFFFFFFFFFFFFFFFFFFFF DUP3 AND SWAP1 POP SWAP2 SWAP1 POP JUMP JUMPDEST PUSH0 PUSH2 0x208 DUP3 PUSH2 0x1DF JUMP JUMPDEST SWAP1 POP SWAP2 SWAP1 POP JUMP JUMPDEST PUSH0 PUSH2 0x219 DUP3 PUSH2 0x1FE JUMP JUMPDEST SWAP1 POP SWAP2 SWAP1 POP JUMP JUMPDEST PUSH2 0x229 DUP2 PUSH2 0x20F JUMP JUMPDEST DUP2 EQ PUSH2 0x233 JUMPI PUSH0 PUSH0 REVERT JUMPDEST POP JUMP JUMPDEST PUSH0 DUP2 MLOAD SWAP1 POP PUSH2 0x244 DUP2 PUSH2 0x220 JUMP JUMPDEST SWAP3 SWAP2 POP POP JUMP JUMPDEST PUSH0 PUSH0 REVERT JUMPDEST PUSH0 PUSH0 REVERT JUMPDEST PUSH0 PUSH1 0x1F NOT PUSH1 0x1F DUP4 ADD AND SWAP1 POP SWAP2 SWAP1 POP JUMP JUMPDEST PUSH32 0x4E487B7100000000000000000000000000000000000000000000000000000000 PUSH0 MSTORE PUSH1 0x41 PUSH1 0x4 MSTORE PUSH1 0x24 PUSH0 REVERT JUMPDEST PUSH2 0x298 DUP3 PUSH2 0x252 JUMP JUMPDEST DUP2 ADD DUP2 DUP2 LT PUSH8 0xFFFFFFFFFFFFFFFF DUP3 GT OR ISZERO PUSH2 0x2B7 JUMPI PUSH2 0x2B6 PUSH2 0x262 JUMP JUMPDEST JUMPDEST DUP1 PUSH1 0x40 MSTORE POP POP POP JUMP JUMPDEST PUSH0 PUSH2 0x2C9 PUSH2 0x1CE JUMP JUMPDEST SWAP1 POP PUSH2 0x2D5 DUP3 DUP3 PUSH2 0x28F JUMP JUMPDEST SWAP2 SWAP1 POP JUMP JUMPDEST PUSH0 PUSH8 0xFFFFFFFFFFFFFFFF DUP3 GT ISZERO PUSH2 0x2F4 JUMPI PUSH2 0x2F3 PUSH2 0x262 JUMP JUMPDEST JUMPDEST PUSH2 0x2FD DUP3 PUSH2 0x252 JUMP JUMPDEST SWAP1 POP PUSH1 0x20 DUP2 ADD SWAP1 POP SWAP2 SWAP1 POP JUMP JUMPDEST DUP3 DUP2 DUP4 MCOPY PUSH0 DUP4 DUP4 ADD MSTORE POP POP POP JUMP JUMPDEST PUSH0 PUSH2 0x32A PUSH2 0x325 DUP5 PUSH2 0x2DA JUMP JUMPDEST PUSH2 0x2C0 JUMP JUMPDEST SWAP1 POP DUP3 DUP2 MSTORE PUSH1 0x20 DUP2 ADD DUP5 DUP5 DUP5 ADD GT ISZERO PUSH2 0x346 JUMPI PUSH2 0x345 PUSH2 0x24E JUMP JUMPDEST JUMPDEST PUSH2 0x351 DUP5 DUP3 DUP6 PUSH2 0x30A JUMP JUMPDEST POP SWAP4 SWAP3 POP POP POP JUMP JUMPDEST PUSH0 DUP3 PUSH1 0x1F DUP4 ADD SLT PUSH2 0x36D JUMPI PUSH2 0x36C PUSH2 0x24A JUMP JUMPDEST JUMPDEST DUP2 MLOAD PUSH2 0x37D DUP5 DUP3 PUSH1 0x20 DUP7 ADD PUSH2 0x318 JUMP JUMPDEST SWAP2 POP POP SWAP3 SWAP2 POP POP JUMP JUMPDEST PUSH0 PUSH0 PUSH0 PUSH1 0x60 DUP5 DUP7 SUB SLT ISZERO PUSH2 0x39D JUMPI PUSH2 0x39C PUSH2 0x1D7 JUMP JUMPDEST JUMPDEST PUSH0 PUSH2 0x3AA DUP7 DUP3 DUP8 ADD PUSH2 0x236 JUMP JUMPDEST SWAP4 POP POP PUSH1 0x20 DUP5 ADD MLOAD PUSH8 0xFFFFFFFFFFFFFFFF DUP2 GT ISZERO PUSH2 0x3CB JUMPI PUSH2 0x3CA PUSH2 0x1DB JUMP JUMPDEST JUMPDEST PUSH2 0x3D7 DUP7 DUP3 DUP8 ADD PUSH2 0x359 JUMP JUMPDEST SWAP3 POP POP PUSH1 0x40 DUP5 ADD MLOAD PUSH8 0xFFFFFFFFFFFFFFFF DUP2 GT ISZERO PUSH2 0x3F8 JUMPI PUSH2 0x3F7 PUSH2 0x1DB JUMP JUMPDEST JUMPDEST PUSH2 0x404 DUP7 DUP3 DUP8 ADD PUSH2 0x359 JUMP JUMPDEST SWAP2 POP POP SWAP3 POP SWAP3 POP SWAP3 JUMP JUMPDEST PUSH0 DUP2 MLOAD SWAP1 POP SWAP2 SWAP1 POP JUMP JUMPDEST PUSH32 0x4E487B7100000000000000000000000000000000000000000000000000000000 PUSH0 MSTORE PUSH1 0x22 PUSH1 0x4 MSTORE PUSH1 0x24 PUSH0 REVERT JUMPDEST PUSH0 PUSH1 0x2 DUP3 DIV SWAP1 POP PUSH1 0x1 DUP3 AND DUP1 PUSH2 0x45C JUMPI PUSH1 0x7F DUP3 AND SWAP2 POP JUMPDEST PUSH1 0x20 DUP3 LT DUP2 SUB PUSH2 0x46F JUMPI PUSH2 0x46E PUSH2 0x418 JUMP JUMPDEST JUMPDEST POP SWAP2 SWAP1 POP JUMP JUMPDEST PUSH0 DUP2 SWAP1 POP DUP2 PUSH0 MSTORE PUSH1 0x20 PUSH0 KECCAK256 SWAP1 POP SWAP2 SWAP1 POP JUMP JUMPDEST PUSH0 PUSH1 0x20 PUSH1 0x1F DUP4 ADD DIV SWAP1 POP SWAP2 SWAP1 POP JUMP JUMPDEST PUSH0 DUP3 DUP3 SHL SWAP1 POP SWAP3 SWAP2 POP POP JUMP JUMPDEST PUSH0 PUSH1 0x8 DUP4 MUL PUSH2 0x4D1 PUSH32 0xFFFFFFFFFFFFFFFFFFFFFFFFFFFFFFFFFFFFFFFFFFFFFFFFFFFFFFFFFFFFFFFF DUP3 PUSH2 0x496 JUMP JUMPDEST PUSH2 0x4DB DUP7 DUP4 PUSH2 0x496 JUMP JUMPDEST SWAP6 POP DUP1 NOT DUP5 AND SWAP4 POP DUP1 DUP7 AND DUP5 OR SWAP3 POP POP POP SWAP4 SWAP3 POP POP POP JUMP JUMPDEST PUSH0 DUP2 SWAP1 POP SWAP2 SWAP1 POP JUMP JUMPDEST PUSH0 DUP2 SWAP1 POP SWAP2 SWAP1 POP JUMP JUMPDEST PUSH0 PUSH2 0x51F PUSH2 0x51A PUSH2 0x515 DUP5 PUSH2 0x4F3 JUMP JUMPDEST PUSH2 0x4FC JUMP JUMPDEST PUSH2 0x4F3 JUMP JUMPDEST SWAP1 POP SWAP2 SWAP1 POP JUMP JUMPDEST PUSH0 DUP2 SWAP1 POP SWAP2 SWAP1 POP JUMP JUMPDEST PUSH2 0x538 DUP4 PUSH2 0x505 JUMP JUMPDEST PUSH2 0x54C PUSH2 0x544 DUP3 PUSH2 0x526 JUMP JUMPDEST DUP5 DUP5 SLOAD PUSH2 0x4A2 JUMP JUMPDEST DUP3 SSTORE POP POP POP POP JUMP JUMPDEST PUSH0 PUSH0 SWAP1 POP SWAP1 JUMP JUMPDEST PUSH2 0x563 PUSH2 0x554 JUMP JUMPDEST PUSH2 0x56E DUP2 DUP5 DUP5 PUSH2 0x52F JUMP JUMPDEST POP POP POP JUMP JUMPDEST JUMPDEST DUP2 DUP2 LT ISZERO PUSH2 0x591 JUMPI PUSH2 0x586 PUSH0 DUP3 PUSH2 0x55B JUMP JUMPDEST PUSH1 0x1 DUP2 ADD SWAP1 POP PUSH2 0x574 JUMP JUMPDEST POP POP JUMP JUMPDEST PUSH1 0x1F DUP3 GT ISZERO PUSH2 0x5D6 JUMPI PUSH2 0x5A7 DUP2 PUSH2 0x475 JUMP JUMPDEST PUSH2 0x5B0 DUP5 PUSH2 0x487 JUMP JUMPDEST DUP2 ADD PUSH1 0x20 DUP6 LT ISZERO PUSH2 0x5BF JUMPI DUP2 SWAP1 POP JUMPDEST PUSH2 0x5D3 PUSH2 0x5CB DUP6 PUSH2 0x487 JUMP JUMPDEST DUP4 ADD DUP3 PUSH2 0x573 JUMP JUMPDEST POP POP JUMPDEST POP POP POP JUMP JUMPDEST PUSH0 DUP3 DUP3 SHR SWAP1 POP SWAP3 SWAP2 POP POP JUMP JUMPDEST PUSH0 PUSH2 0x5F6 PUSH0 NOT DUP5 PUSH1 0x8 MUL PUSH2 0x5DB JUMP JUMPDEST NOT DUP1 DUP4 AND SWAP2 POP POP SWAP3 SWAP2 POP POP JUMP JUMPDEST PUSH0 PUSH2 0x60E DUP4 DUP4 PUSH2 0x5E7 JUMP JUMPDEST SWAP2 POP DUP3 PUSH1 0x2 MUL DUP3 OR SWAP1 POP SWAP3 SWAP2 POP POP JUMP JUMPDEST PUSH2 0x627 DUP3 PUSH2 0x40E JUMP JUMPDEST PUSH8 0xFFFFFFFFFFFFFFFF DUP2 GT ISZERO PUSH2 0x640 JUMPI PUSH2 0x63F PUSH2 0x262 JUMP JUMPDEST JUMPDEST PUSH2 0x64A DUP3 SLOAD PUSH2 0x445 JUMP JUMPDEST PUSH2 0x655 DUP3 DUP3 DUP6 PUSH2 0x595 JUMP JUMPDEST PUSH0 PUSH1 0x20 SWAP1 POP PUSH1 0x1F DUP4 GT PUSH1 0x1 DUP2 EQ PUSH2 0x686 JUMPI PUSH0 DUP5 ISZERO PUSH2 0x674 JUMPI DUP3 DUP8 ADD MLOAD SWAP1 POP JUMPDEST PUSH2 0x67E DUP6 DUP3 PUSH2 0x603 JUMP JUMPDEST DUP7 SSTORE POP PUSH2 0x6E5 JUMP JUMPDEST PUSH1 0x1F NOT DUP5 AND PUSH2 0x694 DUP7 PUSH2 0x475 JUMP JUMPDEST PUSH0 JUMPDEST DUP3 DUP2 LT ISZERO PUSH2 0x6BB JUMPI DUP5 DUP10 ADD MLOAD DUP3 SSTORE PUSH1 0x1 DUP3 ADD SWAP2 POP PUSH1 0x20 DUP6 ADD SWAP5 POP PUSH1 0x20 DUP2 ADD SWAP1 POP PUSH2 0x696 JUMP JUMPDEST DUP7 DUP4 LT ISZERO PUSH2 0x6D8 JUMPI DUP5 DUP10 ADD MLOAD PUSH2 0x6D4 PUSH1 0x1F DUP10 AND DUP3 PUSH2 0x5E7 JUMP JUMPDEST DUP4 SSTORE POP JUMPDEST PUSH1 0x1 PUSH1 0x2 DUP9 MUL ADD DUP9 SSTORE POP POP POP JUMPDEST POP POP POP POP POP POP JUMP JUMPDEST PUSH0 DUP2 MLOAD SWAP1 POP SWAP2 SWAP1 POP JUMP JUMPDEST PUSH0 DUP2 SWAP1 POP SWAP3 SWAP2 POP POP JUMP JUMPDEST PUSH0 PUSH2 0x70B DUP3 PUSH2 0x6ED JUMP JUMPDEST PUSH2 0x715 DUP2 DUP6 PUSH2 0x6F7 JUMP JUMPDEST SWAP4 POP PUSH2 0x725 DUP2 DUP6 PUSH1 0x20 DUP7 ADD PUSH2 0x30A JUMP JUMPDEST DUP1 DUP5 ADD SWAP2 POP POP SWAP3 SWAP2 POP POP JUMP JUMPDEST PUSH0 PUSH2 0x73C DUP3 DUP5 PUSH2 0x701 JUMP JUMPDEST SWAP2 POP DUP2 SWAP1 POP SWAP3 SWAP2 POP POP JUMP JUMPDEST PUSH2 0x750 DUP2 PUSH2 0x4F3 JUMP JUMPDEST DUP2 EQ PUSH2 0x75A JUMPI PUSH0 PUSH0 REVERT JUMPDEST POP JUMP JUMPDEST PUSH0 DUP2 MLOAD SWAP1 POP PUSH2 0x76B DUP2 PUSH2 0x747 JUMP JUMPDEST SWAP3 SWAP2 POP POP JUMP JUMPDEST PUSH0 PUSH1 0x20 DUP3 DUP5 SUB SLT ISZERO PUSH2 0x786 JUMPI PUSH2 0x785 PUSH2 0x1D7 JUMP JUMPDEST JUMPDEST PUSH0 PUSH2 0x793 DUP5 DUP3 DUP6 ADD PUSH2 0x75D JUMP JUMPDEST SWAP2 POP POP SWAP3 SWAP2 POP POP JUMP JUMPDEST PUSH1 0x80 MLOAD PUSH1 0xA0 MLOAD PUSH2 0x1F82 PUSH2 0x7BD PUSH0 CODECOPY PUSH0 PUSH2 0x757 ADD MSTORE PUSH0 PUSH2 0x788 ADD MSTORE PUSH2 0x1F82 PUSH0 RETURN INVALID PUSH1 0x80 PUSH1 0x40 MSTORE CALLVALUE DUP1 ISZERO PUSH2 0xF JUMPI PUSH0 PUSH0 REVERT JUMPDEST POP PUSH1 0x4 CALLDATASIZE LT PUSH2 0x171 JUMPI PUSH0 CALLDATALOAD PUSH1 0xE0 SHR DUP1 PUSH4 0x70A08231 GT PUSH2 0xDC JUMPI DUP1 PUSH4 0xBA087652 GT PUSH2 0x95 JUMPI DUP1 PUSH4 0xCE96CB77 GT PUSH2 0x6F JUMPI DUP1 PUSH4 0xCE96CB77 EQ PUSH2 0x4F9 JUMPI DUP1 PUSH4 0xD905777E EQ PUSH2 0x529 JUMPI DUP1 PUSH4 0xDD62ED3E EQ PUSH2 0x559 JUMPI DUP1 PUSH4 0xEF8B30F7 EQ PUSH2 0x589 JUMPI PUSH2 0x171 JUMP JUMPDEST DUP1 PUSH4 0xBA087652 EQ PUSH2 0x469 JUMPI DUP1 PUSH4 0xC63D75B6 EQ PUSH2 0x499 JUMPI DUP1 PUSH4 0xC6E6F592 EQ PUSH2 0x4C9 JUMPI PUSH2 0x171 JUMP JUMPDEST DUP1 PUSH4 0x70A08231 EQ PUSH2 0x35B JUMPI DUP1 PUSH4 0x94BF804D EQ PUSH2 0x38B JUMPI DUP1 PUSH4 0x95D89B41 EQ PUSH2 0x3BB JUMPI DUP1 PUSH4 0xA9059CBB EQ PUSH2 0x3D9 JUMPI DUP1 PUSH4 0xB3D7F6B9 EQ PUSH2 0x409 JUMPI DUP1 PUSH4 0xB460AF94 EQ PUSH2 0x439 JUMPI PUSH2 0x171 JUMP JUMPDEST DUP1 PUSH4 0x23B872DD GT PUSH2 0x12E JUMPI DUP1 PUSH4 0x23B872DD EQ PUSH2 0x25F JUMPI DUP1 PUSH4 0x313CE567 EQ PUSH2 0x28F JUMPI DUP1 PUSH4 0x38D52E0F EQ PUSH2 0x2AD JUMPI DUP1 PUSH4 0x402D267D EQ PUSH2 0x2CB JUMPI DUP1 PUSH4 0x4CDAD506 EQ PUSH2 0x2FB JUMPI DUP1 PUSH4 0x6E553F65 EQ PUSH2 0x32B JUMPI PUSH2 0x171 JUMP JUMPDEST DUP1 PUSH4 0x1E1D114 EQ PUSH2 0x175 JUMPI DUP1 PUSH4 0x6FDDE03 EQ PUSH2 0x193 JUMPI DUP1 PUSH4 0x7A2D13A EQ PUSH2 0x1B1 JUMPI DUP1 PUSH4 0x95EA7B3 EQ PUSH2 0x1E1 JUMPI DUP1 PUSH4 0xA28A477 EQ PUSH2 0x211 JUMPI DUP1 PUSH4 0x18160DDD EQ PUSH2 0x241 JUMPI JUMPDEST PUSH0 PUSH0 REVERT JUMPDEST PUSH2 0x17D PUSH2 0x5B9 JUMP JUMPDEST PUSH1 0x40 MLOAD PUSH2 0x18A SWAP2 SWAP1 PUSH2 0x17F1 JUMP JUMPDEST PUSH1 0x40 MLOAD DUP1 SWAP2 SUB SWAP1 RETURN JUMPDEST PUSH2 0x19B PUSH2 0x63E JUMP JUMPDEST PUSH1 0x40 MLOAD PUSH2 0x1A8 SWAP2 SWAP1 PUSH2 0x187A JUMP JUMPDEST PUSH1 0x40 MLOAD DUP1 SWAP2 SUB SWAP1 RETURN JUMPDEST PUSH2 0x1CB PUSH1 0x4 DUP1 CALLDATASIZE SUB DUP2 ADD SWAP1 PUSH2 0x1C6 SWAP2 SWAP1 PUSH2 0x18C8 JUMP JUMPDEST PUSH2 0x6CE JUMP JUMPDEST PUSH1 0x40 MLOAD PUSH2 0x1D8 SWAP2 SWAP1 PUSH2 0x17F1 JUMP JUMPDEST PUSH1 0x40 MLOAD DUP1 SWAP2 SUB SWAP1 RETURN JUMPDEST PUSH2 0x1FB PUSH1 0x4 DUP1 CALLDATASIZE SUB DUP2 ADD SWAP1 PUSH2 0x1F6 SWAP2 SWAP1 PUSH2 0x194D JUMP JUMPDEST PUSH2 0x6E0 JUMP JUMPDEST PUSH1 0x40 MLOAD PUSH2 0x208 SWAP2 SWAP1 PUSH2 0x19A5 JUMP JUMPDEST PUSH1 0x40 MLOAD DUP1 SWAP2 SUB SWAP1 RETURN JUMPDEST PUSH2 0x22B PUSH1 0x4 DUP1 CALLDATASIZE SUB DUP2 ADD SWAP1 PUSH2 0x226 SWAP2 SWAP1 PUSH2 0x18C8 JUMP JUMPDEST PUSH2 0x702 JUMP JUMPDEST PUSH1 0x40 MLOAD PUSH2 0x238 SWAP2 SWAP1 PUSH2 0x17F1 JUMP JUMPDEST PUSH1 0x40 MLOAD DUP1 SWAP2 SUB SWAP1 RETURN JUMPDEST PUSH2 0x249 PUSH2 0x715 JUMP JUMPDEST PUSH1 0x40 MLOAD PUSH2 0x256 SWAP2 SWAP1 PUSH2 0x17F1 JUMP JUMPDEST PUSH1 0x40 MLOAD DUP1 SWAP2 SUB SWAP1 RETURN JUMPDEST PUSH2 0x279 PUSH1 0x4 DUP1 CALLDATASIZE SUB DUP2 ADD SWAP1 PUSH2 0x274 SWAP2 SWAP1 PUSH2 0x19BE JUMP JUMPDEST PUSH2 0x71E JUMP JUMPDEST PUSH1 0x40 MLOAD PUSH2 0x286 SWAP2 SWAP1 PUSH2 0x19A5 JUMP JUMPDEST PUSH1 0x40 MLOAD DUP1 SWAP2 SUB SWAP1 RETURN JUMPDEST PUSH2 0x297 PUSH2 0x74C JUMP JUMPDEST PUSH1 0x40 MLOAD PUSH2 0x2A4 SWAP2 SWAP1 PUSH2 0x1A29 JUMP JUMPDEST PUSH1 0x40 MLOAD DUP1 SWAP2 SUB SWAP1 RETURN JUMPDEST PUSH2 0x2B5 PUSH2 0x785 JUMP JUMPDEST PUSH1 0x40 MLOAD PUSH2 0x2C2 SWAP2 SWAP1 PUSH2 0x1A51 JUMP JUMPDEST PUSH1 0x40 MLOAD DUP1 SWAP2 SUB SWAP1 RETURN JUMPDEST PUSH2 0x2E5 PUSH1 0x4 DUP1 CALLDATASIZE SUB DUP2 ADD SWAP1 PUSH2 0x2E0 SWAP2 SWAP1 PUSH2 0x1A6A JUMP JUMPDEST PUSH2 0x7AC JUMP JUMPDEST PUSH1 0x40 MLOAD PUSH2 0x2F2 SWAP2 SWAP1 PUSH2 0x17F1 JUMP JUMPDEST PUSH1 0x40 MLOAD DUP1 SWAP2 SUB SWAP1 RETURN JUMPDEST PUSH2 0x315 PUSH1 0x4 DUP1 CALLDATASIZE SUB DUP2 ADD SWAP1 PUSH2 0x310 SWAP2 SWAP1 PUSH2 0x18C8 JUMP JUMPDEST PUSH2 0x7D5 JUMP JUMPDEST PUSH1 0x40 MLOAD PUSH2 0x322 SWAP2 SWAP1 PUSH2 0x17F1 JUMP JUMPDEST PUSH1 0x40 MLOAD DUP1 SWAP2 SUB SWAP1 RETURN JUMPDEST PUSH2 0x345 PUSH1 0x4 DUP1 CALLDATASIZE SUB DUP2 ADD SWAP1 PUSH2 0x340 SWAP2 SWAP1 PUSH2 0x1A95 JUMP JUMPDEST PUSH2 0x7E7 JUMP JUMPDEST PUSH1 0x40 MLOAD PUSH2 0x352 SWAP2 SWAP1 PUSH2 0x17F1 JUMP JUMPDEST PUSH1 0x40 MLOAD DUP1 SWAP2 SUB SWAP1 RETURN JUMPDEST PUSH2 0x375 PUSH1 0x4 DUP1 CALLDATASIZE SUB DUP2 ADD SWAP1 PUSH2 0x370 SWAP2 SWAP1 PUSH2 0x1A6A JUMP JUMPDEST PUSH2 0x867 JUMP JUMPDEST PUSH1 0x40 MLOAD PUSH2 0x382 SWAP2 SWAP1 PUSH2 0x17F1 JUMP JUMPDEST PUSH1 0x40 MLOAD DUP1 SWAP2 SUB SWAP1 RETURN JUMPDEST PUSH2 0x3A5 PUSH1 0x4 DUP1 CALLDATASIZE SUB DUP2 ADD SWAP1 PUSH2 0x3A0 SWAP2 SWAP1 PUSH2 0x1A95 JUMP JUMPDEST PUSH2 0x8AC JUMP JUMPDEST PUSH1 0x40 MLOAD PUSH2 0x3B2 SWAP2 SWAP1 PUSH2 0x17F1 JUMP JUMPDEST PUSH1 0x40 MLOAD DUP1 SWAP2 SUB SWAP1 RETURN JUMPDEST PUSH2 0x3C3 PUSH2 0x92C JUMP JUMPDEST PUSH1 0x40 MLOAD PUSH2 0x3D0 SWAP2 SWAP1 PUSH2 0x187A JUMP JUMPDEST PUSH1 0x40 MLOAD DUP1 SWAP2 SUB SWAP1 RETURN JUMPDEST PUSH2 0x3F3 PUSH1 0x4 DUP1 CALLDATASIZE SUB DUP2 ADD SWAP1 PUSH2 0x3EE SWAP2 SWAP1 PUSH2 0x194D JUMP JUMPDEST PUSH2 0x9BC JUMP JUMPDEST PUSH1 0x40 MLOAD PUSH2 0x400 SWAP2 SWAP1 PUSH2 0x19A5 JUMP JUMPDEST PUSH1 0x40 MLOAD DUP1 SWAP2 SUB SWAP1 RETURN JUMPDEST PUSH2 0x423 PUSH1 0x4 DUP1 CALLDATASIZE SUB DUP2 ADD SWAP1 PUSH2 0x41E SWAP2 SWAP1 PUSH2 0x18C8 JUMP JUMPDEST PUSH2 0x9DE JUMP JUMPDEST PUSH1 0x40 MLOAD PUSH2 0x430 SWAP2 SWAP1 PUSH2 0x17F1 JUMP JUMPDEST PUSH1 0x40 MLOAD DUP1 SWAP2 SUB SWAP1 RETURN JUMPDEST PUSH2 0x453 PUSH1 0x4 DUP1 CALLDATASIZE SUB DUP2 ADD SWAP1 PUSH2 0x44E SWAP2 SWAP1 PUSH2 0x1AD3 JUMP JUMPDEST PUSH2 0x9F1 JUMP JUMPDEST PUSH1 0x40 MLOAD PUSH2 0x460 SWAP2 SWAP1 PUSH2 0x17F1 JUMP JUMPDEST PUSH1 0x40 MLOAD DUP1 SWAP2 SUB SWAP1 RETURN JUMPDEST PUSH2 0x483 PUSH1 0x4 DUP1 CALLDATASIZE SUB DUP2 ADD SWAP1 PUSH2 0x47E SWAP2 SWAP1 PUSH2 0x1AD3 JUMP JUMPDEST PUSH2 0xA73 JUMP JUMPDEST PUSH1 0x40 MLOAD PUSH2 0x490 SWAP2 SWAP1 PUSH2 0x17F1 JUMP JUMPDEST PUSH1 0x40 MLOAD DUP1 SWAP2 SUB SWAP1 RETURN JUMPDEST PUSH2 0x4B3 PUSH1 0x4 DUP1 CALLDATASIZE SUB DUP2 ADD SWAP1 PUSH2 0x4AE SWAP2 SWAP1 PUSH2 0x1A6A JUMP JUMPDEST PUSH2 0xAF5 JUMP JUMPDEST PUSH1 0x40 MLOAD PUSH2 0x4C0 SWAP2 SWAP1 PUSH2 0x17F1 JUMP JUMPDEST PUSH1 0x40 MLOAD DUP1 SWAP2 SUB SWAP1 RETURN JUMPDEST PUSH2 0x4E3 PUSH1 0x4 DUP1 CALLDATASIZE SUB DUP2 ADD SWAP1 PUSH2 0x4DE SWAP2 SWAP1 PUSH2 0x18C8 JUMP JUMPDEST PUSH2 0xB1E JUMP JUMPDEST PUSH1 0x40 MLOAD PUSH2 0x4F0 SWAP2 SWAP1 PUSH2 0x17F1 JUMP JUMPDEST PUSH1 0x40 MLOAD DUP1 SWAP2 SUB SWAP1 RETURN JUMPDEST PUSH2 0x513 PUSH1 0x4 DUP1 CALLDATASIZE SUB DUP2 ADD SWAP1 PUSH2 0x50E SWAP2 SWAP1 PUSH2 0x1A6A JUMP JUMPDEST PUSH2 0xB30 JUMP JUMPDEST PUSH1 0x40 MLOAD PUSH2 0x520 SWAP2 SWAP1 PUSH2 0x17F1 JUMP JUMPDEST PUSH1 0x40 MLOAD DUP1 SWAP2 SUB SWAP1 RETURN JUMPDEST PUSH2 0x543 PUSH1 0x4 DUP1 CALLDATASIZE SUB DUP2 ADD SWAP1 PUSH2 0x53E SWAP2 SWAP1 PUSH2 0x1A6A JUMP JUMPDEST PUSH2 0xB4A JUMP JUMPDEST PUSH1 0x40 MLOAD PUSH2 0x550 SWAP2 SWAP1 PUSH2 0x17F1 JUMP JUMPDEST PUSH1 0x40 MLOAD DUP1 SWAP2 SUB SWAP1 RETURN JUMPDEST PUSH2 0x573 PUSH1 0x4 DUP1 CALLDATASIZE SUB DUP2 ADD SWAP1 PUSH2 0x56E SWAP2 SWAP1 PUSH2 0x1B23 JUMP JUMPDEST PUSH2 0xB5B JUMP JUMPDEST PUSH1 0x40 MLOAD PUSH2 0x580 SWAP2 SWAP1 PUSH2 0x17F1 JUMP JUMPDEST PUSH1 0x40 MLOAD DUP1 SWAP2 SUB SWAP1 RETURN JUMPDEST PUSH2 0x5A3 PUSH1 0x4 DUP1 CALLDATASIZE SUB DUP2 ADD SWAP1 PUSH2 0x59E SWAP2 SWAP1 PUSH2 0x18C8 JUMP JUMPDEST PUSH2 0xBDD JUMP JUMPDEST PUSH1 0x40 MLOAD PUSH2 0x5B0 SWAP2 SWAP1 PUSH2 0x17F1 JUMP JUMPDEST PUSH1 0x40 MLOAD DUP1 SWAP2 SUB SWAP1 RETURN JUMPDEST PUSH0 PUSH2 0x5C2 PUSH2 0x785 JUMP JUMPDEST PUSH20 0xFFFFFFFFFFFFFFFFFFFFFFFFFFFFFFFFFFFFFFFF AND PUSH4 0x70A08231 ADDRESS PUSH1 0x40 MLOAD DUP3 PUSH4 0xFFFFFFFF AND PUSH1 0xE0 SHL DUP2 MSTORE PUSH1 0x4 ADD PUSH2 0x5FA SWAP2 SWAP1 PUSH2 0x1A51 JUMP JUMPDEST PUSH1 0x20 PUSH1 0x40 MLOAD DUP1 DUP4 SUB DUP2 DUP7 GAS STATICCALL ISZERO DUP1 ISZERO PUSH2 0x615 JUMPI RETURNDATASIZE PUSH0 PUSH0 RETURNDATACOPY RETURNDATASIZE PUSH0 REVERT JUMPDEST POP POP POP POP PUSH1 0x40 MLOAD RETURNDATASIZE PUSH1 0x1F NOT PUSH1 0x1F DUP3 ADD AND DUP3 ADD DUP1 PUSH1 0x40 MSTORE POP DUP2 ADD SWAP1 PUSH2 0x639 SWAP2 SWAP1 PUSH2 0x1B75 JUMP JUMPDEST SWAP1 POP SWAP1 JUMP JUMPDEST PUSH1 0x60 PUSH1 0x3 DUP1 SLOAD PUSH2 0x64D SWAP1 PUSH2 0x1BCD JUMP JUMPDEST DUP1 PUSH1 0x1F ADD PUSH1 0x20 DUP1 SWAP2 DIV MUL PUSH1 0x20 ADD PUSH1 0x40 MLOAD SWAP1 DUP2 ADD PUSH1 0x40 MSTORE DUP1 SWAP3 SWAP2 SWAP1 DUP2 DUP2 MSTORE PUSH1 0x20 ADD DUP3 DUP1 SLOAD PUSH2 0x679 SWAP1 PUSH2 0x1BCD JUMP JUMPDEST DUP1 ISZERO PUSH2 0x6C4 JUMPI DUP1 PUSH1 0x1F LT PUSH2 0x69B JUMPI PUSH2 0x100 DUP1 DUP4 SLOAD DIV MUL DUP4 MSTORE SWAP2 PUSH1 0x20 ADD SWAP2 PUSH2 0x6C4 JUMP JUMPDEST DUP3 ADD SWAP2 SWAP1 PUSH0 MSTORE PUSH1 0x20 PUSH0 KECCAK256 SWAP1 JUMPDEST DUP2 SLOAD DUP2 MSTORE SWAP1 PUSH1 0x1 ADD SWAP1 PUSH1 0x20 ADD DUP1 DUP4 GT PUSH2 0x6A7 JUMPI DUP3 SWAP1 SUB PUSH1 0x1F AND DUP3 ADD SWAP2 JUMPDEST POP POP POP POP POP SWAP1 POP SWAP1 JUMP JUMPDEST PUSH0 PUSH2 0x6D9 DUP3 PUSH0 PUSH2 0xBEF JUMP JUMPDEST SWAP1 POP SWAP2 SWAP1 POP JUMP JUMPDEST PUSH0 PUSH0 PUSH2 0x6EA PUSH2 0xC47 JUMP JUMPDEST SWAP1 POP PUSH2 0x6F7 DUP2 DUP6 DUP6 PUSH2 0xC4E JUMP JUMPDEST PUSH1 0x1 SWAP2 POP POP SWAP3 SWAP2 POP POP JUMP JUMPDEST PUSH0 PUSH2 0x70E DUP3 PUSH1 0x1 PUSH2 0xC60 JUMP JUMPDEST SWAP1 POP SWAP2 SWAP1 POP JUMP JUMPDEST PUSH0 PUSH1 0x2 SLOAD SWAP1 POP SWAP1 JUMP JUMPDEST PUSH0 PUSH0 PUSH2 0x728 PUSH2 0xC47 JUMP JUMPDEST SWAP1 POP PUSH2 0x735 DUP6 DUP3 DUP6 PUSH2 0xCB8 JUMP JUMPDEST PUSH2 0x740 DUP6 DUP6 DUP6 PUSH2 0xD4B JUMP JUMPDEST PUSH1 0x1 SWAP2 POP POP SWAP4 SWAP3 POP POP POP JUMP JUMPDEST PUSH0 PUSH2 0x755 PUSH2 0xE3B JUMP JUMPDEST PUSH32 0x0 PUSH2 0x780 SWAP2 SWAP1 PUSH2 0x1C2A JUMP JUMPDEST SWAP1 POP SWAP1 JUMP JUMPDEST PUSH0 PUSH32 0x0 SWAP1 POP SWAP1 JUMP JUMPDEST PUSH0 PUSH32 0xFFFFFFFFFFFFFFFFFFFFFFFFFFFFFFFFFFFFFFFFFFFFFFFFFFFFFFFFFFFFFFFF SWAP1 POP SWAP2 SWAP1 POP JUMP JUMPDEST PUSH0 PUSH2 0x7E0 DUP3 PUSH0 PUSH2 0xBEF JUMP JUMPDEST SWAP1 POP SWAP2 SWAP1 POP JUMP JUMPDEST PUSH0 PUSH0 PUSH2 0x7F2 DUP4 PUSH2 0x7AC JUMP JUMPDEST SWAP1 POP DUP1 DUP5 GT ISZERO PUSH2 0x83D JUMPI DUP3 DUP5 DUP3 PUSH1 0x40 MLOAD PUSH32 0x79012FB200000000000000000000000000000000000000000000000000000000 DUP2 MSTORE PUSH1 0x4 ADD PUSH2 0x834 SWAP4 SWAP3 SWAP2 SWAP1 PUSH2 0x1C5E JUMP JUMPDEST PUSH1 0x40 MLOAD DUP1 SWAP2 SUB SWAP1 REVERT JUMPDEST PUSH0 PUSH2 0x847 DUP6 PUSH2 0xBDD JUMP JUMPDEST SWAP1 POP PUSH2 0x85C PUSH2 0x854 PUSH2 0xC47 JUMP JUMPDEST DUP6 DUP8 DUP5 PUSH2 0xE42 JUMP JUMPDEST DUP1 SWAP3 POP POP POP SWAP3 SWAP2 POP POP JUMP JUMPDEST PUSH0 PUSH0 PUSH0 DUP4 PUSH20 0xFFFFFFFFFFFFFFFFFFFFFFFFFFFFFFFFFFFFFFFF AND PUSH20 0xFFFFFFFFFFFFFFFFFFFFFFFFFFFFFFFFFFFFFFFF AND DUP2 MSTORE PUSH1 0x20 ADD SWAP1 DUP2 MSTORE PUSH1 0x20 ADD PUSH0 KECCAK256 SLOAD SWAP1 POP SWAP2 SWAP1 POP JUMP JUMPDEST PUSH0 PUSH0 PUSH2 0x8B7 DUP4 PUSH2 0xAF5 JUMP JUMPDEST SWAP1 POP DUP1 DUP5 GT ISZERO PUSH2 0x902 JUMPI DUP3 DUP5 DUP3 PUSH1 0x40 MLOAD PUSH32 0x284FF66700000000000000000000000000000000000000000000000000000000 DUP2 MSTORE PUSH1 0x4 ADD PUSH2 0x8F9 SWAP4 SWAP3 SWAP2 SWAP1 PUSH2 0x1C5E JUMP JUMPDEST PUSH1 0x40 MLOAD DUP1 SWAP2 SUB SWAP1 REVERT JUMPDEST PUSH0 PUSH2 0x90C DUP6 PUSH2 0x9DE JUMP JUMPDEST SWAP1 POP PUSH2 0x921 PUSH2 0x919 PUSH2 0xC47 JUMP JUMPDEST DUP6 DUP4 DUP9 PUSH2 0xE42 JUMP JUMPDEST DUP1 SWAP3 POP POP POP SWAP3 SWAP2 POP POP JUMP JUMPDEST PUSH1 0x60 PUSH1 0x4 DUP1 SLOAD PUSH2 0x93B SWAP1 PUSH2 0x1BCD JUMP JUMPDEST DUP1 PUSH1 0x1F ADD PUSH1 0x20 DUP1 SWAP2 DIV MUL PUSH1 0x20 ADD PUSH1 0x40 MLOAD SWAP1 DUP2 ADD PUSH1 0x40 MSTORE DUP1 SWAP3 SWAP2 SWAP1 DUP2 DUP2 MSTORE PUSH1 0x20 ADD DUP3 DUP1 SLOAD PUSH2 0x967 SWAP1 PUSH2 0x1BCD JUMP JUMPDEST DUP1 ISZERO PUSH2 0x9B2 JUMPI DUP1 PUSH1 0x1F LT PUSH2 0x989 JUMPI PUSH2 0x100 DUP1 DUP4 SLOAD DIV MUL DUP4 MSTORE SWAP2 PUSH1 0x20 ADD SWAP2 PUSH2 0x9B2 JUMP JUMPDEST DUP3 ADD SWAP2 SWAP1 PUSH0 MSTORE PUSH1 0x20 PUSH0 KECCAK256 SWAP1 JUMPDEST DUP2 SLOAD DUP2 MSTORE SWAP1 PUSH1 0x1 ADD SWAP1 PUSH1 0x20 ADD DUP1 DUP4 GT PUSH2 0x995 JUMPI DUP3 SWAP1 SUB PUSH1 0x1F AND DUP3 ADD SWAP2 JUMPDEST POP POP POP POP POP SWAP1 POP SWAP1 JUMP JUMPDEST PUSH0 PUSH0 PUSH2 0x9C6 PUSH2 0xC47 JUMP JUMPDEST SWAP1 POP PUSH2 0x9D3 DUP2 DUP6 DUP6 PUSH2 0xD4B JUMP JUMPDEST PUSH1 0x1 SWAP2 POP POP SWAP3 SWAP2 POP POP JUMP JUMPDEST PUSH0 PUSH2 0x9EA DUP3 PUSH1 0x1 PUSH2 0xBEF JUMP JUMPDEST SWAP1 POP SWAP2 SWAP1 POP JUMP JUMPDEST PUSH0 PUSH0 PUSH2 0x9FC DUP4 PUSH2 0xB30 JUMP JUMPDEST SWAP1 POP DUP1 DUP6 GT ISZERO PUSH2 0xA47 JUMPI DUP3 DUP6 DUP3 PUSH1 0x40 MLOAD PUSH32 0xFE9CCEEC00000000000000000000000000000000000000000000000000000000 DUP2 MSTORE PUSH1 0x4 ADD PUSH2 0xA3E SWAP4 SWAP3 SWAP2 SWAP1 PUSH2 0x1C5E JUMP JUMPDEST PUSH1 0x40 MLOAD DUP1 SWAP2 SUB SWAP1 REVERT JUMPDEST PUSH0 PUSH2 0xA51 DUP7 PUSH2 0x702 JUMP JUMPDEST SWAP1 POP PUSH2 0xA67 PUSH2 0xA5E PUSH2 0xC47 JUMP JUMPDEST DUP7 DUP7 DUP10 DUP6 PUSH2 0xECC JUMP JUMPDEST DUP1 SWAP3 POP POP POP SWAP4 SWAP3 POP POP POP JUMP JUMPDEST PUSH0 PUSH0 PUSH2 0xA7E DUP4 PUSH2 0xB4A JUMP JUMPDEST SWAP1 POP DUP1 DUP6 GT ISZERO PUSH2 0xAC9 JUMPI DUP3 DUP6 DUP3 PUSH1 0x40 MLOAD PUSH32 0xB94ABEEC00000000000000000000000000000000000000000000000000000000 DUP2 MSTORE PUSH1 0x4 ADD PUSH2 0xAC0 SWAP4 SWAP3 SWAP2 SWAP1 PUSH2 0x1C5E JUMP JUMPDEST PUSH1 0x40 MLOAD DUP1 SWAP2 SUB SWAP1 REVERT JUMPDEST PUSH0 PUSH2 0xAD3 DUP7 PUSH2 0x7D5 JUMP JUMPDEST SWAP1 POP PUSH2 0xAE9 PUSH2 0xAE0 PUSH2 0xC47 JUMP JUMPDEST DUP7 DUP7 DUP5 DUP11 PUSH2 0xECC JUMP JUMPDEST DUP1 SWAP3 POP POP POP SWAP4 SWAP3 POP POP POP JUMP JUMPDEST PUSH0 PUSH32 0xFFFFFFFFFFFFFFFFFFFFFFFFFFFFFFFFFFFFFFFFFFFFFFFFFFFFFFFFFFFFFFFF SWAP1 POP SWAP2 SWAP1 POP JUMP JUMPDEST PUSH0 PUSH2 0xB29 DUP3 PUSH0 PUSH2 0xC60 JUMP JUMPDEST SWAP1 POP SWAP2 SWAP1 POP JUMP JUMPDEST PUSH0 PUSH2 0xB43 PUSH2 0xB3D DUP4 PUSH2 0x867 JUMP JUMPDEST PUSH0 PUSH2 0xBEF JUMP JUMPDEST SWAP1 POP SWAP2 SWAP1 POP JUMP JUMPDEST PUSH0 PUSH2 0xB54 DUP3 PUSH2 0x867 JUMP JUMPDEST SWAP1 POP SWAP2 SWAP1 POP JUMP JUMPDEST PUSH0 PUSH1 0x1 PUSH0 DUP5 PUSH20 0xFFFFFFFFFFFFFFFFFFFFFFFFFFFFFFFFFFFFFFFF AND PUSH20 0xFFFFFFFFFFFFFFFFFFFFFFFFFFFFFFFFFFFFFFFF AND DUP2 MSTORE PUSH1 0x20 ADD SWAP1 DUP2 MSTORE PUSH1 0x20 ADD PUSH0 KECCAK256 PUSH0 DUP4 PUSH20 0xFFFFFFFFFFFFFFFFFFFFFFFFFFFFFFFFFFFFFFFF AND PUSH20 0xFFFFFFFFFFFFFFFFFFFFFFFFFFFFFFFFFFFFFFFF AND DUP2 MSTORE PUSH1 0x20 ADD SWAP1 DUP2 MSTORE PUSH1 0x20 ADD PUSH0 KECCAK256 SLOAD SWAP1 POP SWAP3 SWAP2 POP POP JUMP JUMPDEST PUSH0 PUSH2 0xBE8 DUP3 PUSH0 PUSH2 0xC60 JUMP JUMPDEST SWAP1 POP SWAP2 SWAP1 POP JUMP JUMPDEST PUSH0 PUSH2 0xC3F PUSH1 0x1 PUSH2 0xBFD PUSH2 0x5B9 JUMP JUMPDEST PUSH2 0xC07 SWAP2 SWAP1 PUSH2 0x1C93 JUMP JUMPDEST PUSH2 0xC0F PUSH2 0xE3B JUMP JUMPDEST PUSH1 0xA PUSH2 0xC1B SWAP2 SWAP1 PUSH2 0x1DF5 JUMP JUMPDEST PUSH2 0xC23 PUSH2 0x715 JUMP JUMPDEST PUSH2 0xC2D SWAP2 SWAP1 PUSH2 0x1C93 JUMP JUMPDEST DUP5 DUP7 PUSH2 0xFAC SWAP1 SWAP4 SWAP3 SWAP2 SWAP1 PUSH4 0xFFFFFFFF AND JUMP JUMPDEST SWAP1 POP SWAP3 SWAP2 POP POP JUMP JUMPDEST PUSH0 CALLER SWAP1 POP SWAP1 JUMP JUMPDEST PUSH2 0xC5B DUP4 DUP4 DUP4 PUSH1 0x1 PUSH2 0xFF9 JUMP JUMPDEST POP POP POP JUMP JUMPDEST PUSH0 PUSH2 0xCB0 PUSH2 0xC6C PUSH2 0xE3B JUMP JUMPDEST PUSH1 0xA PUSH2 0xC78 SWAP2 SWAP1 PUSH2 0x1DF5 JUMP JUMPDEST PUSH2 0xC80 PUSH2 0x715 JUMP JUMPDEST PUSH2 0xC8A SWAP2 SWAP1 PUSH2 0x1C93 JUMP JUMPDEST PUSH1 0x1 PUSH2 0xC94 PUSH2 0x5B9 JUMP JUMPDEST PUSH2 0xC9E SWAP2 SWAP1 PUSH2 0x1C93 JUMP JUMPDEST DUP5 DUP7 PUSH2 0xFAC SWAP1 SWAP4 SWAP3 SWAP2 SWAP1 PUSH4 0xFFFFFFFF AND JUMP JUMPDEST SWAP1 POP SWAP3 SWAP2 POP POP JUMP JUMPDEST PUSH0 PUSH2 0xCC3 DUP5 DUP5 PUSH2 0xB5B JUMP JUMPDEST SWAP1 POP PUSH32 0xFFFFFFFFFFFFFFFFFFFFFFFFFFFFFFFFFFFFFFFFFFFFFFFFFFFFFFFFFFFFFFFF DUP2 LT ISZERO PUSH2 0xD45 JUMPI DUP2 DUP2 LT ISZERO PUSH2 0xD36 JUMPI DUP3 DUP2 DUP4 PUSH1 0x40 MLOAD PUSH32 0xFB8F41B200000000000000000000000000000000000000000000000000000000 DUP2 MSTORE PUSH1 0x4 ADD PUSH2 0xD2D SWAP4 SWAP3 SWAP2 SWAP1 PUSH2 0x1C5E JUMP JUMPDEST PUSH1 0x40 MLOAD DUP1 SWAP2 SUB SWAP1 REVERT JUMPDEST PUSH2 0xD44 DUP5 DUP5 DUP5 DUP5 SUB PUSH0 PUSH2 0xFF9 JUMP JUMPDEST JUMPDEST POP POP POP POP JUMP JUMPDEST PUSH0 PUSH20 0xFFFFFFFFFFFFFFFFFFFFFFFFFFFFFFFFFFFFFFFF AND DUP4 PUSH20 0xFFFFFFFFFFFFFFFFFFFFFFFFFFFFFFFFFFFFFFFF AND SUB PUSH2 0xDBB JUMPI PUSH0 PUSH1 0x40 MLOAD PUSH32 0x96C6FD1E00000000000000000000000000000000000000000000000000000000 DUP2 MSTORE PUSH1 0x4 ADD PUSH2 0xDB2 SWAP2 SWAP1 PUSH2 0x1A51 JUMP JUMPDEST PUSH1 0x40 MLOAD DUP1 SWAP2 SUB SWAP1 REVERT JUMPDEST PUSH0 PUSH20 0xFFFFFFFFFFFFFFFFFFFFFFFFFFFFFFFFFFFFFFFF AND DUP3 PUSH20 0xFFFFFFFFFFFFFFFFFFFFFFFFFFFFFFFFFFFFFFFF AND SUB PUSH2 0xE2B JUMPI PUSH0 PUSH1 0x40 MLOAD PUSH32 0xEC442F0500000000000000000000000000000000000000000000000000000000 DUP2 MSTORE PUSH1 0x4 ADD PUSH2 0xE22 SWAP2 SWAP1 PUSH2 0x1A51 JUMP JUMPDEST PUSH1 0x40 MLOAD DUP1 SWAP2 SUB SWAP1 REVERT JUMPDEST PUSH2 0xE36 DUP4 DUP4 DUP4 PUSH2 0x11C8 JUMP JUMPDEST POP POP POP JUMP JUMPDEST PUSH0 PUSH0 SWAP1 POP SWAP1 JUMP JUMPDEST PUSH2 0xE55 PUSH2 0xE4D PUSH2 0x785 JUMP JUMPDEST DUP6 ADDRESS DUP6 PUSH2 0x13E1 JUMP JUMPDEST PUSH2 0xE5F DUP4 DUP3 PUSH2 0x1463 JUMP JUMPDEST DUP3 PUSH20 0xFFFFFFFFFFFFFFFFFFFFFFFFFFFFFFFFFFFFFFFF AND DUP5 PUSH20 0xFFFFFFFFFFFFFFFFFFFFFFFFFFFFFFFFFFFFFFFF AND PUSH32 0xDCBC1C05240F31FF3AD067EF1EE35CE4997762752E3A095284754544F4C709D7 DUP5 DUP5 PUSH1 0x40 MLOAD PUSH2 0xEBE SWAP3 SWAP2 SWAP1 PUSH2 0x1E3F JUMP JUMPDEST PUSH1 0x40 MLOAD DUP1 SWAP2 SUB SWAP1 LOG3 POP POP POP POP JUMP JUMPDEST DUP3 PUSH20 0xFFFFFFFFFFFFFFFFFFFFFFFFFFFFFFFFFFFFFFFF AND DUP6 PUSH20 0xFFFFFFFFFFFFFFFFFFFFFFFFFFFFFFFFFFFFFFFF AND EQ PUSH2 0xF0B JUMPI PUSH2 0xF0A DUP4 DUP7 DUP4 PUSH2 0xCB8 JUMP JUMPDEST JUMPDEST PUSH2 0xF15 DUP4 DUP3 PUSH2 0x14E2 JUMP JUMPDEST PUSH2 0xF27 PUSH2 0xF20 PUSH2 0x785 JUMP JUMPDEST DUP6 DUP5 PUSH2 0x1561 JUMP JUMPDEST DUP3 PUSH20 0xFFFFFFFFFFFFFFFFFFFFFFFFFFFFFFFFFFFFFFFF AND DUP5 PUSH20 0xFFFFFFFFFFFFFFFFFFFFFFFFFFFFFFFFFFFFFFFF AND DUP7 PUSH20 0xFFFFFFFFFFFFFFFFFFFFFFFFFFFFFFFFFFFFFFFF AND PUSH32 0xFBDE797D201C681B91056529119E0B02407C7BB96A4A2C75C01FC9667232C8DB DUP6 DUP6 PUSH1 0x40 MLOAD PUSH2 0xF9D SWAP3 SWAP2 SWAP1 PUSH2 0x1E3F JUMP JUMPDEST PUSH1 0x40 MLOAD DUP1 SWAP2 SUB SWAP1 LOG4 POP POP POP POP POP JUMP JUMPDEST PUSH0 PUSH2 0xFDA PUSH2 0xFB9 DUP4 PUSH2 0x15E0 JUMP JUMPDEST DUP1 ISZERO PUSH2 0xFD5 JUMPI POP PUSH0 DUP5 DUP1 PUSH2 0xFD0 JUMPI PUSH2 0xFCF PUSH2 0x1E66 JUMP JUMPDEST JUMPDEST DUP7 DUP9 MULMOD GT JUMPDEST PUSH2 0x160D JUMP JUMPDEST PUSH2 0xFE5 DUP7 DUP7 DUP7 PUSH2 0x1618 JUMP JUMPDEST PUSH2 0xFEF SWAP2 SWAP1 PUSH2 0x1C93 JUMP JUMPDEST SWAP1 POP SWAP5 SWAP4 POP POP POP POP JUMP JUMPDEST PUSH0 PUSH20 0xFFFFFFFFFFFFFFFFFFFFFFFFFFFFFFFFFFFFFFFF AND DUP5 PUSH20 0xFFFFFFFFFFFFFFFFFFFFFFFFFFFFFFFFFFFFFFFF AND SUB PUSH2 0x1069 JUMPI PUSH0 PUSH1 0x40 MLOAD PUSH32 0xE602DF0500000000000000000000000000000000000000000000000000000000 DUP2 MSTORE PUSH1 0x4 ADD PUSH2 0x1060 SWAP2 SWAP1 PUSH2 0x1A51 JUMP JUMPDEST PUSH1 0x40 MLOAD DUP1 SWAP2 SUB SWAP1 REVERT JUMPDEST PUSH0 PUSH20 0xFFFFFFFFFFFFFFFFFFFFFFFFFFFFFFFFFFFFFFFF AND DUP4 PUSH20 0xFFFFFFFFFFFFFFFFFFFFFFFFFFFFFFFFFFFFFFFF AND SUB PUSH2 0x10D9 JUMPI PUSH0 PUSH1 0x40 MLOAD PUSH32 0x94280D6200000000000000000000000000000000000000000000000000000000 DUP2 MSTORE PUSH1 0x4 ADD PUSH2 0x10D0 SWAP2 SWAP1 PUSH2 0x1A51 JUMP JUMPDEST PUSH1 0x40 MLOAD DUP1 SWAP2 SUB SWAP1 REVERT JUMPDEST DUP2 PUSH1 0x1 PUSH0 DUP7 PUSH20 0xFFFFFFFFFFFFFFFFFFFFFFFFFFFFFFFFFFFFFFFF AND PUSH20 0xFFFFFFFFFFFFFFFFFFFFFFFFFFFFFFFFFFFFFFFF AND DUP2 MSTORE PUSH1 0x20 ADD SWAP1 DUP2 MSTORE PUSH1 0x20 ADD PUSH0 KECCAK256 PUSH0 DUP6 PUSH20 0xFFFFFFFFFFFFFFFFFFFFFFFFFFFFFFFFFFFFFFFF AND PUSH20 0xFFFFFFFFFFFFFFFFFFFFFFFFFFFFFFFFFFFFFFFF AND DUP2 MSTORE PUSH1 0x20 ADD SWAP1 DUP2 MSTORE PUSH1 0x20 ADD PUSH0 KECCAK256 DUP2 SWAP1 SSTORE POP DUP1 ISZERO PUSH2 0x11C2 JUMPI DUP3 PUSH20 0xFFFFFFFFFFFFFFFFFFFFFFFFFFFFFFFFFFFFFFFF AND DUP5 PUSH20 0xFFFFFFFFFFFFFFFFFFFFFFFFFFFFFFFFFFFFFFFF AND PUSH32 0x8C5BE1E5EBEC7D5BD14F71427D1E84F3DD0314C0F7B2291E5B200AC8C7C3B925 DUP5 PUSH1 0x40 MLOAD PUSH2 0x11B9 SWAP2 SWAP1 PUSH2 0x17F1 JUMP JUMPDEST PUSH1 0x40 MLOAD DUP1 SWAP2 SUB SWAP1 LOG3 JUMPDEST POP POP POP POP JUMP JUMPDEST PUSH0 PUSH20 0xFFFFFFFFFFFFFFFFFFFFFFFFFFFFFFFFFFFFFFFF AND DUP4 PUSH20 0xFFFFFFFFFFFFFFFFFFFFFFFFFFFFFFFFFFFFFFFF AND SUB PUSH2 0x1218 JUMPI DUP1 PUSH1 0x2 PUSH0 DUP3 DUP3 SLOAD PUSH2 0x120C SWAP2 SWAP1 PUSH2 0x1C93 JUMP JUMPDEST SWAP3 POP POP DUP2 SWAP1 SSTORE POP PUSH2 0x12E6 JUMP JUMPDEST PUSH0 PUSH0 PUSH0 DUP6 PUSH20 0xFFFFFFFFFFFFFFFFFFFFFFFFFFFFFFFFFFFFFFFF AND PUSH20 0xFFFFFFFFFFFFFFFFFFFFFFFFFFFFFFFFFFFFFFFF AND DUP2 MSTORE PUSH1 0x20 ADD SWAP1 DUP2 MSTORE PUSH1 0x20 ADD PUSH0 KECCAK256 SLOAD SWAP1 POP DUP2 DUP2 LT ISZERO PUSH2 0x12A1 JUMPI DUP4 DUP2 DUP4 PUSH1 0x40 MLOAD PUSH32 0xE450D38C00000000000000000000000000000000000000000000000000000000 DUP2 MSTORE PUSH1 0x4 ADD PUSH2 0x1298 SWAP4 SWAP3 SWAP2 SWAP1 PUSH2 0x1C5E JUMP JUMPDEST PUSH1 0x40 MLOAD DUP1 SWAP2 SUB SWAP1 REVERT JUMPDEST DUP2 DUP2 SUB PUSH0 PUSH0 DUP7 PUSH20 0xFFFFFFFFFFFFFFFFFFFFFFFFFFFFFFFFFFFFFFFF AND PUSH20 0xFFFFFFFFFFFFFFFFFFFFFFFFFFFFFFFFFFFFFFFF AND DUP2 MSTORE PUSH1 0x20 ADD SWAP1 DUP2 MSTORE PUSH1 0x20 ADD PUSH0 KECCAK256 DUP2 SWAP1 SSTORE POP POP JUMPDEST PUSH0 PUSH20 0xFFFFFFFFFFFFFFFFFFFFFFFFFFFFFFFFFFFFFFFF AND DUP3 PUSH20 0xFFFFFFFFFFFFFFFFFFFFFFFFFFFFFFFFFFFFFFFF AND SUB PUSH2 0x132D JUMPI DUP1 PUSH1 0x2 PUSH0 DUP3 DUP3 SLOAD SUB SWAP3 POP POP DUP2 SWAP1 SSTORE POP PUSH2 0x1377 JUMP JUMPDEST DUP1 PUSH0 PUSH0 DUP5 PUSH20 0xFFFFFFFFFFFFFFFFFFFFFFFFFFFFFFFFFFFFFFFF AND PUSH20 0xFFFFFFFFFFFFFFFFFFFFFFFFFFFFFFFFFFFFFFFF AND DUP2 MSTORE PUSH1 0x20 ADD SWAP1 DUP2 MSTORE PUSH1 0x20 ADD PUSH0 KECCAK256 PUSH0 DUP3 DUP3 SLOAD ADD SWAP3 POP POP DUP2 SWAP1 SSTORE POP JUMPDEST DUP2 PUSH20 0xFFFFFFFFFFFFFFFFFFFFFFFFFFFFFFFFFFFFFFFF AND DUP4 PUSH20 0xFFFFFFFFFFFFFFFFFFFFFFFFFFFFFFFFFFFFFFFF AND PUSH32 0xDDF252AD1BE2C89B69C2B068FC378DAA952BA7F163C4A11628F55A4DF523B3EF DUP4 PUSH1 0x40 MLOAD PUSH2 0x13D4 SWAP2 SWAP1 PUSH2 0x17F1 JUMP JUMPDEST PUSH1 0x40 MLOAD DUP1 SWAP2 SUB SWAP1 LOG3 POP POP POP JUMP JUMPDEST PUSH2 0x145D DUP5 DUP6 PUSH20 0xFFFFFFFFFFFFFFFFFFFFFFFFFFFFFFFFFFFFFFFF AND PUSH4 0x23B872DD DUP7 DUP7 DUP7 PUSH1 0x40 MLOAD PUSH1 0x24 ADD PUSH2 0x1416 SWAP4 SWAP3 SWAP2 SWAP1 PUSH2 0x1E93 JUMP JUMPDEST PUSH1 0x40 MLOAD PUSH1 0x20 DUP2 DUP4 SUB SUB DUP2 MSTORE SWAP1 PUSH1 0x40 MSTORE SWAP2 POP PUSH1 0xE0 SHL PUSH1 0x20 DUP3 ADD DUP1 MLOAD PUSH28 0xFFFFFFFFFFFFFFFFFFFFFFFFFFFFFFFFFFFFFFFFFFFFFFFFFFFFFFFF DUP4 DUP2 DUP4 AND OR DUP4 MSTORE POP POP POP POP PUSH2 0x16F7 JUMP JUMPDEST POP POP POP POP JUMP JUMPDEST PUSH0 PUSH20 0xFFFFFFFFFFFFFFFFFFFFFFFFFFFFFFFFFFFFFFFF AND DUP3 PUSH20 0xFFFFFFFFFFFFFFFFFFFFFFFFFFFFFFFFFFFFFFFF AND SUB PUSH2 0x14D3 JUMPI PUSH0 PUSH1 0x40 MLOAD PUSH32 0xEC442F0500000000000000000000000000000000000000000000000000000000 DUP2 MSTORE PUSH1 0x4 ADD PUSH2 0x14CA SWAP2 SWAP1 PUSH2 0x1A51 JUMP JUMPDEST PUSH1 0x40 MLOAD DUP1 SWAP2 SUB SWAP1 REVERT JUMPDEST PUSH2 0x14DE PUSH0 DUP4 DUP4 PUSH2 0x11C8 JUMP JUMPDEST POP POP JUMP JUMPDEST PUSH0 PUSH20 0xFFFFFFFFFFFFFFFFFFFFFFFFFFFFFFFFFFFFFFFF AND DUP3 PUSH20 0xFFFFFFFFFFFFFFFFFFFFFFFFFFFFFFFFFFFFFFFF AND SUB PUSH2 0x1552 JUMPI PUSH0 PUSH1 0x40 MLOAD PUSH32 0x96C6FD1E00000000000000000000000000000000000000000000000000000000 DUP2 MSTORE PUSH1 0x4 ADD PUSH2 0x1549 SWAP2 SWAP1 PUSH2 0x1A51 JUMP JUMPDEST PUSH1 0x40 MLOAD DUP1 SWAP2 SUB SWAP1 REVERT JUMPDEST PUSH2 0x155D DUP3 PUSH0 DUP4 PUSH2 0x11C8 JUMP JUMPDEST POP POP JUMP JUMPDEST PUSH2 0x15DB DUP4 DUP5 PUSH20 0xFFFFFFFFFFFFFFFFFFFFFFFFFFFFFFFFFFFFFFFF AND PUSH4 0xA9059CBB DUP6 DUP6 PUSH1 0x40 MLOAD PUSH1 0x24 ADD PUSH2 0x1594 SWAP3 SWAP2 SWAP1 PUSH2 0x1EC8 JUMP JUMPDEST PUSH1 0x40 MLOAD PUSH1 0x20 DUP2 DUP4 SUB SUB DUP2 MSTORE SWAP1 PUSH1 0x40 MSTORE SWAP2 POP PUSH1 0xE0 SHL PUSH1 0x20 DUP3 ADD DUP1 MLOAD PUSH28 0xFFFFFFFFFFFFFFFFFFFFFFFFFFFFFFFFFFFFFFFFFFFFFFFFFFFFFFFF DUP4 DUP2 DUP4 AND OR DUP4 MSTORE POP POP POP POP PUSH2 0x16F7 JUMP JUMPDEST POP POP POP JUMP JUMPDEST PUSH0 PUSH1 0x1 PUSH1 0x2 DUP4 PUSH1 0x3 DUP2 GT ISZERO PUSH2 0x15F8 JUMPI PUSH2 0x15F7 PUSH2 0x1EEF JUMP JUMPDEST JUMPDEST PUSH2 0x1602 SWAP2 SWAP1 PUSH2 0x1F1C JUMP JUMPDEST PUSH1 0xFF AND EQ SWAP1 POP SWAP2 SWAP1 POP JUMP JUMPDEST PUSH0 DUP2 ISZERO ISZERO SWAP1 POP SWAP2 SWAP1 POP JUMP JUMPDEST PUSH0 PUSH0 PUSH0 PUSH2 0x1625 DUP7 DUP7 PUSH2 0x1792 JUMP JUMPDEST SWAP2 POP SWAP2 POP PUSH0 DUP3 SUB PUSH2 0x164A JUMPI DUP4 DUP2 DUP2 PUSH2 0x1640 JUMPI PUSH2 0x163F PUSH2 0x1E66 JUMP JUMPDEST JUMPDEST DIV SWAP3 POP POP POP PUSH2 0x16F0 JUMP JUMPDEST DUP2 DUP5 GT PUSH2 0x1669 JUMPI PUSH2 0x1668 PUSH2 0x1663 PUSH0 DUP7 EQ PUSH1 0x12 PUSH1 0x11 PUSH2 0x17AF JUMP JUMPDEST PUSH2 0x17C8 JUMP JUMPDEST JUMPDEST PUSH0 DUP5 DUP7 DUP9 MULMOD SWAP1 POP DUP2 DUP2 GT DUP4 SUB SWAP3 POP DUP1 DUP3 SUB SWAP2 POP PUSH0 DUP6 PUSH0 SUB DUP7 AND SWAP1 POP DUP1 DUP7 DIV SWAP6 POP DUP1 DUP4 DIV SWAP3 POP PUSH1 0x1 DUP2 DUP3 PUSH0 SUB DIV ADD SWAP1 POP DUP1 DUP5 MUL DUP4 OR SWAP3 POP PUSH0 PUSH1 0x2 DUP8 PUSH1 0x3 MUL XOR SWAP1 POP DUP1 DUP8 MUL PUSH1 0x2 SUB DUP2 MUL SWAP1 POP DUP1 DUP8 MUL PUSH1 0x2 SUB DUP2 MUL SWAP1 POP DUP1 DUP8 MUL PUSH1 0x2 SUB DUP2 MUL SWAP1 POP DUP1 DUP8 MUL PUSH1 0x2 SUB DUP2 MUL SWAP1 POP DUP1 DUP8 MUL PUSH1 0x2 SUB DUP2 MUL SWAP1 POP DUP1 DUP8 MUL PUSH1 0x2 SUB DUP2 MUL SWAP1 POP DUP1 DUP5 MUL SWAP6 POP POP POP POP POP POP JUMPDEST SWAP4 SWAP3 POP POP POP JUMP JUMPDEST PUSH0 PUSH0 PUSH1 0x20 PUSH0 DUP5 MLOAD PUSH1 0x20 DUP7 ADD PUSH0 DUP9 GAS CALL DUP1 PUSH2 0x1716 JUMPI PUSH1 0x40 MLOAD RETURNDATASIZE PUSH0 DUP3 RETURNDATACOPY RETURNDATASIZE DUP2 REVERT JUMPDEST RETURNDATASIZE SWAP3 POP PUSH0 MLOAD SWAP2 POP POP PUSH0 DUP3 EQ PUSH2 0x172F JUMPI PUSH1 0x1 DUP2 EQ ISZERO PUSH2 0x174A JUMP JUMPDEST PUSH0 DUP5 PUSH20 0xFFFFFFFFFFFFFFFFFFFFFFFFFFFFFFFFFFFFFFFF AND EXTCODESIZE EQ JUMPDEST ISZERO PUSH2 0x178C JUMPI DUP4 PUSH1 0x40 MLOAD PUSH32 0x5274AFE700000000000000000000000000000000000000000000000000000000 DUP2 MSTORE PUSH1 0x4 ADD PUSH2 0x1783 SWAP2 SWAP1 PUSH2 0x1A51 JUMP JUMPDEST PUSH1 0x40 MLOAD DUP1 SWAP2 SUB SWAP1 REVERT JUMPDEST POP POP POP POP JUMP JUMPDEST PUSH0 PUSH0 PUSH0 NOT DUP4 DUP6 MULMOD DUP4 DUP6 MUL SWAP2 POP DUP2 DUP2 LT DUP3 DUP3 SUB SUB SWAP3 POP POP SWAP3 POP SWAP3 SWAP1 POP JUMP JUMPDEST PUSH0 PUSH2 0x17B9 DUP5 PUSH2 0x160D JUMP JUMPDEST DUP3 DUP5 XOR MUL DUP3 XOR SWAP1 POP SWAP4 SWAP3 POP POP POP JUMP JUMPDEST PUSH4 0x4E487B71 PUSH0 MSTORE DUP1 PUSH1 0x20 MSTORE PUSH1 0x24 PUSH1 0x1C REVERT JUMPDEST PUSH0 DUP2 SWAP1 POP SWAP2 SWAP1 POP JUMP JUMPDEST PUSH2 0x17EB DUP2 PUSH2 0x17D9 JUMP JUMPDEST DUP3 MSTORE POP POP JUMP JUMPDEST PUSH0 PUSH1 0x20 DUP3 ADD SWAP1 POP PUSH2 0x1804 PUSH0 DUP4 ADD DUP5 PUSH2 0x17E2 JUMP JUMPDEST SWAP3 SWAP2 POP POP JUMP JUMPDEST PUSH0 DUP2 MLOAD SWAP1 POP SWAP2 SWAP1 POP JUMP JUMPDEST PUSH0 DUP3 DUP3 MSTORE PUSH1 0x20 DUP3 ADD SWAP1 POP SWAP3 SWAP2 POP POP JUMP JUMPDEST DUP3 DUP2 DUP4 MCOPY PUSH0 DUP4 DUP4 ADD MSTORE POP POP POP JUMP JUMPDEST PUSH0 PUSH1 0x1F NOT PUSH1 0x1F DUP4 ADD AND SWAP1 POP SWAP2 SWAP1 POP JUMP JUMPDEST PUSH0 PUSH2 0x184C DUP3 PUSH2 0x180A JUMP JUMPDEST PUSH2 0x1856 DUP2 DUP6 PUSH2 0x1814 JUMP JUMPDEST SWAP4 POP PUSH2 0x1866 DUP2 DUP6 PUSH1 0x20 DUP7 ADD PUSH2 0x1824 JUMP JUMPDEST PUSH2 0x186F DUP2 PUSH2 0x1832 JUMP JUMPDEST DUP5 ADD SWAP2 POP POP SWAP3 SWAP2 POP POP JUMP JUMPDEST PUSH0 PUSH1 0x20 DUP3 ADD SWAP1 POP DUP2 DUP2 SUB PUSH0 DUP4 ADD MSTORE PUSH2 0x1892 DUP2 DUP5 PUSH2 0x1842 JUMP JUMPDEST SWAP1 POP SWAP3 SWAP2 POP POP JUMP JUMPDEST PUSH0 PUSH0 REVERT JUMPDEST PUSH2 0x18A7 DUP2 PUSH2 0x17D9 JUMP JUMPDEST DUP2 EQ PUSH2 0x18B1 JUMPI PUSH0 PUSH0 REVERT JUMPDEST POP JUMP JUMPDEST PUSH0 DUP2 CALLDATALOAD SWAP1 POP PUSH2 0x18C2 DUP2 PUSH2 0x189E JUMP JUMPDEST SWAP3 SWAP2 POP POP JUMP JUMPDEST PUSH0 PUSH1 0x20 DUP3 DUP5 SUB SLT ISZERO PUSH2 0x18DD JUMPI PUSH2 0x18DC PUSH2 0x189A JUMP JUMPDEST JUMPDEST PUSH0 PUSH2 0x18EA DUP5 DUP3 DUP6 ADD PUSH2 0x18B4 JUMP JUMPDEST SWAP2 POP POP SWAP3 SWAP2 POP POP JUMP JUMPDEST PUSH0 PUSH20 0xFFFFFFFFFFFFFFFFFFFFFFFFFFFFFFFFFFFFFFFF DUP3 AND SWAP1 POP SWAP2 SWAP1 POP JUMP JUMPDEST PUSH0 PUSH2 0x191C DUP3 PUSH2 0x18F3 JUMP JUMPDEST SWAP1 POP SWAP2 SWAP1 POP JUMP JUMPDEST PUSH2 0x192C DUP2 PUSH2 0x1912 JUMP JUMPDEST DUP2 EQ PUSH2 0x1936 JUMPI PUSH0 PUSH0 REVERT JUMPDEST POP JUMP JUMPDEST PUSH0 DUP2 CALLDATALOAD SWAP1 POP PUSH2 0x1947 DUP2 PUSH2 0x1923 JUMP JUMPDEST SWAP3 SWAP2 POP POP JUMP JUMPDEST PUSH0 PUSH0 PUSH1 0x40 DUP4 DUP6 SUB SLT ISZERO PUSH2 0x1963 JUMPI PUSH2 0x1962 PUSH2 0x189A JUMP JUMPDEST JUMPDEST PUSH0 PUSH2 0x1970 DUP6 DUP3 DUP7 ADD PUSH2 0x1939 JUMP JUMPDEST SWAP3 POP POP PUSH1 0x20 PUSH2 0x1981 DUP6 DUP3 DUP7 ADD PUSH2 0x18B4 JUMP JUMPDEST SWAP2 POP POP SWAP3 POP SWAP3 SWAP1 POP JUMP JUMPDEST PUSH0 DUP2 ISZERO ISZERO SWAP1 POP SWAP2 SWAP1 POP JUMP JUMPDEST PUSH2 0x199F DUP2 PUSH2 0x198B JUMP JUMPDEST DUP3 MSTORE POP POP JUMP JUMPDEST PUSH0 PUSH1 0x20 DUP3 ADD SWAP1 POP PUSH2 0x19B8 PUSH0 DUP4 ADD DUP5 PUSH2 0x1996 JUMP JUMPDEST SWAP3 SWAP2 POP POP JUMP JUMPDEST PUSH0 PUSH0 PUSH0 PUSH1 0x60 DUP5 DUP7 SUB SLT ISZERO PUSH2 0x19D5 JUMPI PUSH2 0x19D4 PUSH2 0x189A JUMP JUMPDEST JUMPDEST PUSH0 PUSH2 0x19E2 DUP7 DUP3 DUP8 ADD PUSH2 0x1939 JUMP JUMPDEST SWAP4 POP POP PUSH1 0x20 PUSH2 0x19F3 DUP7 DUP3 DUP8 ADD PUSH2 0x1939 JUMP JUMPDEST SWAP3 POP POP PUSH1 0x40 PUSH2 0x1A04 DUP7 DUP3 DUP8 ADD PUSH2 0x18B4 JUMP JUMPDEST SWAP2 POP POP SWAP3 POP SWAP3 POP SWAP3 JUMP JUMPDEST PUSH0 PUSH1 0xFF DUP3 AND SWAP1 POP SWAP2 SWAP1 POP JUMP JUMPDEST PUSH2 0x1A23 DUP2 PUSH2 0x1A0E JUMP JUMPDEST DUP3 MSTORE POP POP JUMP JUMPDEST PUSH0 PUSH1 0x20 DUP3 ADD SWAP1 POP PUSH2 0x1A3C PUSH0 DUP4 ADD DUP5 PUSH2 0x1A1A JUMP JUMPDEST SWAP3 SWAP2 POP POP JUMP JUMPDEST PUSH2 0x1A4B DUP2 PUSH2 0x1912 JUMP JUMPDEST DUP3 MSTORE POP POP JUMP JUMPDEST PUSH0 PUSH1 0x20 DUP3 ADD SWAP1 POP PUSH2 0x1A64 PUSH0 DUP4 ADD DUP5 PUSH2 0x1A42 JUMP JUMPDEST SWAP3 SWAP2 POP POP JUMP JUMPDEST PUSH0 PUSH1 0x20 DUP3 DUP5 SUB SLT ISZERO PUSH2 0x1A7F JUMPI PUSH2 0x1A7E PUSH2 0x189A JUMP JUMPDEST JUMPDEST PUSH0 PUSH2 0x1A8C DUP5 DUP3 DUP6 ADD PUSH2 0x1939 JUMP JUMPDEST SWAP2 POP POP SWAP3 SWAP2 POP POP JUMP JUMPDEST PUSH0 PUSH0 PUSH1 0x40 DUP4 DUP6 SUB SLT ISZERO PUSH2 0x1AAB JUMPI PUSH2 0x1AAA PUSH2 0x189A JUMP JUMPDEST JUMPDEST PUSH0 PUSH2 0x1AB8 DUP6 DUP3 DUP7 ADD PUSH2 0x18B4 JUMP JUMPDEST SWAP3 POP POP PUSH1 0x20 PUSH2 0x1AC9 DUP6 DUP3 DUP7 ADD PUSH2 0x1939 JUMP JUMPDEST SWAP2 POP POP SWAP3 POP SWAP3 SWAP1 POP JUMP JUMPDEST PUSH0 PUSH0 PUSH0 PUSH1 0x60 DUP5 DUP7 SUB SLT ISZERO PUSH2 0x1AEA JUMPI PUSH2 0x1AE9 PUSH2 0x189A JUMP JUMPDEST JUMPDEST PUSH0 PUSH2 0x1AF7 DUP7 DUP3 DUP8 ADD PUSH2 0x18B4 JUMP JUMPDEST SWAP4 POP POP PUSH1 0x20 PUSH2 0x1B08 DUP7 DUP3 DUP8 ADD PUSH2 0x1939 JUMP JUMPDEST SWAP3 POP POP PUSH1 0x40 PUSH2 0x1B19 DUP7 DUP3 DUP8 ADD PUSH2 0x1939 JUMP JUMPDEST SWAP2 POP POP SWAP3 POP SWAP3 POP SWAP3 JUMP JUMPDEST PUSH0 PUSH0 PUSH1 0x40 DUP4 DUP6 SUB SLT ISZERO PUSH2 0x1B39 JUMPI PUSH2 0x1B38 PUSH2 0x189A JUMP JUMPDEST JUMPDEST PUSH0 PUSH2 0x1B46 DUP6 DUP3 DUP7 ADD PUSH2 0x1939 JUMP JUMPDEST SWAP3 POP POP PUSH1 0x20 PUSH2 0x1B57 DUP6 DUP3 DUP7 ADD PUSH2 0x1939 JUMP JUMPDEST SWAP2 POP POP SWAP3 POP SWAP3 SWAP1 POP JUMP JUMPDEST PUSH0 DUP2 MLOAD SWAP1 POP PUSH2 0x1B6F DUP2 PUSH2 0x189E JUMP JUMPDEST SWAP3 SWAP2 POP POP JUMP JUMPDEST PUSH0 PUSH1 0x20 DUP3 DUP5 SUB SLT ISZERO PUSH2 0x1B8A JUMPI PUSH2 0x1B89 PUSH2 0x189A JUMP JUMPDEST JUMPDEST PUSH0 PUSH2 0x1B97 DUP5 DUP3 DUP6 ADD PUSH2 0x1B61 JUMP JUMPDEST SWAP2 POP POP SWAP3 SWAP2 POP POP JUMP JUMPDEST PUSH32 0x4E487B7100000000000000000000000000000000000000000000000000000000 PUSH0 MSTORE PUSH1 0x22 PUSH1 0x4 MSTORE PUSH1 0x24 PUSH0 REVERT JUMPDEST PUSH0 PUSH1 0x2 DUP3 DIV SWAP1 POP PUSH1 0x1 DUP3 AND DUP1 PUSH2 0x1BE4 JUMPI PUSH1 0x7F DUP3 AND SWAP2 POP JUMPDEST PUSH1 0x20 DUP3 LT DUP2 SUB PUSH2 0x1BF7 JUMPI PUSH2 0x1BF6 PUSH2 0x1BA0 JUMP JUMPDEST JUMPDEST POP SWAP2 SWAP1 POP JUMP JUMPDEST PUSH32 0x4E487B7100000000000000000000000000000000000000000000000000000000 PUSH0 MSTORE PUSH1 0x11 PUSH1 0x4 MSTORE PUSH1 0x24 PUSH0 REVERT JUMPDEST PUSH0 PUSH2 0x1C34 DUP3 PUSH2 0x1A0E JUMP JUMPDEST SWAP2 POP PUSH2 0x1C3F DUP4 PUSH2 0x1A0E JUMP JUMPDEST SWAP3 POP DUP3 DUP3 ADD SWAP1 POP PUSH1 0xFF DUP2 GT ISZERO PUSH2 0x1C58 JUMPI PUSH2 0x1C57 PUSH2 0x1BFD JUMP JUMPDEST JUMPDEST SWAP3 SWAP2 POP POP JUMP JUMPDEST PUSH0 PUSH1 0x60 DUP3 ADD SWAP1 POP PUSH2 0x1C71 PUSH0 DUP4 ADD DUP7 PUSH2 0x1A42 JUMP JUMPDEST PUSH2 0x1C7E PUSH1 0x20 DUP4 ADD DUP6 PUSH2 0x17E2 JUMP JUMPDEST PUSH2 0x1C8B PUSH1 0x40 DUP4 ADD DUP5 PUSH2 0x17E2 JUMP JUMPDEST SWAP5 SWAP4 POP POP POP POP JUMP JUMPDEST PUSH0 PUSH2 0x1C9D DUP3 PUSH2 0x17D9 JUMP JUMPDEST SWAP2 POP PUSH2 0x1CA8 DUP4 PUSH2 0x17D9 JUMP JUMPDEST SWAP3 POP DUP3 DUP3 ADD SWAP1 POP DUP1 DUP3 GT ISZERO PUSH2 0x1CC0 JUMPI PUSH2 0x1CBF PUSH2 0x1BFD JUMP JUMPDEST JUMPDEST SWAP3 SWAP2 POP POP JUMP JUMPDEST PUSH0 DUP2 PUSH1 0x1 SHR SWAP1 POP SWAP2 SWAP1 POP JUMP JUMPDEST PUSH0 PUSH0 DUP3 SWAP2 POP DUP4 SWAP1 POP JUMPDEST PUSH1 0x1 DUP6 GT ISZERO PUSH2 0x1D1B JUMPI DUP1 DUP7 DIV DUP2 GT ISZERO PUSH2 0x1CF7 JUMPI PUSH2 0x1CF6 PUSH2 0x1BFD JUMP JUMPDEST JUMPDEST PUSH1 0x1 DUP6 AND ISZERO PUSH2 0x1D06 JUMPI DUP1 DUP3 MUL SWAP2 POP JUMPDEST DUP1 DUP2 MUL SWAP1 POP PUSH2 0x1D14 DUP6 PUSH2 0x1CC6 JUMP JUMPDEST SWAP5 POP PUSH2 0x1CDB JUMP JUMPDEST SWAP5 POP SWAP5 SWAP3 POP POP POP JUMP JUMPDEST PUSH0 DUP3 PUSH2 0x1D33 JUMPI PUSH1 0x1 SWAP1 POP PUSH2 0x1DEE JUMP JUMPDEST DUP2 PUSH2 0x1D40 JUMPI PUSH0 SWAP1 POP PUSH2 0x1DEE JUMP JUMPDEST DUP2 PUSH1 0x1 DUP2 EQ PUSH2 0x1D56 JUMPI PUSH1 0x2 DUP2 EQ PUSH2 0x1D60 JUMPI PUSH2 0x1D8F JUMP JUMPDEST PUSH1 0x1 SWAP2 POP POP PUSH2 0x1DEE JUMP JUMPDEST PUSH1 0xFF DUP5 GT ISZERO PUSH2 0x1D72 JUMPI PUSH2 0x1D71 PUSH2 0x1BFD JUMP JUMPDEST JUMPDEST DUP4 PUSH1 0x2 EXP SWAP2 POP DUP5 DUP3 GT ISZERO PUSH2 0x1D89 JUMPI PUSH2 0x1D88 PUSH2 0x1BFD JUMP JUMPDEST JUMPDEST POP PUSH2 0x1DEE JUMP JUMPDEST POP PUSH1 0x20 DUP4 LT PUSH2 0x133 DUP4 LT AND PUSH1 0x4E DUP5 LT PUSH1 0xB DUP5 LT AND OR ISZERO PUSH2 0x1DC4 JUMPI DUP3 DUP3 EXP SWAP1 POP DUP4 DUP2 GT ISZERO PUSH2 0x1DBF JUMPI PUSH2 0x1DBE PUSH2 0x1BFD JUMP JUMPDEST JUMPDEST PUSH2 0x1DEE JUMP JUMPDEST PUSH2 0x1DD1 DUP5 DUP5 DUP5 PUSH1 0x1 PUSH2 0x1CD2 JUMP JUMPDEST SWAP3 POP SWAP1 POP DUP2 DUP5 DIV DUP2 GT ISZERO PUSH2 0x1DE8 JUMPI PUSH2 0x1DE7 PUSH2 0x1BFD JUMP JUMPDEST JUMPDEST DUP2 DUP2 MUL SWAP1 POP JUMPDEST SWAP4 SWAP3 POP POP POP JUMP JUMPDEST PUSH0 PUSH2 0x1DFF DUP3 PUSH2 0x17D9 JUMP JUMPDEST SWAP2 POP PUSH2 0x1E0A DUP4 PUSH2 0x1A0E JUMP JUMPDEST SWAP3 POP PUSH2 0x1E37 PUSH32 0xFFFFFFFFFFFFFFFFFFFFFFFFFFFFFFFFFFFFFFFFFFFFFFFFFFFFFFFFFFFFFFFF DUP5 DUP5 PUSH2 0x1D24 JUMP JUMPDEST SWAP1 POP SWAP3 SWAP2 POP POP JUMP JUMPDEST PUSH0 PUSH1 0x40 DUP3 ADD SWAP1 POP PUSH2 0x1E52 PUSH0 DUP4 ADD DUP6 PUSH2 0x17E2 JUMP JUMPDEST PUSH2 0x1E5F PUSH1 0x20 DUP4 ADD DUP5 PUSH2 0x17E2 JUMP JUMPDEST SWAP4 SWAP3 POP POP POP JUMP JUMPDEST PUSH32 0x4E487B7100000000000000000000000000000000000000000000000000000000 PUSH0 MSTORE PUSH1 0x12 PUSH1 0x4 MSTORE PUSH1 0x24 PUSH0 REVERT JUMPDEST PUSH0 PUSH1 0x60 DUP3 ADD SWAP1 POP PUSH2 0x1EA6 PUSH0 DUP4 ADD DUP7 PUSH2 0x1A42 JUMP JUMPDEST PUSH2 0x1EB3 PUSH1 0x20 DUP4 ADD DUP6 PUSH2 0x1A42 JUMP JUMPDEST PUSH2 0x1EC0 PUSH1 0x40 DUP4 ADD DUP5 PUSH2 0x17E2 JUMP JUMPDEST SWAP5 SWAP4 POP POP POP POP JUMP JUMPDEST PUSH0 PUSH1 0x40 DUP3 ADD SWAP1 POP PUSH2 0x1EDB PUSH0 DUP4 ADD DUP6 PUSH2 0x1A42 JUMP JUMPDEST PUSH2 0x1EE8 PUSH1 0x20 DUP4 ADD DUP5 PUSH2 0x17E2 JUMP JUMPDEST SWAP4 SWAP3 POP POP POP JUMP JUMPDEST PUSH32 0x4E487B7100000000000000000000000000000000000000000000000000000000 PUSH0 MSTORE PUSH1 0x21 PUSH1 0x4 MSTORE PUSH1 0x24 PUSH0 REVERT JUMPDEST PUSH0 PUSH2 0x1F26 DUP3 PUSH2 0x1A0E JUMP JUMPDEST SWAP2 POP PUSH2 0x1F31 DUP4 PUSH2 0x1A0E JUMP JUMPDEST SWAP3 POP DUP3 PUSH2 0x1F41 JUMPI PUSH2 0x1F40 PUSH2 0x1E66 JUMP JUMPDEST JUMPDEST DUP3 DUP3 MOD SWAP1 POP SWAP3 SWAP2 POP POP JUMP INVALID LOG2 PUSH5 0x6970667358 0x22 SLT KECCAK256 PUSH28 0xA13AD175BFBAEA15AB28FE83B2C1F64B99BAD20358713C6C15C3E5DE 0xBF SWAP9 SWAP1 PUSH5 0x736F6C6343 STOP ADDMOD 0x1E STOP CALLER "
		},
		"gasEstimates": {
			"creation": {
				"codeDepositCost": "4790200",
				"executionCost": "infinite",
				"totalCost": "infinite"
			},
			"external": {
				"CLAIM_TYPEHASH()": "393",
				"DEFAULT_ADMIN_ROLE()": "397",
				"GOVERNOR_ROLE()": "458",
				"PAUSER_ROLE()": "458",
				"bindToToken(address,uint256)": "infinite",
				"bondedStake(uint256,uint256)": "infinite",
				"bonds(address)": "infinite",
				"claimKYCRewards(uint256)": "infinite",
				"claimMerkleReward(uint256,bytes32[])": "infinite",
				"claimRewardsPrivate(uint256)": "infinite",
				"claimRewardsWithSig(uint256,uint256,bytes)": "infinite",
				"claimVestedRewards()": "infinite",
				"claimWithZKProof(uint256,bytes)": "infinite",
				"currentEpoch()": "2537",
				"defaultVestingEpochs()": "2515",
				"eip712Domain()": "infinite",
				"epochDuration()": "2516",
				"erc6551Registry()": "infinite",
				"getRoleAdmin(bytes32)": "infinite",
				"grantRole(bytes32,address)": "infinite",
				"hasRole(bytes32,address)": "3211",
				"identityRegistry()": "infinite",
				"lastEpochReset()": "2559",
				"lzEndpoint()": "infinite",
				"lzReceive(uint16,bytes,uint64,bytes)": "infinite",
				"maxGasRebate()": "2492",
				"merkleClaimed(address)": "2924",
				"merkleRoot()": "2538",
				"minVolumeThreshold()": "2536",
				"mirrorState(uint16)": "infinite",
				"multicall(bytes[])": "infinite",
				"nonces(address)": "2869",
				"onTransferReceived(address,address,uint256,bytes)": "infinite",
				"pause()": "infinite",
				"paused()": "2563",
				"pendingUnstakes(address)": "2869",
				"permitToken()": "infinite",
				"rebateRate()": "2536",
				"renounceRole(bytes32,address)": "infinite",
				"requestUnstake(uint256)": "infinite",
				"revokeRole(bytes32,address)": "infinite",
				"rewardRatePerVolume()": "2537",
				"rewardStreams(address)": "infinite",
				"setMerkleRoot(bytes32)": "infinite",
				"slashBond(address)": "infinite",
				"stakeWithPermit(uint256,uint256,uint8,bytes32,bytes32)": "infinite",
				"supportsInterface(bytes4)": "809",
				"toggleAutoCompound(bool)": "infinite",
				"token()": "infinite",
				"totalDistributed()": "2558",
				"unpause()": "infinite",
				"unstakeCooldown()": "2514",
				"unstakeUnlockTime(address)": "2892",
				"updateRewardRate(uint256)": "25118",
				"users(address)": "infinite",
				"vault()": "infinite",
				"withdrawBond()": "infinite",
				"withdrawUnstaked()": "infinite",
				"zkVerifier()": "infinite"
			},
			"internal": {
				"_addToVestingStream(address,uint256)": "infinite",
				"_calculateFeeTier(uint256)": "142",
				"_calculateReward(struct IDXFlowOrderFlow.UserInfo storage pointer)": "infinite",
				"_calculateVestedAmount(struct IDXFlowOrderFlow.RewardStream storage pointer)": "infinite",
				"_distributeReward(address,uint256,bool)": "infinite",
				"_getRewardMultiplier(enum IDXFlowOrderFlow.FeeTier)": "338",
				"_maybeRebate(address,uint256)": "infinite",
				"_processMerkleClaim(uint256,bytes32[] calldata)": "infinite",
				"_processReward(address)": "infinite",
				"_recordVolume(address,uint256)": "infinite",
				"_stake(address,uint256)": "infinite",
				"_verifySignature(uint256,uint256,bytes calldata)": "infinite"
			}
		},
		"methodIdentifiers": {
			"CLAIM_TYPEHASH()": "6b0509b1",
			"DEFAULT_ADMIN_ROLE()": "a217fddf",
			"GOVERNOR_ROLE()": "ccc57490",
			"PAUSER_ROLE()": "e63ab1e9",
			"bindToToken(address,uint256)": "e31f1049",
			"bondedStake(uint256,uint256)": "5345d1a0",
			"bonds(address)": "fe10d774",
			"claimKYCRewards(uint256)": "036ce8b1",
			"claimMerkleReward(uint256,bytes32[])": "6cf1e239",
			"claimRewardsPrivate(uint256)": "08f7a617",
			"claimRewardsWithSig(uint256,uint256,bytes)": "cde6d214",
			"claimVestedRewards()": "adb50861",
			"claimWithZKProof(uint256,bytes)": "99f34c46",
			"currentEpoch()": "76671808",
			"defaultVestingEpochs()": "a344c499",
			"eip712Domain()": "84b0196e",
			"epochDuration()": "4ff0876a",
			"erc6551Registry()": "056d5afe",
			"getRoleAdmin(bytes32)": "248a9ca3",
			"grantRole(bytes32,address)": "2f2ff15d",
			"hasRole(bytes32,address)": "91d14854",
			"identityRegistry()": "134e18f4",
			"lastEpochReset()": "3dba6d63",
			"lzEndpoint()": "b353aaa7",
			"lzReceive(uint16,bytes,uint64,bytes)": "001d3567",
			"maxGasRebate()": "e79c542a",
			"merkleClaimed(address)": "05b0e4ae",
			"merkleRoot()": "2eb4a7ab",
			"minVolumeThreshold()": "8209ce30",
			"mirrorState(uint16)": "55c6065d",
			"multicall(bytes[])": "ac9650d8",
			"nonces(address)": "7ecebe00",
			"onTransferReceived(address,address,uint256,bytes)": "88a7ca5c",
			"pause()": "8456cb59",
			"paused()": "5c975abb",
			"pendingUnstakes(address)": "d6b6b23f",
			"permitToken()": "898700af",
			"rebateRate()": "b681a1e7",
			"renounceRole(bytes32,address)": "36568abe",
			"requestUnstake(uint256)": "23095721",
			"revokeRole(bytes32,address)": "d547741f",
			"rewardRatePerVolume()": "d699b9d9",
			"rewardStreams(address)": "f5492e2f",
			"setMerkleRoot(bytes32)": "7cb64759",
			"slashBond(address)": "652d9af1",
			"stakeWithPermit(uint256,uint256,uint8,bytes32,bytes32)": "ecd9ba82",
			"supportsInterface(bytes4)": "01ffc9a7",
			"toggleAutoCompound(bool)": "e8d40d86",
			"token()": "fc0c546a",
			"totalDistributed()": "efca2eed",
			"unpause()": "3f4ba83a",
			"unstakeCooldown()": "7eefd5ae",
			"unstakeUnlockTime(address)": "3170a7fb",
			"updateRewardRate(uint256)": "9ef3a261",
			"users(address)": "a87430ba",
			"vault()": "fbfa77cf",
			"withdrawBond()": "66eb9cec",
			"withdrawUnstaked()": "847fdd12",
			"zkVerifier()": "d6df096d"
		}
	},
	"abi": [
		{
			"inputs": [
				{
					"components": [
						{
							"internalType": "address",
							"name": "tokenAddress",
							"type": "address"
						},
						{
							"internalType": "contract IZKVerifier",
							"name": "zkVerifier",
							"type": "address"
						},
						{
							"internalType": "contract IIdentityRegistry",
							"name": "identityRegistry",
							"type": "address"
						},
						{
							"internalType": "contract IERC6551Registry",
							"name": "erc6551Registry",
							"type": "address"
						},
						{
							"internalType": "contract ILayerZeroEndpoint",
							"name": "lzEndpoint",
							"type": "address"
						},
						{
							"internalType": "uint256",
							"name": "rewardRatePerVolume",
							"type": "uint256"
						},
						{
							"internalType": "uint256",
							"name": "epochDuration",
							"type": "uint256"
						},
						{
							"internalType": "uint256",
							"name": "minVolumeThreshold",
							"type": "uint256"
						}
					],
					"internalType": "struct IDXFlowOrderFlow.ConstructorParams",
					"name": "params1",
					"type": "tuple"
				},
				{
					"components": [
						{
							"internalType": "uint256",
							"name": "unstakeCooldown",
							"type": "uint256"
						},
						{
							"internalType": "uint256",
							"name": "defaultVestingEpochs",
							"type": "uint256"
						},
						{
							"internalType": "uint256",
							"name": "rebateRate",
							"type": "uint256"
						},
						{
							"internalType": "uint256",
							"name": "maxGasRebate",
							"type": "uint256"
						}
					],
					"internalType": "struct IDXFlowOrderFlow.ConstructorParams2",
					"name": "params2",
					"type": "tuple"
				}
			],
			"stateMutability": "nonpayable",
			"type": "constructor"
		},
		{
			"inputs": [],
			"name": "AccessControlBadConfirmation",
			"type": "error"
		},
		{
			"inputs": [
				{
					"internalType": "address",
					"name": "account",
					"type": "address"
				},
				{
					"internalType": "bytes32",
					"name": "neededRole",
					"type": "bytes32"
				}
			],
			"name": "AccessControlUnauthorizedAccount",
			"type": "error"
		},
		{
			"inputs": [],
			"name": "ECDSAInvalidSignature",
			"type": "error"
		},
		{
			"inputs": [
				{
					"internalType": "uint256",
					"name": "length",
					"type": "uint256"
				}
			],
			"name": "ECDSAInvalidSignatureLength",
			"type": "error"
		},
		{
			"inputs": [
				{
					"internalType": "bytes32",
					"name": "s",
					"type": "bytes32"
				}
			],
			"name": "ECDSAInvalidSignatureS",
			"type": "error"
		},
		{
			"inputs": [],
			"name": "InvalidShortString",
			"type": "error"
		},
		{
			"inputs": [
				{
					"internalType": "address",
					"name": "token",
					"type": "address"
				}
			],
			"name": "SafeERC20FailedOperation",
			"type": "error"
		},
		{
			"inputs": [
				{
					"internalType": "string",
					"name": "str",
					"type": "string"
				}
			],
			"name": "StringTooLong",
			"type": "error"
		},
		{
			"anonymous": false,
			"inputs": [
				{
					"indexed": true,
					"internalType": "address",
					"name": "user",
					"type": "address"
				},
				{
					"indexed": false,
					"internalType": "bool",
					"name": "enabled",
					"type": "bool"
				}
			],
			"name": "AutoCompoundToggled",
			"type": "event"
		},
		{
			"anonymous": false,
			"inputs": [],
			"name": "EIP712DomainChanged",
			"type": "event"
		},
		{
			"anonymous": false,
			"inputs": [
				{
					"indexed": true,
					"internalType": "address",
					"name": "user",
					"type": "address"
				},
				{
					"indexed": false,
					"internalType": "uint256",
					"name": "rebate",
					"type": "uint256"
				},
				{
					"indexed": false,
					"internalType": "uint256",
					"name": "gasUsed",
					"type": "uint256"
				}
			],
			"name": "GasRebate",
			"type": "event"
		},
		{
			"anonymous": false,
			"inputs": [
				{
					"indexed": false,
					"internalType": "address",
					"name": "account",
					"type": "address"
				}
			],
			"name": "Paused",
			"type": "event"
		},
		{
			"anonymous": false,
			"inputs": [
				{
					"indexed": true,
					"internalType": "address",
					"name": "user",
					"type": "address"
				},
				{
					"indexed": false,
					"internalType": "uint256",
					"name": "amount",
					"type": "uint256"
				}
			],
			"name": "RewardsClaimed",
			"type": "event"
		},
		{
			"anonymous": false,
			"inputs": [
				{
					"indexed": true,
					"internalType": "address",
					"name": "user",
					"type": "address"
				},
				{
					"indexed": false,
					"internalType": "uint256",
					"name": "amount",
					"type": "uint256"
				},
				{
					"indexed": false,
					"internalType": "uint256",
					"name": "startEpoch",
					"type": "uint256"
				},
				{
					"indexed": false,
					"internalType": "uint256",
					"name": "vestingEpochs",
					"type": "uint256"
				}
			],
			"name": "RewardsVested",
			"type": "event"
		},
		{
			"anonymous": false,
			"inputs": [
				{
					"indexed": true,
					"internalType": "bytes32",
					"name": "role",
					"type": "bytes32"
				},
				{
					"indexed": true,
					"internalType": "bytes32",
					"name": "previousAdminRole",
					"type": "bytes32"
				},
				{
					"indexed": true,
					"internalType": "bytes32",
					"name": "newAdminRole",
					"type": "bytes32"
				}
			],
			"name": "RoleAdminChanged",
			"type": "event"
		},
		{
			"anonymous": false,
			"inputs": [
				{
					"indexed": true,
					"internalType": "bytes32",
					"name": "role",
					"type": "bytes32"
				},
				{
					"indexed": true,
					"internalType": "address",
					"name": "account",
					"type": "address"
				},
				{
					"indexed": true,
					"internalType": "address",
					"name": "sender",
					"type": "address"
				}
			],
			"name": "RoleGranted",
			"type": "event"
		},
		{
			"anonymous": false,
			"inputs": [
				{
					"indexed": true,
					"internalType": "bytes32",
					"name": "role",
					"type": "bytes32"
				},
				{
					"indexed": true,
					"internalType": "address",
					"name": "account",
					"type": "address"
				},
				{
					"indexed": true,
					"internalType": "address",
					"name": "sender",
					"type": "address"
				}
			],
			"name": "RoleRevoked",
			"type": "event"
		},
		{
			"anonymous": false,
			"inputs": [
				{
					"indexed": true,
					"internalType": "address",
					"name": "user",
					"type": "address"
				},
				{
					"indexed": false,
					"internalType": "uint256",
					"name": "amount",
					"type": "uint256"
				},
				{
					"indexed": false,
					"internalType": "enum IDXFlowOrderFlow.FeeTier",
					"name": "tier",
					"type": "uint8"
				}
			],
			"name": "StakeUpdated",
			"type": "event"
		},
		{
			"anonymous": false,
			"inputs": [
				{
					"indexed": false,
					"internalType": "address",
					"name": "account",
					"type": "address"
				}
			],
			"name": "Unpaused",
			"type": "event"
		},
		{
			"anonymous": false,
			"inputs": [
				{
					"indexed": true,
					"internalType": "address",
					"name": "user",
					"type": "address"
				},
				{
					"indexed": false,
					"internalType": "uint256",
					"name": "amount",
					"type": "uint256"
				}
			],
			"name": "UnstakeExecuted",
			"type": "event"
		},
		{
			"anonymous": false,
			"inputs": [
				{
					"indexed": true,
					"internalType": "address",
					"name": "user",
					"type": "address"
				},
				{
					"indexed": false,
					"internalType": "uint256",
					"name": "amount",
					"type": "uint256"
				}
			],
			"name": "UnstakeRequested",
			"type": "event"
		},
		{
			"anonymous": false,
			"inputs": [
				{
					"indexed": true,
					"internalType": "address",
					"name": "user",
					"type": "address"
				},
				{
					"indexed": false,
					"internalType": "uint256",
					"name": "amount",
					"type": "uint256"
				}
			],
			"name": "VestedRewardsClaimed",
			"type": "event"
		},
		{
			"anonymous": false,
			"inputs": [
				{
					"indexed": true,
					"internalType": "address",
					"name": "user",
					"type": "address"
				},
				{
					"indexed": false,
					"internalType": "uint256",
					"name": "volume",
					"type": "uint256"
				}
			],
			"name": "VolumeRecorded",
			"type": "event"
		},
		{
			"inputs": [],
			"name": "CLAIM_TYPEHASH",
			"outputs": [
				{
					"internalType": "bytes32",
					"name": "",
					"type": "bytes32"
				}
			],
			"stateMutability": "view",
			"type": "function"
		},
		{
			"inputs": [],
			"name": "DEFAULT_ADMIN_ROLE",
			"outputs": [
				{
					"internalType": "bytes32",
					"name": "",
					"type": "bytes32"
				}
			],
			"stateMutability": "view",
			"type": "function"
		},
		{
			"inputs": [],
			"name": "GOVERNOR_ROLE",
			"outputs": [
				{
					"internalType": "bytes32",
					"name": "",
					"type": "bytes32"
				}
			],
			"stateMutability": "view",
			"type": "function"
		},
		{
			"inputs": [],
			"name": "PAUSER_ROLE",
			"outputs": [
				{
					"internalType": "bytes32",
					"name": "",
					"type": "bytes32"
				}
			],
			"stateMutability": "view",
			"type": "function"
		},
		{
			"inputs": [
				{
					"internalType": "address",
					"name": "nftContract",
					"type": "address"
				},
				{
					"internalType": "uint256",
					"name": "tokenId",
					"type": "uint256"
				}
			],
			"name": "bindToToken",
			"outputs": [],
			"stateMutability": "nonpayable",
			"type": "function"
		},
		{
			"inputs": [
				{
					"internalType": "uint256",
					"name": "amount",
					"type": "uint256"
				},
				{
					"internalType": "uint256",
					"name": "lockDuration",
					"type": "uint256"
				}
			],
			"name": "bondedStake",
			"outputs": [],
			"stateMutability": "nonpayable",
			"type": "function"
		},
		{
			"inputs": [
				{
					"internalType": "address",
					"name": "",
					"type": "address"
				}
			],
			"name": "bonds",
			"outputs": [
				{
					"internalType": "uint256",
					"name": "amount",
					"type": "uint256"
				},
				{
					"internalType": "uint256",
					"name": "unlockTime",
					"type": "uint256"
				}
			],
			"stateMutability": "view",
			"type": "function"
		},
		{
			"inputs": [
				{
					"internalType": "uint256",
					"name": "volume",
					"type": "uint256"
				}
			],
			"name": "claimKYCRewards",
			"outputs": [],
			"stateMutability": "nonpayable",
			"type": "function"
		},
		{
			"inputs": [
				{
					"internalType": "uint256",
					"name": "rewardAmount",
					"type": "uint256"
				},
				{
					"internalType": "bytes32[]",
					"name": "proof",
					"type": "bytes32[]"
				}
			],
			"name": "claimMerkleReward",
			"outputs": [],
			"stateMutability": "nonpayable",
			"type": "function"
		},
		{
			"inputs": [
				{
					"internalType": "uint256",
					"name": "volume",
					"type": "uint256"
				}
			],
			"name": "claimRewardsPrivate",
			"outputs": [],
			"stateMutability": "nonpayable",
			"type": "function"
		},
		{
			"inputs": [
				{
					"internalType": "uint256",
					"name": "epoch",
					"type": "uint256"
				},
				{
					"internalType": "uint256",
					"name": "volume",
					"type": "uint256"
				},
				{
					"internalType": "bytes",
					"name": "signature",
					"type": "bytes"
				}
			],
			"name": "claimRewardsWithSig",
			"outputs": [],
			"stateMutability": "nonpayable",
			"type": "function"
		},
		{
			"inputs": [],
			"name": "claimVestedRewards",
			"outputs": [],
			"stateMutability": "nonpayable",
			"type": "function"
		},
		{
			"inputs": [
				{
					"internalType": "uint256",
					"name": "volume",
					"type": "uint256"
				},
				{
					"internalType": "bytes",
					"name": "proof",
					"type": "bytes"
				}
			],
			"name": "claimWithZKProof",
			"outputs": [],
			"stateMutability": "nonpayable",
			"type": "function"
		},
		{
			"inputs": [],
			"name": "currentEpoch",
			"outputs": [
				{
					"internalType": "uint256",
					"name": "",
					"type": "uint256"
				}
			],
			"stateMutability": "view",
			"type": "function"
		},
		{
			"inputs": [],
			"name": "defaultVestingEpochs",
			"outputs": [
				{
					"internalType": "uint256",
					"name": "",
					"type": "uint256"
				}
			],
			"stateMutability": "view",
			"type": "function"
		},
		{
			"inputs": [],
			"name": "eip712Domain",
			"outputs": [
				{
					"internalType": "bytes1",
					"name": "fields",
					"type": "bytes1"
				},
				{
					"internalType": "string",
					"name": "name",
					"type": "string"
				},
				{
					"internalType": "string",
					"name": "version",
					"type": "string"
				},
				{
					"internalType": "uint256",
					"name": "chainId",
					"type": "uint256"
				},
				{
					"internalType": "address",
					"name": "verifyingContract",
					"type": "address"
				},
				{
					"internalType": "bytes32",
					"name": "salt",
					"type": "bytes32"
				},
				{
					"internalType": "uint256[]",
					"name": "extensions",
					"type": "uint256[]"
				}
			],
			"stateMutability": "view",
			"type": "function"
		},
		{
			"inputs": [],
			"name": "epochDuration",
			"outputs": [
				{
					"internalType": "uint256",
					"name": "",
					"type": "uint256"
				}
			],
			"stateMutability": "view",
			"type": "function"
		},
		{
			"inputs": [],
			"name": "erc6551Registry",
			"outputs": [
				{
					"internalType": "contract IERC6551Registry",
					"name": "",
					"type": "address"
				}
			],
			"stateMutability": "view",
			"type": "function"
		},
		{
			"inputs": [
				{
					"internalType": "bytes32",
					"name": "role",
					"type": "bytes32"
				}
			],
			"name": "getRoleAdmin",
			"outputs": [
				{
					"internalType": "bytes32",
					"name": "",
					"type": "bytes32"
				}
			],
			"stateMutability": "view",
			"type": "function"
		},
		{
			"inputs": [
				{
					"internalType": "bytes32",
					"name": "role",
					"type": "bytes32"
				},
				{
					"internalType": "address",
					"name": "account",
					"type": "address"
				}
			],
			"name": "grantRole",
			"outputs": [],
			"stateMutability": "nonpayable",
			"type": "function"
		},
		{
			"inputs": [
				{
					"internalType": "bytes32",
					"name": "role",
					"type": "bytes32"
				},
				{
					"internalType": "address",
					"name": "account",
					"type": "address"
				}
			],
			"name": "hasRole",
			"outputs": [
				{
					"internalType": "bool",
					"name": "",
					"type": "bool"
				}
			],
			"stateMutability": "view",
			"type": "function"
		},
		{
			"inputs": [],
			"name": "identityRegistry",
			"outputs": [
				{
					"internalType": "contract IIdentityRegistry",
					"name": "",
					"type": "address"
				}
			],
			"stateMutability": "view",
			"type": "function"
		},
		{
			"inputs": [],
			"name": "lastEpochReset",
			"outputs": [
				{
					"internalType": "uint256",
					"name": "",
					"type": "uint256"
				}
			],
			"stateMutability": "view",
			"type": "function"
		},
		{
			"inputs": [],
			"name": "lzEndpoint",
			"outputs": [
				{
					"internalType": "contract ILayerZeroEndpoint",
					"name": "",
					"type": "address"
				}
			],
			"stateMutability": "view",
			"type": "function"
		},
		{
			"inputs": [
				{
					"internalType": "uint16",
					"name": "",
					"type": "uint16"
				},
				{
					"internalType": "bytes",
					"name": "",
					"type": "bytes"
				},
				{
					"internalType": "uint64",
					"name": "",
					"type": "uint64"
				},
				{
					"internalType": "bytes",
					"name": "payload",
					"type": "bytes"
				}
			],
			"name": "lzReceive",
			"outputs": [],
			"stateMutability": "nonpayable",
			"type": "function"
		},
		{
			"inputs": [],
			"name": "maxGasRebate",
			"outputs": [
				{
					"internalType": "uint256",
					"name": "",
					"type": "uint256"
				}
			],
			"stateMutability": "view",
			"type": "function"
		},
		{
			"inputs": [
				{
					"internalType": "address",
					"name": "",
					"type": "address"
				}
			],
			"name": "merkleClaimed",
			"outputs": [
				{
					"internalType": "bool",
					"name": "",
					"type": "bool"
				}
			],
			"stateMutability": "view",
			"type": "function"
		},
		{
			"inputs": [],
			"name": "merkleRoot",
			"outputs": [
				{
					"internalType": "bytes32",
					"name": "",
					"type": "bytes32"
				}
			],
			"stateMutability": "view",
			"type": "function"
		},
		{
			"inputs": [],
			"name": "minVolumeThreshold",
			"outputs": [
				{
					"internalType": "uint256",
					"name": "",
					"type": "uint256"
				}
			],
			"stateMutability": "view",
			"type": "function"
		},
		{
			"inputs": [
				{
					"internalType": "uint16",
					"name": "dstChainId",
					"type": "uint16"
				}
			],
			"name": "mirrorState",
			"outputs": [],
			"stateMutability": "payable",
			"type": "function"
		},
		{
			"inputs": [
				{
					"internalType": "bytes[]",
					"name": "data",
					"type": "bytes[]"
				}
			],
			"name": "multicall",
			"outputs": [
				{
					"internalType": "bytes[]",
					"name": "results",
					"type": "bytes[]"
				}
			],
			"stateMutability": "nonpayable",
			"type": "function"
		},
		{
			"inputs": [
				{
					"internalType": "address",
					"name": "",
					"type": "address"
				}
			],
			"name": "nonces",
			"outputs": [
				{
					"internalType": "uint256",
					"name": "",
					"type": "uint256"
				}
			],
			"stateMutability": "view",
			"type": "function"
		},
		{
			"inputs": [
				{
					"internalType": "address",
					"name": "",
					"type": "address"
				},
				{
					"internalType": "address",
					"name": "from",
					"type": "address"
				},
				{
					"internalType": "uint256",
					"name": "amount",
					"type": "uint256"
				},
				{
					"internalType": "bytes",
					"name": "",
					"type": "bytes"
				}
			],
			"name": "onTransferReceived",
			"outputs": [
				{
					"internalType": "bytes4",
					"name": "",
					"type": "bytes4"
				}
			],
			"stateMutability": "nonpayable",
			"type": "function"
		},
		{
			"inputs": [],
			"name": "pause",
			"outputs": [],
			"stateMutability": "nonpayable",
			"type": "function"
		},
		{
			"inputs": [],
			"name": "paused",
			"outputs": [
				{
					"internalType": "bool",
					"name": "",
					"type": "bool"
				}
			],
			"stateMutability": "view",
			"type": "function"
		},
		{
			"inputs": [
				{
					"internalType": "address",
					"name": "",
					"type": "address"
				}
			],
			"name": "pendingUnstakes",
			"outputs": [
				{
					"internalType": "uint256",
					"name": "",
					"type": "uint256"
				}
			],
			"stateMutability": "view",
			"type": "function"
		},
		{
			"inputs": [],
			"name": "permitToken",
			"outputs": [
				{
					"internalType": "contract IERC20Permit",
					"name": "",
					"type": "address"
				}
			],
			"stateMutability": "view",
			"type": "function"
		},
		{
			"inputs": [],
			"name": "rebateRate",
			"outputs": [
				{
					"internalType": "uint256",
					"name": "",
					"type": "uint256"
				}
			],
			"stateMutability": "view",
			"type": "function"
		},
		{
			"inputs": [
				{
					"internalType": "bytes32",
					"name": "role",
					"type": "bytes32"
				},
				{
					"internalType": "address",
					"name": "callerConfirmation",
					"type": "address"
				}
			],
			"name": "renounceRole",
			"outputs": [],
			"stateMutability": "nonpayable",
			"type": "function"
		},
		{
			"inputs": [
				{
					"internalType": "uint256",
					"name": "amount",
					"type": "uint256"
				}
			],
			"name": "requestUnstake",
			"outputs": [],
			"stateMutability": "nonpayable",
			"type": "function"
		},
		{
			"inputs": [
				{
					"internalType": "bytes32",
					"name": "role",
					"type": "bytes32"
				},
				{
					"internalType": "address",
					"name": "account",
					"type": "address"
				}
			],
			"name": "revokeRole",
			"outputs": [],
			"stateMutability": "nonpayable",
			"type": "function"
		},
		{
			"inputs": [],
			"name": "rewardRatePerVolume",
			"outputs": [
				{
					"internalType": "uint256",
					"name": "",
					"type": "uint256"
				}
			],
			"stateMutability": "view",
			"type": "function"
		},
		{
			"inputs": [
				{
					"internalType": "address",
					"name": "",
					"type": "address"
				}
			],
			"name": "rewardStreams",
			"outputs": [
				{
					"internalType": "uint256",
					"name": "total",
					"type": "uint256"
				},
				{
					"internalType": "uint256",
					"name": "claimed",
					"type": "uint256"
				},
				{
					"internalType": "uint256",
					"name": "startEpoch",
					"type": "uint256"
				},
				{
					"internalType": "uint256",
					"name": "vestingEpochs",
					"type": "uint256"
				}
			],
			"stateMutability": "view",
			"type": "function"
		},
		{
			"inputs": [
				{
					"internalType": "bytes32",
					"name": "_root",
					"type": "bytes32"
				}
			],
			"name": "setMerkleRoot",
			"outputs": [],
			"stateMutability": "nonpayable",
			"type": "function"
		},
		{
			"inputs": [
				{
					"internalType": "address",
					"name": "user",
					"type": "address"
				}
			],
			"name": "slashBond",
			"outputs": [],
			"stateMutability": "nonpayable",
			"type": "function"
		},
		{
			"inputs": [
				{
					"internalType": "uint256",
					"name": "amount",
					"type": "uint256"
				},
				{
					"internalType": "uint256",
					"name": "deadline",
					"type": "uint256"
				},
				{
					"internalType": "uint8",
					"name": "v",
					"type": "uint8"
				},
				{
					"internalType": "bytes32",
					"name": "r",
					"type": "bytes32"
				},
				{
					"internalType": "bytes32",
					"name": "s",
					"type": "bytes32"
				}
			],
			"name": "stakeWithPermit",
			"outputs": [],
			"stateMutability": "nonpayable",
			"type": "function"
		},
		{
			"inputs": [
				{
					"internalType": "bytes4",
					"name": "interfaceId",
					"type": "bytes4"
				}
			],
			"name": "supportsInterface",
			"outputs": [
				{
					"internalType": "bool",
					"name": "",
					"type": "bool"
				}
			],
			"stateMutability": "view",
			"type": "function"
		},
		{
			"inputs": [
				{
					"internalType": "bool",
					"name": "enabled",
					"type": "bool"
				}
			],
			"name": "toggleAutoCompound",
			"outputs": [],
			"stateMutability": "nonpayable",
			"type": "function"
		},
		{
			"inputs": [],
			"name": "token",
			"outputs": [
				{
					"internalType": "contract IERC20",
					"name": "",
					"type": "address"
				}
			],
			"stateMutability": "view",
			"type": "function"
		},
		{
			"inputs": [],
			"name": "totalDistributed",
			"outputs": [
				{
					"internalType": "uint256",
					"name": "",
					"type": "uint256"
				}
			],
			"stateMutability": "view",
			"type": "function"
		},
		{
			"inputs": [],
			"name": "unpause",
			"outputs": [],
			"stateMutability": "nonpayable",
			"type": "function"
		},
		{
			"inputs": [],
			"name": "unstakeCooldown",
			"outputs": [
				{
					"internalType": "uint256",
					"name": "",
					"type": "uint256"
				}
			],
			"stateMutability": "view",
			"type": "function"
		},
		{
			"inputs": [
				{
					"internalType": "address",
					"name": "",
					"type": "address"
				}
			],
			"name": "unstakeUnlockTime",
			"outputs": [
				{
					"internalType": "uint256",
					"name": "",
					"type": "uint256"
				}
			],
			"stateMutability": "view",
			"type": "function"
		},
		{
			"inputs": [
				{
					"internalType": "uint256",
					"name": "newRate",
					"type": "uint256"
				}
			],
			"name": "updateRewardRate",
			"outputs": [],
			"stateMutability": "nonpayable",
			"type": "function"
		},
		{
			"inputs": [
				{
					"internalType": "address",
					"name": "",
					"type": "address"
				}
			],
			"name": "users",
			"outputs": [
				{
					"internalType": "uint256",
					"name": "totalVolume",
					"type": "uint256"
				},
				{
					"internalType": "uint256",
					"name": "epochVolume",
					"type": "uint256"
				},
				{
					"internalType": "uint256",
					"name": "stakedAmount",
					"type": "uint256"
				},
				{
					"internalType": "enum IDXFlowOrderFlow.FeeTier",
					"name": "tier",
					"type": "uint8"
				},
				{
					"internalType": "uint256",
					"name": "lastClaimEpoch",
					"type": "uint256"
				},
				{
					"internalType": "address",
					"name": "boundAccount",
					"type": "address"
				},
				{
					"internalType": "bool",
					"name": "autoCompound",
					"type": "bool"
				}
			],
			"stateMutability": "view",
			"type": "function"
		},
		{
			"inputs": [],
			"name": "vault",
			"outputs": [
				{
					"internalType": "contract StakingVault",
					"name": "",
					"type": "address"
				}
			],
			"stateMutability": "view",
			"type": "function"
		},
		{
			"inputs": [],
			"name": "withdrawBond",
			"outputs": [],
			"stateMutability": "nonpayable",
			"type": "function"
		},
		{
			"inputs": [],
			"name": "withdrawUnstaked",
			"outputs": [],
			"stateMutability": "nonpayable",
			"type": "function"
		},
		{
			"inputs": [],
			"name": "zkVerifier",
			"outputs": [
				{
					"internalType": "contract IZKVerifier",
					"name": "",
					"type": "address"
				}
			],
			"stateMutability": "view",
			"type": "function"
		}
	]
}